{"contracts/BettingSystem.sol":{"BettingSystem":{"abi":[{"inputs":[{"internalType":"contract MyERC20","name":"_myERC20","type":"address"}],"stateMutability":"nonpayable","type":"constructor"},{"anonymous":false,"inputs":[{"indexed":true,"internalType":"uint256","name":"projectId","type":"uint256"},{"indexed":true,"internalType":"address","name":"user","type":"address"},{"indexed":false,"internalType":"uint256","name":"optionId","type":"uint256"},{"indexed":false,"internalType":"uint256","name":"amount","type":"uint256"},{"indexed":false,"internalType":"uint256","name":"ticketId","type":"uint256"}],"name":"BetPlaced","type":"event"},{"anonymous":false,"inputs":[{"indexed":true,"internalType":"uint256","name":"projectId","type":"uint256"},{"indexed":true,"internalType":"address","name":"winner","type":"address"},{"indexed":false,"internalType":"uint256","name":"amount","type":"uint256"}],"name":"PrizeDistributed","type":"event"},{"anonymous":false,"inputs":[{"indexed":true,"internalType":"uint256","name":"projectId","type":"uint256"},{"indexed":false,"internalType":"string","name":"title","type":"string"},{"indexed":false,"internalType":"uint256","name":"totalPool","type":"uint256"},{"indexed":false,"internalType":"uint256","name":"endTime","type":"uint256"}],"name":"ProjectCreated","type":"event"},{"anonymous":false,"inputs":[{"indexed":true,"internalType":"uint256","name":"projectId","type":"uint256"},{"indexed":false,"internalType":"uint256","name":"winnerOptionId","type":"uint256"}],"name":"ProjectSettled","type":"event"},{"inputs":[{"internalType":"uint256","name":"","type":"uint256"}],"name":"bettingProjects","outputs":[{"internalType":"uint256","name":"id","type":"uint256"},{"internalType":"string","name":"title","type":"string"},{"internalType":"uint256","name":"totalPool","type":"uint256"},{"internalType":"uint256","name":"endTime","type":"uint256"},{"internalType":"uint256","name":"winnerOptionId","type":"uint256"},{"internalType":"bool","name":"isActive","type":"bool"},{"internalType":"uint256","name":"totalBetAmount","type":"uint256"}],"stateMutability":"view","type":"function"},{"inputs":[{"internalType":"string","name":"title","type":"string"},{"internalType":"string[]","name":"options","type":"string[]"},{"internalType":"uint256","name":"totalPool","type":"uint256"},{"internalType":"uint256","name":"duration","type":"uint256"}],"name":"createProject","outputs":[],"stateMutability":"nonpayable","type":"function"},{"inputs":[],"name":"getLotteryTicketAddress","outputs":[{"internalType":"address","name":"","type":"address"}],"stateMutability":"view","type":"function"},{"inputs":[{"internalType":"uint256","name":"projectId","type":"uint256"},{"internalType":"uint256","name":"optionId","type":"uint256"}],"name":"getOptionBetAmount","outputs":[{"internalType":"uint256","name":"","type":"uint256"}],"stateMutability":"view","type":"function"},{"inputs":[{"internalType":"uint256","name":"projectId","type":"uint256"}],"name":"getProject","outputs":[{"internalType":"uint256","name":"id","type":"uint256"},{"internalType":"string","name":"title","type":"string"},{"internalType":"string[]","name":"options","type":"string[]"},{"internalType":"uint256","name":"totalPool","type":"uint256"},{"internalType":"uint256","name":"endTime","type":"uint256"},{"internalType":"uint256","name":"winnerOptionId","type":"uint256"},{"internalType":"bool","name":"isActive","type":"bool"},{"internalType":"uint256","name":"totalBetAmount","type":"uint256"}],"stateMutability":"view","type":"function"},{"inputs":[],"name":"getProjectCount","outputs":[{"internalType":"uint256","name":"","type":"uint256"}],"stateMutability":"view","type":"function"},{"inputs":[{"internalType":"address","name":"user","type":"address"},{"internalType":"uint256","name":"projectId","type":"uint256"}],"name":"getUserBetsInProject","outputs":[{"components":[{"internalType":"uint256","name":"projectId","type":"uint256"},{"internalType":"uint256","name":"optionId","type":"uint256"},{"internalType":"uint256","name":"amount","type":"uint256"},{"internalType":"uint256","name":"ticketId","type":"uint256"}],"internalType":"struct BettingSystem.BetRecord[]","name":"","type":"tuple[]"}],"stateMutability":"view","type":"function"},{"inputs":[],"name":"lotteryTicket","outputs":[{"internalType":"contract LotteryTicket","name":"","type":"address"}],"stateMutability":"view","type":"function"},{"inputs":[],"name":"manager","outputs":[{"internalType":"address","name":"","type":"address"}],"stateMutability":"view","type":"function"},{"inputs":[],"name":"myERC20","outputs":[{"internalType":"contract MyERC20","name":"","type":"address"}],"stateMutability":"view","type":"function"},{"inputs":[],"name":"nextProjectId","outputs":[{"internalType":"uint256","name":"","type":"uint256"}],"stateMutability":"view","type":"function"},{"inputs":[{"internalType":"uint256","name":"projectId","type":"uint256"},{"internalType":"uint256","name":"optionId","type":"uint256"},{"internalType":"uint256","name":"amount","type":"uint256"}],"name":"placeBet","outputs":[],"stateMutability":"nonpayable","type":"function"},{"inputs":[{"internalType":"uint256","name":"","type":"uint256"},{"internalType":"uint256","name":"","type":"uint256"}],"name":"projectOptionBetAmounts","outputs":[{"internalType":"uint256","name":"","type":"uint256"}],"stateMutability":"view","type":"function"},{"inputs":[{"internalType":"uint256","name":"","type":"uint256"},{"internalType":"uint256","name":"","type":"uint256"},{"internalType":"uint256","name":"","type":"uint256"}],"name":"projectOptionParticipants","outputs":[{"internalType":"address","name":"","type":"address"}],"stateMutability":"view","type":"function"},{"inputs":[{"internalType":"uint256","name":"projectId","type":"uint256"},{"internalType":"uint256","name":"winnerOptionId","type":"uint256"}],"name":"settleProject","outputs":[],"stateMutability":"nonpayable","type":"function"},{"inputs":[{"internalType":"address","name":"","type":"address"},{"internalType":"uint256","name":"","type":"uint256"}],"name":"userBets","outputs":[{"internalType":"uint256","name":"projectId","type":"uint256"},{"internalType":"uint256","name":"optionId","type":"uint256"},{"internalType":"uint256","name":"amount","type":"uint256"},{"internalType":"uint256","name":"ticketId","type":"uint256"}],"stateMutability":"view","type":"function"}],"evm":{"bytecode":{"linkReferences":{},"object":"608060405260016004553480156200001657600080fd5b50604051620078423803806200784283398181016040528101906200003c9190620001c9565b806000806101000a81548173ffffffffffffffffffffffffffffffffffffffff021916908373ffffffffffffffffffffffffffffffffffffffff160217905550806040516200008b906200013d565b62000097919062000266565b604051809103906000f080158015620000b4573d6000803e3d6000fd5b50600160006101000a81548173ffffffffffffffffffffffffffffffffffffffff021916908373ffffffffffffffffffffffffffffffffffffffff16021790555033600260006101000a81548173ffffffffffffffffffffffffffffffffffffffff021916908373ffffffffffffffffffffffffffffffffffffffff1602179055505062000283565b6145d3806200326f83390190565b600080fd5b600073ffffffffffffffffffffffffffffffffffffffff82169050919050565b60006200017d8262000150565b9050919050565b6000620001918262000170565b9050919050565b620001a38162000184565b8114620001af57600080fd5b50565b600081519050620001c38162000198565b92915050565b600060208284031215620001e257620001e16200014b565b5b6000620001f284828501620001b2565b91505092915050565b6000819050919050565b600062000226620002206200021a8462000150565b620001fb565b62000150565b9050919050565b60006200023a8262000205565b9050919050565b60006200024e826200022d565b9050919050565b620002608162000241565b82525050565b60006020820190506200027d600083018462000255565b92915050565b612fdc80620002936000396000f3fe608060405234801561001057600080fd5b50600436106101005760003560e01c80637bf3ee1c11610097578063e71c969711610066578063e71c9697146102de578063e935b7b1146102fa578063f0f3f2c814610318578063f206c7aa1461034f57610100565b80637bf3ee1c146102295780638068aa68146102455780639d194fef14610278578063e6a8c7f7146102ae57610100565b8063481c6a75116100d3578063481c6a75146101a15780634e645002146101bf578063552ecb86146101db5780636d3739c41461020b57610100565b80630160512914610105578063231edcd814610123578063353e7bcc146101535780633bcff3b014610183575b600080fd5b61010d61036d565b60405161011a9190611be1565b60405180910390f35b61013d60048036038101906101389190611c72565b610397565b60405161014a9190611dc5565b60405180910390f35b61016d60048036038101906101689190611de7565b6105a4565b60405161017a9190611e36565b60405180910390f35b61018b610625565b6040516101989190611e36565b60405180910390f35b6101a9610632565b6040516101b69190611be1565b60405180910390f35b6101d960048036038101906101d4919061207d565b610658565b005b6101f560048036038101906101f09190611de7565b6108c3565b6040516102029190611e36565b60405180910390f35b6102136108e8565b604051610220919061217b565b60405180910390f35b610243600480360381019061023e9190611de7565b61090c565b005b61025f600480360381019061025a9190611c72565b610f91565b60405161026f9493929190612196565b60405180910390f35b610292600480360381019061028d91906121db565b610fde565b6040516102a597969594939291906122ab565b60405180910390f35b6102c860048036038101906102c39190612321565b6110c5565b6040516102d59190611be1565b60405180910390f35b6102f860048036038101906102f39190612321565b611120565b005b6103026117a6565b60405161030f9190611e36565b60405180910390f35b610332600480360381019061032d91906121db565b6117ac565b604051610346989796959493929190612480565b60405180910390f35b6103576119eb565b604051610364919061252d565b60405180910390f35b6000600160009054906101000a900473ffffffffffffffffffffffffffffffffffffffff16905090565b60606000600760008573ffffffffffffffffffffffffffffffffffffffff1673ffffffffffffffffffffffffffffffffffffffff168152602001908152602001600020805480602002602001604051908101604052809291908181526020016000905b828210156104545783829060005260206000209060040201604051806080016040529081600082015481526020016001820154815260200160028201548152602001600382015481525050815260200190600101906103fa565b5050505090506000805b82518110156104af578483828151811061047b5761047a612548565b5b602002602001015160000151141561049c578180610498906125a6565b9250505b80806104a7906125a6565b91505061045e565b5060008167ffffffffffffffff8111156104cc576104cb611e6c565b5b60405190808252806020026020018201604052801561050557816020015b6104f2611a11565b8152602001906001900390816104ea5790505b5090506000805b8451811015610596578685828151811061052957610528612548565b5b60200260200101516000015114156105835784818151811061054e5761054d612548565b5b602002602001015183838151811061056957610568612548565b5b6020026020010181905250818061057f906125a6565b9250505b808061058e906125a6565b91505061050c565b508194505050505092915050565b6000826000811180156105b8575060045481105b6105f7576040517f08c379a00000000000000000000000000000000000000000000000000000000081526004016105ee9061263b565b60405180910390fd5b6005600085815260200190815260200160002060008481526020019081526020016000205491505092915050565b6000600380549050905090565b600260009054906101000a900473ffffffffffffffffffffffffffffffffffffffff1681565b600260009054906101000a900473ffffffffffffffffffffffffffffffffffffffff1673ffffffffffffffffffffffffffffffffffffffff163373ffffffffffffffffffffffffffffffffffffffff16146106e8576040517f08c379a00000000000000000000000000000000000000000000000000000000081526004016106df906126a7565b60405180910390fd5b60028351101561072d576040517f08c379a000000000000000000000000000000000000000000000000000000000815260040161072490612713565b60405180910390fd5b60008211610770576040517f08c379a0000000000000000000000000000000000000000000000000000000008152600401610767906127a5565b60405180910390fd5b600081116107b3576040517f08c379a00000000000000000000000000000000000000000000000000000000081526004016107aa90612811565b60405180910390fd5b6000600460008154809291906107c8906125a6565b91905055905060006003600181600181540180825580915050039060005260206000209060080201905081816000018190555085816001019080519060200190610813929190611a39565b508481600201908051906020019061082c929190611abf565b5083816003018190555082426108429190612831565b81600401819055506000816005018190555060018160060160006101000a81548160ff02191690831515021790555060008160070181905550817f6ad8e25e78a676033392e940160acc1fa955f929f88d380f5fd2d2f5d9ce9e20878684600401546040516108b393929190612887565b60405180910390a2505050505050565b6005602052816000526040600020602052806000526040600020600091509150505481565b60008054906101000a900473ffffffffffffffffffffffffffffffffffffffff1681565b600260009054906101000a900473ffffffffffffffffffffffffffffffffffffffff1673ffffffffffffffffffffffffffffffffffffffff163373ffffffffffffffffffffffffffffffffffffffff161461099c576040517f08c379a0000000000000000000000000000000000000000000000000000000008152600401610993906126a7565b60405180910390fd5b816000811180156109ae575060045481105b6109ed576040517f08c379a00000000000000000000000000000000000000000000000000000000081526004016109e49061263b565b60405180910390fd5b8260036001826109fd91906128c5565b81548110610a0e57610a0d612548565b5b906000526020600020906008020160060160009054906101000a900460ff16610a6c576040517f08c379a0000000000000000000000000000000000000000000000000000000008152600401610a6390612945565b60405180910390fd5b60006003600186610a7d91906128c5565b81548110610a8e57610a8d612548565b5b906000526020600020906008020190508060040154421015610ae5576040517f08c379a0000000000000000000000000000000000000000000000000000000008152600401610adc906129b1565b60405180910390fd5b80600201805490508410610b2e576040517f08c379a0000000000000000000000000000000000000000000000000000000008152600401610b2590612a1d565b60405180910390fd5b6000816005015414610b75576040517f08c379a0000000000000000000000000000000000000000000000000000000008152600401610b6c90612a89565b60405180910390fd5b83816005018190555060008160060160006101000a81548160ff02191690831515021790555060006005600087815260200190815260200160002060008681526020019081526020016000205490506000600660008881526020019081526020016000206000878152602001908152602001600020805480602002602001604051908101604052809291908181526020018280548015610c6a57602002820191906000526020600020905b8160009054906101000a900473ffffffffffffffffffffffffffffffffffffffff1673ffffffffffffffffffffffffffffffffffffffff1681526020019060010190808311610c20575b50505050509050600082118015610c82575060008151115b15610f5057600083600701548460030154610c9d9190612831565b905060008382610cad9190612ad8565b905060005b8351811015610f4c576000848281518110610cd057610ccf612548565b5b602002602001015190506000600760008373ffffffffffffffffffffffffffffffffffffffff1673ffffffffffffffffffffffffffffffffffffffff168152602001908152602001600020805480602002602001604051908101604052809291908181526020016000905b82821015610d95578382906000526020600020906004020160405180608001604052908160008201548152602001600182015481526020016002820154815260200160038201548152505081526020019060010190610d3b565b50505050905060005b8151811015610f36578c828281518110610dbb57610dba612548565b5b602002602001015160000151148015610df157508b828281518110610de357610de2612548565b5b602002602001015160200151145b15610f2357600085838381518110610e0c57610e0b612548565b5b602002602001015160400151610e229190612b09565b905060008054906101000a900473ffffffffffffffffffffffffffffffffffffffff1673ffffffffffffffffffffffffffffffffffffffff1663a9059cbb85836040518363ffffffff1660e01b8152600401610e7f929190612b63565b602060405180830381600087803b158015610e9957600080fd5b505af1158015610ead573d6000803e3d6000fd5b505050506040513d601f19601f82011682018060405250810190610ed19190612bb8565b508373ffffffffffffffffffffffffffffffffffffffff168e7fdc1d0b6a7cbfa6f3b2d4325bab5a169b265ad0b2b4022fb550364f0dfeeb6a7483604051610f199190611e36565b60405180910390a3505b8080610f2e906125a6565b915050610d9e565b5050508080610f44906125a6565b915050610cb2565b5050505b867fc18a48e1baa059c46b608b2e06c31b31e0136de06600204ba4ea3dd6d427f97287604051610f809190611e36565b60405180910390a250505050505050565b60076020528160005260406000208181548110610fad57600080fd5b9060005260206000209060040201600091509150508060000154908060010154908060020154908060030154905084565b60038181548110610fee57600080fd5b906000526020600020906008020160009150905080600001549080600101805461101790612c14565b80601f016020809104026020016040519081016040528092919081815260200182805461104390612c14565b80156110905780601f1061106557610100808354040283529160200191611090565b820191906000526020600020905b81548152906001019060200180831161107357829003601f168201915b5050505050908060030154908060040154908060050154908060060160009054906101000a900460ff16908060070154905087565b600660205282600052604060002060205281600052604060002081815481106110ed57600080fd5b90600052602060002001600092509250509054906101000a900473ffffffffffffffffffffffffffffffffffffffff1681565b82600081118015611132575060045481105b611171576040517f08c379a00000000000000000000000000000000000000000000000000000000081526004016111689061263b565b60405180910390fd5b83600360018261118191906128c5565b8154811061119257611191612548565b5b906000526020600020906008020160060160009054906101000a900460ff166111f0576040517f08c379a00000000000000000000000000000000000000000000000000000000081526004016111e790612945565b60405180910390fd5b84600360018261120091906128c5565b8154811061121157611210612548565b5b9060005260206000209060080201600401544210611264576040517f08c379a000000000000000000000000000000000000000000000000000000000815260040161125b90612c92565b60405180910390fd5b600084116112a7576040517f08c379a000000000000000000000000000000000000000000000000000000000815260040161129e90612d24565b60405180910390fd5b600060036001886112b891906128c5565b815481106112c9576112c8612548565b5b9060005260206000209060080201905080600201805490508610611322576040517f08c379a000000000000000000000000000000000000000000000000000000000815260040161131990612d90565b60405180910390fd5b8460008054906101000a900473ffffffffffffffffffffffffffffffffffffffff1673ffffffffffffffffffffffffffffffffffffffff1663dd62ed3e33306040518363ffffffff1660e01b815260040161137e929190612db0565b60206040518083038186803b15801561139657600080fd5b505afa1580156113aa573d6000803e3d6000fd5b505050506040513d601f19601f820116820180604052508101906113ce9190612dee565b101561140f576040517f08c379a000000000000000000000000000000000000000000000000000000000815260040161140690612e67565b60405180910390fd5b60008060009054906101000a900473ffffffffffffffffffffffffffffffffffffffff1673ffffffffffffffffffffffffffffffffffffffff166323b872dd3330896040518463ffffffff1660e01b815260040161146f93929190612e87565b602060405180830381600087803b15801561148957600080fd5b505af115801561149d573d6000803e3d6000fd5b505050506040513d601f19601f820116820180604052508101906114c19190612bb8565b905080611503576040517f08c379a00000000000000000000000000000000000000000000000000000000081526004016114fa90612f0a565b60405180910390fd5b6000600160009054906101000a900473ffffffffffffffffffffffffffffffffffffffff1673ffffffffffffffffffffffffffffffffffffffff16634945646e338b8b8b6040518563ffffffff1660e01b81526004016115669493929190612f2a565b602060405180830381600087803b15801561158057600080fd5b505af1158015611594573d6000803e3d6000fd5b505050506040513d601f19601f820116820180604052508101906115b89190612dee565b9050868360070160008282546115ce9190612831565b9250508190555086600560008b815260200190815260200160002060008a815260200190815260200160002060008282546116099190612831565b92505081905550600660008a81526020019081526020016000206000898152602001908152602001600020339080600181540180825580915050600190039060005260206000200160009091909190916101000a81548173ffffffffffffffffffffffffffffffffffffffff021916908373ffffffffffffffffffffffffffffffffffffffff160217905550600760003373ffffffffffffffffffffffffffffffffffffffff1673ffffffffffffffffffffffffffffffffffffffff16815260200190815260200160002060405180608001604052808b81526020018a81526020018981526020018381525090806001815401808255809150506001900390600052602060002090600402016000909190919091506000820151816000015560208201518160010155604082015181600201556060820151816003015550503373ffffffffffffffffffffffffffffffffffffffff16897fab2115bac1de808eb7fe2be0309085b11f1f42b1eb980de8352efefdbfc098e28a8a8560405161179393929190612f6f565b60405180910390a3505050505050505050565b60045481565b60006060806000806000806000886000811180156117cb575060045481105b61180a576040517f08c379a00000000000000000000000000000000000000000000000000000000081526004016118019061263b565b60405180910390fd5b6000600360018c61181b91906128c5565b8154811061182c5761182b612548565b5b90600052602060002090600802019050806000015481600101826002018360030154846004015485600501548660060160009054906101000a900460ff16876007015486805461187b90612c14565b80601f01602080910402602001604051908101604052809291908181526020018280546118a790612c14565b80156118f45780601f106118c9576101008083540402835291602001916118f4565b820191906000526020600020905b8154815290600101906020018083116118d757829003601f168201915b5050505050965085805480602002602001604051908101604052809291908181526020016000905b828210156119c857838290600052602060002001805461193b90612c14565b80601f016020809104026020016040519081016040528092919081815260200182805461196790612c14565b80156119b45780601f10611989576101008083540402835291602001916119b4565b820191906000526020600020905b81548152906001019060200180831161199757829003601f168201915b50505050508152602001906001019061191c565b505050509550995099509950995099509950995099505050919395975091939597565b600160009054906101000a900473ffffffffffffffffffffffffffffffffffffffff1681565b6040518060800160405280600081526020016000815260200160008152602001600081525090565b828054611a4590612c14565b90600052602060002090601f016020900481019282611a675760008555611aae565b82601f10611a8057805160ff1916838001178555611aae565b82800160010185558215611aae579182015b82811115611aad578251825591602001919060010190611a92565b5b509050611abb9190611b1f565b5090565b828054828255906000526020600020908101928215611b0e579160200282015b82811115611b0d578251829080519060200190611afd929190611a39565b5091602001919060010190611adf565b5b509050611b1b9190611b3c565b5090565b5b80821115611b38576000816000905550600101611b20565b5090565b5b80821115611b5c5760008181611b539190611b60565b50600101611b3d565b5090565b508054611b6c90612c14565b6000825580601f10611b7e5750611b9d565b601f016020900490600052602060002090810190611b9c9190611b1f565b5b50565b600073ffffffffffffffffffffffffffffffffffffffff82169050919050565b6000611bcb82611ba0565b9050919050565b611bdb81611bc0565b82525050565b6000602082019050611bf66000830184611bd2565b92915050565b6000604051905090565b600080fd5b600080fd5b611c1981611bc0565b8114611c2457600080fd5b50565b600081359050611c3681611c10565b92915050565b6000819050919050565b611c4f81611c3c565b8114611c5a57600080fd5b50565b600081359050611c6c81611c46565b92915050565b60008060408385031215611c8957611c88611c06565b5b6000611c9785828601611c27565b9250506020611ca885828601611c5d565b9150509250929050565b600081519050919050565b600082825260208201905092915050565b6000819050602082019050919050565b611ce781611c3c565b82525050565b608082016000820151611d036000850182611cde565b506020820151611d166020850182611cde565b506040820151611d296040850182611cde565b506060820151611d3c6060850182611cde565b50505050565b6000611d4e8383611ced565b60808301905092915050565b6000602082019050919050565b6000611d7282611cb2565b611d7c8185611cbd565b9350611d8783611cce565b8060005b83811015611db8578151611d9f8882611d42565b9750611daa83611d5a565b925050600181019050611d8b565b5085935050505092915050565b60006020820190508181036000830152611ddf8184611d67565b905092915050565b60008060408385031215611dfe57611dfd611c06565b5b6000611e0c85828601611c5d565b9250506020611e1d85828601611c5d565b9150509250929050565b611e3081611c3c565b82525050565b6000602082019050611e4b6000830184611e27565b92915050565b600080fd5b600080fd5b6000601f19601f8301169050919050565b7f4e487b7100000000000000000000000000000000000000000000000000000000600052604160045260246000fd5b611ea482611e5b565b810181811067ffffffffffffffff82111715611ec357611ec2611e6c565b5b80604052505050565b6000611ed6611bfc565b9050611ee28282611e9b565b919050565b600067ffffffffffffffff821115611f0257611f01611e6c565b5b611f0b82611e5b565b9050602081019050919050565b82818337600083830152505050565b6000611f3a611f3584611ee7565b611ecc565b905082815260208101848484011115611f5657611f55611e56565b5b611f61848285611f18565b509392505050565b600082601f830112611f7e57611f7d611e51565b5b8135611f8e848260208601611f27565b91505092915050565b600067ffffffffffffffff821115611fb257611fb1611e6c565b5b602082029050602081019050919050565b600080fd5b6000611fdb611fd684611f97565b611ecc565b90508083825260208201905060208402830185811115611ffe57611ffd611fc3565b5b835b8181101561204557803567ffffffffffffffff81111561202357612022611e51565b5b8086016120308982611f69565b85526020850194505050602081019050612000565b5050509392505050565b600082601f83011261206457612063611e51565b5b8135612074848260208601611fc8565b91505092915050565b6000806000806080858703121561209757612096611c06565b5b600085013567ffffffffffffffff8111156120b5576120b4611c0b565b5b6120c187828801611f69565b945050602085013567ffffffffffffffff8111156120e2576120e1611c0b565b5b6120ee8782880161204f565b93505060406120ff87828801611c5d565b925050606061211087828801611c5d565b91505092959194509250565b6000819050919050565b600061214161213c61213784611ba0565b61211c565b611ba0565b9050919050565b600061215382612126565b9050919050565b600061216582612148565b9050919050565b6121758161215a565b82525050565b6000602082019050612190600083018461216c565b92915050565b60006080820190506121ab6000830187611e27565b6121b86020830186611e27565b6121c56040830185611e27565b6121d26060830184611e27565b95945050505050565b6000602082840312156121f1576121f0611c06565b5b60006121ff84828501611c5d565b91505092915050565b600081519050919050565b600082825260208201905092915050565b60005b83811015612242578082015181840152602081019050612227565b83811115612251576000848401525b50505050565b600061226282612208565b61226c8185612213565b935061227c818560208601612224565b61228581611e5b565b840191505092915050565b60008115159050919050565b6122a581612290565b82525050565b600060e0820190506122c0600083018a611e27565b81810360208301526122d28189612257565b90506122e16040830188611e27565b6122ee6060830187611e27565b6122fb6080830186611e27565b61230860a083018561229c565b61231560c0830184611e27565b98975050505050505050565b60008060006060848603121561233a57612339611c06565b5b600061234886828701611c5d565b935050602061235986828701611c5d565b925050604061236a86828701611c5d565b9150509250925092565b600081519050919050565b600082825260208201905092915050565b6000819050602082019050919050565b600082825260208201905092915050565b60006123bc82612208565b6123c681856123a0565b93506123d6818560208601612224565b6123df81611e5b565b840191505092915050565b60006123f683836123b1565b905092915050565b6000602082019050919050565b600061241682612374565b612420818561237f565b93508360208202850161243285612390565b8060005b8581101561246e578484038952815161244f85826123ea565b945061245a836123fe565b925060208a01995050600181019050612436565b50829750879550505050505092915050565b600061010082019050612496600083018b611e27565b81810360208301526124a8818a612257565b905081810360408301526124bc818961240b565b90506124cb6060830188611e27565b6124d86080830187611e27565b6124e560a0830186611e27565b6124f260c083018561229c565b6124ff60e0830184611e27565b9998505050505050505050565b600061251782612148565b9050919050565b6125278161250c565b82525050565b6000602082019050612542600083018461251e565b92915050565b7f4e487b7100000000000000000000000000000000000000000000000000000000600052603260045260246000fd5b7f4e487b7100000000000000000000000000000000000000000000000000000000600052601160045260246000fd5b60006125b182611c3c565b91507fffffffffffffffffffffffffffffffffffffffffffffffffffffffffffffffff8214156125e4576125e3612577565b5b600182019050919050565b7f50726f6a65637420646f6573206e6f7420657869737400000000000000000000600082015250565b6000612625601683612213565b9150612630826125ef565b602082019050919050565b6000602082019050818103600083015261265481612618565b9050919050565b7f4f6e6c79206d616e616765722063616e2063616c6c2074686973000000000000600082015250565b6000612691601a83612213565b915061269c8261265b565b602082019050919050565b600060208201905081810360008301526126c081612684565b9050919050565b7f4174206c656173742032206f7074696f6e732072657175697265640000000000600082015250565b60006126fd601b83612213565b9150612708826126c7565b602082019050919050565b6000602082019050818103600083015261272c816126f0565b9050919050565b7f546f74616c20706f6f6c206d7573742062652067726561746572207468616e2060008201527f3000000000000000000000000000000000000000000000000000000000000000602082015250565b600061278f602183612213565b915061279a82612733565b604082019050919050565b600060208201905081810360008301526127be81612782565b9050919050565b7f4475726174696f6e206d7573742062652067726561746572207468616e203000600082015250565b60006127fb601f83612213565b9150612806826127c5565b602082019050919050565b6000602082019050818103600083015261282a816127ee565b9050919050565b600061283c82611c3c565b915061284783611c3c565b9250827fffffffffffffffffffffffffffffffffffffffffffffffffffffffffffffffff0382111561287c5761287b612577565b5b828201905092915050565b600060608201905081810360008301526128a18186612257565b90506128b06020830185611e27565b6128bd6040830184611e27565b949350505050565b60006128d082611c3c565b91506128db83611c3c565b9250828210156128ee576128ed612577565b5b828203905092915050565b7f50726f6a656374206973206e6f74206163746976650000000000000000000000600082015250565b600061292f601583612213565b915061293a826128f9565b602082019050919050565b6000602082019050818103600083015261295e81612922565b9050919050565b7f50726f6a65637420686173206e6f7420656e6465642079657400000000000000600082015250565b600061299b601983612213565b91506129a682612965565b602082019050919050565b600060208201905081810360008301526129ca8161298e565b9050919050565b7f496e76616c69642077696e6e6572206f7074696f6e2049440000000000000000600082015250565b6000612a07601883612213565b9150612a12826129d1565b602082019050919050565b60006020820190508181036000830152612a36816129fa565b9050919050565b7f50726f6a65637420616c726561647920736574746c6564000000000000000000600082015250565b6000612a73601783612213565b9150612a7e82612a3d565b602082019050919050565b60006020820190508181036000830152612aa281612a66565b9050919050565b7f4e487b7100000000000000000000000000000000000000000000000000000000600052601260045260246000fd5b6000612ae382611c3c565b9150612aee83611c3c565b925082612afe57612afd612aa9565b5b828204905092915050565b6000612b1482611c3c565b9150612b1f83611c3c565b9250817fffffffffffffffffffffffffffffffffffffffffffffffffffffffffffffffff0483118215151615612b5857612b57612577565b5b828202905092915050565b6000604082019050612b786000830185611bd2565b612b856020830184611e27565b9392505050565b612b9581612290565b8114612ba057600080fd5b50565b600081519050612bb281612b8c565b92915050565b600060208284031215612bce57612bcd611c06565b5b6000612bdc84828501612ba3565b91505092915050565b7f4e487b7100000000000000000000000000000000000000000000000000000000600052602260045260246000fd5b60006002820490506001821680612c2c57607f821691505b60208210811415612c4057612c3f612be5565b5b50919050565b7f50726f6a6563742068617320656e646564000000000000000000000000000000600082015250565b6000612c7c601183612213565b9150612c8782612c46565b602082019050919050565b60006020820190508181036000830152612cab81612c6f565b9050919050565b7f42657420616d6f756e74206d7573742062652067726561746572207468616e2060008201527f3000000000000000000000000000000000000000000000000000000000000000602082015250565b6000612d0e602183612213565b9150612d1982612cb2565b604082019050919050565b60006020820190508181036000830152612d3d81612d01565b9050919050565b7f496e76616c6964206f7074696f6e204944000000000000000000000000000000600082015250565b6000612d7a601183612213565b9150612d8582612d44565b602082019050919050565b60006020820190508181036000830152612da981612d6d565b9050919050565b6000604082019050612dc56000830185611bd2565b612dd26020830184611bd2565b9392505050565b600081519050612de881611c46565b92915050565b600060208284031215612e0457612e03611c06565b5b6000612e1284828501612dd9565b91505092915050565b7f496e73756666696369656e7420616c6c6f77616e636500000000000000000000600082015250565b6000612e51601683612213565b9150612e5c82612e1b565b602082019050919050565b60006020820190508181036000830152612e8081612e44565b9050919050565b6000606082019050612e9c6000830186611bd2565b612ea96020830185611bd2565b612eb66040830184611e27565b949350505050565b7f546f6b656e207472616e73666572206661696c65640000000000000000000000600082015250565b6000612ef4601583612213565b9150612eff82612ebe565b602082019050919050565b60006020820190508181036000830152612f2381612ee7565b9050919050565b6000608082019050612f3f6000830187611bd2565b612f4c6020830186611e27565b612f596040830185611e27565b612f666060830184611e27565b95945050505050565b6000606082019050612f846000830186611e27565b612f916020830185611e27565b612f9e6040830184611e27565b94935050505056fea26469706673582212204fef476e02ac70c3188f7034b3bb3b1b893b462ce6553a6559b4040979d0f5f664736f6c6343000809003360806040523480156200001157600080fd5b50604051620045d3380380620045d383398181016040528101906200003791906200033b565b6040518060400160405280600d81526020017f4c6f74746572795469636b6574000000000000000000000000000000000000008152506040518060400160405280600281526020017f4c540000000000000000000000000000000000000000000000000000000000008152508160009080519060200190620000bb9291906200020d565b508060019080519060200190620000d49291906200020d565b505050620000f7620000eb6200013f60201b60201c565b6200014760201b60201c565b80600c60006101000a81548173ffffffffffffffffffffffffffffffffffffffff021916908373ffffffffffffffffffffffffffffffffffffffff16021790555050620003d2565b600033905090565b6000600a60009054906101000a900473ffffffffffffffffffffffffffffffffffffffff16905081600a60006101000a81548173ffffffffffffffffffffffffffffffffffffffff021916908373ffffffffffffffffffffffffffffffffffffffff1602179055508173ffffffffffffffffffffffffffffffffffffffff168173ffffffffffffffffffffffffffffffffffffffff167f8be0079c531659141344cd1fd0a4f28419497f9722a3daafe3b4186f6b6457e060405160405180910390a35050565b8280546200021b906200039c565b90600052602060002090601f0160209004810192826200023f57600085556200028b565b82601f106200025a57805160ff19168380011785556200028b565b828001600101855582156200028b579182015b828111156200028a5782518255916020019190600101906200026d565b5b5090506200029a91906200029e565b5090565b5b80821115620002b95760008160009055506001016200029f565b5090565b600080fd5b600073ffffffffffffffffffffffffffffffffffffffff82169050919050565b6000620002ef82620002c2565b9050919050565b60006200030382620002e2565b9050919050565b6200031581620002f6565b81146200032157600080fd5b50565b60008151905062000335816200030a565b92915050565b600060208284031215620003545762000353620002bd565b5b6000620003648482850162000324565b91505092915050565b7f4e487b7100000000000000000000000000000000000000000000000000000000600052602260045260246000fd5b60006002820490506001821680620003b557607f821691505b60208210811415620003cc57620003cb6200036d565b5b50919050565b6141f180620003e26000396000f3fe608060405234801561001057600080fd5b50600436106101c45760003560e01c80636352211e116100f957806395d89b4111610097578063c87b56dd11610071578063c87b56dd1461052e578063e985e9c51461055e578063f2fde38b1461058e578063fae62508146105aa576101c4565b806395d89b41146104d8578063a22cb465146104f6578063b88d4fde14610512576101c4565b806370a08231116100d357806370a0823114610464578063715018a61461049457806383ece4c61461049e5780638da5cb5b146104ba576101c4565b80636352211e146103fa57806367dd74ca1461042a5780636d3739c414610446576101c4565b806318160ddd11610166578063305a905a11610140578063305a905a1461036257806342842e0e1461037e5780634945646e1461039a5780634f6ccce7146103ca576101c4565b806318160ddd146102f857806323b872dd146103165780632f745c5914610332576101c4565b8063081812fc116101a2578063081812fc14610247578063095ea7b3146102775780630bc5c3f514610293578063127e4528146102c8576101c4565b806301ffc9a7146101c95780630484a22f146101f957806306fdde0314610229575b600080fd5b6101e360048036038101906101de9190612b70565b6105da565b6040516101f09190612bb8565b60405180910390f35b610213600480360381019061020e9190612c31565b6105ec565b6040516102209190612d26565b60405180910390f35b61023161069a565b60405161023e9190612de1565b60405180910390f35b610261600480360381019061025c9190612e2f565b61072c565b60405161026e9190612e6b565b60405180910390f35b610291600480360381019061028c9190612e86565b610772565b005b6102ad60048036038101906102a89190612e2f565b61088a565b6040516102bf96959493929190612ed5565b60405180910390f35b6102e260048036038101906102dd9190612f36565b6108f3565b6040516102ef9190612d26565b60405180910390f35b610300610970565b60405161030d9190612f76565b60405180910390f35b610330600480360381019061032b9190612f91565b61097d565b005b61034c60048036038101906103479190612e86565b6109dd565b6040516103599190612f76565b60405180910390f35b61037c60048036038101906103779190612f36565b610a82565b005b61039860048036038101906103939190612f91565b610bc1565b005b6103b460048036038101906103af9190612fe4565b610be1565b6040516103c19190612f76565b60405180910390f35b6103e460048036038101906103df9190612e2f565b610d91565b6040516103f19190612f76565b60405180910390f35b610414600480360381019061040f9190612e2f565b610e02565b6040516104219190612e6b565b60405180910390f35b610444600480360381019061043f9190612e2f565b610e89565b005b61044e6111a5565b60405161045b91906130aa565b60405180910390f35b61047e60048036038101906104799190612c31565b6111cb565b60405161048b9190612f76565b60405180910390f35b61049c611283565b005b6104b860048036038101906104b39190612e2f565b611297565b005b6104c2611388565b6040516104cf9190612e6b565b60405180910390f35b6104e06113b2565b6040516104ed9190612de1565b60405180910390f35b610510600480360381019061050b91906130f1565b611444565b005b61052c60048036038101906105279190613266565b61145a565b005b61054860048036038101906105439190612e2f565b6114bc565b6040516105559190612de1565b60405180910390f35b610578600480360381019061057391906132e9565b611524565b6040516105859190612bb8565b60405180910390f35b6105a860048036038101906105a39190612c31565b6115b8565b005b6105c460048036038101906105bf9190613329565b61163c565b6040516105d19190612f76565b60405180910390f35b60006105e58261167a565b9050919050565b606060006105f9836111cb565b905060008167ffffffffffffffff8111156106175761061661313b565b5b6040519080825280602002602001820160405280156106455781602001602082028036833780820191505090505b50905060005b8281101561068f5761065d85826109dd565b8282815181106106705761066f61337c565b5b6020026020010181815250508080610687906133da565b91505061064b565b508092505050919050565b6060600080546106a990613452565b80601f01602080910402602001604051908101604052809291908181526020018280546106d590613452565b80156107225780601f106106f757610100808354040283529160200191610722565b820191906000526020600020905b81548152906001019060200180831161070557829003601f168201915b5050505050905090565b6000610737826116f4565b6004600083815260200190815260200160002060009054906101000a900473ffffffffffffffffffffffffffffffffffffffff169050919050565b600061077d82610e02565b90508073ffffffffffffffffffffffffffffffffffffffff168373ffffffffffffffffffffffffffffffffffffffff1614156107ee576040517f08c379a00000000000000000000000000000000000000000000000000000000081526004016107e5906134f6565b60405180910390fd5b8073ffffffffffffffffffffffffffffffffffffffff1661080d61173f565b73ffffffffffffffffffffffffffffffffffffffff16148061083c575061083b8161083661173f565b611524565b5b61087b576040517f08c379a000000000000000000000000000000000000000000000000000000000815260040161087290613588565b60405180910390fd5b6108858383611747565b505050565b600d6020528060005260406000206000915090508060000154908060010154908060020154908060030160009054906101000a900473ffffffffffffffffffffffffffffffffffffffff16908060030160149054906101000a900460ff16908060040154905086565b6060600e6000848152602001908152602001600020600083815260200190815260200160002080548060200260200160405190810160405280929190818152602001828054801561096357602002820191906000526020600020905b81548152602001906001019080831161094f575b5050505050905092915050565b6000600880549050905090565b61098e61098861173f565b82611800565b6109cd576040517f08c379a00000000000000000000000000000000000000000000000000000000081526004016109c49061361a565b60405180910390fd5b6109d8838383611895565b505050565b60006109e8836111cb565b8210610a29576040517f08c379a0000000000000000000000000000000000000000000000000000000008152600401610a20906136ac565b60405180910390fd5b600660008473ffffffffffffffffffffffffffffffffffffffff1673ffffffffffffffffffffffffffffffffffffffff168152602001908152602001600020600083815260200190815260200160002054905092915050565b3373ffffffffffffffffffffffffffffffffffffffff16610aa283610e02565b73ffffffffffffffffffffffffffffffffffffffff1614610af8576040517f08c379a0000000000000000000000000000000000000000000000000000000008152600401610aef90613718565b60405180910390fd5b60008111610b3b576040517f08c379a0000000000000000000000000000000000000000000000000000000008152600401610b3290613784565b60405180910390fd5b6001600d600084815260200190815260200160002060030160146101000a81548160ff02191690831515021790555080600d600084815260200190815260200160002060040181905550817fbca2f6391cafd6d28d39261ba883dd74090c618befb806e74ef434778bb2f7ed82604051610bb59190612f76565b60405180910390a25050565b610bdc8383836040518060200160405280600081525061145a565b505050565b6000610beb611b8f565b600b6000815480929190610bfe906133da565b91905055506000600b549050610c148682611c0d565b6040518060c001604052808681526020018581526020018481526020018773ffffffffffffffffffffffffffffffffffffffff1681526020016000151581526020016000815250600d600083815260200190815260200160002060008201518160000155602082015181600101556040820151816002015560608201518160030160006101000a81548173ffffffffffffffffffffffffffffffffffffffff021916908373ffffffffffffffffffffffffffffffffffffffff16021790555060808201518160030160146101000a81548160ff02191690831515021790555060a08201518160040155905050600e600086815260200190815260200160002060008581526020019081526020016000208190806001815401808255809150506001900390600052602060002001600090919091909150558385827f1ba4dd71a6c6f6e57c973c206da350ef7ea3fa12ba5dcc31a4862ee0de18dbc489604051610d7d9190612e6b565b60405180910390a480915050949350505050565b6000610d9b610970565b8210610ddc576040517f08c379a0000000000000000000000000000000000000000000000000000000008152600401610dd390613816565b60405180910390fd5b60088281548110610df057610def61337c565b5b90600052602060002001549050919050565b600080610e0e83611e2b565b9050600073ffffffffffffffffffffffffffffffffffffffff168173ffffffffffffffffffffffffffffffffffffffff161415610e80576040517f08c379a0000000000000000000000000000000000000000000000000000000008152600401610e7790613882565b60405180910390fd5b80915050919050565b6000600d600083815260200190815260200160002090508060030160149054906101000a900460ff16610ef1576040517f08c379a0000000000000000000000000000000000000000000000000000000008152600401610ee8906138ee565b60405180910390fd5b6000610efc83610e02565b90508160040154600c60009054906101000a900473ffffffffffffffffffffffffffffffffffffffff1673ffffffffffffffffffffffffffffffffffffffff1663dd62ed3e33306040518363ffffffff1660e01b8152600401610f6092919061390e565b60206040518083038186803b158015610f7857600080fd5b505afa158015610f8c573d6000803e3d6000fd5b505050506040513d601f19601f82011682018060405250810190610fb0919061394c565b1015610ff1576040517f08c379a0000000000000000000000000000000000000000000000000000000008152600401610fe8906139c5565b60405180910390fd5b6000600c60009054906101000a900473ffffffffffffffffffffffffffffffffffffffff1673ffffffffffffffffffffffffffffffffffffffff166323b872dd338486600401546040518463ffffffff1660e01b8152600401611056939291906139e5565b602060405180830381600087803b15801561107057600080fd5b505af1158015611084573d6000803e3d6000fd5b505050506040513d601f19601f820116820180604052508101906110a89190613a31565b9050806110ea576040517f08c379a00000000000000000000000000000000000000000000000000000000081526004016110e190613aaa565b60405180910390fd5b6110f5823386611895565b338360030160006101000a81548173ffffffffffffffffffffffffffffffffffffffff021916908373ffffffffffffffffffffffffffffffffffffffff16021790555060008360030160146101000a81548160ff02191690831515021790555060008360040181905550837fdfc4c991a34be4b2f90df7c348d98b17393713ef48853d9071cf19d4687a6a3683338660040154604051611197939291906139e5565b60405180910390a250505050565b600c60009054906101000a900473ffffffffffffffffffffffffffffffffffffffff1681565b60008073ffffffffffffffffffffffffffffffffffffffff168273ffffffffffffffffffffffffffffffffffffffff16141561123c576040517f08c379a000000000000000000000000000000000000000000000000000000000815260040161123390613b3c565b60405180910390fd5b600360008373ffffffffffffffffffffffffffffffffffffffff1673ffffffffffffffffffffffffffffffffffffffff168152602001908152602001600020549050919050565b61128b611b8f565b6112956000611e68565b565b3373ffffffffffffffffffffffffffffffffffffffff166112b782610e02565b73ffffffffffffffffffffffffffffffffffffffff161461130d576040517f08c379a000000000000000000000000000000000000000000000000000000000815260040161130490613718565b60405180910390fd5b6000600d600083815260200190815260200160002060030160146101000a81548160ff0219169083151502179055506000600d600083815260200190815260200160002060040181905550807fdb00f3044f762e640c77fdd12df2e7cf2b4c17de34f8995969a4d98b9904af4560405160405180910390a250565b6000600a60009054906101000a900473ffffffffffffffffffffffffffffffffffffffff16905090565b6060600180546113c190613452565b80601f01602080910402602001604051908101604052809291908181526020018280546113ed90613452565b801561143a5780601f1061140f5761010080835404028352916020019161143a565b820191906000526020600020905b81548152906001019060200180831161141d57829003601f168201915b5050505050905090565b61145661144f61173f565b8383611f2e565b5050565b61146b61146561173f565b83611800565b6114aa576040517f08c379a00000000000000000000000000000000000000000000000000000000081526004016114a19061361a565b60405180910390fd5b6114b68484848461209b565b50505050565b60606114c7826116f4565b60006114d16120f7565b905060008151116114f1576040518060200160405280600081525061151c565b806114fb8461210e565b60405160200161150c929190613b98565b6040516020818303038152906040525b915050919050565b6000600560008473ffffffffffffffffffffffffffffffffffffffff1673ffffffffffffffffffffffffffffffffffffffff16815260200190815260200160002060008373ffffffffffffffffffffffffffffffffffffffff1673ffffffffffffffffffffffffffffffffffffffff16815260200190815260200160002060009054906101000a900460ff16905092915050565b6115c0611b8f565b600073ffffffffffffffffffffffffffffffffffffffff168173ffffffffffffffffffffffffffffffffffffffff161415611630576040517f08c379a000000000000000000000000000000000000000000000000000000000815260040161162790613c2e565b60405180910390fd5b61163981611e68565b50565b600e602052826000526040600020602052816000526040600020818154811061166457600080fd5b9060005260206000200160009250925050505481565b60007f780e9d63000000000000000000000000000000000000000000000000000000007bffffffffffffffffffffffffffffffffffffffffffffffffffffffff1916827bffffffffffffffffffffffffffffffffffffffffffffffffffffffff191614806116ed57506116ec826121e6565b5b9050919050565b6116fd816122c8565b61173c576040517f08c379a000000000000000000000000000000000000000000000000000000000815260040161173390613882565b60405180910390fd5b50565b600033905090565b816004600083815260200190815260200160002060006101000a81548173ffffffffffffffffffffffffffffffffffffffff021916908373ffffffffffffffffffffffffffffffffffffffff160217905550808273ffffffffffffffffffffffffffffffffffffffff166117ba83610e02565b73ffffffffffffffffffffffffffffffffffffffff167f8c5be1e5ebec7d5bd14f71427d1e84f3dd0314c0f7b2291e5b200ac8c7c3b92560405160405180910390a45050565b60008061180c83610e02565b90508073ffffffffffffffffffffffffffffffffffffffff168473ffffffffffffffffffffffffffffffffffffffff16148061184e575061184d8185611524565b5b8061188c57508373ffffffffffffffffffffffffffffffffffffffff166118748461072c565b73ffffffffffffffffffffffffffffffffffffffff16145b91505092915050565b8273ffffffffffffffffffffffffffffffffffffffff166118b582610e02565b73ffffffffffffffffffffffffffffffffffffffff161461190b576040517f08c379a000000000000000000000000000000000000000000000000000000000815260040161190290613cc0565b60405180910390fd5b600073ffffffffffffffffffffffffffffffffffffffff168273ffffffffffffffffffffffffffffffffffffffff16141561197b576040517f08c379a000000000000000000000000000000000000000000000000000000000815260040161197290613d52565b60405180910390fd5b6119888383836001612309565b8273ffffffffffffffffffffffffffffffffffffffff166119a882610e02565b73ffffffffffffffffffffffffffffffffffffffff16146119fe576040517f08c379a00000000000000000000000000000000000000000000000000000000081526004016119f590613cc0565b60405180910390fd5b6004600082815260200190815260200160002060006101000a81549073ffffffffffffffffffffffffffffffffffffffff02191690556001600360008573ffffffffffffffffffffffffffffffffffffffff1673ffffffffffffffffffffffffffffffffffffffff168152602001908152602001600020600082825403925050819055506001600360008473ffffffffffffffffffffffffffffffffffffffff1673ffffffffffffffffffffffffffffffffffffffff16815260200190815260200160002060008282540192505081905550816002600083815260200190815260200160002060006101000a81548173ffffffffffffffffffffffffffffffffffffffff021916908373ffffffffffffffffffffffffffffffffffffffff160217905550808273ffffffffffffffffffffffffffffffffffffffff168473ffffffffffffffffffffffffffffffffffffffff167fddf252ad1be2c89b69c2b068fc378daa952ba7f163c4a11628f55a4df523b3ef60405160405180910390a4611b8a838383600161231b565b505050565b611b9761173f565b73ffffffffffffffffffffffffffffffffffffffff16611bb5611388565b73ffffffffffffffffffffffffffffffffffffffff1614611c0b576040517f08c379a0000000000000000000000000000000000000000000000000000000008152600401611c0290613dbe565b60405180910390fd5b565b600073ffffffffffffffffffffffffffffffffffffffff168273ffffffffffffffffffffffffffffffffffffffff161415611c7d576040517f08c379a0000000000000000000000000000000000000000000000000000000008152600401611c7490613e2a565b60405180910390fd5b611c86816122c8565b15611cc6576040517f08c379a0000000000000000000000000000000000000000000000000000000008152600401611cbd90613e96565b60405180910390fd5b611cd4600083836001612309565b611cdd816122c8565b15611d1d576040517f08c379a0000000000000000000000000000000000000000000000000000000008152600401611d1490613e96565b60405180910390fd5b6001600360008473ffffffffffffffffffffffffffffffffffffffff1673ffffffffffffffffffffffffffffffffffffffff16815260200190815260200160002060008282540192505081905550816002600083815260200190815260200160002060006101000a81548173ffffffffffffffffffffffffffffffffffffffff021916908373ffffffffffffffffffffffffffffffffffffffff160217905550808273ffffffffffffffffffffffffffffffffffffffff16600073ffffffffffffffffffffffffffffffffffffffff167fddf252ad1be2c89b69c2b068fc378daa952ba7f163c4a11628f55a4df523b3ef60405160405180910390a4611e2760008383600161231b565b5050565b60006002600083815260200190815260200160002060009054906101000a900473ffffffffffffffffffffffffffffffffffffffff169050919050565b6000600a60009054906101000a900473ffffffffffffffffffffffffffffffffffffffff16905081600a60006101000a81548173ffffffffffffffffffffffffffffffffffffffff021916908373ffffffffffffffffffffffffffffffffffffffff1602179055508173ffffffffffffffffffffffffffffffffffffffff168173ffffffffffffffffffffffffffffffffffffffff167f8be0079c531659141344cd1fd0a4f28419497f9722a3daafe3b4186f6b6457e060405160405180910390a35050565b8173ffffffffffffffffffffffffffffffffffffffff168373ffffffffffffffffffffffffffffffffffffffff161415611f9d576040517f08c379a0000000000000000000000000000000000000000000000000000000008152600401611f9490613f02565b60405180910390fd5b80600560008573ffffffffffffffffffffffffffffffffffffffff1673ffffffffffffffffffffffffffffffffffffffff16815260200190815260200160002060008473ffffffffffffffffffffffffffffffffffffffff1673ffffffffffffffffffffffffffffffffffffffff16815260200190815260200160002060006101000a81548160ff0219169083151502179055508173ffffffffffffffffffffffffffffffffffffffff168373ffffffffffffffffffffffffffffffffffffffff167f17307eab39ab6107e8899845ad3d59bd9653f200f220920489ca2b5937696c318360405161208e9190612bb8565b60405180910390a3505050565b6120a6848484611895565b6120b284848484612321565b6120f1576040517f08c379a00000000000000000000000000000000000000000000000000000000081526004016120e890613f94565b60405180910390fd5b50505050565b606060405180602001604052806000815250905090565b60606000600161211d846124b8565b01905060008167ffffffffffffffff81111561213c5761213b61313b565b5b6040519080825280601f01601f19166020018201604052801561216e5781602001600182028036833780820191505090505b509050600082602001820190505b6001156121db578080600190039150507f3031323334353637383961626364656600000000000000000000000000000000600a86061a8153600a85816121c5576121c4613fb4565b5b04945060008514156121d6576121db565b61217c565b819350505050919050565b60007f80ac58cd000000000000000000000000000000000000000000000000000000007bffffffffffffffffffffffffffffffffffffffffffffffffffffffff1916827bffffffffffffffffffffffffffffffffffffffffffffffffffffffff191614806122b157507f5b5e139f000000000000000000000000000000000000000000000000000000007bffffffffffffffffffffffffffffffffffffffffffffffffffffffff1916827bffffffffffffffffffffffffffffffffffffffffffffffffffffffff1916145b806122c157506122c08261260b565b5b9050919050565b60008073ffffffffffffffffffffffffffffffffffffffff166122ea83611e2b565b73ffffffffffffffffffffffffffffffffffffffff1614159050919050565b61231584848484612675565b50505050565b50505050565b60006123428473ffffffffffffffffffffffffffffffffffffffff166127d5565b156124ab578373ffffffffffffffffffffffffffffffffffffffff1663150b7a0261236b61173f565b8786866040518563ffffffff1660e01b815260040161238d9493929190614038565b602060405180830381600087803b1580156123a757600080fd5b505af19250505080156123d857506040513d601f19601f820116820180604052508101906123d59190614099565b60015b61245b573d8060008114612408576040519150601f19603f3d011682016040523d82523d6000602084013e61240d565b606091505b50600081511415612453576040517f08c379a000000000000000000000000000000000000000000000000000000000815260040161244a90613f94565b60405180910390fd5b805181602001fd5b63150b7a0260e01b7bffffffffffffffffffffffffffffffffffffffffffffffffffffffff1916817bffffffffffffffffffffffffffffffffffffffffffffffffffffffff1916149150506124b0565b600190505b949350505050565b600080600090507a184f03e93ff9f4daa797ed6e38ed64bf6a1f0100000000000000008310612516577a184f03e93ff9f4daa797ed6e38ed64bf6a1f010000000000000000838161250c5761250b613fb4565b5b0492506040810190505b6d04ee2d6d415b85acef81000000008310612553576d04ee2d6d415b85acef8100000000838161254957612548613fb4565b5b0492506020810190505b662386f26fc10000831061258257662386f26fc10000838161257857612577613fb4565b5b0492506010810190505b6305f5e10083106125ab576305f5e10083816125a1576125a0613fb4565b5b0492506008810190505b61271083106125d05761271083816125c6576125c5613fb4565b5b0492506004810190505b606483106125f357606483816125e9576125e8613fb4565b5b0492506002810190505b600a8310612602576001810190505b80915050919050565b60007f01ffc9a7000000000000000000000000000000000000000000000000000000007bffffffffffffffffffffffffffffffffffffffffffffffffffffffff1916827bffffffffffffffffffffffffffffffffffffffffffffffffffffffff1916149050919050565b612681848484846127f8565b60018111156126c5576040517f08c379a00000000000000000000000000000000000000000000000000000000081526004016126bc90614138565b60405180910390fd5b6000829050600073ffffffffffffffffffffffffffffffffffffffff168573ffffffffffffffffffffffffffffffffffffffff16141561270d57612708816127fe565b61274c565b8373ffffffffffffffffffffffffffffffffffffffff168573ffffffffffffffffffffffffffffffffffffffff161461274b5761274a8582612847565b5b5b600073ffffffffffffffffffffffffffffffffffffffff168473ffffffffffffffffffffffffffffffffffffffff16141561278f5761278a816129b4565b6127ce565b8473ffffffffffffffffffffffffffffffffffffffff168473ffffffffffffffffffffffffffffffffffffffff16146127cd576127cc8482612a85565b5b5b5050505050565b6000808273ffffffffffffffffffffffffffffffffffffffff163b119050919050565b50505050565b6008805490506009600083815260200190815260200160002081905550600881908060018154018082558091505060019003906000526020600020016000909190919091505550565b60006001612854846111cb565b61285e9190614158565b9050600060076000848152602001908152602001600020549050818114612943576000600660008673ffffffffffffffffffffffffffffffffffffffff1673ffffffffffffffffffffffffffffffffffffffff168152602001908152602001600020600084815260200190815260200160002054905080600660008773ffffffffffffffffffffffffffffffffffffffff1673ffffffffffffffffffffffffffffffffffffffff168152602001908152602001600020600084815260200190815260200160002081905550816007600083815260200190815260200160002081905550505b6007600084815260200190815260200160002060009055600660008573ffffffffffffffffffffffffffffffffffffffff1673ffffffffffffffffffffffffffffffffffffffff16815260200190815260200160002060008381526020019081526020016000206000905550505050565b600060016008805490506129c89190614158565b90506000600960008481526020019081526020016000205490506000600883815481106129f8576129f761337c565b5b906000526020600020015490508060088381548110612a1a57612a1961337c565b5b906000526020600020018190555081600960008381526020019081526020016000208190555060096000858152602001908152602001600020600090556008805480612a6957612a6861418c565b5b6001900381819060005260206000200160009055905550505050565b6000612a90836111cb565b905081600660008573ffffffffffffffffffffffffffffffffffffffff1673ffffffffffffffffffffffffffffffffffffffff168152602001908152602001600020600083815260200190815260200160002081905550806007600084815260200190815260200160002081905550505050565b6000604051905090565b600080fd5b600080fd5b60007fffffffff0000000000000000000000000000000000000000000000000000000082169050919050565b612b4d81612b18565b8114612b5857600080fd5b50565b600081359050612b6a81612b44565b92915050565b600060208284031215612b8657612b85612b0e565b5b6000612b9484828501612b5b565b91505092915050565b60008115159050919050565b612bb281612b9d565b82525050565b6000602082019050612bcd6000830184612ba9565b92915050565b600073ffffffffffffffffffffffffffffffffffffffff82169050919050565b6000612bfe82612bd3565b9050919050565b612c0e81612bf3565b8114612c1957600080fd5b50565b600081359050612c2b81612c05565b92915050565b600060208284031215612c4757612c46612b0e565b5b6000612c5584828501612c1c565b91505092915050565b600081519050919050565b600082825260208201905092915050565b6000819050602082019050919050565b6000819050919050565b612c9d81612c8a565b82525050565b6000612caf8383612c94565b60208301905092915050565b6000602082019050919050565b6000612cd382612c5e565b612cdd8185612c69565b9350612ce883612c7a565b8060005b83811015612d19578151612d008882612ca3565b9750612d0b83612cbb565b925050600181019050612cec565b5085935050505092915050565b60006020820190508181036000830152612d408184612cc8565b905092915050565b600081519050919050565b600082825260208201905092915050565b60005b83811015612d82578082015181840152602081019050612d67565b83811115612d91576000848401525b50505050565b6000601f19601f8301169050919050565b6000612db382612d48565b612dbd8185612d53565b9350612dcd818560208601612d64565b612dd681612d97565b840191505092915050565b60006020820190508181036000830152612dfb8184612da8565b905092915050565b612e0c81612c8a565b8114612e1757600080fd5b50565b600081359050612e2981612e03565b92915050565b600060208284031215612e4557612e44612b0e565b5b6000612e5384828501612e1a565b91505092915050565b612e6581612bf3565b82525050565b6000602082019050612e806000830184612e5c565b92915050565b60008060408385031215612e9d57612e9c612b0e565b5b6000612eab85828601612c1c565b9250506020612ebc85828601612e1a565b9150509250929050565b612ecf81612c8a565b82525050565b600060c082019050612eea6000830189612ec6565b612ef76020830188612ec6565b612f046040830187612ec6565b612f116060830186612e5c565b612f1e6080830185612ba9565b612f2b60a0830184612ec6565b979650505050505050565b60008060408385031215612f4d57612f4c612b0e565b5b6000612f5b85828601612e1a565b9250506020612f6c85828601612e1a565b9150509250929050565b6000602082019050612f8b6000830184612ec6565b92915050565b600080600060608486031215612faa57612fa9612b0e565b5b6000612fb886828701612c1c565b9350506020612fc986828701612c1c565b9250506040612fda86828701612e1a565b9150509250925092565b60008060008060808587031215612ffe57612ffd612b0e565b5b600061300c87828801612c1c565b945050602061301d87828801612e1a565b935050604061302e87828801612e1a565b925050606061303f87828801612e1a565b91505092959194509250565b6000819050919050565b600061307061306b61306684612bd3565b61304b565b612bd3565b9050919050565b600061308282613055565b9050919050565b600061309482613077565b9050919050565b6130a481613089565b82525050565b60006020820190506130bf600083018461309b565b92915050565b6130ce81612b9d565b81146130d957600080fd5b50565b6000813590506130eb816130c5565b92915050565b6000806040838503121561310857613107612b0e565b5b600061311685828601612c1c565b9250506020613127858286016130dc565b9150509250929050565b600080fd5b600080fd5b7f4e487b7100000000000000000000000000000000000000000000000000000000600052604160045260246000fd5b61317382612d97565b810181811067ffffffffffffffff821117156131925761319161313b565b5b80604052505050565b60006131a5612b04565b90506131b1828261316a565b919050565b600067ffffffffffffffff8211156131d1576131d061313b565b5b6131da82612d97565b9050602081019050919050565b82818337600083830152505050565b6000613209613204846131b6565b61319b565b90508281526020810184848401111561322557613224613136565b5b6132308482856131e7565b509392505050565b600082601f83011261324d5761324c613131565b5b813561325d8482602086016131f6565b91505092915050565b600080600080608085870312156132805761327f612b0e565b5b600061328e87828801612c1c565b945050602061329f87828801612c1c565b93505060406132b087828801612e1a565b925050606085013567ffffffffffffffff8111156132d1576132d0612b13565b5b6132dd87828801613238565b91505092959194509250565b60008060408385031215613300576132ff612b0e565b5b600061330e85828601612c1c565b925050602061331f85828601612c1c565b9150509250929050565b60008060006060848603121561334257613341612b0e565b5b600061335086828701612e1a565b935050602061336186828701612e1a565b925050604061337286828701612e1a565b9150509250925092565b7f4e487b7100000000000000000000000000000000000000000000000000000000600052603260045260246000fd5b7f4e487b7100000000000000000000000000000000000000000000000000000000600052601160045260246000fd5b60006133e582612c8a565b91507fffffffffffffffffffffffffffffffffffffffffffffffffffffffffffffffff821415613418576134176133ab565b5b600182019050919050565b7f4e487b7100000000000000000000000000000000000000000000000000000000600052602260045260246000fd5b6000600282049050600182168061346a57607f821691505b6020821081141561347e5761347d613423565b5b50919050565b7f4552433732313a20617070726f76616c20746f2063757272656e74206f776e6560008201527f7200000000000000000000000000000000000000000000000000000000000000602082015250565b60006134e0602183612d53565b91506134eb82613484565b604082019050919050565b6000602082019050818103600083015261350f816134d3565b9050919050565b7f4552433732313a20617070726f76652063616c6c6572206973206e6f7420746f60008201527f6b656e206f776e6572206f7220617070726f76656420666f7220616c6c000000602082015250565b6000613572603d83612d53565b915061357d82613516565b604082019050919050565b600060208201905081810360008301526135a181613565565b9050919050565b7f4552433732313a2063616c6c6572206973206e6f7420746f6b656e206f776e6560008201527f72206f7220617070726f76656400000000000000000000000000000000000000602082015250565b6000613604602d83612d53565b915061360f826135a8565b604082019050919050565b60006020820190508181036000830152613633816135f7565b9050919050565b7f455243373231456e756d657261626c653a206f776e657220696e646578206f7560008201527f74206f6620626f756e6473000000000000000000000000000000000000000000602082015250565b6000613696602b83612d53565b91506136a18261363a565b604082019050919050565b600060208201905081810360008301526136c581613689565b9050919050565b7f4e6f7420746865206f776e657200000000000000000000000000000000000000600082015250565b6000613702600d83612d53565b915061370d826136cc565b602082019050919050565b60006020820190508181036000830152613731816136f5565b9050919050565b7f5072696365206d7573742062652067726561746572207468616e203000000000600082015250565b600061376e601c83612d53565b915061377982613738565b602082019050919050565b6000602082019050818103600083015261379d81613761565b9050919050565b7f455243373231456e756d657261626c653a20676c6f62616c20696e646578206f60008201527f7574206f6620626f756e64730000000000000000000000000000000000000000602082015250565b6000613800602c83612d53565b915061380b826137a4565b604082019050919050565b6000602082019050818103600083015261382f816137f3565b9050919050565b7f4552433732313a20696e76616c696420746f6b656e2049440000000000000000600082015250565b600061386c601883612d53565b915061387782613836565b602082019050919050565b6000602082019050818103600083015261389b8161385f565b9050919050565b7f5469636b6574206e6f74206c6973746564000000000000000000000000000000600082015250565b60006138d8601183612d53565b91506138e3826138a2565b602082019050919050565b60006020820190508181036000830152613907816138cb565b9050919050565b60006040820190506139236000830185612e5c565b6139306020830184612e5c565b9392505050565b60008151905061394681612e03565b92915050565b60006020828403121561396257613961612b0e565b5b600061397084828501613937565b91505092915050565b7f496e73756666696369656e7420616c6c6f77616e636500000000000000000000600082015250565b60006139af601683612d53565b91506139ba82613979565b602082019050919050565b600060208201905081810360008301526139de816139a2565b9050919050565b60006060820190506139fa6000830186612e5c565b613a076020830185612e5c565b613a146040830184612ec6565b949350505050565b600081519050613a2b816130c5565b92915050565b600060208284031215613a4757613a46612b0e565b5b6000613a5584828501613a1c565b91505092915050565b7f546f6b656e207472616e73666572206661696c65640000000000000000000000600082015250565b6000613a94601583612d53565b9150613a9f82613a5e565b602082019050919050565b60006020820190508181036000830152613ac381613a87565b9050919050565b7f4552433732313a2061646472657373207a65726f206973206e6f74206120766160008201527f6c6964206f776e65720000000000000000000000000000000000000000000000602082015250565b6000613b26602983612d53565b9150613b3182613aca565b604082019050919050565b60006020820190508181036000830152613b5581613b19565b9050919050565b600081905092915050565b6000613b7282612d48565b613b7c8185613b5c565b9350613b8c818560208601612d64565b80840191505092915050565b6000613ba48285613b67565b9150613bb08284613b67565b91508190509392505050565b7f4f776e61626c653a206e6577206f776e657220697320746865207a65726f206160008201527f6464726573730000000000000000000000000000000000000000000000000000602082015250565b6000613c18602683612d53565b9150613c2382613bbc565b604082019050919050565b60006020820190508181036000830152613c4781613c0b565b9050919050565b7f4552433732313a207472616e736665722066726f6d20696e636f72726563742060008201527f6f776e6572000000000000000000000000000000000000000000000000000000602082015250565b6000613caa602583612d53565b9150613cb582613c4e565b604082019050919050565b60006020820190508181036000830152613cd981613c9d565b9050919050565b7f4552433732313a207472616e7366657220746f20746865207a65726f2061646460008201527f7265737300000000000000000000000000000000000000000000000000000000602082015250565b6000613d3c602483612d53565b9150613d4782613ce0565b604082019050919050565b60006020820190508181036000830152613d6b81613d2f565b9050919050565b7f4f776e61626c653a2063616c6c6572206973206e6f7420746865206f776e6572600082015250565b6000613da8602083612d53565b9150613db382613d72565b602082019050919050565b60006020820190508181036000830152613dd781613d9b565b9050919050565b7f4552433732313a206d696e7420746f20746865207a65726f2061646472657373600082015250565b6000613e14602083612d53565b9150613e1f82613dde565b602082019050919050565b60006020820190508181036000830152613e4381613e07565b9050919050565b7f4552433732313a20746f6b656e20616c7265616479206d696e74656400000000600082015250565b6000613e80601c83612d53565b9150613e8b82613e4a565b602082019050919050565b60006020820190508181036000830152613eaf81613e73565b9050919050565b7f4552433732313a20617070726f766520746f2063616c6c657200000000000000600082015250565b6000613eec601983612d53565b9150613ef782613eb6565b602082019050919050565b60006020820190508181036000830152613f1b81613edf565b9050919050565b7f4552433732313a207472616e7366657220746f206e6f6e20455243373231526560008201527f63656976657220696d706c656d656e7465720000000000000000000000000000602082015250565b6000613f7e603283612d53565b9150613f8982613f22565b604082019050919050565b60006020820190508181036000830152613fad81613f71565b9050919050565b7f4e487b7100000000000000000000000000000000000000000000000000000000600052601260045260246000fd5b600081519050919050565b600082825260208201905092915050565b600061400a82613fe3565b6140148185613fee565b9350614024818560208601612d64565b61402d81612d97565b840191505092915050565b600060808201905061404d6000830187612e5c565b61405a6020830186612e5c565b6140676040830185612ec6565b81810360608301526140798184613fff565b905095945050505050565b60008151905061409381612b44565b92915050565b6000602082840312156140af576140ae612b0e565b5b60006140bd84828501614084565b91505092915050565b7f455243373231456e756d657261626c653a20636f6e736563757469766520747260008201527f616e7366657273206e6f7420737570706f727465640000000000000000000000602082015250565b6000614122603583612d53565b915061412d826140c6565b604082019050919050565b6000602082019050818103600083015261415181614115565b9050919050565b600061416382612c8a565b915061416e83612c8a565b925082821015614181576141806133ab565b5b828203905092915050565b7f4e487b7100000000000000000000000000000000000000000000000000000000600052603160045260246000fdfea2646970667358221220ff8c7790b4fb022dd3c8e9c13ac55e1e5a239a88a7674503264eda866ebfa1fd64736f6c63430008090033","opcodes":"PUSH1 0x80 PUSH1 0x40 MSTORE PUSH1 0x1 PUSH1 0x4 SSTORE CALLVALUE DUP1 ISZERO PUSH3 0x16 JUMPI PUSH1 0x0 DUP1 REVERT JUMPDEST POP PUSH1 0x40 MLOAD PUSH3 0x7842 CODESIZE SUB DUP1 PUSH3 0x7842 DUP4 CODECOPY DUP2 DUP2 ADD PUSH1 0x40 MSTORE DUP2 ADD SWAP1 PUSH3 0x3C SWAP2 SWAP1 PUSH3 0x1C9 JUMP JUMPDEST DUP1 PUSH1 0x0 DUP1 PUSH2 0x100 EXP DUP2 SLOAD DUP2 PUSH20 0xFFFFFFFFFFFFFFFFFFFFFFFFFFFFFFFFFFFFFFFF MUL NOT AND SWAP1 DUP4 PUSH20 0xFFFFFFFFFFFFFFFFFFFFFFFFFFFFFFFFFFFFFFFF AND MUL OR SWAP1 SSTORE POP DUP1 PUSH1 0x40 MLOAD PUSH3 0x8B SWAP1 PUSH3 0x13D JUMP JUMPDEST PUSH3 0x97 SWAP2 SWAP1 PUSH3 0x266 JUMP JUMPDEST PUSH1 0x40 MLOAD DUP1 SWAP2 SUB SWAP1 PUSH1 0x0 CREATE DUP1 ISZERO DUP1 ISZERO PUSH3 0xB4 JUMPI RETURNDATASIZE PUSH1 0x0 DUP1 RETURNDATACOPY RETURNDATASIZE PUSH1 0x0 REVERT JUMPDEST POP PUSH1 0x1 PUSH1 0x0 PUSH2 0x100 EXP DUP2 SLOAD DUP2 PUSH20 0xFFFFFFFFFFFFFFFFFFFFFFFFFFFFFFFFFFFFFFFF MUL NOT AND SWAP1 DUP4 PUSH20 0xFFFFFFFFFFFFFFFFFFFFFFFFFFFFFFFFFFFFFFFF AND MUL OR SWAP1 SSTORE POP CALLER PUSH1 0x2 PUSH1 0x0 PUSH2 0x100 EXP DUP2 SLOAD DUP2 PUSH20 0xFFFFFFFFFFFFFFFFFFFFFFFFFFFFFFFFFFFFFFFF MUL NOT AND SWAP1 DUP4 PUSH20 0xFFFFFFFFFFFFFFFFFFFFFFFFFFFFFFFFFFFFFFFF AND MUL OR SWAP1 SSTORE POP POP PUSH3 0x283 JUMP JUMPDEST PUSH2 0x45D3 DUP1 PUSH3 0x326F DUP4 CODECOPY ADD SWAP1 JUMP JUMPDEST PUSH1 0x0 DUP1 REVERT JUMPDEST PUSH1 0x0 PUSH20 0xFFFFFFFFFFFFFFFFFFFFFFFFFFFFFFFFFFFFFFFF DUP3 AND SWAP1 POP SWAP2 SWAP1 POP JUMP JUMPDEST PUSH1 0x0 PUSH3 0x17D DUP3 PUSH3 0x150 JUMP JUMPDEST SWAP1 POP SWAP2 SWAP1 POP JUMP JUMPDEST PUSH1 0x0 PUSH3 0x191 DUP3 PUSH3 0x170 JUMP JUMPDEST SWAP1 POP SWAP2 SWAP1 POP JUMP JUMPDEST PUSH3 0x1A3 DUP2 PUSH3 0x184 JUMP JUMPDEST DUP2 EQ PUSH3 0x1AF JUMPI PUSH1 0x0 DUP1 REVERT JUMPDEST POP JUMP JUMPDEST PUSH1 0x0 DUP2 MLOAD SWAP1 POP PUSH3 0x1C3 DUP2 PUSH3 0x198 JUMP JUMPDEST SWAP3 SWAP2 POP POP JUMP JUMPDEST PUSH1 0x0 PUSH1 0x20 DUP3 DUP5 SUB SLT ISZERO PUSH3 0x1E2 JUMPI PUSH3 0x1E1 PUSH3 0x14B JUMP JUMPDEST JUMPDEST PUSH1 0x0 PUSH3 0x1F2 DUP5 DUP3 DUP6 ADD PUSH3 0x1B2 JUMP JUMPDEST SWAP2 POP POP SWAP3 SWAP2 POP POP JUMP JUMPDEST PUSH1 0x0 DUP2 SWAP1 POP SWAP2 SWAP1 POP JUMP JUMPDEST PUSH1 0x0 PUSH3 0x226 PUSH3 0x220 PUSH3 0x21A DUP5 PUSH3 0x150 JUMP JUMPDEST PUSH3 0x1FB JUMP JUMPDEST PUSH3 0x150 JUMP JUMPDEST SWAP1 POP SWAP2 SWAP1 POP JUMP JUMPDEST PUSH1 0x0 PUSH3 0x23A DUP3 PUSH3 0x205 JUMP JUMPDEST SWAP1 POP SWAP2 SWAP1 POP JUMP JUMPDEST PUSH1 0x0 PUSH3 0x24E DUP3 PUSH3 0x22D JUMP JUMPDEST SWAP1 POP SWAP2 SWAP1 POP JUMP JUMPDEST PUSH3 0x260 DUP2 PUSH3 0x241 JUMP JUMPDEST DUP3 MSTORE POP POP JUMP JUMPDEST PUSH1 0x0 PUSH1 0x20 DUP3 ADD SWAP1 POP PUSH3 0x27D PUSH1 0x0 DUP4 ADD DUP5 PUSH3 0x255 JUMP JUMPDEST SWAP3 SWAP2 POP POP JUMP JUMPDEST PUSH2 0x2FDC DUP1 PUSH3 0x293 PUSH1 0x0 CODECOPY PUSH1 0x0 RETURN INVALID PUSH1 0x80 PUSH1 0x40 MSTORE CALLVALUE DUP1 ISZERO PUSH2 0x10 JUMPI PUSH1 0x0 DUP1 REVERT JUMPDEST POP PUSH1 0x4 CALLDATASIZE LT PUSH2 0x100 JUMPI PUSH1 0x0 CALLDATALOAD PUSH1 0xE0 SHR DUP1 PUSH4 0x7BF3EE1C GT PUSH2 0x97 JUMPI DUP1 PUSH4 0xE71C9697 GT PUSH2 0x66 JUMPI DUP1 PUSH4 0xE71C9697 EQ PUSH2 0x2DE JUMPI DUP1 PUSH4 0xE935B7B1 EQ PUSH2 0x2FA JUMPI DUP1 PUSH4 0xF0F3F2C8 EQ PUSH2 0x318 JUMPI DUP1 PUSH4 0xF206C7AA EQ PUSH2 0x34F JUMPI PUSH2 0x100 JUMP JUMPDEST DUP1 PUSH4 0x7BF3EE1C EQ PUSH2 0x229 JUMPI DUP1 PUSH4 0x8068AA68 EQ PUSH2 0x245 JUMPI DUP1 PUSH4 0x9D194FEF EQ PUSH2 0x278 JUMPI DUP1 PUSH4 0xE6A8C7F7 EQ PUSH2 0x2AE JUMPI PUSH2 0x100 JUMP JUMPDEST DUP1 PUSH4 0x481C6A75 GT PUSH2 0xD3 JUMPI DUP1 PUSH4 0x481C6A75 EQ PUSH2 0x1A1 JUMPI DUP1 PUSH4 0x4E645002 EQ PUSH2 0x1BF JUMPI DUP1 PUSH4 0x552ECB86 EQ PUSH2 0x1DB JUMPI DUP1 PUSH4 0x6D3739C4 EQ PUSH2 0x20B JUMPI PUSH2 0x100 JUMP JUMPDEST DUP1 PUSH4 0x1605129 EQ PUSH2 0x105 JUMPI DUP1 PUSH4 0x231EDCD8 EQ PUSH2 0x123 JUMPI DUP1 PUSH4 0x353E7BCC EQ PUSH2 0x153 JUMPI DUP1 PUSH4 0x3BCFF3B0 EQ PUSH2 0x183 JUMPI JUMPDEST PUSH1 0x0 DUP1 REVERT JUMPDEST PUSH2 0x10D PUSH2 0x36D JUMP JUMPDEST PUSH1 0x40 MLOAD PUSH2 0x11A SWAP2 SWAP1 PUSH2 0x1BE1 JUMP JUMPDEST PUSH1 0x40 MLOAD DUP1 SWAP2 SUB SWAP1 RETURN JUMPDEST PUSH2 0x13D PUSH1 0x4 DUP1 CALLDATASIZE SUB DUP2 ADD SWAP1 PUSH2 0x138 SWAP2 SWAP1 PUSH2 0x1C72 JUMP JUMPDEST PUSH2 0x397 JUMP JUMPDEST PUSH1 0x40 MLOAD PUSH2 0x14A SWAP2 SWAP1 PUSH2 0x1DC5 JUMP JUMPDEST PUSH1 0x40 MLOAD DUP1 SWAP2 SUB SWAP1 RETURN JUMPDEST PUSH2 0x16D PUSH1 0x4 DUP1 CALLDATASIZE SUB DUP2 ADD SWAP1 PUSH2 0x168 SWAP2 SWAP1 PUSH2 0x1DE7 JUMP JUMPDEST PUSH2 0x5A4 JUMP JUMPDEST PUSH1 0x40 MLOAD PUSH2 0x17A SWAP2 SWAP1 PUSH2 0x1E36 JUMP JUMPDEST PUSH1 0x40 MLOAD DUP1 SWAP2 SUB SWAP1 RETURN JUMPDEST PUSH2 0x18B PUSH2 0x625 JUMP JUMPDEST PUSH1 0x40 MLOAD PUSH2 0x198 SWAP2 SWAP1 PUSH2 0x1E36 JUMP JUMPDEST PUSH1 0x40 MLOAD DUP1 SWAP2 SUB SWAP1 RETURN JUMPDEST PUSH2 0x1A9 PUSH2 0x632 JUMP JUMPDEST PUSH1 0x40 MLOAD PUSH2 0x1B6 SWAP2 SWAP1 PUSH2 0x1BE1 JUMP JUMPDEST PUSH1 0x40 MLOAD DUP1 SWAP2 SUB SWAP1 RETURN JUMPDEST PUSH2 0x1D9 PUSH1 0x4 DUP1 CALLDATASIZE SUB DUP2 ADD SWAP1 PUSH2 0x1D4 SWAP2 SWAP1 PUSH2 0x207D JUMP JUMPDEST PUSH2 0x658 JUMP JUMPDEST STOP JUMPDEST PUSH2 0x1F5 PUSH1 0x4 DUP1 CALLDATASIZE SUB DUP2 ADD SWAP1 PUSH2 0x1F0 SWAP2 SWAP1 PUSH2 0x1DE7 JUMP JUMPDEST PUSH2 0x8C3 JUMP JUMPDEST PUSH1 0x40 MLOAD PUSH2 0x202 SWAP2 SWAP1 PUSH2 0x1E36 JUMP JUMPDEST PUSH1 0x40 MLOAD DUP1 SWAP2 SUB SWAP1 RETURN JUMPDEST PUSH2 0x213 PUSH2 0x8E8 JUMP JUMPDEST PUSH1 0x40 MLOAD PUSH2 0x220 SWAP2 SWAP1 PUSH2 0x217B JUMP JUMPDEST PUSH1 0x40 MLOAD DUP1 SWAP2 SUB SWAP1 RETURN JUMPDEST PUSH2 0x243 PUSH1 0x4 DUP1 CALLDATASIZE SUB DUP2 ADD SWAP1 PUSH2 0x23E SWAP2 SWAP1 PUSH2 0x1DE7 JUMP JUMPDEST PUSH2 0x90C JUMP JUMPDEST STOP JUMPDEST PUSH2 0x25F PUSH1 0x4 DUP1 CALLDATASIZE SUB DUP2 ADD SWAP1 PUSH2 0x25A SWAP2 SWAP1 PUSH2 0x1C72 JUMP JUMPDEST PUSH2 0xF91 JUMP JUMPDEST PUSH1 0x40 MLOAD PUSH2 0x26F SWAP5 SWAP4 SWAP3 SWAP2 SWAP1 PUSH2 0x2196 JUMP JUMPDEST PUSH1 0x40 MLOAD DUP1 SWAP2 SUB SWAP1 RETURN JUMPDEST PUSH2 0x292 PUSH1 0x4 DUP1 CALLDATASIZE SUB DUP2 ADD SWAP1 PUSH2 0x28D SWAP2 SWAP1 PUSH2 0x21DB JUMP JUMPDEST PUSH2 0xFDE JUMP JUMPDEST PUSH1 0x40 MLOAD PUSH2 0x2A5 SWAP8 SWAP7 SWAP6 SWAP5 SWAP4 SWAP3 SWAP2 SWAP1 PUSH2 0x22AB JUMP JUMPDEST PUSH1 0x40 MLOAD DUP1 SWAP2 SUB SWAP1 RETURN JUMPDEST PUSH2 0x2C8 PUSH1 0x4 DUP1 CALLDATASIZE SUB DUP2 ADD SWAP1 PUSH2 0x2C3 SWAP2 SWAP1 PUSH2 0x2321 JUMP JUMPDEST PUSH2 0x10C5 JUMP JUMPDEST PUSH1 0x40 MLOAD PUSH2 0x2D5 SWAP2 SWAP1 PUSH2 0x1BE1 JUMP JUMPDEST PUSH1 0x40 MLOAD DUP1 SWAP2 SUB SWAP1 RETURN JUMPDEST PUSH2 0x2F8 PUSH1 0x4 DUP1 CALLDATASIZE SUB DUP2 ADD SWAP1 PUSH2 0x2F3 SWAP2 SWAP1 PUSH2 0x2321 JUMP JUMPDEST PUSH2 0x1120 JUMP JUMPDEST STOP JUMPDEST PUSH2 0x302 PUSH2 0x17A6 JUMP JUMPDEST PUSH1 0x40 MLOAD PUSH2 0x30F SWAP2 SWAP1 PUSH2 0x1E36 JUMP JUMPDEST PUSH1 0x40 MLOAD DUP1 SWAP2 SUB SWAP1 RETURN JUMPDEST PUSH2 0x332 PUSH1 0x4 DUP1 CALLDATASIZE SUB DUP2 ADD SWAP1 PUSH2 0x32D SWAP2 SWAP1 PUSH2 0x21DB JUMP JUMPDEST PUSH2 0x17AC JUMP JUMPDEST PUSH1 0x40 MLOAD PUSH2 0x346 SWAP9 SWAP8 SWAP7 SWAP6 SWAP5 SWAP4 SWAP3 SWAP2 SWAP1 PUSH2 0x2480 JUMP JUMPDEST PUSH1 0x40 MLOAD DUP1 SWAP2 SUB SWAP1 RETURN JUMPDEST PUSH2 0x357 PUSH2 0x19EB JUMP JUMPDEST PUSH1 0x40 MLOAD PUSH2 0x364 SWAP2 SWAP1 PUSH2 0x252D JUMP JUMPDEST PUSH1 0x40 MLOAD DUP1 SWAP2 SUB SWAP1 RETURN JUMPDEST PUSH1 0x0 PUSH1 0x1 PUSH1 0x0 SWAP1 SLOAD SWAP1 PUSH2 0x100 EXP SWAP1 DIV PUSH20 0xFFFFFFFFFFFFFFFFFFFFFFFFFFFFFFFFFFFFFFFF AND SWAP1 POP SWAP1 JUMP JUMPDEST PUSH1 0x60 PUSH1 0x0 PUSH1 0x7 PUSH1 0x0 DUP6 PUSH20 0xFFFFFFFFFFFFFFFFFFFFFFFFFFFFFFFFFFFFFFFF AND PUSH20 0xFFFFFFFFFFFFFFFFFFFFFFFFFFFFFFFFFFFFFFFF AND DUP2 MSTORE PUSH1 0x20 ADD SWAP1 DUP2 MSTORE PUSH1 0x20 ADD PUSH1 0x0 KECCAK256 DUP1 SLOAD DUP1 PUSH1 0x20 MUL PUSH1 0x20 ADD PUSH1 0x40 MLOAD SWAP1 DUP2 ADD PUSH1 0x40 MSTORE DUP1 SWAP3 SWAP2 SWAP1 DUP2 DUP2 MSTORE PUSH1 0x20 ADD PUSH1 0x0 SWAP1 JUMPDEST DUP3 DUP3 LT ISZERO PUSH2 0x454 JUMPI DUP4 DUP3 SWAP1 PUSH1 0x0 MSTORE PUSH1 0x20 PUSH1 0x0 KECCAK256 SWAP1 PUSH1 0x4 MUL ADD PUSH1 0x40 MLOAD DUP1 PUSH1 0x80 ADD PUSH1 0x40 MSTORE SWAP1 DUP2 PUSH1 0x0 DUP3 ADD SLOAD DUP2 MSTORE PUSH1 0x20 ADD PUSH1 0x1 DUP3 ADD SLOAD DUP2 MSTORE PUSH1 0x20 ADD PUSH1 0x2 DUP3 ADD SLOAD DUP2 MSTORE PUSH1 0x20 ADD PUSH1 0x3 DUP3 ADD SLOAD DUP2 MSTORE POP POP DUP2 MSTORE PUSH1 0x20 ADD SWAP1 PUSH1 0x1 ADD SWAP1 PUSH2 0x3FA JUMP JUMPDEST POP POP POP POP SWAP1 POP PUSH1 0x0 DUP1 JUMPDEST DUP3 MLOAD DUP2 LT ISZERO PUSH2 0x4AF JUMPI DUP5 DUP4 DUP3 DUP2 MLOAD DUP2 LT PUSH2 0x47B JUMPI PUSH2 0x47A PUSH2 0x2548 JUMP JUMPDEST JUMPDEST PUSH1 0x20 MUL PUSH1 0x20 ADD ADD MLOAD PUSH1 0x0 ADD MLOAD EQ ISZERO PUSH2 0x49C JUMPI DUP2 DUP1 PUSH2 0x498 SWAP1 PUSH2 0x25A6 JUMP JUMPDEST SWAP3 POP POP JUMPDEST DUP1 DUP1 PUSH2 0x4A7 SWAP1 PUSH2 0x25A6 JUMP JUMPDEST SWAP2 POP POP PUSH2 0x45E JUMP JUMPDEST POP PUSH1 0x0 DUP2 PUSH8 0xFFFFFFFFFFFFFFFF DUP2 GT ISZERO PUSH2 0x4CC JUMPI PUSH2 0x4CB PUSH2 0x1E6C JUMP JUMPDEST JUMPDEST PUSH1 0x40 MLOAD SWAP1 DUP1 DUP3 MSTORE DUP1 PUSH1 0x20 MUL PUSH1 0x20 ADD DUP3 ADD PUSH1 0x40 MSTORE DUP1 ISZERO PUSH2 0x505 JUMPI DUP2 PUSH1 0x20 ADD JUMPDEST PUSH2 0x4F2 PUSH2 0x1A11 JUMP JUMPDEST DUP2 MSTORE PUSH1 0x20 ADD SWAP1 PUSH1 0x1 SWAP1 SUB SWAP1 DUP2 PUSH2 0x4EA JUMPI SWAP1 POP JUMPDEST POP SWAP1 POP PUSH1 0x0 DUP1 JUMPDEST DUP5 MLOAD DUP2 LT ISZERO PUSH2 0x596 JUMPI DUP7 DUP6 DUP3 DUP2 MLOAD DUP2 LT PUSH2 0x529 JUMPI PUSH2 0x528 PUSH2 0x2548 JUMP JUMPDEST JUMPDEST PUSH1 0x20 MUL PUSH1 0x20 ADD ADD MLOAD PUSH1 0x0 ADD MLOAD EQ ISZERO PUSH2 0x583 JUMPI DUP5 DUP2 DUP2 MLOAD DUP2 LT PUSH2 0x54E JUMPI PUSH2 0x54D PUSH2 0x2548 JUMP JUMPDEST JUMPDEST PUSH1 0x20 MUL PUSH1 0x20 ADD ADD MLOAD DUP4 DUP4 DUP2 MLOAD DUP2 LT PUSH2 0x569 JUMPI PUSH2 0x568 PUSH2 0x2548 JUMP JUMPDEST JUMPDEST PUSH1 0x20 MUL PUSH1 0x20 ADD ADD DUP2 SWAP1 MSTORE POP DUP2 DUP1 PUSH2 0x57F SWAP1 PUSH2 0x25A6 JUMP JUMPDEST SWAP3 POP POP JUMPDEST DUP1 DUP1 PUSH2 0x58E SWAP1 PUSH2 0x25A6 JUMP JUMPDEST SWAP2 POP POP PUSH2 0x50C JUMP JUMPDEST POP DUP2 SWAP5 POP POP POP POP POP SWAP3 SWAP2 POP POP JUMP JUMPDEST PUSH1 0x0 DUP3 PUSH1 0x0 DUP2 GT DUP1 ISZERO PUSH2 0x5B8 JUMPI POP PUSH1 0x4 SLOAD DUP2 LT JUMPDEST PUSH2 0x5F7 JUMPI PUSH1 0x40 MLOAD PUSH32 0x8C379A000000000000000000000000000000000000000000000000000000000 DUP2 MSTORE PUSH1 0x4 ADD PUSH2 0x5EE SWAP1 PUSH2 0x263B JUMP JUMPDEST PUSH1 0x40 MLOAD DUP1 SWAP2 SUB SWAP1 REVERT JUMPDEST PUSH1 0x5 PUSH1 0x0 DUP6 DUP2 MSTORE PUSH1 0x20 ADD SWAP1 DUP2 MSTORE PUSH1 0x20 ADD PUSH1 0x0 KECCAK256 PUSH1 0x0 DUP5 DUP2 MSTORE PUSH1 0x20 ADD SWAP1 DUP2 MSTORE PUSH1 0x20 ADD PUSH1 0x0 KECCAK256 SLOAD SWAP2 POP POP SWAP3 SWAP2 POP POP JUMP JUMPDEST PUSH1 0x0 PUSH1 0x3 DUP1 SLOAD SWAP1 POP SWAP1 POP SWAP1 JUMP JUMPDEST PUSH1 0x2 PUSH1 0x0 SWAP1 SLOAD SWAP1 PUSH2 0x100 EXP SWAP1 DIV PUSH20 0xFFFFFFFFFFFFFFFFFFFFFFFFFFFFFFFFFFFFFFFF AND DUP2 JUMP JUMPDEST PUSH1 0x2 PUSH1 0x0 SWAP1 SLOAD SWAP1 PUSH2 0x100 EXP SWAP1 DIV PUSH20 0xFFFFFFFFFFFFFFFFFFFFFFFFFFFFFFFFFFFFFFFF AND PUSH20 0xFFFFFFFFFFFFFFFFFFFFFFFFFFFFFFFFFFFFFFFF AND CALLER PUSH20 0xFFFFFFFFFFFFFFFFFFFFFFFFFFFFFFFFFFFFFFFF AND EQ PUSH2 0x6E8 JUMPI PUSH1 0x40 MLOAD PUSH32 0x8C379A000000000000000000000000000000000000000000000000000000000 DUP2 MSTORE PUSH1 0x4 ADD PUSH2 0x6DF SWAP1 PUSH2 0x26A7 JUMP JUMPDEST PUSH1 0x40 MLOAD DUP1 SWAP2 SUB SWAP1 REVERT JUMPDEST PUSH1 0x2 DUP4 MLOAD LT ISZERO PUSH2 0x72D JUMPI PUSH1 0x40 MLOAD PUSH32 0x8C379A000000000000000000000000000000000000000000000000000000000 DUP2 MSTORE PUSH1 0x4 ADD PUSH2 0x724 SWAP1 PUSH2 0x2713 JUMP JUMPDEST PUSH1 0x40 MLOAD DUP1 SWAP2 SUB SWAP1 REVERT JUMPDEST PUSH1 0x0 DUP3 GT PUSH2 0x770 JUMPI PUSH1 0x40 MLOAD PUSH32 0x8C379A000000000000000000000000000000000000000000000000000000000 DUP2 MSTORE PUSH1 0x4 ADD PUSH2 0x767 SWAP1 PUSH2 0x27A5 JUMP JUMPDEST PUSH1 0x40 MLOAD DUP1 SWAP2 SUB SWAP1 REVERT JUMPDEST PUSH1 0x0 DUP2 GT PUSH2 0x7B3 JUMPI PUSH1 0x40 MLOAD PUSH32 0x8C379A000000000000000000000000000000000000000000000000000000000 DUP2 MSTORE PUSH1 0x4 ADD PUSH2 0x7AA SWAP1 PUSH2 0x2811 JUMP JUMPDEST PUSH1 0x40 MLOAD DUP1 SWAP2 SUB SWAP1 REVERT JUMPDEST PUSH1 0x0 PUSH1 0x4 PUSH1 0x0 DUP2 SLOAD DUP1 SWAP3 SWAP2 SWAP1 PUSH2 0x7C8 SWAP1 PUSH2 0x25A6 JUMP JUMPDEST SWAP2 SWAP1 POP SSTORE SWAP1 POP PUSH1 0x0 PUSH1 0x3 PUSH1 0x1 DUP2 PUSH1 0x1 DUP2 SLOAD ADD DUP1 DUP3 SSTORE DUP1 SWAP2 POP POP SUB SWAP1 PUSH1 0x0 MSTORE PUSH1 0x20 PUSH1 0x0 KECCAK256 SWAP1 PUSH1 0x8 MUL ADD SWAP1 POP DUP2 DUP2 PUSH1 0x0 ADD DUP2 SWAP1 SSTORE POP DUP6 DUP2 PUSH1 0x1 ADD SWAP1 DUP1 MLOAD SWAP1 PUSH1 0x20 ADD SWAP1 PUSH2 0x813 SWAP3 SWAP2 SWAP1 PUSH2 0x1A39 JUMP JUMPDEST POP DUP5 DUP2 PUSH1 0x2 ADD SWAP1 DUP1 MLOAD SWAP1 PUSH1 0x20 ADD SWAP1 PUSH2 0x82C SWAP3 SWAP2 SWAP1 PUSH2 0x1ABF JUMP JUMPDEST POP DUP4 DUP2 PUSH1 0x3 ADD DUP2 SWAP1 SSTORE POP DUP3 TIMESTAMP PUSH2 0x842 SWAP2 SWAP1 PUSH2 0x2831 JUMP JUMPDEST DUP2 PUSH1 0x4 ADD DUP2 SWAP1 SSTORE POP PUSH1 0x0 DUP2 PUSH1 0x5 ADD DUP2 SWAP1 SSTORE POP PUSH1 0x1 DUP2 PUSH1 0x6 ADD PUSH1 0x0 PUSH2 0x100 EXP DUP2 SLOAD DUP2 PUSH1 0xFF MUL NOT AND SWAP1 DUP4 ISZERO ISZERO MUL OR SWAP1 SSTORE POP PUSH1 0x0 DUP2 PUSH1 0x7 ADD DUP2 SWAP1 SSTORE POP DUP2 PUSH32 0x6AD8E25E78A676033392E940160ACC1FA955F929F88D380F5FD2D2F5D9CE9E20 DUP8 DUP7 DUP5 PUSH1 0x4 ADD SLOAD PUSH1 0x40 MLOAD PUSH2 0x8B3 SWAP4 SWAP3 SWAP2 SWAP1 PUSH2 0x2887 JUMP JUMPDEST PUSH1 0x40 MLOAD DUP1 SWAP2 SUB SWAP1 LOG2 POP POP POP POP POP POP JUMP JUMPDEST PUSH1 0x5 PUSH1 0x20 MSTORE DUP2 PUSH1 0x0 MSTORE PUSH1 0x40 PUSH1 0x0 KECCAK256 PUSH1 0x20 MSTORE DUP1 PUSH1 0x0 MSTORE PUSH1 0x40 PUSH1 0x0 KECCAK256 PUSH1 0x0 SWAP2 POP SWAP2 POP POP SLOAD DUP2 JUMP JUMPDEST PUSH1 0x0 DUP1 SLOAD SWAP1 PUSH2 0x100 EXP SWAP1 DIV PUSH20 0xFFFFFFFFFFFFFFFFFFFFFFFFFFFFFFFFFFFFFFFF AND DUP2 JUMP JUMPDEST PUSH1 0x2 PUSH1 0x0 SWAP1 SLOAD SWAP1 PUSH2 0x100 EXP SWAP1 DIV PUSH20 0xFFFFFFFFFFFFFFFFFFFFFFFFFFFFFFFFFFFFFFFF AND PUSH20 0xFFFFFFFFFFFFFFFFFFFFFFFFFFFFFFFFFFFFFFFF AND CALLER PUSH20 0xFFFFFFFFFFFFFFFFFFFFFFFFFFFFFFFFFFFFFFFF AND EQ PUSH2 0x99C JUMPI PUSH1 0x40 MLOAD PUSH32 0x8C379A000000000000000000000000000000000000000000000000000000000 DUP2 MSTORE PUSH1 0x4 ADD PUSH2 0x993 SWAP1 PUSH2 0x26A7 JUMP JUMPDEST PUSH1 0x40 MLOAD DUP1 SWAP2 SUB SWAP1 REVERT JUMPDEST DUP2 PUSH1 0x0 DUP2 GT DUP1 ISZERO PUSH2 0x9AE JUMPI POP PUSH1 0x4 SLOAD DUP2 LT JUMPDEST PUSH2 0x9ED JUMPI PUSH1 0x40 MLOAD PUSH32 0x8C379A000000000000000000000000000000000000000000000000000000000 DUP2 MSTORE PUSH1 0x4 ADD PUSH2 0x9E4 SWAP1 PUSH2 0x263B JUMP JUMPDEST PUSH1 0x40 MLOAD DUP1 SWAP2 SUB SWAP1 REVERT JUMPDEST DUP3 PUSH1 0x3 PUSH1 0x1 DUP3 PUSH2 0x9FD SWAP2 SWAP1 PUSH2 0x28C5 JUMP JUMPDEST DUP2 SLOAD DUP2 LT PUSH2 0xA0E JUMPI PUSH2 0xA0D PUSH2 0x2548 JUMP JUMPDEST JUMPDEST SWAP1 PUSH1 0x0 MSTORE PUSH1 0x20 PUSH1 0x0 KECCAK256 SWAP1 PUSH1 0x8 MUL ADD PUSH1 0x6 ADD PUSH1 0x0 SWAP1 SLOAD SWAP1 PUSH2 0x100 EXP SWAP1 DIV PUSH1 0xFF AND PUSH2 0xA6C JUMPI PUSH1 0x40 MLOAD PUSH32 0x8C379A000000000000000000000000000000000000000000000000000000000 DUP2 MSTORE PUSH1 0x4 ADD PUSH2 0xA63 SWAP1 PUSH2 0x2945 JUMP JUMPDEST PUSH1 0x40 MLOAD DUP1 SWAP2 SUB SWAP1 REVERT JUMPDEST PUSH1 0x0 PUSH1 0x3 PUSH1 0x1 DUP7 PUSH2 0xA7D SWAP2 SWAP1 PUSH2 0x28C5 JUMP JUMPDEST DUP2 SLOAD DUP2 LT PUSH2 0xA8E JUMPI PUSH2 0xA8D PUSH2 0x2548 JUMP JUMPDEST JUMPDEST SWAP1 PUSH1 0x0 MSTORE PUSH1 0x20 PUSH1 0x0 KECCAK256 SWAP1 PUSH1 0x8 MUL ADD SWAP1 POP DUP1 PUSH1 0x4 ADD SLOAD TIMESTAMP LT ISZERO PUSH2 0xAE5 JUMPI PUSH1 0x40 MLOAD PUSH32 0x8C379A000000000000000000000000000000000000000000000000000000000 DUP2 MSTORE PUSH1 0x4 ADD PUSH2 0xADC SWAP1 PUSH2 0x29B1 JUMP JUMPDEST PUSH1 0x40 MLOAD DUP1 SWAP2 SUB SWAP1 REVERT JUMPDEST DUP1 PUSH1 0x2 ADD DUP1 SLOAD SWAP1 POP DUP5 LT PUSH2 0xB2E JUMPI PUSH1 0x40 MLOAD PUSH32 0x8C379A000000000000000000000000000000000000000000000000000000000 DUP2 MSTORE PUSH1 0x4 ADD PUSH2 0xB25 SWAP1 PUSH2 0x2A1D JUMP JUMPDEST PUSH1 0x40 MLOAD DUP1 SWAP2 SUB SWAP1 REVERT JUMPDEST PUSH1 0x0 DUP2 PUSH1 0x5 ADD SLOAD EQ PUSH2 0xB75 JUMPI PUSH1 0x40 MLOAD PUSH32 0x8C379A000000000000000000000000000000000000000000000000000000000 DUP2 MSTORE PUSH1 0x4 ADD PUSH2 0xB6C SWAP1 PUSH2 0x2A89 JUMP JUMPDEST PUSH1 0x40 MLOAD DUP1 SWAP2 SUB SWAP1 REVERT JUMPDEST DUP4 DUP2 PUSH1 0x5 ADD DUP2 SWAP1 SSTORE POP PUSH1 0x0 DUP2 PUSH1 0x6 ADD PUSH1 0x0 PUSH2 0x100 EXP DUP2 SLOAD DUP2 PUSH1 0xFF MUL NOT AND SWAP1 DUP4 ISZERO ISZERO MUL OR SWAP1 SSTORE POP PUSH1 0x0 PUSH1 0x5 PUSH1 0x0 DUP8 DUP2 MSTORE PUSH1 0x20 ADD SWAP1 DUP2 MSTORE PUSH1 0x20 ADD PUSH1 0x0 KECCAK256 PUSH1 0x0 DUP7 DUP2 MSTORE PUSH1 0x20 ADD SWAP1 DUP2 MSTORE PUSH1 0x20 ADD PUSH1 0x0 KECCAK256 SLOAD SWAP1 POP PUSH1 0x0 PUSH1 0x6 PUSH1 0x0 DUP9 DUP2 MSTORE PUSH1 0x20 ADD SWAP1 DUP2 MSTORE PUSH1 0x20 ADD PUSH1 0x0 KECCAK256 PUSH1 0x0 DUP8 DUP2 MSTORE PUSH1 0x20 ADD SWAP1 DUP2 MSTORE PUSH1 0x20 ADD PUSH1 0x0 KECCAK256 DUP1 SLOAD DUP1 PUSH1 0x20 MUL PUSH1 0x20 ADD PUSH1 0x40 MLOAD SWAP1 DUP2 ADD PUSH1 0x40 MSTORE DUP1 SWAP3 SWAP2 SWAP1 DUP2 DUP2 MSTORE PUSH1 0x20 ADD DUP3 DUP1 SLOAD DUP1 ISZERO PUSH2 0xC6A JUMPI PUSH1 0x20 MUL DUP3 ADD SWAP2 SWAP1 PUSH1 0x0 MSTORE PUSH1 0x20 PUSH1 0x0 KECCAK256 SWAP1 JUMPDEST DUP2 PUSH1 0x0 SWAP1 SLOAD SWAP1 PUSH2 0x100 EXP SWAP1 DIV PUSH20 0xFFFFFFFFFFFFFFFFFFFFFFFFFFFFFFFFFFFFFFFF AND PUSH20 0xFFFFFFFFFFFFFFFFFFFFFFFFFFFFFFFFFFFFFFFF AND DUP2 MSTORE PUSH1 0x20 ADD SWAP1 PUSH1 0x1 ADD SWAP1 DUP1 DUP4 GT PUSH2 0xC20 JUMPI JUMPDEST POP POP POP POP POP SWAP1 POP PUSH1 0x0 DUP3 GT DUP1 ISZERO PUSH2 0xC82 JUMPI POP PUSH1 0x0 DUP2 MLOAD GT JUMPDEST ISZERO PUSH2 0xF50 JUMPI PUSH1 0x0 DUP4 PUSH1 0x7 ADD SLOAD DUP5 PUSH1 0x3 ADD SLOAD PUSH2 0xC9D SWAP2 SWAP1 PUSH2 0x2831 JUMP JUMPDEST SWAP1 POP PUSH1 0x0 DUP4 DUP3 PUSH2 0xCAD SWAP2 SWAP1 PUSH2 0x2AD8 JUMP JUMPDEST SWAP1 POP PUSH1 0x0 JUMPDEST DUP4 MLOAD DUP2 LT ISZERO PUSH2 0xF4C JUMPI PUSH1 0x0 DUP5 DUP3 DUP2 MLOAD DUP2 LT PUSH2 0xCD0 JUMPI PUSH2 0xCCF PUSH2 0x2548 JUMP JUMPDEST JUMPDEST PUSH1 0x20 MUL PUSH1 0x20 ADD ADD MLOAD SWAP1 POP PUSH1 0x0 PUSH1 0x7 PUSH1 0x0 DUP4 PUSH20 0xFFFFFFFFFFFFFFFFFFFFFFFFFFFFFFFFFFFFFFFF AND PUSH20 0xFFFFFFFFFFFFFFFFFFFFFFFFFFFFFFFFFFFFFFFF AND DUP2 MSTORE PUSH1 0x20 ADD SWAP1 DUP2 MSTORE PUSH1 0x20 ADD PUSH1 0x0 KECCAK256 DUP1 SLOAD DUP1 PUSH1 0x20 MUL PUSH1 0x20 ADD PUSH1 0x40 MLOAD SWAP1 DUP2 ADD PUSH1 0x40 MSTORE DUP1 SWAP3 SWAP2 SWAP1 DUP2 DUP2 MSTORE PUSH1 0x20 ADD PUSH1 0x0 SWAP1 JUMPDEST DUP3 DUP3 LT ISZERO PUSH2 0xD95 JUMPI DUP4 DUP3 SWAP1 PUSH1 0x0 MSTORE PUSH1 0x20 PUSH1 0x0 KECCAK256 SWAP1 PUSH1 0x4 MUL ADD PUSH1 0x40 MLOAD DUP1 PUSH1 0x80 ADD PUSH1 0x40 MSTORE SWAP1 DUP2 PUSH1 0x0 DUP3 ADD SLOAD DUP2 MSTORE PUSH1 0x20 ADD PUSH1 0x1 DUP3 ADD SLOAD DUP2 MSTORE PUSH1 0x20 ADD PUSH1 0x2 DUP3 ADD SLOAD DUP2 MSTORE PUSH1 0x20 ADD PUSH1 0x3 DUP3 ADD SLOAD DUP2 MSTORE POP POP DUP2 MSTORE PUSH1 0x20 ADD SWAP1 PUSH1 0x1 ADD SWAP1 PUSH2 0xD3B JUMP JUMPDEST POP POP POP POP SWAP1 POP PUSH1 0x0 JUMPDEST DUP2 MLOAD DUP2 LT ISZERO PUSH2 0xF36 JUMPI DUP13 DUP3 DUP3 DUP2 MLOAD DUP2 LT PUSH2 0xDBB JUMPI PUSH2 0xDBA PUSH2 0x2548 JUMP JUMPDEST JUMPDEST PUSH1 0x20 MUL PUSH1 0x20 ADD ADD MLOAD PUSH1 0x0 ADD MLOAD EQ DUP1 ISZERO PUSH2 0xDF1 JUMPI POP DUP12 DUP3 DUP3 DUP2 MLOAD DUP2 LT PUSH2 0xDE3 JUMPI PUSH2 0xDE2 PUSH2 0x2548 JUMP JUMPDEST JUMPDEST PUSH1 0x20 MUL PUSH1 0x20 ADD ADD MLOAD PUSH1 0x20 ADD MLOAD EQ JUMPDEST ISZERO PUSH2 0xF23 JUMPI PUSH1 0x0 DUP6 DUP4 DUP4 DUP2 MLOAD DUP2 LT PUSH2 0xE0C JUMPI PUSH2 0xE0B PUSH2 0x2548 JUMP JUMPDEST JUMPDEST PUSH1 0x20 MUL PUSH1 0x20 ADD ADD MLOAD PUSH1 0x40 ADD MLOAD PUSH2 0xE22 SWAP2 SWAP1 PUSH2 0x2B09 JUMP JUMPDEST SWAP1 POP PUSH1 0x0 DUP1 SLOAD SWAP1 PUSH2 0x100 EXP SWAP1 DIV PUSH20 0xFFFFFFFFFFFFFFFFFFFFFFFFFFFFFFFFFFFFFFFF AND PUSH20 0xFFFFFFFFFFFFFFFFFFFFFFFFFFFFFFFFFFFFFFFF AND PUSH4 0xA9059CBB DUP6 DUP4 PUSH1 0x40 MLOAD DUP4 PUSH4 0xFFFFFFFF AND PUSH1 0xE0 SHL DUP2 MSTORE PUSH1 0x4 ADD PUSH2 0xE7F SWAP3 SWAP2 SWAP1 PUSH2 0x2B63 JUMP JUMPDEST PUSH1 0x20 PUSH1 0x40 MLOAD DUP1 DUP4 SUB DUP2 PUSH1 0x0 DUP8 DUP1 EXTCODESIZE ISZERO DUP1 ISZERO PUSH2 0xE99 JUMPI PUSH1 0x0 DUP1 REVERT JUMPDEST POP GAS CALL ISZERO DUP1 ISZERO PUSH2 0xEAD JUMPI RETURNDATASIZE PUSH1 0x0 DUP1 RETURNDATACOPY RETURNDATASIZE PUSH1 0x0 REVERT JUMPDEST POP POP POP POP PUSH1 0x40 MLOAD RETURNDATASIZE PUSH1 0x1F NOT PUSH1 0x1F DUP3 ADD AND DUP3 ADD DUP1 PUSH1 0x40 MSTORE POP DUP2 ADD SWAP1 PUSH2 0xED1 SWAP2 SWAP1 PUSH2 0x2BB8 JUMP JUMPDEST POP DUP4 PUSH20 0xFFFFFFFFFFFFFFFFFFFFFFFFFFFFFFFFFFFFFFFF AND DUP15 PUSH32 0xDC1D0B6A7CBFA6F3B2D4325BAB5A169B265AD0B2B4022FB550364F0DFEEB6A74 DUP4 PUSH1 0x40 MLOAD PUSH2 0xF19 SWAP2 SWAP1 PUSH2 0x1E36 JUMP JUMPDEST PUSH1 0x40 MLOAD DUP1 SWAP2 SUB SWAP1 LOG3 POP JUMPDEST DUP1 DUP1 PUSH2 0xF2E SWAP1 PUSH2 0x25A6 JUMP JUMPDEST SWAP2 POP POP PUSH2 0xD9E JUMP JUMPDEST POP POP POP DUP1 DUP1 PUSH2 0xF44 SWAP1 PUSH2 0x25A6 JUMP JUMPDEST SWAP2 POP POP PUSH2 0xCB2 JUMP JUMPDEST POP POP POP JUMPDEST DUP7 PUSH32 0xC18A48E1BAA059C46B608B2E06C31B31E0136DE06600204BA4EA3DD6D427F972 DUP8 PUSH1 0x40 MLOAD PUSH2 0xF80 SWAP2 SWAP1 PUSH2 0x1E36 JUMP JUMPDEST PUSH1 0x40 MLOAD DUP1 SWAP2 SUB SWAP1 LOG2 POP POP POP POP POP POP POP JUMP JUMPDEST PUSH1 0x7 PUSH1 0x20 MSTORE DUP2 PUSH1 0x0 MSTORE PUSH1 0x40 PUSH1 0x0 KECCAK256 DUP2 DUP2 SLOAD DUP2 LT PUSH2 0xFAD JUMPI PUSH1 0x0 DUP1 REVERT JUMPDEST SWAP1 PUSH1 0x0 MSTORE PUSH1 0x20 PUSH1 0x0 KECCAK256 SWAP1 PUSH1 0x4 MUL ADD PUSH1 0x0 SWAP2 POP SWAP2 POP POP DUP1 PUSH1 0x0 ADD SLOAD SWAP1 DUP1 PUSH1 0x1 ADD SLOAD SWAP1 DUP1 PUSH1 0x2 ADD SLOAD SWAP1 DUP1 PUSH1 0x3 ADD SLOAD SWAP1 POP DUP5 JUMP JUMPDEST PUSH1 0x3 DUP2 DUP2 SLOAD DUP2 LT PUSH2 0xFEE JUMPI PUSH1 0x0 DUP1 REVERT JUMPDEST SWAP1 PUSH1 0x0 MSTORE PUSH1 0x20 PUSH1 0x0 KECCAK256 SWAP1 PUSH1 0x8 MUL ADD PUSH1 0x0 SWAP2 POP SWAP1 POP DUP1 PUSH1 0x0 ADD SLOAD SWAP1 DUP1 PUSH1 0x1 ADD DUP1 SLOAD PUSH2 0x1017 SWAP1 PUSH2 0x2C14 JUMP JUMPDEST DUP1 PUSH1 0x1F ADD PUSH1 0x20 DUP1 SWAP2 DIV MUL PUSH1 0x20 ADD PUSH1 0x40 MLOAD SWAP1 DUP2 ADD PUSH1 0x40 MSTORE DUP1 SWAP3 SWAP2 SWAP1 DUP2 DUP2 MSTORE PUSH1 0x20 ADD DUP3 DUP1 SLOAD PUSH2 0x1043 SWAP1 PUSH2 0x2C14 JUMP JUMPDEST DUP1 ISZERO PUSH2 0x1090 JUMPI DUP1 PUSH1 0x1F LT PUSH2 0x1065 JUMPI PUSH2 0x100 DUP1 DUP4 SLOAD DIV MUL DUP4 MSTORE SWAP2 PUSH1 0x20 ADD SWAP2 PUSH2 0x1090 JUMP JUMPDEST DUP3 ADD SWAP2 SWAP1 PUSH1 0x0 MSTORE PUSH1 0x20 PUSH1 0x0 KECCAK256 SWAP1 JUMPDEST DUP2 SLOAD DUP2 MSTORE SWAP1 PUSH1 0x1 ADD SWAP1 PUSH1 0x20 ADD DUP1 DUP4 GT PUSH2 0x1073 JUMPI DUP3 SWAP1 SUB PUSH1 0x1F AND DUP3 ADD SWAP2 JUMPDEST POP POP POP POP POP SWAP1 DUP1 PUSH1 0x3 ADD SLOAD SWAP1 DUP1 PUSH1 0x4 ADD SLOAD SWAP1 DUP1 PUSH1 0x5 ADD SLOAD SWAP1 DUP1 PUSH1 0x6 ADD PUSH1 0x0 SWAP1 SLOAD SWAP1 PUSH2 0x100 EXP SWAP1 DIV PUSH1 0xFF AND SWAP1 DUP1 PUSH1 0x7 ADD SLOAD SWAP1 POP DUP8 JUMP JUMPDEST PUSH1 0x6 PUSH1 0x20 MSTORE DUP3 PUSH1 0x0 MSTORE PUSH1 0x40 PUSH1 0x0 KECCAK256 PUSH1 0x20 MSTORE DUP2 PUSH1 0x0 MSTORE PUSH1 0x40 PUSH1 0x0 KECCAK256 DUP2 DUP2 SLOAD DUP2 LT PUSH2 0x10ED JUMPI PUSH1 0x0 DUP1 REVERT JUMPDEST SWAP1 PUSH1 0x0 MSTORE PUSH1 0x20 PUSH1 0x0 KECCAK256 ADD PUSH1 0x0 SWAP3 POP SWAP3 POP POP SWAP1 SLOAD SWAP1 PUSH2 0x100 EXP SWAP1 DIV PUSH20 0xFFFFFFFFFFFFFFFFFFFFFFFFFFFFFFFFFFFFFFFF AND DUP2 JUMP JUMPDEST DUP3 PUSH1 0x0 DUP2 GT DUP1 ISZERO PUSH2 0x1132 JUMPI POP PUSH1 0x4 SLOAD DUP2 LT JUMPDEST PUSH2 0x1171 JUMPI PUSH1 0x40 MLOAD PUSH32 0x8C379A000000000000000000000000000000000000000000000000000000000 DUP2 MSTORE PUSH1 0x4 ADD PUSH2 0x1168 SWAP1 PUSH2 0x263B JUMP JUMPDEST PUSH1 0x40 MLOAD DUP1 SWAP2 SUB SWAP1 REVERT JUMPDEST DUP4 PUSH1 0x3 PUSH1 0x1 DUP3 PUSH2 0x1181 SWAP2 SWAP1 PUSH2 0x28C5 JUMP JUMPDEST DUP2 SLOAD DUP2 LT PUSH2 0x1192 JUMPI PUSH2 0x1191 PUSH2 0x2548 JUMP JUMPDEST JUMPDEST SWAP1 PUSH1 0x0 MSTORE PUSH1 0x20 PUSH1 0x0 KECCAK256 SWAP1 PUSH1 0x8 MUL ADD PUSH1 0x6 ADD PUSH1 0x0 SWAP1 SLOAD SWAP1 PUSH2 0x100 EXP SWAP1 DIV PUSH1 0xFF AND PUSH2 0x11F0 JUMPI PUSH1 0x40 MLOAD PUSH32 0x8C379A000000000000000000000000000000000000000000000000000000000 DUP2 MSTORE PUSH1 0x4 ADD PUSH2 0x11E7 SWAP1 PUSH2 0x2945 JUMP JUMPDEST PUSH1 0x40 MLOAD DUP1 SWAP2 SUB SWAP1 REVERT JUMPDEST DUP5 PUSH1 0x3 PUSH1 0x1 DUP3 PUSH2 0x1200 SWAP2 SWAP1 PUSH2 0x28C5 JUMP JUMPDEST DUP2 SLOAD DUP2 LT PUSH2 0x1211 JUMPI PUSH2 0x1210 PUSH2 0x2548 JUMP JUMPDEST JUMPDEST SWAP1 PUSH1 0x0 MSTORE PUSH1 0x20 PUSH1 0x0 KECCAK256 SWAP1 PUSH1 0x8 MUL ADD PUSH1 0x4 ADD SLOAD TIMESTAMP LT PUSH2 0x1264 JUMPI PUSH1 0x40 MLOAD PUSH32 0x8C379A000000000000000000000000000000000000000000000000000000000 DUP2 MSTORE PUSH1 0x4 ADD PUSH2 0x125B SWAP1 PUSH2 0x2C92 JUMP JUMPDEST PUSH1 0x40 MLOAD DUP1 SWAP2 SUB SWAP1 REVERT JUMPDEST PUSH1 0x0 DUP5 GT PUSH2 0x12A7 JUMPI PUSH1 0x40 MLOAD PUSH32 0x8C379A000000000000000000000000000000000000000000000000000000000 DUP2 MSTORE PUSH1 0x4 ADD PUSH2 0x129E SWAP1 PUSH2 0x2D24 JUMP JUMPDEST PUSH1 0x40 MLOAD DUP1 SWAP2 SUB SWAP1 REVERT JUMPDEST PUSH1 0x0 PUSH1 0x3 PUSH1 0x1 DUP9 PUSH2 0x12B8 SWAP2 SWAP1 PUSH2 0x28C5 JUMP JUMPDEST DUP2 SLOAD DUP2 LT PUSH2 0x12C9 JUMPI PUSH2 0x12C8 PUSH2 0x2548 JUMP JUMPDEST JUMPDEST SWAP1 PUSH1 0x0 MSTORE PUSH1 0x20 PUSH1 0x0 KECCAK256 SWAP1 PUSH1 0x8 MUL ADD SWAP1 POP DUP1 PUSH1 0x2 ADD DUP1 SLOAD SWAP1 POP DUP7 LT PUSH2 0x1322 JUMPI PUSH1 0x40 MLOAD PUSH32 0x8C379A000000000000000000000000000000000000000000000000000000000 DUP2 MSTORE PUSH1 0x4 ADD PUSH2 0x1319 SWAP1 PUSH2 0x2D90 JUMP JUMPDEST PUSH1 0x40 MLOAD DUP1 SWAP2 SUB SWAP1 REVERT JUMPDEST DUP5 PUSH1 0x0 DUP1 SLOAD SWAP1 PUSH2 0x100 EXP SWAP1 DIV PUSH20 0xFFFFFFFFFFFFFFFFFFFFFFFFFFFFFFFFFFFFFFFF AND PUSH20 0xFFFFFFFFFFFFFFFFFFFFFFFFFFFFFFFFFFFFFFFF AND PUSH4 0xDD62ED3E CALLER ADDRESS PUSH1 0x40 MLOAD DUP4 PUSH4 0xFFFFFFFF AND PUSH1 0xE0 SHL DUP2 MSTORE PUSH1 0x4 ADD PUSH2 0x137E SWAP3 SWAP2 SWAP1 PUSH2 0x2DB0 JUMP JUMPDEST PUSH1 0x20 PUSH1 0x40 MLOAD DUP1 DUP4 SUB DUP2 DUP7 DUP1 EXTCODESIZE ISZERO DUP1 ISZERO PUSH2 0x1396 JUMPI PUSH1 0x0 DUP1 REVERT JUMPDEST POP GAS STATICCALL ISZERO DUP1 ISZERO PUSH2 0x13AA JUMPI RETURNDATASIZE PUSH1 0x0 DUP1 RETURNDATACOPY RETURNDATASIZE PUSH1 0x0 REVERT JUMPDEST POP POP POP POP PUSH1 0x40 MLOAD RETURNDATASIZE PUSH1 0x1F NOT PUSH1 0x1F DUP3 ADD AND DUP3 ADD DUP1 PUSH1 0x40 MSTORE POP DUP2 ADD SWAP1 PUSH2 0x13CE SWAP2 SWAP1 PUSH2 0x2DEE JUMP JUMPDEST LT ISZERO PUSH2 0x140F JUMPI PUSH1 0x40 MLOAD PUSH32 0x8C379A000000000000000000000000000000000000000000000000000000000 DUP2 MSTORE PUSH1 0x4 ADD PUSH2 0x1406 SWAP1 PUSH2 0x2E67 JUMP JUMPDEST PUSH1 0x40 MLOAD DUP1 SWAP2 SUB SWAP1 REVERT JUMPDEST PUSH1 0x0 DUP1 PUSH1 0x0 SWAP1 SLOAD SWAP1 PUSH2 0x100 EXP SWAP1 DIV PUSH20 0xFFFFFFFFFFFFFFFFFFFFFFFFFFFFFFFFFFFFFFFF AND PUSH20 0xFFFFFFFFFFFFFFFFFFFFFFFFFFFFFFFFFFFFFFFF AND PUSH4 0x23B872DD CALLER ADDRESS DUP10 PUSH1 0x40 MLOAD DUP5 PUSH4 0xFFFFFFFF AND PUSH1 0xE0 SHL DUP2 MSTORE PUSH1 0x4 ADD PUSH2 0x146F SWAP4 SWAP3 SWAP2 SWAP1 PUSH2 0x2E87 JUMP JUMPDEST PUSH1 0x20 PUSH1 0x40 MLOAD DUP1 DUP4 SUB DUP2 PUSH1 0x0 DUP8 DUP1 EXTCODESIZE ISZERO DUP1 ISZERO PUSH2 0x1489 JUMPI PUSH1 0x0 DUP1 REVERT JUMPDEST POP GAS CALL ISZERO DUP1 ISZERO PUSH2 0x149D JUMPI RETURNDATASIZE PUSH1 0x0 DUP1 RETURNDATACOPY RETURNDATASIZE PUSH1 0x0 REVERT JUMPDEST POP POP POP POP PUSH1 0x40 MLOAD RETURNDATASIZE PUSH1 0x1F NOT PUSH1 0x1F DUP3 ADD AND DUP3 ADD DUP1 PUSH1 0x40 MSTORE POP DUP2 ADD SWAP1 PUSH2 0x14C1 SWAP2 SWAP1 PUSH2 0x2BB8 JUMP JUMPDEST SWAP1 POP DUP1 PUSH2 0x1503 JUMPI PUSH1 0x40 MLOAD PUSH32 0x8C379A000000000000000000000000000000000000000000000000000000000 DUP2 MSTORE PUSH1 0x4 ADD PUSH2 0x14FA SWAP1 PUSH2 0x2F0A JUMP JUMPDEST PUSH1 0x40 MLOAD DUP1 SWAP2 SUB SWAP1 REVERT JUMPDEST PUSH1 0x0 PUSH1 0x1 PUSH1 0x0 SWAP1 SLOAD SWAP1 PUSH2 0x100 EXP SWAP1 DIV PUSH20 0xFFFFFFFFFFFFFFFFFFFFFFFFFFFFFFFFFFFFFFFF AND PUSH20 0xFFFFFFFFFFFFFFFFFFFFFFFFFFFFFFFFFFFFFFFF AND PUSH4 0x4945646E CALLER DUP12 DUP12 DUP12 PUSH1 0x40 MLOAD DUP6 PUSH4 0xFFFFFFFF AND PUSH1 0xE0 SHL DUP2 MSTORE PUSH1 0x4 ADD PUSH2 0x1566 SWAP5 SWAP4 SWAP3 SWAP2 SWAP1 PUSH2 0x2F2A JUMP JUMPDEST PUSH1 0x20 PUSH1 0x40 MLOAD DUP1 DUP4 SUB DUP2 PUSH1 0x0 DUP8 DUP1 EXTCODESIZE ISZERO DUP1 ISZERO PUSH2 0x1580 JUMPI PUSH1 0x0 DUP1 REVERT JUMPDEST POP GAS CALL ISZERO DUP1 ISZERO PUSH2 0x1594 JUMPI RETURNDATASIZE PUSH1 0x0 DUP1 RETURNDATACOPY RETURNDATASIZE PUSH1 0x0 REVERT JUMPDEST POP POP POP POP PUSH1 0x40 MLOAD RETURNDATASIZE PUSH1 0x1F NOT PUSH1 0x1F DUP3 ADD AND DUP3 ADD DUP1 PUSH1 0x40 MSTORE POP DUP2 ADD SWAP1 PUSH2 0x15B8 SWAP2 SWAP1 PUSH2 0x2DEE JUMP JUMPDEST SWAP1 POP DUP7 DUP4 PUSH1 0x7 ADD PUSH1 0x0 DUP3 DUP3 SLOAD PUSH2 0x15CE SWAP2 SWAP1 PUSH2 0x2831 JUMP JUMPDEST SWAP3 POP POP DUP2 SWAP1 SSTORE POP DUP7 PUSH1 0x5 PUSH1 0x0 DUP12 DUP2 MSTORE PUSH1 0x20 ADD SWAP1 DUP2 MSTORE PUSH1 0x20 ADD PUSH1 0x0 KECCAK256 PUSH1 0x0 DUP11 DUP2 MSTORE PUSH1 0x20 ADD SWAP1 DUP2 MSTORE PUSH1 0x20 ADD PUSH1 0x0 KECCAK256 PUSH1 0x0 DUP3 DUP3 SLOAD PUSH2 0x1609 SWAP2 SWAP1 PUSH2 0x2831 JUMP JUMPDEST SWAP3 POP POP DUP2 SWAP1 SSTORE POP PUSH1 0x6 PUSH1 0x0 DUP11 DUP2 MSTORE PUSH1 0x20 ADD SWAP1 DUP2 MSTORE PUSH1 0x20 ADD PUSH1 0x0 KECCAK256 PUSH1 0x0 DUP10 DUP2 MSTORE PUSH1 0x20 ADD SWAP1 DUP2 MSTORE PUSH1 0x20 ADD PUSH1 0x0 KECCAK256 CALLER SWAP1 DUP1 PUSH1 0x1 DUP2 SLOAD ADD DUP1 DUP3 SSTORE DUP1 SWAP2 POP POP PUSH1 0x1 SWAP1 SUB SWAP1 PUSH1 0x0 MSTORE PUSH1 0x20 PUSH1 0x0 KECCAK256 ADD PUSH1 0x0 SWAP1 SWAP2 SWAP1 SWAP2 SWAP1 SWAP2 PUSH2 0x100 EXP DUP2 SLOAD DUP2 PUSH20 0xFFFFFFFFFFFFFFFFFFFFFFFFFFFFFFFFFFFFFFFF MUL NOT AND SWAP1 DUP4 PUSH20 0xFFFFFFFFFFFFFFFFFFFFFFFFFFFFFFFFFFFFFFFF AND MUL OR SWAP1 SSTORE POP PUSH1 0x7 PUSH1 0x0 CALLER PUSH20 0xFFFFFFFFFFFFFFFFFFFFFFFFFFFFFFFFFFFFFFFF AND PUSH20 0xFFFFFFFFFFFFFFFFFFFFFFFFFFFFFFFFFFFFFFFF AND DUP2 MSTORE PUSH1 0x20 ADD SWAP1 DUP2 MSTORE PUSH1 0x20 ADD PUSH1 0x0 KECCAK256 PUSH1 0x40 MLOAD DUP1 PUSH1 0x80 ADD PUSH1 0x40 MSTORE DUP1 DUP12 DUP2 MSTORE PUSH1 0x20 ADD DUP11 DUP2 MSTORE PUSH1 0x20 ADD DUP10 DUP2 MSTORE PUSH1 0x20 ADD DUP4 DUP2 MSTORE POP SWAP1 DUP1 PUSH1 0x1 DUP2 SLOAD ADD DUP1 DUP3 SSTORE DUP1 SWAP2 POP POP PUSH1 0x1 SWAP1 SUB SWAP1 PUSH1 0x0 MSTORE PUSH1 0x20 PUSH1 0x0 KECCAK256 SWAP1 PUSH1 0x4 MUL ADD PUSH1 0x0 SWAP1 SWAP2 SWAP1 SWAP2 SWAP1 SWAP2 POP PUSH1 0x0 DUP3 ADD MLOAD DUP2 PUSH1 0x0 ADD SSTORE PUSH1 0x20 DUP3 ADD MLOAD DUP2 PUSH1 0x1 ADD SSTORE PUSH1 0x40 DUP3 ADD MLOAD DUP2 PUSH1 0x2 ADD SSTORE PUSH1 0x60 DUP3 ADD MLOAD DUP2 PUSH1 0x3 ADD SSTORE POP POP CALLER PUSH20 0xFFFFFFFFFFFFFFFFFFFFFFFFFFFFFFFFFFFFFFFF AND DUP10 PUSH32 0xAB2115BAC1DE808EB7FE2BE0309085B11F1F42B1EB980DE8352EFEFDBFC098E2 DUP11 DUP11 DUP6 PUSH1 0x40 MLOAD PUSH2 0x1793 SWAP4 SWAP3 SWAP2 SWAP1 PUSH2 0x2F6F JUMP JUMPDEST PUSH1 0x40 MLOAD DUP1 SWAP2 SUB SWAP1 LOG3 POP POP POP POP POP POP POP POP POP JUMP JUMPDEST PUSH1 0x4 SLOAD DUP2 JUMP JUMPDEST PUSH1 0x0 PUSH1 0x60 DUP1 PUSH1 0x0 DUP1 PUSH1 0x0 DUP1 PUSH1 0x0 DUP9 PUSH1 0x0 DUP2 GT DUP1 ISZERO PUSH2 0x17CB JUMPI POP PUSH1 0x4 SLOAD DUP2 LT JUMPDEST PUSH2 0x180A JUMPI PUSH1 0x40 MLOAD PUSH32 0x8C379A000000000000000000000000000000000000000000000000000000000 DUP2 MSTORE PUSH1 0x4 ADD PUSH2 0x1801 SWAP1 PUSH2 0x263B JUMP JUMPDEST PUSH1 0x40 MLOAD DUP1 SWAP2 SUB SWAP1 REVERT JUMPDEST PUSH1 0x0 PUSH1 0x3 PUSH1 0x1 DUP13 PUSH2 0x181B SWAP2 SWAP1 PUSH2 0x28C5 JUMP JUMPDEST DUP2 SLOAD DUP2 LT PUSH2 0x182C JUMPI PUSH2 0x182B PUSH2 0x2548 JUMP JUMPDEST JUMPDEST SWAP1 PUSH1 0x0 MSTORE PUSH1 0x20 PUSH1 0x0 KECCAK256 SWAP1 PUSH1 0x8 MUL ADD SWAP1 POP DUP1 PUSH1 0x0 ADD SLOAD DUP2 PUSH1 0x1 ADD DUP3 PUSH1 0x2 ADD DUP4 PUSH1 0x3 ADD SLOAD DUP5 PUSH1 0x4 ADD SLOAD DUP6 PUSH1 0x5 ADD SLOAD DUP7 PUSH1 0x6 ADD PUSH1 0x0 SWAP1 SLOAD SWAP1 PUSH2 0x100 EXP SWAP1 DIV PUSH1 0xFF AND DUP8 PUSH1 0x7 ADD SLOAD DUP7 DUP1 SLOAD PUSH2 0x187B SWAP1 PUSH2 0x2C14 JUMP JUMPDEST DUP1 PUSH1 0x1F ADD PUSH1 0x20 DUP1 SWAP2 DIV MUL PUSH1 0x20 ADD PUSH1 0x40 MLOAD SWAP1 DUP2 ADD PUSH1 0x40 MSTORE DUP1 SWAP3 SWAP2 SWAP1 DUP2 DUP2 MSTORE PUSH1 0x20 ADD DUP3 DUP1 SLOAD PUSH2 0x18A7 SWAP1 PUSH2 0x2C14 JUMP JUMPDEST DUP1 ISZERO PUSH2 0x18F4 JUMPI DUP1 PUSH1 0x1F LT PUSH2 0x18C9 JUMPI PUSH2 0x100 DUP1 DUP4 SLOAD DIV MUL DUP4 MSTORE SWAP2 PUSH1 0x20 ADD SWAP2 PUSH2 0x18F4 JUMP JUMPDEST DUP3 ADD SWAP2 SWAP1 PUSH1 0x0 MSTORE PUSH1 0x20 PUSH1 0x0 KECCAK256 SWAP1 JUMPDEST DUP2 SLOAD DUP2 MSTORE SWAP1 PUSH1 0x1 ADD SWAP1 PUSH1 0x20 ADD DUP1 DUP4 GT PUSH2 0x18D7 JUMPI DUP3 SWAP1 SUB PUSH1 0x1F AND DUP3 ADD SWAP2 JUMPDEST POP POP POP POP POP SWAP7 POP DUP6 DUP1 SLOAD DUP1 PUSH1 0x20 MUL PUSH1 0x20 ADD PUSH1 0x40 MLOAD SWAP1 DUP2 ADD PUSH1 0x40 MSTORE DUP1 SWAP3 SWAP2 SWAP1 DUP2 DUP2 MSTORE PUSH1 0x20 ADD PUSH1 0x0 SWAP1 JUMPDEST DUP3 DUP3 LT ISZERO PUSH2 0x19C8 JUMPI DUP4 DUP3 SWAP1 PUSH1 0x0 MSTORE PUSH1 0x20 PUSH1 0x0 KECCAK256 ADD DUP1 SLOAD PUSH2 0x193B SWAP1 PUSH2 0x2C14 JUMP JUMPDEST DUP1 PUSH1 0x1F ADD PUSH1 0x20 DUP1 SWAP2 DIV MUL PUSH1 0x20 ADD PUSH1 0x40 MLOAD SWAP1 DUP2 ADD PUSH1 0x40 MSTORE DUP1 SWAP3 SWAP2 SWAP1 DUP2 DUP2 MSTORE PUSH1 0x20 ADD DUP3 DUP1 SLOAD PUSH2 0x1967 SWAP1 PUSH2 0x2C14 JUMP JUMPDEST DUP1 ISZERO PUSH2 0x19B4 JUMPI DUP1 PUSH1 0x1F LT PUSH2 0x1989 JUMPI PUSH2 0x100 DUP1 DUP4 SLOAD DIV MUL DUP4 MSTORE SWAP2 PUSH1 0x20 ADD SWAP2 PUSH2 0x19B4 JUMP JUMPDEST DUP3 ADD SWAP2 SWAP1 PUSH1 0x0 MSTORE PUSH1 0x20 PUSH1 0x0 KECCAK256 SWAP1 JUMPDEST DUP2 SLOAD DUP2 MSTORE SWAP1 PUSH1 0x1 ADD SWAP1 PUSH1 0x20 ADD DUP1 DUP4 GT PUSH2 0x1997 JUMPI DUP3 SWAP1 SUB PUSH1 0x1F AND DUP3 ADD SWAP2 JUMPDEST POP POP POP POP POP DUP2 MSTORE PUSH1 0x20 ADD SWAP1 PUSH1 0x1 ADD SWAP1 PUSH2 0x191C JUMP JUMPDEST POP POP POP POP SWAP6 POP SWAP10 POP SWAP10 POP SWAP10 POP SWAP10 POP SWAP10 POP SWAP10 POP SWAP10 POP SWAP10 POP POP POP SWAP2 SWAP4 SWAP6 SWAP8 POP SWAP2 SWAP4 SWAP6 SWAP8 JUMP JUMPDEST PUSH1 0x1 PUSH1 0x0 SWAP1 SLOAD SWAP1 PUSH2 0x100 EXP SWAP1 DIV PUSH20 0xFFFFFFFFFFFFFFFFFFFFFFFFFFFFFFFFFFFFFFFF AND DUP2 JUMP JUMPDEST PUSH1 0x40 MLOAD DUP1 PUSH1 0x80 ADD PUSH1 0x40 MSTORE DUP1 PUSH1 0x0 DUP2 MSTORE PUSH1 0x20 ADD PUSH1 0x0 DUP2 MSTORE PUSH1 0x20 ADD PUSH1 0x0 DUP2 MSTORE PUSH1 0x20 ADD PUSH1 0x0 DUP2 MSTORE POP SWAP1 JUMP JUMPDEST DUP3 DUP1 SLOAD PUSH2 0x1A45 SWAP1 PUSH2 0x2C14 JUMP JUMPDEST SWAP1 PUSH1 0x0 MSTORE PUSH1 0x20 PUSH1 0x0 KECCAK256 SWAP1 PUSH1 0x1F ADD PUSH1 0x20 SWAP1 DIV DUP2 ADD SWAP3 DUP3 PUSH2 0x1A67 JUMPI PUSH1 0x0 DUP6 SSTORE PUSH2 0x1AAE JUMP JUMPDEST DUP3 PUSH1 0x1F LT PUSH2 0x1A80 JUMPI DUP1 MLOAD PUSH1 0xFF NOT AND DUP4 DUP1 ADD OR DUP6 SSTORE PUSH2 0x1AAE JUMP JUMPDEST DUP3 DUP1 ADD PUSH1 0x1 ADD DUP6 SSTORE DUP3 ISZERO PUSH2 0x1AAE JUMPI SWAP2 DUP3 ADD JUMPDEST DUP3 DUP2 GT ISZERO PUSH2 0x1AAD JUMPI DUP3 MLOAD DUP3 SSTORE SWAP2 PUSH1 0x20 ADD SWAP2 SWAP1 PUSH1 0x1 ADD SWAP1 PUSH2 0x1A92 JUMP JUMPDEST JUMPDEST POP SWAP1 POP PUSH2 0x1ABB SWAP2 SWAP1 PUSH2 0x1B1F JUMP JUMPDEST POP SWAP1 JUMP JUMPDEST DUP3 DUP1 SLOAD DUP3 DUP3 SSTORE SWAP1 PUSH1 0x0 MSTORE PUSH1 0x20 PUSH1 0x0 KECCAK256 SWAP1 DUP2 ADD SWAP3 DUP3 ISZERO PUSH2 0x1B0E JUMPI SWAP2 PUSH1 0x20 MUL DUP3 ADD JUMPDEST DUP3 DUP2 GT ISZERO PUSH2 0x1B0D JUMPI DUP3 MLOAD DUP3 SWAP1 DUP1 MLOAD SWAP1 PUSH1 0x20 ADD SWAP1 PUSH2 0x1AFD SWAP3 SWAP2 SWAP1 PUSH2 0x1A39 JUMP JUMPDEST POP SWAP2 PUSH1 0x20 ADD SWAP2 SWAP1 PUSH1 0x1 ADD SWAP1 PUSH2 0x1ADF JUMP JUMPDEST JUMPDEST POP SWAP1 POP PUSH2 0x1B1B SWAP2 SWAP1 PUSH2 0x1B3C JUMP JUMPDEST POP SWAP1 JUMP JUMPDEST JUMPDEST DUP1 DUP3 GT ISZERO PUSH2 0x1B38 JUMPI PUSH1 0x0 DUP2 PUSH1 0x0 SWAP1 SSTORE POP PUSH1 0x1 ADD PUSH2 0x1B20 JUMP JUMPDEST POP SWAP1 JUMP JUMPDEST JUMPDEST DUP1 DUP3 GT ISZERO PUSH2 0x1B5C JUMPI PUSH1 0x0 DUP2 DUP2 PUSH2 0x1B53 SWAP2 SWAP1 PUSH2 0x1B60 JUMP JUMPDEST POP PUSH1 0x1 ADD PUSH2 0x1B3D JUMP JUMPDEST POP SWAP1 JUMP JUMPDEST POP DUP1 SLOAD PUSH2 0x1B6C SWAP1 PUSH2 0x2C14 JUMP JUMPDEST PUSH1 0x0 DUP3 SSTORE DUP1 PUSH1 0x1F LT PUSH2 0x1B7E JUMPI POP PUSH2 0x1B9D JUMP JUMPDEST PUSH1 0x1F ADD PUSH1 0x20 SWAP1 DIV SWAP1 PUSH1 0x0 MSTORE PUSH1 0x20 PUSH1 0x0 KECCAK256 SWAP1 DUP2 ADD SWAP1 PUSH2 0x1B9C SWAP2 SWAP1 PUSH2 0x1B1F JUMP JUMPDEST JUMPDEST POP JUMP JUMPDEST PUSH1 0x0 PUSH20 0xFFFFFFFFFFFFFFFFFFFFFFFFFFFFFFFFFFFFFFFF DUP3 AND SWAP1 POP SWAP2 SWAP1 POP JUMP JUMPDEST PUSH1 0x0 PUSH2 0x1BCB DUP3 PUSH2 0x1BA0 JUMP JUMPDEST SWAP1 POP SWAP2 SWAP1 POP JUMP JUMPDEST PUSH2 0x1BDB DUP2 PUSH2 0x1BC0 JUMP JUMPDEST DUP3 MSTORE POP POP JUMP JUMPDEST PUSH1 0x0 PUSH1 0x20 DUP3 ADD SWAP1 POP PUSH2 0x1BF6 PUSH1 0x0 DUP4 ADD DUP5 PUSH2 0x1BD2 JUMP JUMPDEST SWAP3 SWAP2 POP POP JUMP JUMPDEST PUSH1 0x0 PUSH1 0x40 MLOAD SWAP1 POP SWAP1 JUMP JUMPDEST PUSH1 0x0 DUP1 REVERT JUMPDEST PUSH1 0x0 DUP1 REVERT JUMPDEST PUSH2 0x1C19 DUP2 PUSH2 0x1BC0 JUMP JUMPDEST DUP2 EQ PUSH2 0x1C24 JUMPI PUSH1 0x0 DUP1 REVERT JUMPDEST POP JUMP JUMPDEST PUSH1 0x0 DUP2 CALLDATALOAD SWAP1 POP PUSH2 0x1C36 DUP2 PUSH2 0x1C10 JUMP JUMPDEST SWAP3 SWAP2 POP POP JUMP JUMPDEST PUSH1 0x0 DUP2 SWAP1 POP SWAP2 SWAP1 POP JUMP JUMPDEST PUSH2 0x1C4F DUP2 PUSH2 0x1C3C JUMP JUMPDEST DUP2 EQ PUSH2 0x1C5A JUMPI PUSH1 0x0 DUP1 REVERT JUMPDEST POP JUMP JUMPDEST PUSH1 0x0 DUP2 CALLDATALOAD SWAP1 POP PUSH2 0x1C6C DUP2 PUSH2 0x1C46 JUMP JUMPDEST SWAP3 SWAP2 POP POP JUMP JUMPDEST PUSH1 0x0 DUP1 PUSH1 0x40 DUP4 DUP6 SUB SLT ISZERO PUSH2 0x1C89 JUMPI PUSH2 0x1C88 PUSH2 0x1C06 JUMP JUMPDEST JUMPDEST PUSH1 0x0 PUSH2 0x1C97 DUP6 DUP3 DUP7 ADD PUSH2 0x1C27 JUMP JUMPDEST SWAP3 POP POP PUSH1 0x20 PUSH2 0x1CA8 DUP6 DUP3 DUP7 ADD PUSH2 0x1C5D JUMP JUMPDEST SWAP2 POP POP SWAP3 POP SWAP3 SWAP1 POP JUMP JUMPDEST PUSH1 0x0 DUP2 MLOAD SWAP1 POP SWAP2 SWAP1 POP JUMP JUMPDEST PUSH1 0x0 DUP3 DUP3 MSTORE PUSH1 0x20 DUP3 ADD SWAP1 POP SWAP3 SWAP2 POP POP JUMP JUMPDEST PUSH1 0x0 DUP2 SWAP1 POP PUSH1 0x20 DUP3 ADD SWAP1 POP SWAP2 SWAP1 POP JUMP JUMPDEST PUSH2 0x1CE7 DUP2 PUSH2 0x1C3C JUMP JUMPDEST DUP3 MSTORE POP POP JUMP JUMPDEST PUSH1 0x80 DUP3 ADD PUSH1 0x0 DUP3 ADD MLOAD PUSH2 0x1D03 PUSH1 0x0 DUP6 ADD DUP3 PUSH2 0x1CDE JUMP JUMPDEST POP PUSH1 0x20 DUP3 ADD MLOAD PUSH2 0x1D16 PUSH1 0x20 DUP6 ADD DUP3 PUSH2 0x1CDE JUMP JUMPDEST POP PUSH1 0x40 DUP3 ADD MLOAD PUSH2 0x1D29 PUSH1 0x40 DUP6 ADD DUP3 PUSH2 0x1CDE JUMP JUMPDEST POP PUSH1 0x60 DUP3 ADD MLOAD PUSH2 0x1D3C PUSH1 0x60 DUP6 ADD DUP3 PUSH2 0x1CDE JUMP JUMPDEST POP POP POP POP JUMP JUMPDEST PUSH1 0x0 PUSH2 0x1D4E DUP4 DUP4 PUSH2 0x1CED JUMP JUMPDEST PUSH1 0x80 DUP4 ADD SWAP1 POP SWAP3 SWAP2 POP POP JUMP JUMPDEST PUSH1 0x0 PUSH1 0x20 DUP3 ADD SWAP1 POP SWAP2 SWAP1 POP JUMP JUMPDEST PUSH1 0x0 PUSH2 0x1D72 DUP3 PUSH2 0x1CB2 JUMP JUMPDEST PUSH2 0x1D7C DUP2 DUP6 PUSH2 0x1CBD JUMP JUMPDEST SWAP4 POP PUSH2 0x1D87 DUP4 PUSH2 0x1CCE JUMP JUMPDEST DUP1 PUSH1 0x0 JUMPDEST DUP4 DUP2 LT ISZERO PUSH2 0x1DB8 JUMPI DUP2 MLOAD PUSH2 0x1D9F DUP9 DUP3 PUSH2 0x1D42 JUMP JUMPDEST SWAP8 POP PUSH2 0x1DAA DUP4 PUSH2 0x1D5A JUMP JUMPDEST SWAP3 POP POP PUSH1 0x1 DUP2 ADD SWAP1 POP PUSH2 0x1D8B JUMP JUMPDEST POP DUP6 SWAP4 POP POP POP POP SWAP3 SWAP2 POP POP JUMP JUMPDEST PUSH1 0x0 PUSH1 0x20 DUP3 ADD SWAP1 POP DUP2 DUP2 SUB PUSH1 0x0 DUP4 ADD MSTORE PUSH2 0x1DDF DUP2 DUP5 PUSH2 0x1D67 JUMP JUMPDEST SWAP1 POP SWAP3 SWAP2 POP POP JUMP JUMPDEST PUSH1 0x0 DUP1 PUSH1 0x40 DUP4 DUP6 SUB SLT ISZERO PUSH2 0x1DFE JUMPI PUSH2 0x1DFD PUSH2 0x1C06 JUMP JUMPDEST JUMPDEST PUSH1 0x0 PUSH2 0x1E0C DUP6 DUP3 DUP7 ADD PUSH2 0x1C5D JUMP JUMPDEST SWAP3 POP POP PUSH1 0x20 PUSH2 0x1E1D DUP6 DUP3 DUP7 ADD PUSH2 0x1C5D JUMP JUMPDEST SWAP2 POP POP SWAP3 POP SWAP3 SWAP1 POP JUMP JUMPDEST PUSH2 0x1E30 DUP2 PUSH2 0x1C3C JUMP JUMPDEST DUP3 MSTORE POP POP JUMP JUMPDEST PUSH1 0x0 PUSH1 0x20 DUP3 ADD SWAP1 POP PUSH2 0x1E4B PUSH1 0x0 DUP4 ADD DUP5 PUSH2 0x1E27 JUMP JUMPDEST SWAP3 SWAP2 POP POP JUMP JUMPDEST PUSH1 0x0 DUP1 REVERT JUMPDEST PUSH1 0x0 DUP1 REVERT JUMPDEST PUSH1 0x0 PUSH1 0x1F NOT PUSH1 0x1F DUP4 ADD AND SWAP1 POP SWAP2 SWAP1 POP JUMP JUMPDEST PUSH32 0x4E487B7100000000000000000000000000000000000000000000000000000000 PUSH1 0x0 MSTORE PUSH1 0x41 PUSH1 0x4 MSTORE PUSH1 0x24 PUSH1 0x0 REVERT JUMPDEST PUSH2 0x1EA4 DUP3 PUSH2 0x1E5B JUMP JUMPDEST DUP2 ADD DUP2 DUP2 LT PUSH8 0xFFFFFFFFFFFFFFFF DUP3 GT OR ISZERO PUSH2 0x1EC3 JUMPI PUSH2 0x1EC2 PUSH2 0x1E6C JUMP JUMPDEST JUMPDEST DUP1 PUSH1 0x40 MSTORE POP POP POP JUMP JUMPDEST PUSH1 0x0 PUSH2 0x1ED6 PUSH2 0x1BFC JUMP JUMPDEST SWAP1 POP PUSH2 0x1EE2 DUP3 DUP3 PUSH2 0x1E9B JUMP JUMPDEST SWAP2 SWAP1 POP JUMP JUMPDEST PUSH1 0x0 PUSH8 0xFFFFFFFFFFFFFFFF DUP3 GT ISZERO PUSH2 0x1F02 JUMPI PUSH2 0x1F01 PUSH2 0x1E6C JUMP JUMPDEST JUMPDEST PUSH2 0x1F0B DUP3 PUSH2 0x1E5B JUMP JUMPDEST SWAP1 POP PUSH1 0x20 DUP2 ADD SWAP1 POP SWAP2 SWAP1 POP JUMP JUMPDEST DUP3 DUP2 DUP4 CALLDATACOPY PUSH1 0x0 DUP4 DUP4 ADD MSTORE POP POP POP JUMP JUMPDEST PUSH1 0x0 PUSH2 0x1F3A PUSH2 0x1F35 DUP5 PUSH2 0x1EE7 JUMP JUMPDEST PUSH2 0x1ECC JUMP JUMPDEST SWAP1 POP DUP3 DUP2 MSTORE PUSH1 0x20 DUP2 ADD DUP5 DUP5 DUP5 ADD GT ISZERO PUSH2 0x1F56 JUMPI PUSH2 0x1F55 PUSH2 0x1E56 JUMP JUMPDEST JUMPDEST PUSH2 0x1F61 DUP5 DUP3 DUP6 PUSH2 0x1F18 JUMP JUMPDEST POP SWAP4 SWAP3 POP POP POP JUMP JUMPDEST PUSH1 0x0 DUP3 PUSH1 0x1F DUP4 ADD SLT PUSH2 0x1F7E JUMPI PUSH2 0x1F7D PUSH2 0x1E51 JUMP JUMPDEST JUMPDEST DUP2 CALLDATALOAD PUSH2 0x1F8E DUP5 DUP3 PUSH1 0x20 DUP7 ADD PUSH2 0x1F27 JUMP JUMPDEST SWAP2 POP POP SWAP3 SWAP2 POP POP JUMP JUMPDEST PUSH1 0x0 PUSH8 0xFFFFFFFFFFFFFFFF DUP3 GT ISZERO PUSH2 0x1FB2 JUMPI PUSH2 0x1FB1 PUSH2 0x1E6C JUMP JUMPDEST JUMPDEST PUSH1 0x20 DUP3 MUL SWAP1 POP PUSH1 0x20 DUP2 ADD SWAP1 POP SWAP2 SWAP1 POP JUMP JUMPDEST PUSH1 0x0 DUP1 REVERT JUMPDEST PUSH1 0x0 PUSH2 0x1FDB PUSH2 0x1FD6 DUP5 PUSH2 0x1F97 JUMP JUMPDEST PUSH2 0x1ECC JUMP JUMPDEST SWAP1 POP DUP1 DUP4 DUP3 MSTORE PUSH1 0x20 DUP3 ADD SWAP1 POP PUSH1 0x20 DUP5 MUL DUP4 ADD DUP6 DUP2 GT ISZERO PUSH2 0x1FFE JUMPI PUSH2 0x1FFD PUSH2 0x1FC3 JUMP JUMPDEST JUMPDEST DUP4 JUMPDEST DUP2 DUP2 LT ISZERO PUSH2 0x2045 JUMPI DUP1 CALLDATALOAD PUSH8 0xFFFFFFFFFFFFFFFF DUP2 GT ISZERO PUSH2 0x2023 JUMPI PUSH2 0x2022 PUSH2 0x1E51 JUMP JUMPDEST JUMPDEST DUP1 DUP7 ADD PUSH2 0x2030 DUP10 DUP3 PUSH2 0x1F69 JUMP JUMPDEST DUP6 MSTORE PUSH1 0x20 DUP6 ADD SWAP5 POP POP POP PUSH1 0x20 DUP2 ADD SWAP1 POP PUSH2 0x2000 JUMP JUMPDEST POP POP POP SWAP4 SWAP3 POP POP POP JUMP JUMPDEST PUSH1 0x0 DUP3 PUSH1 0x1F DUP4 ADD SLT PUSH2 0x2064 JUMPI PUSH2 0x2063 PUSH2 0x1E51 JUMP JUMPDEST JUMPDEST DUP2 CALLDATALOAD PUSH2 0x2074 DUP5 DUP3 PUSH1 0x20 DUP7 ADD PUSH2 0x1FC8 JUMP JUMPDEST SWAP2 POP POP SWAP3 SWAP2 POP POP JUMP JUMPDEST PUSH1 0x0 DUP1 PUSH1 0x0 DUP1 PUSH1 0x80 DUP6 DUP8 SUB SLT ISZERO PUSH2 0x2097 JUMPI PUSH2 0x2096 PUSH2 0x1C06 JUMP JUMPDEST JUMPDEST PUSH1 0x0 DUP6 ADD CALLDATALOAD PUSH8 0xFFFFFFFFFFFFFFFF DUP2 GT ISZERO PUSH2 0x20B5 JUMPI PUSH2 0x20B4 PUSH2 0x1C0B JUMP JUMPDEST JUMPDEST PUSH2 0x20C1 DUP8 DUP3 DUP9 ADD PUSH2 0x1F69 JUMP JUMPDEST SWAP5 POP POP PUSH1 0x20 DUP6 ADD CALLDATALOAD PUSH8 0xFFFFFFFFFFFFFFFF DUP2 GT ISZERO PUSH2 0x20E2 JUMPI PUSH2 0x20E1 PUSH2 0x1C0B JUMP JUMPDEST JUMPDEST PUSH2 0x20EE DUP8 DUP3 DUP9 ADD PUSH2 0x204F JUMP JUMPDEST SWAP4 POP POP PUSH1 0x40 PUSH2 0x20FF DUP8 DUP3 DUP9 ADD PUSH2 0x1C5D JUMP JUMPDEST SWAP3 POP POP PUSH1 0x60 PUSH2 0x2110 DUP8 DUP3 DUP9 ADD PUSH2 0x1C5D JUMP JUMPDEST SWAP2 POP POP SWAP3 SWAP6 SWAP2 SWAP5 POP SWAP3 POP JUMP JUMPDEST PUSH1 0x0 DUP2 SWAP1 POP SWAP2 SWAP1 POP JUMP JUMPDEST PUSH1 0x0 PUSH2 0x2141 PUSH2 0x213C PUSH2 0x2137 DUP5 PUSH2 0x1BA0 JUMP JUMPDEST PUSH2 0x211C JUMP JUMPDEST PUSH2 0x1BA0 JUMP JUMPDEST SWAP1 POP SWAP2 SWAP1 POP JUMP JUMPDEST PUSH1 0x0 PUSH2 0x2153 DUP3 PUSH2 0x2126 JUMP JUMPDEST SWAP1 POP SWAP2 SWAP1 POP JUMP JUMPDEST PUSH1 0x0 PUSH2 0x2165 DUP3 PUSH2 0x2148 JUMP JUMPDEST SWAP1 POP SWAP2 SWAP1 POP JUMP JUMPDEST PUSH2 0x2175 DUP2 PUSH2 0x215A JUMP JUMPDEST DUP3 MSTORE POP POP JUMP JUMPDEST PUSH1 0x0 PUSH1 0x20 DUP3 ADD SWAP1 POP PUSH2 0x2190 PUSH1 0x0 DUP4 ADD DUP5 PUSH2 0x216C JUMP JUMPDEST SWAP3 SWAP2 POP POP JUMP JUMPDEST PUSH1 0x0 PUSH1 0x80 DUP3 ADD SWAP1 POP PUSH2 0x21AB PUSH1 0x0 DUP4 ADD DUP8 PUSH2 0x1E27 JUMP JUMPDEST PUSH2 0x21B8 PUSH1 0x20 DUP4 ADD DUP7 PUSH2 0x1E27 JUMP JUMPDEST PUSH2 0x21C5 PUSH1 0x40 DUP4 ADD DUP6 PUSH2 0x1E27 JUMP JUMPDEST PUSH2 0x21D2 PUSH1 0x60 DUP4 ADD DUP5 PUSH2 0x1E27 JUMP JUMPDEST SWAP6 SWAP5 POP POP POP POP POP JUMP JUMPDEST PUSH1 0x0 PUSH1 0x20 DUP3 DUP5 SUB SLT ISZERO PUSH2 0x21F1 JUMPI PUSH2 0x21F0 PUSH2 0x1C06 JUMP JUMPDEST JUMPDEST PUSH1 0x0 PUSH2 0x21FF DUP5 DUP3 DUP6 ADD PUSH2 0x1C5D JUMP JUMPDEST SWAP2 POP POP SWAP3 SWAP2 POP POP JUMP JUMPDEST PUSH1 0x0 DUP2 MLOAD SWAP1 POP SWAP2 SWAP1 POP JUMP JUMPDEST PUSH1 0x0 DUP3 DUP3 MSTORE PUSH1 0x20 DUP3 ADD SWAP1 POP SWAP3 SWAP2 POP POP JUMP JUMPDEST PUSH1 0x0 JUMPDEST DUP4 DUP2 LT ISZERO PUSH2 0x2242 JUMPI DUP1 DUP3 ADD MLOAD DUP2 DUP5 ADD MSTORE PUSH1 0x20 DUP2 ADD SWAP1 POP PUSH2 0x2227 JUMP JUMPDEST DUP4 DUP2 GT ISZERO PUSH2 0x2251 JUMPI PUSH1 0x0 DUP5 DUP5 ADD MSTORE JUMPDEST POP POP POP POP JUMP JUMPDEST PUSH1 0x0 PUSH2 0x2262 DUP3 PUSH2 0x2208 JUMP JUMPDEST PUSH2 0x226C DUP2 DUP6 PUSH2 0x2213 JUMP JUMPDEST SWAP4 POP PUSH2 0x227C DUP2 DUP6 PUSH1 0x20 DUP7 ADD PUSH2 0x2224 JUMP JUMPDEST PUSH2 0x2285 DUP2 PUSH2 0x1E5B JUMP JUMPDEST DUP5 ADD SWAP2 POP POP SWAP3 SWAP2 POP POP JUMP JUMPDEST PUSH1 0x0 DUP2 ISZERO ISZERO SWAP1 POP SWAP2 SWAP1 POP JUMP JUMPDEST PUSH2 0x22A5 DUP2 PUSH2 0x2290 JUMP JUMPDEST DUP3 MSTORE POP POP JUMP JUMPDEST PUSH1 0x0 PUSH1 0xE0 DUP3 ADD SWAP1 POP PUSH2 0x22C0 PUSH1 0x0 DUP4 ADD DUP11 PUSH2 0x1E27 JUMP JUMPDEST DUP2 DUP2 SUB PUSH1 0x20 DUP4 ADD MSTORE PUSH2 0x22D2 DUP2 DUP10 PUSH2 0x2257 JUMP JUMPDEST SWAP1 POP PUSH2 0x22E1 PUSH1 0x40 DUP4 ADD DUP9 PUSH2 0x1E27 JUMP JUMPDEST PUSH2 0x22EE PUSH1 0x60 DUP4 ADD DUP8 PUSH2 0x1E27 JUMP JUMPDEST PUSH2 0x22FB PUSH1 0x80 DUP4 ADD DUP7 PUSH2 0x1E27 JUMP JUMPDEST PUSH2 0x2308 PUSH1 0xA0 DUP4 ADD DUP6 PUSH2 0x229C JUMP JUMPDEST PUSH2 0x2315 PUSH1 0xC0 DUP4 ADD DUP5 PUSH2 0x1E27 JUMP JUMPDEST SWAP9 SWAP8 POP POP POP POP POP POP POP POP JUMP JUMPDEST PUSH1 0x0 DUP1 PUSH1 0x0 PUSH1 0x60 DUP5 DUP7 SUB SLT ISZERO PUSH2 0x233A JUMPI PUSH2 0x2339 PUSH2 0x1C06 JUMP JUMPDEST JUMPDEST PUSH1 0x0 PUSH2 0x2348 DUP7 DUP3 DUP8 ADD PUSH2 0x1C5D JUMP JUMPDEST SWAP4 POP POP PUSH1 0x20 PUSH2 0x2359 DUP7 DUP3 DUP8 ADD PUSH2 0x1C5D JUMP JUMPDEST SWAP3 POP POP PUSH1 0x40 PUSH2 0x236A DUP7 DUP3 DUP8 ADD PUSH2 0x1C5D JUMP JUMPDEST SWAP2 POP POP SWAP3 POP SWAP3 POP SWAP3 JUMP JUMPDEST PUSH1 0x0 DUP2 MLOAD SWAP1 POP SWAP2 SWAP1 POP JUMP JUMPDEST PUSH1 0x0 DUP3 DUP3 MSTORE PUSH1 0x20 DUP3 ADD SWAP1 POP SWAP3 SWAP2 POP POP JUMP JUMPDEST PUSH1 0x0 DUP2 SWAP1 POP PUSH1 0x20 DUP3 ADD SWAP1 POP SWAP2 SWAP1 POP JUMP JUMPDEST PUSH1 0x0 DUP3 DUP3 MSTORE PUSH1 0x20 DUP3 ADD SWAP1 POP SWAP3 SWAP2 POP POP JUMP JUMPDEST PUSH1 0x0 PUSH2 0x23BC DUP3 PUSH2 0x2208 JUMP JUMPDEST PUSH2 0x23C6 DUP2 DUP6 PUSH2 0x23A0 JUMP JUMPDEST SWAP4 POP PUSH2 0x23D6 DUP2 DUP6 PUSH1 0x20 DUP7 ADD PUSH2 0x2224 JUMP JUMPDEST PUSH2 0x23DF DUP2 PUSH2 0x1E5B JUMP JUMPDEST DUP5 ADD SWAP2 POP POP SWAP3 SWAP2 POP POP JUMP JUMPDEST PUSH1 0x0 PUSH2 0x23F6 DUP4 DUP4 PUSH2 0x23B1 JUMP JUMPDEST SWAP1 POP SWAP3 SWAP2 POP POP JUMP JUMPDEST PUSH1 0x0 PUSH1 0x20 DUP3 ADD SWAP1 POP SWAP2 SWAP1 POP JUMP JUMPDEST PUSH1 0x0 PUSH2 0x2416 DUP3 PUSH2 0x2374 JUMP JUMPDEST PUSH2 0x2420 DUP2 DUP6 PUSH2 0x237F JUMP JUMPDEST SWAP4 POP DUP4 PUSH1 0x20 DUP3 MUL DUP6 ADD PUSH2 0x2432 DUP6 PUSH2 0x2390 JUMP JUMPDEST DUP1 PUSH1 0x0 JUMPDEST DUP6 DUP2 LT ISZERO PUSH2 0x246E JUMPI DUP5 DUP5 SUB DUP10 MSTORE DUP2 MLOAD PUSH2 0x244F DUP6 DUP3 PUSH2 0x23EA JUMP JUMPDEST SWAP5 POP PUSH2 0x245A DUP4 PUSH2 0x23FE JUMP JUMPDEST SWAP3 POP PUSH1 0x20 DUP11 ADD SWAP10 POP POP PUSH1 0x1 DUP2 ADD SWAP1 POP PUSH2 0x2436 JUMP JUMPDEST POP DUP3 SWAP8 POP DUP8 SWAP6 POP POP POP POP POP POP SWAP3 SWAP2 POP POP JUMP JUMPDEST PUSH1 0x0 PUSH2 0x100 DUP3 ADD SWAP1 POP PUSH2 0x2496 PUSH1 0x0 DUP4 ADD DUP12 PUSH2 0x1E27 JUMP JUMPDEST DUP2 DUP2 SUB PUSH1 0x20 DUP4 ADD MSTORE PUSH2 0x24A8 DUP2 DUP11 PUSH2 0x2257 JUMP JUMPDEST SWAP1 POP DUP2 DUP2 SUB PUSH1 0x40 DUP4 ADD MSTORE PUSH2 0x24BC DUP2 DUP10 PUSH2 0x240B JUMP JUMPDEST SWAP1 POP PUSH2 0x24CB PUSH1 0x60 DUP4 ADD DUP9 PUSH2 0x1E27 JUMP JUMPDEST PUSH2 0x24D8 PUSH1 0x80 DUP4 ADD DUP8 PUSH2 0x1E27 JUMP JUMPDEST PUSH2 0x24E5 PUSH1 0xA0 DUP4 ADD DUP7 PUSH2 0x1E27 JUMP JUMPDEST PUSH2 0x24F2 PUSH1 0xC0 DUP4 ADD DUP6 PUSH2 0x229C JUMP JUMPDEST PUSH2 0x24FF PUSH1 0xE0 DUP4 ADD DUP5 PUSH2 0x1E27 JUMP JUMPDEST SWAP10 SWAP9 POP POP POP POP POP POP POP POP POP JUMP JUMPDEST PUSH1 0x0 PUSH2 0x2517 DUP3 PUSH2 0x2148 JUMP JUMPDEST SWAP1 POP SWAP2 SWAP1 POP JUMP JUMPDEST PUSH2 0x2527 DUP2 PUSH2 0x250C JUMP JUMPDEST DUP3 MSTORE POP POP JUMP JUMPDEST PUSH1 0x0 PUSH1 0x20 DUP3 ADD SWAP1 POP PUSH2 0x2542 PUSH1 0x0 DUP4 ADD DUP5 PUSH2 0x251E JUMP JUMPDEST SWAP3 SWAP2 POP POP JUMP JUMPDEST PUSH32 0x4E487B7100000000000000000000000000000000000000000000000000000000 PUSH1 0x0 MSTORE PUSH1 0x32 PUSH1 0x4 MSTORE PUSH1 0x24 PUSH1 0x0 REVERT JUMPDEST PUSH32 0x4E487B7100000000000000000000000000000000000000000000000000000000 PUSH1 0x0 MSTORE PUSH1 0x11 PUSH1 0x4 MSTORE PUSH1 0x24 PUSH1 0x0 REVERT JUMPDEST PUSH1 0x0 PUSH2 0x25B1 DUP3 PUSH2 0x1C3C JUMP JUMPDEST SWAP2 POP PUSH32 0xFFFFFFFFFFFFFFFFFFFFFFFFFFFFFFFFFFFFFFFFFFFFFFFFFFFFFFFFFFFFFFFF DUP3 EQ ISZERO PUSH2 0x25E4 JUMPI PUSH2 0x25E3 PUSH2 0x2577 JUMP JUMPDEST JUMPDEST PUSH1 0x1 DUP3 ADD SWAP1 POP SWAP2 SWAP1 POP JUMP JUMPDEST PUSH32 0x50726F6A65637420646F6573206E6F7420657869737400000000000000000000 PUSH1 0x0 DUP3 ADD MSTORE POP JUMP JUMPDEST PUSH1 0x0 PUSH2 0x2625 PUSH1 0x16 DUP4 PUSH2 0x2213 JUMP JUMPDEST SWAP2 POP PUSH2 0x2630 DUP3 PUSH2 0x25EF JUMP JUMPDEST PUSH1 0x20 DUP3 ADD SWAP1 POP SWAP2 SWAP1 POP JUMP JUMPDEST PUSH1 0x0 PUSH1 0x20 DUP3 ADD SWAP1 POP DUP2 DUP2 SUB PUSH1 0x0 DUP4 ADD MSTORE PUSH2 0x2654 DUP2 PUSH2 0x2618 JUMP JUMPDEST SWAP1 POP SWAP2 SWAP1 POP JUMP JUMPDEST PUSH32 0x4F6E6C79206D616E616765722063616E2063616C6C2074686973000000000000 PUSH1 0x0 DUP3 ADD MSTORE POP JUMP JUMPDEST PUSH1 0x0 PUSH2 0x2691 PUSH1 0x1A DUP4 PUSH2 0x2213 JUMP JUMPDEST SWAP2 POP PUSH2 0x269C DUP3 PUSH2 0x265B JUMP JUMPDEST PUSH1 0x20 DUP3 ADD SWAP1 POP SWAP2 SWAP1 POP JUMP JUMPDEST PUSH1 0x0 PUSH1 0x20 DUP3 ADD SWAP1 POP DUP2 DUP2 SUB PUSH1 0x0 DUP4 ADD MSTORE PUSH2 0x26C0 DUP2 PUSH2 0x2684 JUMP JUMPDEST SWAP1 POP SWAP2 SWAP1 POP JUMP JUMPDEST PUSH32 0x4174206C656173742032206F7074696F6E732072657175697265640000000000 PUSH1 0x0 DUP3 ADD MSTORE POP JUMP JUMPDEST PUSH1 0x0 PUSH2 0x26FD PUSH1 0x1B DUP4 PUSH2 0x2213 JUMP JUMPDEST SWAP2 POP PUSH2 0x2708 DUP3 PUSH2 0x26C7 JUMP JUMPDEST PUSH1 0x20 DUP3 ADD SWAP1 POP SWAP2 SWAP1 POP JUMP JUMPDEST PUSH1 0x0 PUSH1 0x20 DUP3 ADD SWAP1 POP DUP2 DUP2 SUB PUSH1 0x0 DUP4 ADD MSTORE PUSH2 0x272C DUP2 PUSH2 0x26F0 JUMP JUMPDEST SWAP1 POP SWAP2 SWAP1 POP JUMP JUMPDEST PUSH32 0x546F74616C20706F6F6C206D7573742062652067726561746572207468616E20 PUSH1 0x0 DUP3 ADD MSTORE PUSH32 0x3000000000000000000000000000000000000000000000000000000000000000 PUSH1 0x20 DUP3 ADD MSTORE POP JUMP JUMPDEST PUSH1 0x0 PUSH2 0x278F PUSH1 0x21 DUP4 PUSH2 0x2213 JUMP JUMPDEST SWAP2 POP PUSH2 0x279A DUP3 PUSH2 0x2733 JUMP JUMPDEST PUSH1 0x40 DUP3 ADD SWAP1 POP SWAP2 SWAP1 POP JUMP JUMPDEST PUSH1 0x0 PUSH1 0x20 DUP3 ADD SWAP1 POP DUP2 DUP2 SUB PUSH1 0x0 DUP4 ADD MSTORE PUSH2 0x27BE DUP2 PUSH2 0x2782 JUMP JUMPDEST SWAP1 POP SWAP2 SWAP1 POP JUMP JUMPDEST PUSH32 0x4475726174696F6E206D7573742062652067726561746572207468616E203000 PUSH1 0x0 DUP3 ADD MSTORE POP JUMP JUMPDEST PUSH1 0x0 PUSH2 0x27FB PUSH1 0x1F DUP4 PUSH2 0x2213 JUMP JUMPDEST SWAP2 POP PUSH2 0x2806 DUP3 PUSH2 0x27C5 JUMP JUMPDEST PUSH1 0x20 DUP3 ADD SWAP1 POP SWAP2 SWAP1 POP JUMP JUMPDEST PUSH1 0x0 PUSH1 0x20 DUP3 ADD SWAP1 POP DUP2 DUP2 SUB PUSH1 0x0 DUP4 ADD MSTORE PUSH2 0x282A DUP2 PUSH2 0x27EE JUMP JUMPDEST SWAP1 POP SWAP2 SWAP1 POP JUMP JUMPDEST PUSH1 0x0 PUSH2 0x283C DUP3 PUSH2 0x1C3C JUMP JUMPDEST SWAP2 POP PUSH2 0x2847 DUP4 PUSH2 0x1C3C JUMP JUMPDEST SWAP3 POP DUP3 PUSH32 0xFFFFFFFFFFFFFFFFFFFFFFFFFFFFFFFFFFFFFFFFFFFFFFFFFFFFFFFFFFFFFFFF SUB DUP3 GT ISZERO PUSH2 0x287C JUMPI PUSH2 0x287B PUSH2 0x2577 JUMP JUMPDEST JUMPDEST DUP3 DUP3 ADD SWAP1 POP SWAP3 SWAP2 POP POP JUMP JUMPDEST PUSH1 0x0 PUSH1 0x60 DUP3 ADD SWAP1 POP DUP2 DUP2 SUB PUSH1 0x0 DUP4 ADD MSTORE PUSH2 0x28A1 DUP2 DUP7 PUSH2 0x2257 JUMP JUMPDEST SWAP1 POP PUSH2 0x28B0 PUSH1 0x20 DUP4 ADD DUP6 PUSH2 0x1E27 JUMP JUMPDEST PUSH2 0x28BD PUSH1 0x40 DUP4 ADD DUP5 PUSH2 0x1E27 JUMP JUMPDEST SWAP5 SWAP4 POP POP POP POP JUMP JUMPDEST PUSH1 0x0 PUSH2 0x28D0 DUP3 PUSH2 0x1C3C JUMP JUMPDEST SWAP2 POP PUSH2 0x28DB DUP4 PUSH2 0x1C3C JUMP JUMPDEST SWAP3 POP DUP3 DUP3 LT ISZERO PUSH2 0x28EE JUMPI PUSH2 0x28ED PUSH2 0x2577 JUMP JUMPDEST JUMPDEST DUP3 DUP3 SUB SWAP1 POP SWAP3 SWAP2 POP POP JUMP JUMPDEST PUSH32 0x50726F6A656374206973206E6F74206163746976650000000000000000000000 PUSH1 0x0 DUP3 ADD MSTORE POP JUMP JUMPDEST PUSH1 0x0 PUSH2 0x292F PUSH1 0x15 DUP4 PUSH2 0x2213 JUMP JUMPDEST SWAP2 POP PUSH2 0x293A DUP3 PUSH2 0x28F9 JUMP JUMPDEST PUSH1 0x20 DUP3 ADD SWAP1 POP SWAP2 SWAP1 POP JUMP JUMPDEST PUSH1 0x0 PUSH1 0x20 DUP3 ADD SWAP1 POP DUP2 DUP2 SUB PUSH1 0x0 DUP4 ADD MSTORE PUSH2 0x295E DUP2 PUSH2 0x2922 JUMP JUMPDEST SWAP1 POP SWAP2 SWAP1 POP JUMP JUMPDEST PUSH32 0x50726F6A65637420686173206E6F7420656E6465642079657400000000000000 PUSH1 0x0 DUP3 ADD MSTORE POP JUMP JUMPDEST PUSH1 0x0 PUSH2 0x299B PUSH1 0x19 DUP4 PUSH2 0x2213 JUMP JUMPDEST SWAP2 POP PUSH2 0x29A6 DUP3 PUSH2 0x2965 JUMP JUMPDEST PUSH1 0x20 DUP3 ADD SWAP1 POP SWAP2 SWAP1 POP JUMP JUMPDEST PUSH1 0x0 PUSH1 0x20 DUP3 ADD SWAP1 POP DUP2 DUP2 SUB PUSH1 0x0 DUP4 ADD MSTORE PUSH2 0x29CA DUP2 PUSH2 0x298E JUMP JUMPDEST SWAP1 POP SWAP2 SWAP1 POP JUMP JUMPDEST PUSH32 0x496E76616C69642077696E6E6572206F7074696F6E2049440000000000000000 PUSH1 0x0 DUP3 ADD MSTORE POP JUMP JUMPDEST PUSH1 0x0 PUSH2 0x2A07 PUSH1 0x18 DUP4 PUSH2 0x2213 JUMP JUMPDEST SWAP2 POP PUSH2 0x2A12 DUP3 PUSH2 0x29D1 JUMP JUMPDEST PUSH1 0x20 DUP3 ADD SWAP1 POP SWAP2 SWAP1 POP JUMP JUMPDEST PUSH1 0x0 PUSH1 0x20 DUP3 ADD SWAP1 POP DUP2 DUP2 SUB PUSH1 0x0 DUP4 ADD MSTORE PUSH2 0x2A36 DUP2 PUSH2 0x29FA JUMP JUMPDEST SWAP1 POP SWAP2 SWAP1 POP JUMP JUMPDEST PUSH32 0x50726F6A65637420616C726561647920736574746C6564000000000000000000 PUSH1 0x0 DUP3 ADD MSTORE POP JUMP JUMPDEST PUSH1 0x0 PUSH2 0x2A73 PUSH1 0x17 DUP4 PUSH2 0x2213 JUMP JUMPDEST SWAP2 POP PUSH2 0x2A7E DUP3 PUSH2 0x2A3D JUMP JUMPDEST PUSH1 0x20 DUP3 ADD SWAP1 POP SWAP2 SWAP1 POP JUMP JUMPDEST PUSH1 0x0 PUSH1 0x20 DUP3 ADD SWAP1 POP DUP2 DUP2 SUB PUSH1 0x0 DUP4 ADD MSTORE PUSH2 0x2AA2 DUP2 PUSH2 0x2A66 JUMP JUMPDEST SWAP1 POP SWAP2 SWAP1 POP JUMP JUMPDEST PUSH32 0x4E487B7100000000000000000000000000000000000000000000000000000000 PUSH1 0x0 MSTORE PUSH1 0x12 PUSH1 0x4 MSTORE PUSH1 0x24 PUSH1 0x0 REVERT JUMPDEST PUSH1 0x0 PUSH2 0x2AE3 DUP3 PUSH2 0x1C3C JUMP JUMPDEST SWAP2 POP PUSH2 0x2AEE DUP4 PUSH2 0x1C3C JUMP JUMPDEST SWAP3 POP DUP3 PUSH2 0x2AFE JUMPI PUSH2 0x2AFD PUSH2 0x2AA9 JUMP JUMPDEST JUMPDEST DUP3 DUP3 DIV SWAP1 POP SWAP3 SWAP2 POP POP JUMP JUMPDEST PUSH1 0x0 PUSH2 0x2B14 DUP3 PUSH2 0x1C3C JUMP JUMPDEST SWAP2 POP PUSH2 0x2B1F DUP4 PUSH2 0x1C3C JUMP JUMPDEST SWAP3 POP DUP2 PUSH32 0xFFFFFFFFFFFFFFFFFFFFFFFFFFFFFFFFFFFFFFFFFFFFFFFFFFFFFFFFFFFFFFFF DIV DUP4 GT DUP3 ISZERO ISZERO AND ISZERO PUSH2 0x2B58 JUMPI PUSH2 0x2B57 PUSH2 0x2577 JUMP JUMPDEST JUMPDEST DUP3 DUP3 MUL SWAP1 POP SWAP3 SWAP2 POP POP JUMP JUMPDEST PUSH1 0x0 PUSH1 0x40 DUP3 ADD SWAP1 POP PUSH2 0x2B78 PUSH1 0x0 DUP4 ADD DUP6 PUSH2 0x1BD2 JUMP JUMPDEST PUSH2 0x2B85 PUSH1 0x20 DUP4 ADD DUP5 PUSH2 0x1E27 JUMP JUMPDEST SWAP4 SWAP3 POP POP POP JUMP JUMPDEST PUSH2 0x2B95 DUP2 PUSH2 0x2290 JUMP JUMPDEST DUP2 EQ PUSH2 0x2BA0 JUMPI PUSH1 0x0 DUP1 REVERT JUMPDEST POP JUMP JUMPDEST PUSH1 0x0 DUP2 MLOAD SWAP1 POP PUSH2 0x2BB2 DUP2 PUSH2 0x2B8C JUMP JUMPDEST SWAP3 SWAP2 POP POP JUMP JUMPDEST PUSH1 0x0 PUSH1 0x20 DUP3 DUP5 SUB SLT ISZERO PUSH2 0x2BCE JUMPI PUSH2 0x2BCD PUSH2 0x1C06 JUMP JUMPDEST JUMPDEST PUSH1 0x0 PUSH2 0x2BDC DUP5 DUP3 DUP6 ADD PUSH2 0x2BA3 JUMP JUMPDEST SWAP2 POP POP SWAP3 SWAP2 POP POP JUMP JUMPDEST PUSH32 0x4E487B7100000000000000000000000000000000000000000000000000000000 PUSH1 0x0 MSTORE PUSH1 0x22 PUSH1 0x4 MSTORE PUSH1 0x24 PUSH1 0x0 REVERT JUMPDEST PUSH1 0x0 PUSH1 0x2 DUP3 DIV SWAP1 POP PUSH1 0x1 DUP3 AND DUP1 PUSH2 0x2C2C JUMPI PUSH1 0x7F DUP3 AND SWAP2 POP JUMPDEST PUSH1 0x20 DUP3 LT DUP2 EQ ISZERO PUSH2 0x2C40 JUMPI PUSH2 0x2C3F PUSH2 0x2BE5 JUMP JUMPDEST JUMPDEST POP SWAP2 SWAP1 POP JUMP JUMPDEST PUSH32 0x50726F6A6563742068617320656E646564000000000000000000000000000000 PUSH1 0x0 DUP3 ADD MSTORE POP JUMP JUMPDEST PUSH1 0x0 PUSH2 0x2C7C PUSH1 0x11 DUP4 PUSH2 0x2213 JUMP JUMPDEST SWAP2 POP PUSH2 0x2C87 DUP3 PUSH2 0x2C46 JUMP JUMPDEST PUSH1 0x20 DUP3 ADD SWAP1 POP SWAP2 SWAP1 POP JUMP JUMPDEST PUSH1 0x0 PUSH1 0x20 DUP3 ADD SWAP1 POP DUP2 DUP2 SUB PUSH1 0x0 DUP4 ADD MSTORE PUSH2 0x2CAB DUP2 PUSH2 0x2C6F JUMP JUMPDEST SWAP1 POP SWAP2 SWAP1 POP JUMP JUMPDEST PUSH32 0x42657420616D6F756E74206D7573742062652067726561746572207468616E20 PUSH1 0x0 DUP3 ADD MSTORE PUSH32 0x3000000000000000000000000000000000000000000000000000000000000000 PUSH1 0x20 DUP3 ADD MSTORE POP JUMP JUMPDEST PUSH1 0x0 PUSH2 0x2D0E PUSH1 0x21 DUP4 PUSH2 0x2213 JUMP JUMPDEST SWAP2 POP PUSH2 0x2D19 DUP3 PUSH2 0x2CB2 JUMP JUMPDEST PUSH1 0x40 DUP3 ADD SWAP1 POP SWAP2 SWAP1 POP JUMP JUMPDEST PUSH1 0x0 PUSH1 0x20 DUP3 ADD SWAP1 POP DUP2 DUP2 SUB PUSH1 0x0 DUP4 ADD MSTORE PUSH2 0x2D3D DUP2 PUSH2 0x2D01 JUMP JUMPDEST SWAP1 POP SWAP2 SWAP1 POP JUMP JUMPDEST PUSH32 0x496E76616C6964206F7074696F6E204944000000000000000000000000000000 PUSH1 0x0 DUP3 ADD MSTORE POP JUMP JUMPDEST PUSH1 0x0 PUSH2 0x2D7A PUSH1 0x11 DUP4 PUSH2 0x2213 JUMP JUMPDEST SWAP2 POP PUSH2 0x2D85 DUP3 PUSH2 0x2D44 JUMP JUMPDEST PUSH1 0x20 DUP3 ADD SWAP1 POP SWAP2 SWAP1 POP JUMP JUMPDEST PUSH1 0x0 PUSH1 0x20 DUP3 ADD SWAP1 POP DUP2 DUP2 SUB PUSH1 0x0 DUP4 ADD MSTORE PUSH2 0x2DA9 DUP2 PUSH2 0x2D6D JUMP JUMPDEST SWAP1 POP SWAP2 SWAP1 POP JUMP JUMPDEST PUSH1 0x0 PUSH1 0x40 DUP3 ADD SWAP1 POP PUSH2 0x2DC5 PUSH1 0x0 DUP4 ADD DUP6 PUSH2 0x1BD2 JUMP JUMPDEST PUSH2 0x2DD2 PUSH1 0x20 DUP4 ADD DUP5 PUSH2 0x1BD2 JUMP JUMPDEST SWAP4 SWAP3 POP POP POP JUMP JUMPDEST PUSH1 0x0 DUP2 MLOAD SWAP1 POP PUSH2 0x2DE8 DUP2 PUSH2 0x1C46 JUMP JUMPDEST SWAP3 SWAP2 POP POP JUMP JUMPDEST PUSH1 0x0 PUSH1 0x20 DUP3 DUP5 SUB SLT ISZERO PUSH2 0x2E04 JUMPI PUSH2 0x2E03 PUSH2 0x1C06 JUMP JUMPDEST JUMPDEST PUSH1 0x0 PUSH2 0x2E12 DUP5 DUP3 DUP6 ADD PUSH2 0x2DD9 JUMP JUMPDEST SWAP2 POP POP SWAP3 SWAP2 POP POP JUMP JUMPDEST PUSH32 0x496E73756666696369656E7420616C6C6F77616E636500000000000000000000 PUSH1 0x0 DUP3 ADD MSTORE POP JUMP JUMPDEST PUSH1 0x0 PUSH2 0x2E51 PUSH1 0x16 DUP4 PUSH2 0x2213 JUMP JUMPDEST SWAP2 POP PUSH2 0x2E5C DUP3 PUSH2 0x2E1B JUMP JUMPDEST PUSH1 0x20 DUP3 ADD SWAP1 POP SWAP2 SWAP1 POP JUMP JUMPDEST PUSH1 0x0 PUSH1 0x20 DUP3 ADD SWAP1 POP DUP2 DUP2 SUB PUSH1 0x0 DUP4 ADD MSTORE PUSH2 0x2E80 DUP2 PUSH2 0x2E44 JUMP JUMPDEST SWAP1 POP SWAP2 SWAP1 POP JUMP JUMPDEST PUSH1 0x0 PUSH1 0x60 DUP3 ADD SWAP1 POP PUSH2 0x2E9C PUSH1 0x0 DUP4 ADD DUP7 PUSH2 0x1BD2 JUMP JUMPDEST PUSH2 0x2EA9 PUSH1 0x20 DUP4 ADD DUP6 PUSH2 0x1BD2 JUMP JUMPDEST PUSH2 0x2EB6 PUSH1 0x40 DUP4 ADD DUP5 PUSH2 0x1E27 JUMP JUMPDEST SWAP5 SWAP4 POP POP POP POP JUMP JUMPDEST PUSH32 0x546F6B656E207472616E73666572206661696C65640000000000000000000000 PUSH1 0x0 DUP3 ADD MSTORE POP JUMP JUMPDEST PUSH1 0x0 PUSH2 0x2EF4 PUSH1 0x15 DUP4 PUSH2 0x2213 JUMP JUMPDEST SWAP2 POP PUSH2 0x2EFF DUP3 PUSH2 0x2EBE JUMP JUMPDEST PUSH1 0x20 DUP3 ADD SWAP1 POP SWAP2 SWAP1 POP JUMP JUMPDEST PUSH1 0x0 PUSH1 0x20 DUP3 ADD SWAP1 POP DUP2 DUP2 SUB PUSH1 0x0 DUP4 ADD MSTORE PUSH2 0x2F23 DUP2 PUSH2 0x2EE7 JUMP JUMPDEST SWAP1 POP SWAP2 SWAP1 POP JUMP JUMPDEST PUSH1 0x0 PUSH1 0x80 DUP3 ADD SWAP1 POP PUSH2 0x2F3F PUSH1 0x0 DUP4 ADD DUP8 PUSH2 0x1BD2 JUMP JUMPDEST PUSH2 0x2F4C PUSH1 0x20 DUP4 ADD DUP7 PUSH2 0x1E27 JUMP JUMPDEST PUSH2 0x2F59 PUSH1 0x40 DUP4 ADD DUP6 PUSH2 0x1E27 JUMP JUMPDEST PUSH2 0x2F66 PUSH1 0x60 DUP4 ADD DUP5 PUSH2 0x1E27 JUMP JUMPDEST SWAP6 SWAP5 POP POP POP POP POP JUMP JUMPDEST PUSH1 0x0 PUSH1 0x60 DUP3 ADD SWAP1 POP PUSH2 0x2F84 PUSH1 0x0 DUP4 ADD DUP7 PUSH2 0x1E27 JUMP JUMPDEST PUSH2 0x2F91 PUSH1 0x20 DUP4 ADD DUP6 PUSH2 0x1E27 JUMP JUMPDEST PUSH2 0x2F9E PUSH1 0x40 DUP4 ADD DUP5 PUSH2 0x1E27 JUMP JUMPDEST SWAP5 SWAP4 POP POP POP POP JUMP INVALID LOG2 PUSH5 0x6970667358 0x22 SLT KECCAK256 0x4F 0xEF SELFBALANCE PUSH15 0x2AC70C3188F7034B3BB3B1B893B46 0x2C 0xE6 SSTORE GASPRICE PUSH6 0x59B4040979D0 CREATE2 0xF6 PUSH5 0x736F6C6343 STOP ADDMOD MULMOD STOP CALLER PUSH1 0x80 PUSH1 0x40 MSTORE CALLVALUE DUP1 ISZERO PUSH3 0x11 JUMPI PUSH1 0x0 DUP1 REVERT JUMPDEST POP PUSH1 0x40 MLOAD PUSH3 0x45D3 CODESIZE SUB DUP1 PUSH3 0x45D3 DUP4 CODECOPY DUP2 DUP2 ADD PUSH1 0x40 MSTORE DUP2 ADD SWAP1 PUSH3 0x37 SWAP2 SWAP1 PUSH3 0x33B JUMP JUMPDEST PUSH1 0x40 MLOAD DUP1 PUSH1 0x40 ADD PUSH1 0x40 MSTORE DUP1 PUSH1 0xD DUP2 MSTORE PUSH1 0x20 ADD PUSH32 0x4C6F74746572795469636B657400000000000000000000000000000000000000 DUP2 MSTORE POP PUSH1 0x40 MLOAD DUP1 PUSH1 0x40 ADD PUSH1 0x40 MSTORE DUP1 PUSH1 0x2 DUP2 MSTORE PUSH1 0x20 ADD PUSH32 0x4C54000000000000000000000000000000000000000000000000000000000000 DUP2 MSTORE POP DUP2 PUSH1 0x0 SWAP1 DUP1 MLOAD SWAP1 PUSH1 0x20 ADD SWAP1 PUSH3 0xBB SWAP3 SWAP2 SWAP1 PUSH3 0x20D JUMP JUMPDEST POP DUP1 PUSH1 0x1 SWAP1 DUP1 MLOAD SWAP1 PUSH1 0x20 ADD SWAP1 PUSH3 0xD4 SWAP3 SWAP2 SWAP1 PUSH3 0x20D JUMP JUMPDEST POP POP POP PUSH3 0xF7 PUSH3 0xEB PUSH3 0x13F PUSH1 0x20 SHL PUSH1 0x20 SHR JUMP JUMPDEST PUSH3 0x147 PUSH1 0x20 SHL PUSH1 0x20 SHR JUMP JUMPDEST DUP1 PUSH1 0xC PUSH1 0x0 PUSH2 0x100 EXP DUP2 SLOAD DUP2 PUSH20 0xFFFFFFFFFFFFFFFFFFFFFFFFFFFFFFFFFFFFFFFF MUL NOT AND SWAP1 DUP4 PUSH20 0xFFFFFFFFFFFFFFFFFFFFFFFFFFFFFFFFFFFFFFFF AND MUL OR SWAP1 SSTORE POP POP PUSH3 0x3D2 JUMP JUMPDEST PUSH1 0x0 CALLER SWAP1 POP SWAP1 JUMP JUMPDEST PUSH1 0x0 PUSH1 0xA PUSH1 0x0 SWAP1 SLOAD SWAP1 PUSH2 0x100 EXP SWAP1 DIV PUSH20 0xFFFFFFFFFFFFFFFFFFFFFFFFFFFFFFFFFFFFFFFF AND SWAP1 POP DUP2 PUSH1 0xA PUSH1 0x0 PUSH2 0x100 EXP DUP2 SLOAD DUP2 PUSH20 0xFFFFFFFFFFFFFFFFFFFFFFFFFFFFFFFFFFFFFFFF MUL NOT AND SWAP1 DUP4 PUSH20 0xFFFFFFFFFFFFFFFFFFFFFFFFFFFFFFFFFFFFFFFF AND MUL OR SWAP1 SSTORE POP DUP2 PUSH20 0xFFFFFFFFFFFFFFFFFFFFFFFFFFFFFFFFFFFFFFFF AND DUP2 PUSH20 0xFFFFFFFFFFFFFFFFFFFFFFFFFFFFFFFFFFFFFFFF AND PUSH32 0x8BE0079C531659141344CD1FD0A4F28419497F9722A3DAAFE3B4186F6B6457E0 PUSH1 0x40 MLOAD PUSH1 0x40 MLOAD DUP1 SWAP2 SUB SWAP1 LOG3 POP POP JUMP JUMPDEST DUP3 DUP1 SLOAD PUSH3 0x21B SWAP1 PUSH3 0x39C JUMP JUMPDEST SWAP1 PUSH1 0x0 MSTORE PUSH1 0x20 PUSH1 0x0 KECCAK256 SWAP1 PUSH1 0x1F ADD PUSH1 0x20 SWAP1 DIV DUP2 ADD SWAP3 DUP3 PUSH3 0x23F JUMPI PUSH1 0x0 DUP6 SSTORE PUSH3 0x28B JUMP JUMPDEST DUP3 PUSH1 0x1F LT PUSH3 0x25A JUMPI DUP1 MLOAD PUSH1 0xFF NOT AND DUP4 DUP1 ADD OR DUP6 SSTORE PUSH3 0x28B JUMP JUMPDEST DUP3 DUP1 ADD PUSH1 0x1 ADD DUP6 SSTORE DUP3 ISZERO PUSH3 0x28B JUMPI SWAP2 DUP3 ADD JUMPDEST DUP3 DUP2 GT ISZERO PUSH3 0x28A JUMPI DUP3 MLOAD DUP3 SSTORE SWAP2 PUSH1 0x20 ADD SWAP2 SWAP1 PUSH1 0x1 ADD SWAP1 PUSH3 0x26D JUMP JUMPDEST JUMPDEST POP SWAP1 POP PUSH3 0x29A SWAP2 SWAP1 PUSH3 0x29E JUMP JUMPDEST POP SWAP1 JUMP JUMPDEST JUMPDEST DUP1 DUP3 GT ISZERO PUSH3 0x2B9 JUMPI PUSH1 0x0 DUP2 PUSH1 0x0 SWAP1 SSTORE POP PUSH1 0x1 ADD PUSH3 0x29F JUMP JUMPDEST POP SWAP1 JUMP JUMPDEST PUSH1 0x0 DUP1 REVERT JUMPDEST PUSH1 0x0 PUSH20 0xFFFFFFFFFFFFFFFFFFFFFFFFFFFFFFFFFFFFFFFF DUP3 AND SWAP1 POP SWAP2 SWAP1 POP JUMP JUMPDEST PUSH1 0x0 PUSH3 0x2EF DUP3 PUSH3 0x2C2 JUMP JUMPDEST SWAP1 POP SWAP2 SWAP1 POP JUMP JUMPDEST PUSH1 0x0 PUSH3 0x303 DUP3 PUSH3 0x2E2 JUMP JUMPDEST SWAP1 POP SWAP2 SWAP1 POP JUMP JUMPDEST PUSH3 0x315 DUP2 PUSH3 0x2F6 JUMP JUMPDEST DUP2 EQ PUSH3 0x321 JUMPI PUSH1 0x0 DUP1 REVERT JUMPDEST POP JUMP JUMPDEST PUSH1 0x0 DUP2 MLOAD SWAP1 POP PUSH3 0x335 DUP2 PUSH3 0x30A JUMP JUMPDEST SWAP3 SWAP2 POP POP JUMP JUMPDEST PUSH1 0x0 PUSH1 0x20 DUP3 DUP5 SUB SLT ISZERO PUSH3 0x354 JUMPI PUSH3 0x353 PUSH3 0x2BD JUMP JUMPDEST JUMPDEST PUSH1 0x0 PUSH3 0x364 DUP5 DUP3 DUP6 ADD PUSH3 0x324 JUMP JUMPDEST SWAP2 POP POP SWAP3 SWAP2 POP POP JUMP JUMPDEST PUSH32 0x4E487B7100000000000000000000000000000000000000000000000000000000 PUSH1 0x0 MSTORE PUSH1 0x22 PUSH1 0x4 MSTORE PUSH1 0x24 PUSH1 0x0 REVERT JUMPDEST PUSH1 0x0 PUSH1 0x2 DUP3 DIV SWAP1 POP PUSH1 0x1 DUP3 AND DUP1 PUSH3 0x3B5 JUMPI PUSH1 0x7F DUP3 AND SWAP2 POP JUMPDEST PUSH1 0x20 DUP3 LT DUP2 EQ ISZERO PUSH3 0x3CC JUMPI PUSH3 0x3CB PUSH3 0x36D JUMP JUMPDEST JUMPDEST POP SWAP2 SWAP1 POP JUMP JUMPDEST PUSH2 0x41F1 DUP1 PUSH3 0x3E2 PUSH1 0x0 CODECOPY PUSH1 0x0 RETURN INVALID PUSH1 0x80 PUSH1 0x40 MSTORE CALLVALUE DUP1 ISZERO PUSH2 0x10 JUMPI PUSH1 0x0 DUP1 REVERT JUMPDEST POP PUSH1 0x4 CALLDATASIZE LT PUSH2 0x1C4 JUMPI PUSH1 0x0 CALLDATALOAD PUSH1 0xE0 SHR DUP1 PUSH4 0x6352211E GT PUSH2 0xF9 JUMPI DUP1 PUSH4 0x95D89B41 GT PUSH2 0x97 JUMPI DUP1 PUSH4 0xC87B56DD GT PUSH2 0x71 JUMPI DUP1 PUSH4 0xC87B56DD EQ PUSH2 0x52E JUMPI DUP1 PUSH4 0xE985E9C5 EQ PUSH2 0x55E JUMPI DUP1 PUSH4 0xF2FDE38B EQ PUSH2 0x58E JUMPI DUP1 PUSH4 0xFAE62508 EQ PUSH2 0x5AA JUMPI PUSH2 0x1C4 JUMP JUMPDEST DUP1 PUSH4 0x95D89B41 EQ PUSH2 0x4D8 JUMPI DUP1 PUSH4 0xA22CB465 EQ PUSH2 0x4F6 JUMPI DUP1 PUSH4 0xB88D4FDE EQ PUSH2 0x512 JUMPI PUSH2 0x1C4 JUMP JUMPDEST DUP1 PUSH4 0x70A08231 GT PUSH2 0xD3 JUMPI DUP1 PUSH4 0x70A08231 EQ PUSH2 0x464 JUMPI DUP1 PUSH4 0x715018A6 EQ PUSH2 0x494 JUMPI DUP1 PUSH4 0x83ECE4C6 EQ PUSH2 0x49E JUMPI DUP1 PUSH4 0x8DA5CB5B EQ PUSH2 0x4BA JUMPI PUSH2 0x1C4 JUMP JUMPDEST DUP1 PUSH4 0x6352211E EQ PUSH2 0x3FA JUMPI DUP1 PUSH4 0x67DD74CA EQ PUSH2 0x42A JUMPI DUP1 PUSH4 0x6D3739C4 EQ PUSH2 0x446 JUMPI PUSH2 0x1C4 JUMP JUMPDEST DUP1 PUSH4 0x18160DDD GT PUSH2 0x166 JUMPI DUP1 PUSH4 0x305A905A GT PUSH2 0x140 JUMPI DUP1 PUSH4 0x305A905A EQ PUSH2 0x362 JUMPI DUP1 PUSH4 0x42842E0E EQ PUSH2 0x37E JUMPI DUP1 PUSH4 0x4945646E EQ PUSH2 0x39A JUMPI DUP1 PUSH4 0x4F6CCCE7 EQ PUSH2 0x3CA JUMPI PUSH2 0x1C4 JUMP JUMPDEST DUP1 PUSH4 0x18160DDD EQ PUSH2 0x2F8 JUMPI DUP1 PUSH4 0x23B872DD EQ PUSH2 0x316 JUMPI DUP1 PUSH4 0x2F745C59 EQ PUSH2 0x332 JUMPI PUSH2 0x1C4 JUMP JUMPDEST DUP1 PUSH4 0x81812FC GT PUSH2 0x1A2 JUMPI DUP1 PUSH4 0x81812FC EQ PUSH2 0x247 JUMPI DUP1 PUSH4 0x95EA7B3 EQ PUSH2 0x277 JUMPI DUP1 PUSH4 0xBC5C3F5 EQ PUSH2 0x293 JUMPI DUP1 PUSH4 0x127E4528 EQ PUSH2 0x2C8 JUMPI PUSH2 0x1C4 JUMP JUMPDEST DUP1 PUSH4 0x1FFC9A7 EQ PUSH2 0x1C9 JUMPI DUP1 PUSH4 0x484A22F EQ PUSH2 0x1F9 JUMPI DUP1 PUSH4 0x6FDDE03 EQ PUSH2 0x229 JUMPI JUMPDEST PUSH1 0x0 DUP1 REVERT JUMPDEST PUSH2 0x1E3 PUSH1 0x4 DUP1 CALLDATASIZE SUB DUP2 ADD SWAP1 PUSH2 0x1DE SWAP2 SWAP1 PUSH2 0x2B70 JUMP JUMPDEST PUSH2 0x5DA JUMP JUMPDEST PUSH1 0x40 MLOAD PUSH2 0x1F0 SWAP2 SWAP1 PUSH2 0x2BB8 JUMP JUMPDEST PUSH1 0x40 MLOAD DUP1 SWAP2 SUB SWAP1 RETURN JUMPDEST PUSH2 0x213 PUSH1 0x4 DUP1 CALLDATASIZE SUB DUP2 ADD SWAP1 PUSH2 0x20E SWAP2 SWAP1 PUSH2 0x2C31 JUMP JUMPDEST PUSH2 0x5EC JUMP JUMPDEST PUSH1 0x40 MLOAD PUSH2 0x220 SWAP2 SWAP1 PUSH2 0x2D26 JUMP JUMPDEST PUSH1 0x40 MLOAD DUP1 SWAP2 SUB SWAP1 RETURN JUMPDEST PUSH2 0x231 PUSH2 0x69A JUMP JUMPDEST PUSH1 0x40 MLOAD PUSH2 0x23E SWAP2 SWAP1 PUSH2 0x2DE1 JUMP JUMPDEST PUSH1 0x40 MLOAD DUP1 SWAP2 SUB SWAP1 RETURN JUMPDEST PUSH2 0x261 PUSH1 0x4 DUP1 CALLDATASIZE SUB DUP2 ADD SWAP1 PUSH2 0x25C SWAP2 SWAP1 PUSH2 0x2E2F JUMP JUMPDEST PUSH2 0x72C JUMP JUMPDEST PUSH1 0x40 MLOAD PUSH2 0x26E SWAP2 SWAP1 PUSH2 0x2E6B JUMP JUMPDEST PUSH1 0x40 MLOAD DUP1 SWAP2 SUB SWAP1 RETURN JUMPDEST PUSH2 0x291 PUSH1 0x4 DUP1 CALLDATASIZE SUB DUP2 ADD SWAP1 PUSH2 0x28C SWAP2 SWAP1 PUSH2 0x2E86 JUMP JUMPDEST PUSH2 0x772 JUMP JUMPDEST STOP JUMPDEST PUSH2 0x2AD PUSH1 0x4 DUP1 CALLDATASIZE SUB DUP2 ADD SWAP1 PUSH2 0x2A8 SWAP2 SWAP1 PUSH2 0x2E2F JUMP JUMPDEST PUSH2 0x88A JUMP JUMPDEST PUSH1 0x40 MLOAD PUSH2 0x2BF SWAP7 SWAP6 SWAP5 SWAP4 SWAP3 SWAP2 SWAP1 PUSH2 0x2ED5 JUMP JUMPDEST PUSH1 0x40 MLOAD DUP1 SWAP2 SUB SWAP1 RETURN JUMPDEST PUSH2 0x2E2 PUSH1 0x4 DUP1 CALLDATASIZE SUB DUP2 ADD SWAP1 PUSH2 0x2DD SWAP2 SWAP1 PUSH2 0x2F36 JUMP JUMPDEST PUSH2 0x8F3 JUMP JUMPDEST PUSH1 0x40 MLOAD PUSH2 0x2EF SWAP2 SWAP1 PUSH2 0x2D26 JUMP JUMPDEST PUSH1 0x40 MLOAD DUP1 SWAP2 SUB SWAP1 RETURN JUMPDEST PUSH2 0x300 PUSH2 0x970 JUMP JUMPDEST PUSH1 0x40 MLOAD PUSH2 0x30D SWAP2 SWAP1 PUSH2 0x2F76 JUMP JUMPDEST PUSH1 0x40 MLOAD DUP1 SWAP2 SUB SWAP1 RETURN JUMPDEST PUSH2 0x330 PUSH1 0x4 DUP1 CALLDATASIZE SUB DUP2 ADD SWAP1 PUSH2 0x32B SWAP2 SWAP1 PUSH2 0x2F91 JUMP JUMPDEST PUSH2 0x97D JUMP JUMPDEST STOP JUMPDEST PUSH2 0x34C PUSH1 0x4 DUP1 CALLDATASIZE SUB DUP2 ADD SWAP1 PUSH2 0x347 SWAP2 SWAP1 PUSH2 0x2E86 JUMP JUMPDEST PUSH2 0x9DD JUMP JUMPDEST PUSH1 0x40 MLOAD PUSH2 0x359 SWAP2 SWAP1 PUSH2 0x2F76 JUMP JUMPDEST PUSH1 0x40 MLOAD DUP1 SWAP2 SUB SWAP1 RETURN JUMPDEST PUSH2 0x37C PUSH1 0x4 DUP1 CALLDATASIZE SUB DUP2 ADD SWAP1 PUSH2 0x377 SWAP2 SWAP1 PUSH2 0x2F36 JUMP JUMPDEST PUSH2 0xA82 JUMP JUMPDEST STOP JUMPDEST PUSH2 0x398 PUSH1 0x4 DUP1 CALLDATASIZE SUB DUP2 ADD SWAP1 PUSH2 0x393 SWAP2 SWAP1 PUSH2 0x2F91 JUMP JUMPDEST PUSH2 0xBC1 JUMP JUMPDEST STOP JUMPDEST PUSH2 0x3B4 PUSH1 0x4 DUP1 CALLDATASIZE SUB DUP2 ADD SWAP1 PUSH2 0x3AF SWAP2 SWAP1 PUSH2 0x2FE4 JUMP JUMPDEST PUSH2 0xBE1 JUMP JUMPDEST PUSH1 0x40 MLOAD PUSH2 0x3C1 SWAP2 SWAP1 PUSH2 0x2F76 JUMP JUMPDEST PUSH1 0x40 MLOAD DUP1 SWAP2 SUB SWAP1 RETURN JUMPDEST PUSH2 0x3E4 PUSH1 0x4 DUP1 CALLDATASIZE SUB DUP2 ADD SWAP1 PUSH2 0x3DF SWAP2 SWAP1 PUSH2 0x2E2F JUMP JUMPDEST PUSH2 0xD91 JUMP JUMPDEST PUSH1 0x40 MLOAD PUSH2 0x3F1 SWAP2 SWAP1 PUSH2 0x2F76 JUMP JUMPDEST PUSH1 0x40 MLOAD DUP1 SWAP2 SUB SWAP1 RETURN JUMPDEST PUSH2 0x414 PUSH1 0x4 DUP1 CALLDATASIZE SUB DUP2 ADD SWAP1 PUSH2 0x40F SWAP2 SWAP1 PUSH2 0x2E2F JUMP JUMPDEST PUSH2 0xE02 JUMP JUMPDEST PUSH1 0x40 MLOAD PUSH2 0x421 SWAP2 SWAP1 PUSH2 0x2E6B JUMP JUMPDEST PUSH1 0x40 MLOAD DUP1 SWAP2 SUB SWAP1 RETURN JUMPDEST PUSH2 0x444 PUSH1 0x4 DUP1 CALLDATASIZE SUB DUP2 ADD SWAP1 PUSH2 0x43F SWAP2 SWAP1 PUSH2 0x2E2F JUMP JUMPDEST PUSH2 0xE89 JUMP JUMPDEST STOP JUMPDEST PUSH2 0x44E PUSH2 0x11A5 JUMP JUMPDEST PUSH1 0x40 MLOAD PUSH2 0x45B SWAP2 SWAP1 PUSH2 0x30AA JUMP JUMPDEST PUSH1 0x40 MLOAD DUP1 SWAP2 SUB SWAP1 RETURN JUMPDEST PUSH2 0x47E PUSH1 0x4 DUP1 CALLDATASIZE SUB DUP2 ADD SWAP1 PUSH2 0x479 SWAP2 SWAP1 PUSH2 0x2C31 JUMP JUMPDEST PUSH2 0x11CB JUMP JUMPDEST PUSH1 0x40 MLOAD PUSH2 0x48B SWAP2 SWAP1 PUSH2 0x2F76 JUMP JUMPDEST PUSH1 0x40 MLOAD DUP1 SWAP2 SUB SWAP1 RETURN JUMPDEST PUSH2 0x49C PUSH2 0x1283 JUMP JUMPDEST STOP JUMPDEST PUSH2 0x4B8 PUSH1 0x4 DUP1 CALLDATASIZE SUB DUP2 ADD SWAP1 PUSH2 0x4B3 SWAP2 SWAP1 PUSH2 0x2E2F JUMP JUMPDEST PUSH2 0x1297 JUMP JUMPDEST STOP JUMPDEST PUSH2 0x4C2 PUSH2 0x1388 JUMP JUMPDEST PUSH1 0x40 MLOAD PUSH2 0x4CF SWAP2 SWAP1 PUSH2 0x2E6B JUMP JUMPDEST PUSH1 0x40 MLOAD DUP1 SWAP2 SUB SWAP1 RETURN JUMPDEST PUSH2 0x4E0 PUSH2 0x13B2 JUMP JUMPDEST PUSH1 0x40 MLOAD PUSH2 0x4ED SWAP2 SWAP1 PUSH2 0x2DE1 JUMP JUMPDEST PUSH1 0x40 MLOAD DUP1 SWAP2 SUB SWAP1 RETURN JUMPDEST PUSH2 0x510 PUSH1 0x4 DUP1 CALLDATASIZE SUB DUP2 ADD SWAP1 PUSH2 0x50B SWAP2 SWAP1 PUSH2 0x30F1 JUMP JUMPDEST PUSH2 0x1444 JUMP JUMPDEST STOP JUMPDEST PUSH2 0x52C PUSH1 0x4 DUP1 CALLDATASIZE SUB DUP2 ADD SWAP1 PUSH2 0x527 SWAP2 SWAP1 PUSH2 0x3266 JUMP JUMPDEST PUSH2 0x145A JUMP JUMPDEST STOP JUMPDEST PUSH2 0x548 PUSH1 0x4 DUP1 CALLDATASIZE SUB DUP2 ADD SWAP1 PUSH2 0x543 SWAP2 SWAP1 PUSH2 0x2E2F JUMP JUMPDEST PUSH2 0x14BC JUMP JUMPDEST PUSH1 0x40 MLOAD PUSH2 0x555 SWAP2 SWAP1 PUSH2 0x2DE1 JUMP JUMPDEST PUSH1 0x40 MLOAD DUP1 SWAP2 SUB SWAP1 RETURN JUMPDEST PUSH2 0x578 PUSH1 0x4 DUP1 CALLDATASIZE SUB DUP2 ADD SWAP1 PUSH2 0x573 SWAP2 SWAP1 PUSH2 0x32E9 JUMP JUMPDEST PUSH2 0x1524 JUMP JUMPDEST PUSH1 0x40 MLOAD PUSH2 0x585 SWAP2 SWAP1 PUSH2 0x2BB8 JUMP JUMPDEST PUSH1 0x40 MLOAD DUP1 SWAP2 SUB SWAP1 RETURN JUMPDEST PUSH2 0x5A8 PUSH1 0x4 DUP1 CALLDATASIZE SUB DUP2 ADD SWAP1 PUSH2 0x5A3 SWAP2 SWAP1 PUSH2 0x2C31 JUMP JUMPDEST PUSH2 0x15B8 JUMP JUMPDEST STOP JUMPDEST PUSH2 0x5C4 PUSH1 0x4 DUP1 CALLDATASIZE SUB DUP2 ADD SWAP1 PUSH2 0x5BF SWAP2 SWAP1 PUSH2 0x3329 JUMP JUMPDEST PUSH2 0x163C JUMP JUMPDEST PUSH1 0x40 MLOAD PUSH2 0x5D1 SWAP2 SWAP1 PUSH2 0x2F76 JUMP JUMPDEST PUSH1 0x40 MLOAD DUP1 SWAP2 SUB SWAP1 RETURN JUMPDEST PUSH1 0x0 PUSH2 0x5E5 DUP3 PUSH2 0x167A JUMP JUMPDEST SWAP1 POP SWAP2 SWAP1 POP JUMP JUMPDEST PUSH1 0x60 PUSH1 0x0 PUSH2 0x5F9 DUP4 PUSH2 0x11CB JUMP JUMPDEST SWAP1 POP PUSH1 0x0 DUP2 PUSH8 0xFFFFFFFFFFFFFFFF DUP2 GT ISZERO PUSH2 0x617 JUMPI PUSH2 0x616 PUSH2 0x313B JUMP JUMPDEST JUMPDEST PUSH1 0x40 MLOAD SWAP1 DUP1 DUP3 MSTORE DUP1 PUSH1 0x20 MUL PUSH1 0x20 ADD DUP3 ADD PUSH1 0x40 MSTORE DUP1 ISZERO PUSH2 0x645 JUMPI DUP2 PUSH1 0x20 ADD PUSH1 0x20 DUP3 MUL DUP1 CALLDATASIZE DUP4 CALLDATACOPY DUP1 DUP3 ADD SWAP2 POP POP SWAP1 POP JUMPDEST POP SWAP1 POP PUSH1 0x0 JUMPDEST DUP3 DUP2 LT ISZERO PUSH2 0x68F JUMPI PUSH2 0x65D DUP6 DUP3 PUSH2 0x9DD JUMP JUMPDEST DUP3 DUP3 DUP2 MLOAD DUP2 LT PUSH2 0x670 JUMPI PUSH2 0x66F PUSH2 0x337C JUMP JUMPDEST JUMPDEST PUSH1 0x20 MUL PUSH1 0x20 ADD ADD DUP2 DUP2 MSTORE POP POP DUP1 DUP1 PUSH2 0x687 SWAP1 PUSH2 0x33DA JUMP JUMPDEST SWAP2 POP POP PUSH2 0x64B JUMP JUMPDEST POP DUP1 SWAP3 POP POP POP SWAP2 SWAP1 POP JUMP JUMPDEST PUSH1 0x60 PUSH1 0x0 DUP1 SLOAD PUSH2 0x6A9 SWAP1 PUSH2 0x3452 JUMP JUMPDEST DUP1 PUSH1 0x1F ADD PUSH1 0x20 DUP1 SWAP2 DIV MUL PUSH1 0x20 ADD PUSH1 0x40 MLOAD SWAP1 DUP2 ADD PUSH1 0x40 MSTORE DUP1 SWAP3 SWAP2 SWAP1 DUP2 DUP2 MSTORE PUSH1 0x20 ADD DUP3 DUP1 SLOAD PUSH2 0x6D5 SWAP1 PUSH2 0x3452 JUMP JUMPDEST DUP1 ISZERO PUSH2 0x722 JUMPI DUP1 PUSH1 0x1F LT PUSH2 0x6F7 JUMPI PUSH2 0x100 DUP1 DUP4 SLOAD DIV MUL DUP4 MSTORE SWAP2 PUSH1 0x20 ADD SWAP2 PUSH2 0x722 JUMP JUMPDEST DUP3 ADD SWAP2 SWAP1 PUSH1 0x0 MSTORE PUSH1 0x20 PUSH1 0x0 KECCAK256 SWAP1 JUMPDEST DUP2 SLOAD DUP2 MSTORE SWAP1 PUSH1 0x1 ADD SWAP1 PUSH1 0x20 ADD DUP1 DUP4 GT PUSH2 0x705 JUMPI DUP3 SWAP1 SUB PUSH1 0x1F AND DUP3 ADD SWAP2 JUMPDEST POP POP POP POP POP SWAP1 POP SWAP1 JUMP JUMPDEST PUSH1 0x0 PUSH2 0x737 DUP3 PUSH2 0x16F4 JUMP JUMPDEST PUSH1 0x4 PUSH1 0x0 DUP4 DUP2 MSTORE PUSH1 0x20 ADD SWAP1 DUP2 MSTORE PUSH1 0x20 ADD PUSH1 0x0 KECCAK256 PUSH1 0x0 SWAP1 SLOAD SWAP1 PUSH2 0x100 EXP SWAP1 DIV PUSH20 0xFFFFFFFFFFFFFFFFFFFFFFFFFFFFFFFFFFFFFFFF AND SWAP1 POP SWAP2 SWAP1 POP JUMP JUMPDEST PUSH1 0x0 PUSH2 0x77D DUP3 PUSH2 0xE02 JUMP JUMPDEST SWAP1 POP DUP1 PUSH20 0xFFFFFFFFFFFFFFFFFFFFFFFFFFFFFFFFFFFFFFFF AND DUP4 PUSH20 0xFFFFFFFFFFFFFFFFFFFFFFFFFFFFFFFFFFFFFFFF AND EQ ISZERO PUSH2 0x7EE JUMPI PUSH1 0x40 MLOAD PUSH32 0x8C379A000000000000000000000000000000000000000000000000000000000 DUP2 MSTORE PUSH1 0x4 ADD PUSH2 0x7E5 SWAP1 PUSH2 0x34F6 JUMP JUMPDEST PUSH1 0x40 MLOAD DUP1 SWAP2 SUB SWAP1 REVERT JUMPDEST DUP1 PUSH20 0xFFFFFFFFFFFFFFFFFFFFFFFFFFFFFFFFFFFFFFFF AND PUSH2 0x80D PUSH2 0x173F JUMP JUMPDEST PUSH20 0xFFFFFFFFFFFFFFFFFFFFFFFFFFFFFFFFFFFFFFFF AND EQ DUP1 PUSH2 0x83C JUMPI POP PUSH2 0x83B DUP2 PUSH2 0x836 PUSH2 0x173F JUMP JUMPDEST PUSH2 0x1524 JUMP JUMPDEST JUMPDEST PUSH2 0x87B JUMPI PUSH1 0x40 MLOAD PUSH32 0x8C379A000000000000000000000000000000000000000000000000000000000 DUP2 MSTORE PUSH1 0x4 ADD PUSH2 0x872 SWAP1 PUSH2 0x3588 JUMP JUMPDEST PUSH1 0x40 MLOAD DUP1 SWAP2 SUB SWAP1 REVERT JUMPDEST PUSH2 0x885 DUP4 DUP4 PUSH2 0x1747 JUMP JUMPDEST POP POP POP JUMP JUMPDEST PUSH1 0xD PUSH1 0x20 MSTORE DUP1 PUSH1 0x0 MSTORE PUSH1 0x40 PUSH1 0x0 KECCAK256 PUSH1 0x0 SWAP2 POP SWAP1 POP DUP1 PUSH1 0x0 ADD SLOAD SWAP1 DUP1 PUSH1 0x1 ADD SLOAD SWAP1 DUP1 PUSH1 0x2 ADD SLOAD SWAP1 DUP1 PUSH1 0x3 ADD PUSH1 0x0 SWAP1 SLOAD SWAP1 PUSH2 0x100 EXP SWAP1 DIV PUSH20 0xFFFFFFFFFFFFFFFFFFFFFFFFFFFFFFFFFFFFFFFF AND SWAP1 DUP1 PUSH1 0x3 ADD PUSH1 0x14 SWAP1 SLOAD SWAP1 PUSH2 0x100 EXP SWAP1 DIV PUSH1 0xFF AND SWAP1 DUP1 PUSH1 0x4 ADD SLOAD SWAP1 POP DUP7 JUMP JUMPDEST PUSH1 0x60 PUSH1 0xE PUSH1 0x0 DUP5 DUP2 MSTORE PUSH1 0x20 ADD SWAP1 DUP2 MSTORE PUSH1 0x20 ADD PUSH1 0x0 KECCAK256 PUSH1 0x0 DUP4 DUP2 MSTORE PUSH1 0x20 ADD SWAP1 DUP2 MSTORE PUSH1 0x20 ADD PUSH1 0x0 KECCAK256 DUP1 SLOAD DUP1 PUSH1 0x20 MUL PUSH1 0x20 ADD PUSH1 0x40 MLOAD SWAP1 DUP2 ADD PUSH1 0x40 MSTORE DUP1 SWAP3 SWAP2 SWAP1 DUP2 DUP2 MSTORE PUSH1 0x20 ADD DUP3 DUP1 SLOAD DUP1 ISZERO PUSH2 0x963 JUMPI PUSH1 0x20 MUL DUP3 ADD SWAP2 SWAP1 PUSH1 0x0 MSTORE PUSH1 0x20 PUSH1 0x0 KECCAK256 SWAP1 JUMPDEST DUP2 SLOAD DUP2 MSTORE PUSH1 0x20 ADD SWAP1 PUSH1 0x1 ADD SWAP1 DUP1 DUP4 GT PUSH2 0x94F JUMPI JUMPDEST POP POP POP POP POP SWAP1 POP SWAP3 SWAP2 POP POP JUMP JUMPDEST PUSH1 0x0 PUSH1 0x8 DUP1 SLOAD SWAP1 POP SWAP1 POP SWAP1 JUMP JUMPDEST PUSH2 0x98E PUSH2 0x988 PUSH2 0x173F JUMP JUMPDEST DUP3 PUSH2 0x1800 JUMP JUMPDEST PUSH2 0x9CD JUMPI PUSH1 0x40 MLOAD PUSH32 0x8C379A000000000000000000000000000000000000000000000000000000000 DUP2 MSTORE PUSH1 0x4 ADD PUSH2 0x9C4 SWAP1 PUSH2 0x361A JUMP JUMPDEST PUSH1 0x40 MLOAD DUP1 SWAP2 SUB SWAP1 REVERT JUMPDEST PUSH2 0x9D8 DUP4 DUP4 DUP4 PUSH2 0x1895 JUMP JUMPDEST POP POP POP JUMP JUMPDEST PUSH1 0x0 PUSH2 0x9E8 DUP4 PUSH2 0x11CB JUMP JUMPDEST DUP3 LT PUSH2 0xA29 JUMPI PUSH1 0x40 MLOAD PUSH32 0x8C379A000000000000000000000000000000000000000000000000000000000 DUP2 MSTORE PUSH1 0x4 ADD PUSH2 0xA20 SWAP1 PUSH2 0x36AC JUMP JUMPDEST PUSH1 0x40 MLOAD DUP1 SWAP2 SUB SWAP1 REVERT JUMPDEST PUSH1 0x6 PUSH1 0x0 DUP5 PUSH20 0xFFFFFFFFFFFFFFFFFFFFFFFFFFFFFFFFFFFFFFFF AND PUSH20 0xFFFFFFFFFFFFFFFFFFFFFFFFFFFFFFFFFFFFFFFF AND DUP2 MSTORE PUSH1 0x20 ADD SWAP1 DUP2 MSTORE PUSH1 0x20 ADD PUSH1 0x0 KECCAK256 PUSH1 0x0 DUP4 DUP2 MSTORE PUSH1 0x20 ADD SWAP1 DUP2 MSTORE PUSH1 0x20 ADD PUSH1 0x0 KECCAK256 SLOAD SWAP1 POP SWAP3 SWAP2 POP POP JUMP JUMPDEST CALLER PUSH20 0xFFFFFFFFFFFFFFFFFFFFFFFFFFFFFFFFFFFFFFFF AND PUSH2 0xAA2 DUP4 PUSH2 0xE02 JUMP JUMPDEST PUSH20 0xFFFFFFFFFFFFFFFFFFFFFFFFFFFFFFFFFFFFFFFF AND EQ PUSH2 0xAF8 JUMPI PUSH1 0x40 MLOAD PUSH32 0x8C379A000000000000000000000000000000000000000000000000000000000 DUP2 MSTORE PUSH1 0x4 ADD PUSH2 0xAEF SWAP1 PUSH2 0x3718 JUMP JUMPDEST PUSH1 0x40 MLOAD DUP1 SWAP2 SUB SWAP1 REVERT JUMPDEST PUSH1 0x0 DUP2 GT PUSH2 0xB3B JUMPI PUSH1 0x40 MLOAD PUSH32 0x8C379A000000000000000000000000000000000000000000000000000000000 DUP2 MSTORE PUSH1 0x4 ADD PUSH2 0xB32 SWAP1 PUSH2 0x3784 JUMP JUMPDEST PUSH1 0x40 MLOAD DUP1 SWAP2 SUB SWAP1 REVERT JUMPDEST PUSH1 0x1 PUSH1 0xD PUSH1 0x0 DUP5 DUP2 MSTORE PUSH1 0x20 ADD SWAP1 DUP2 MSTORE PUSH1 0x20 ADD PUSH1 0x0 KECCAK256 PUSH1 0x3 ADD PUSH1 0x14 PUSH2 0x100 EXP DUP2 SLOAD DUP2 PUSH1 0xFF MUL NOT AND SWAP1 DUP4 ISZERO ISZERO MUL OR SWAP1 SSTORE POP DUP1 PUSH1 0xD PUSH1 0x0 DUP5 DUP2 MSTORE PUSH1 0x20 ADD SWAP1 DUP2 MSTORE PUSH1 0x20 ADD PUSH1 0x0 KECCAK256 PUSH1 0x4 ADD DUP2 SWAP1 SSTORE POP DUP2 PUSH32 0xBCA2F6391CAFD6D28D39261BA883DD74090C618BEFB806E74EF434778BB2F7ED DUP3 PUSH1 0x40 MLOAD PUSH2 0xBB5 SWAP2 SWAP1 PUSH2 0x2F76 JUMP JUMPDEST PUSH1 0x40 MLOAD DUP1 SWAP2 SUB SWAP1 LOG2 POP POP JUMP JUMPDEST PUSH2 0xBDC DUP4 DUP4 DUP4 PUSH1 0x40 MLOAD DUP1 PUSH1 0x20 ADD PUSH1 0x40 MSTORE DUP1 PUSH1 0x0 DUP2 MSTORE POP PUSH2 0x145A JUMP JUMPDEST POP POP POP JUMP JUMPDEST PUSH1 0x0 PUSH2 0xBEB PUSH2 0x1B8F JUMP JUMPDEST PUSH1 0xB PUSH1 0x0 DUP2 SLOAD DUP1 SWAP3 SWAP2 SWAP1 PUSH2 0xBFE SWAP1 PUSH2 0x33DA JUMP JUMPDEST SWAP2 SWAP1 POP SSTORE POP PUSH1 0x0 PUSH1 0xB SLOAD SWAP1 POP PUSH2 0xC14 DUP7 DUP3 PUSH2 0x1C0D JUMP JUMPDEST PUSH1 0x40 MLOAD DUP1 PUSH1 0xC0 ADD PUSH1 0x40 MSTORE DUP1 DUP7 DUP2 MSTORE PUSH1 0x20 ADD DUP6 DUP2 MSTORE PUSH1 0x20 ADD DUP5 DUP2 MSTORE PUSH1 0x20 ADD DUP8 PUSH20 0xFFFFFFFFFFFFFFFFFFFFFFFFFFFFFFFFFFFFFFFF AND DUP2 MSTORE PUSH1 0x20 ADD PUSH1 0x0 ISZERO ISZERO DUP2 MSTORE PUSH1 0x20 ADD PUSH1 0x0 DUP2 MSTORE POP PUSH1 0xD PUSH1 0x0 DUP4 DUP2 MSTORE PUSH1 0x20 ADD SWAP1 DUP2 MSTORE PUSH1 0x20 ADD PUSH1 0x0 KECCAK256 PUSH1 0x0 DUP3 ADD MLOAD DUP2 PUSH1 0x0 ADD SSTORE PUSH1 0x20 DUP3 ADD MLOAD DUP2 PUSH1 0x1 ADD SSTORE PUSH1 0x40 DUP3 ADD MLOAD DUP2 PUSH1 0x2 ADD SSTORE PUSH1 0x60 DUP3 ADD MLOAD DUP2 PUSH1 0x3 ADD PUSH1 0x0 PUSH2 0x100 EXP DUP2 SLOAD DUP2 PUSH20 0xFFFFFFFFFFFFFFFFFFFFFFFFFFFFFFFFFFFFFFFF MUL NOT AND SWAP1 DUP4 PUSH20 0xFFFFFFFFFFFFFFFFFFFFFFFFFFFFFFFFFFFFFFFF AND MUL OR SWAP1 SSTORE POP PUSH1 0x80 DUP3 ADD MLOAD DUP2 PUSH1 0x3 ADD PUSH1 0x14 PUSH2 0x100 EXP DUP2 SLOAD DUP2 PUSH1 0xFF MUL NOT AND SWAP1 DUP4 ISZERO ISZERO MUL OR SWAP1 SSTORE POP PUSH1 0xA0 DUP3 ADD MLOAD DUP2 PUSH1 0x4 ADD SSTORE SWAP1 POP POP PUSH1 0xE PUSH1 0x0 DUP7 DUP2 MSTORE PUSH1 0x20 ADD SWAP1 DUP2 MSTORE PUSH1 0x20 ADD PUSH1 0x0 KECCAK256 PUSH1 0x0 DUP6 DUP2 MSTORE PUSH1 0x20 ADD SWAP1 DUP2 MSTORE PUSH1 0x20 ADD PUSH1 0x0 KECCAK256 DUP2 SWAP1 DUP1 PUSH1 0x1 DUP2 SLOAD ADD DUP1 DUP3 SSTORE DUP1 SWAP2 POP POP PUSH1 0x1 SWAP1 SUB SWAP1 PUSH1 0x0 MSTORE PUSH1 0x20 PUSH1 0x0 KECCAK256 ADD PUSH1 0x0 SWAP1 SWAP2 SWAP1 SWAP2 SWAP1 SWAP2 POP SSTORE DUP4 DUP6 DUP3 PUSH32 0x1BA4DD71A6C6F6E57C973C206DA350EF7EA3FA12BA5DCC31A4862EE0DE18DBC4 DUP10 PUSH1 0x40 MLOAD PUSH2 0xD7D SWAP2 SWAP1 PUSH2 0x2E6B JUMP JUMPDEST PUSH1 0x40 MLOAD DUP1 SWAP2 SUB SWAP1 LOG4 DUP1 SWAP2 POP POP SWAP5 SWAP4 POP POP POP POP JUMP JUMPDEST PUSH1 0x0 PUSH2 0xD9B PUSH2 0x970 JUMP JUMPDEST DUP3 LT PUSH2 0xDDC JUMPI PUSH1 0x40 MLOAD PUSH32 0x8C379A000000000000000000000000000000000000000000000000000000000 DUP2 MSTORE PUSH1 0x4 ADD PUSH2 0xDD3 SWAP1 PUSH2 0x3816 JUMP JUMPDEST PUSH1 0x40 MLOAD DUP1 SWAP2 SUB SWAP1 REVERT JUMPDEST PUSH1 0x8 DUP3 DUP2 SLOAD DUP2 LT PUSH2 0xDF0 JUMPI PUSH2 0xDEF PUSH2 0x337C JUMP JUMPDEST JUMPDEST SWAP1 PUSH1 0x0 MSTORE PUSH1 0x20 PUSH1 0x0 KECCAK256 ADD SLOAD SWAP1 POP SWAP2 SWAP1 POP JUMP JUMPDEST PUSH1 0x0 DUP1 PUSH2 0xE0E DUP4 PUSH2 0x1E2B JUMP JUMPDEST SWAP1 POP PUSH1 0x0 PUSH20 0xFFFFFFFFFFFFFFFFFFFFFFFFFFFFFFFFFFFFFFFF AND DUP2 PUSH20 0xFFFFFFFFFFFFFFFFFFFFFFFFFFFFFFFFFFFFFFFF AND EQ ISZERO PUSH2 0xE80 JUMPI PUSH1 0x40 MLOAD PUSH32 0x8C379A000000000000000000000000000000000000000000000000000000000 DUP2 MSTORE PUSH1 0x4 ADD PUSH2 0xE77 SWAP1 PUSH2 0x3882 JUMP JUMPDEST PUSH1 0x40 MLOAD DUP1 SWAP2 SUB SWAP1 REVERT JUMPDEST DUP1 SWAP2 POP POP SWAP2 SWAP1 POP JUMP JUMPDEST PUSH1 0x0 PUSH1 0xD PUSH1 0x0 DUP4 DUP2 MSTORE PUSH1 0x20 ADD SWAP1 DUP2 MSTORE PUSH1 0x20 ADD PUSH1 0x0 KECCAK256 SWAP1 POP DUP1 PUSH1 0x3 ADD PUSH1 0x14 SWAP1 SLOAD SWAP1 PUSH2 0x100 EXP SWAP1 DIV PUSH1 0xFF AND PUSH2 0xEF1 JUMPI PUSH1 0x40 MLOAD PUSH32 0x8C379A000000000000000000000000000000000000000000000000000000000 DUP2 MSTORE PUSH1 0x4 ADD PUSH2 0xEE8 SWAP1 PUSH2 0x38EE JUMP JUMPDEST PUSH1 0x40 MLOAD DUP1 SWAP2 SUB SWAP1 REVERT JUMPDEST PUSH1 0x0 PUSH2 0xEFC DUP4 PUSH2 0xE02 JUMP JUMPDEST SWAP1 POP DUP2 PUSH1 0x4 ADD SLOAD PUSH1 0xC PUSH1 0x0 SWAP1 SLOAD SWAP1 PUSH2 0x100 EXP SWAP1 DIV PUSH20 0xFFFFFFFFFFFFFFFFFFFFFFFFFFFFFFFFFFFFFFFF AND PUSH20 0xFFFFFFFFFFFFFFFFFFFFFFFFFFFFFFFFFFFFFFFF AND PUSH4 0xDD62ED3E CALLER ADDRESS PUSH1 0x40 MLOAD DUP4 PUSH4 0xFFFFFFFF AND PUSH1 0xE0 SHL DUP2 MSTORE PUSH1 0x4 ADD PUSH2 0xF60 SWAP3 SWAP2 SWAP1 PUSH2 0x390E JUMP JUMPDEST PUSH1 0x20 PUSH1 0x40 MLOAD DUP1 DUP4 SUB DUP2 DUP7 DUP1 EXTCODESIZE ISZERO DUP1 ISZERO PUSH2 0xF78 JUMPI PUSH1 0x0 DUP1 REVERT JUMPDEST POP GAS STATICCALL ISZERO DUP1 ISZERO PUSH2 0xF8C JUMPI RETURNDATASIZE PUSH1 0x0 DUP1 RETURNDATACOPY RETURNDATASIZE PUSH1 0x0 REVERT JUMPDEST POP POP POP POP PUSH1 0x40 MLOAD RETURNDATASIZE PUSH1 0x1F NOT PUSH1 0x1F DUP3 ADD AND DUP3 ADD DUP1 PUSH1 0x40 MSTORE POP DUP2 ADD SWAP1 PUSH2 0xFB0 SWAP2 SWAP1 PUSH2 0x394C JUMP JUMPDEST LT ISZERO PUSH2 0xFF1 JUMPI PUSH1 0x40 MLOAD PUSH32 0x8C379A000000000000000000000000000000000000000000000000000000000 DUP2 MSTORE PUSH1 0x4 ADD PUSH2 0xFE8 SWAP1 PUSH2 0x39C5 JUMP JUMPDEST PUSH1 0x40 MLOAD DUP1 SWAP2 SUB SWAP1 REVERT JUMPDEST PUSH1 0x0 PUSH1 0xC PUSH1 0x0 SWAP1 SLOAD SWAP1 PUSH2 0x100 EXP SWAP1 DIV PUSH20 0xFFFFFFFFFFFFFFFFFFFFFFFFFFFFFFFFFFFFFFFF AND PUSH20 0xFFFFFFFFFFFFFFFFFFFFFFFFFFFFFFFFFFFFFFFF AND PUSH4 0x23B872DD CALLER DUP5 DUP7 PUSH1 0x4 ADD SLOAD PUSH1 0x40 MLOAD DUP5 PUSH4 0xFFFFFFFF AND PUSH1 0xE0 SHL DUP2 MSTORE PUSH1 0x4 ADD PUSH2 0x1056 SWAP4 SWAP3 SWAP2 SWAP1 PUSH2 0x39E5 JUMP JUMPDEST PUSH1 0x20 PUSH1 0x40 MLOAD DUP1 DUP4 SUB DUP2 PUSH1 0x0 DUP8 DUP1 EXTCODESIZE ISZERO DUP1 ISZERO PUSH2 0x1070 JUMPI PUSH1 0x0 DUP1 REVERT JUMPDEST POP GAS CALL ISZERO DUP1 ISZERO PUSH2 0x1084 JUMPI RETURNDATASIZE PUSH1 0x0 DUP1 RETURNDATACOPY RETURNDATASIZE PUSH1 0x0 REVERT JUMPDEST POP POP POP POP PUSH1 0x40 MLOAD RETURNDATASIZE PUSH1 0x1F NOT PUSH1 0x1F DUP3 ADD AND DUP3 ADD DUP1 PUSH1 0x40 MSTORE POP DUP2 ADD SWAP1 PUSH2 0x10A8 SWAP2 SWAP1 PUSH2 0x3A31 JUMP JUMPDEST SWAP1 POP DUP1 PUSH2 0x10EA JUMPI PUSH1 0x40 MLOAD PUSH32 0x8C379A000000000000000000000000000000000000000000000000000000000 DUP2 MSTORE PUSH1 0x4 ADD PUSH2 0x10E1 SWAP1 PUSH2 0x3AAA JUMP JUMPDEST PUSH1 0x40 MLOAD DUP1 SWAP2 SUB SWAP1 REVERT JUMPDEST PUSH2 0x10F5 DUP3 CALLER DUP7 PUSH2 0x1895 JUMP JUMPDEST CALLER DUP4 PUSH1 0x3 ADD PUSH1 0x0 PUSH2 0x100 EXP DUP2 SLOAD DUP2 PUSH20 0xFFFFFFFFFFFFFFFFFFFFFFFFFFFFFFFFFFFFFFFF MUL NOT AND SWAP1 DUP4 PUSH20 0xFFFFFFFFFFFFFFFFFFFFFFFFFFFFFFFFFFFFFFFF AND MUL OR SWAP1 SSTORE POP PUSH1 0x0 DUP4 PUSH1 0x3 ADD PUSH1 0x14 PUSH2 0x100 EXP DUP2 SLOAD DUP2 PUSH1 0xFF MUL NOT AND SWAP1 DUP4 ISZERO ISZERO MUL OR SWAP1 SSTORE POP PUSH1 0x0 DUP4 PUSH1 0x4 ADD DUP2 SWAP1 SSTORE POP DUP4 PUSH32 0xDFC4C991A34BE4B2F90DF7C348D98B17393713EF48853D9071CF19D4687A6A36 DUP4 CALLER DUP7 PUSH1 0x4 ADD SLOAD PUSH1 0x40 MLOAD PUSH2 0x1197 SWAP4 SWAP3 SWAP2 SWAP1 PUSH2 0x39E5 JUMP JUMPDEST PUSH1 0x40 MLOAD DUP1 SWAP2 SUB SWAP1 LOG2 POP POP POP POP JUMP JUMPDEST PUSH1 0xC PUSH1 0x0 SWAP1 SLOAD SWAP1 PUSH2 0x100 EXP SWAP1 DIV PUSH20 0xFFFFFFFFFFFFFFFFFFFFFFFFFFFFFFFFFFFFFFFF AND DUP2 JUMP JUMPDEST PUSH1 0x0 DUP1 PUSH20 0xFFFFFFFFFFFFFFFFFFFFFFFFFFFFFFFFFFFFFFFF AND DUP3 PUSH20 0xFFFFFFFFFFFFFFFFFFFFFFFFFFFFFFFFFFFFFFFF AND EQ ISZERO PUSH2 0x123C JUMPI PUSH1 0x40 MLOAD PUSH32 0x8C379A000000000000000000000000000000000000000000000000000000000 DUP2 MSTORE PUSH1 0x4 ADD PUSH2 0x1233 SWAP1 PUSH2 0x3B3C JUMP JUMPDEST PUSH1 0x40 MLOAD DUP1 SWAP2 SUB SWAP1 REVERT JUMPDEST PUSH1 0x3 PUSH1 0x0 DUP4 PUSH20 0xFFFFFFFFFFFFFFFFFFFFFFFFFFFFFFFFFFFFFFFF AND PUSH20 0xFFFFFFFFFFFFFFFFFFFFFFFFFFFFFFFFFFFFFFFF AND DUP2 MSTORE PUSH1 0x20 ADD SWAP1 DUP2 MSTORE PUSH1 0x20 ADD PUSH1 0x0 KECCAK256 SLOAD SWAP1 POP SWAP2 SWAP1 POP JUMP JUMPDEST PUSH2 0x128B PUSH2 0x1B8F JUMP JUMPDEST PUSH2 0x1295 PUSH1 0x0 PUSH2 0x1E68 JUMP JUMPDEST JUMP JUMPDEST CALLER PUSH20 0xFFFFFFFFFFFFFFFFFFFFFFFFFFFFFFFFFFFFFFFF AND PUSH2 0x12B7 DUP3 PUSH2 0xE02 JUMP JUMPDEST PUSH20 0xFFFFFFFFFFFFFFFFFFFFFFFFFFFFFFFFFFFFFFFF AND EQ PUSH2 0x130D JUMPI PUSH1 0x40 MLOAD PUSH32 0x8C379A000000000000000000000000000000000000000000000000000000000 DUP2 MSTORE PUSH1 0x4 ADD PUSH2 0x1304 SWAP1 PUSH2 0x3718 JUMP JUMPDEST PUSH1 0x40 MLOAD DUP1 SWAP2 SUB SWAP1 REVERT JUMPDEST PUSH1 0x0 PUSH1 0xD PUSH1 0x0 DUP4 DUP2 MSTORE PUSH1 0x20 ADD SWAP1 DUP2 MSTORE PUSH1 0x20 ADD PUSH1 0x0 KECCAK256 PUSH1 0x3 ADD PUSH1 0x14 PUSH2 0x100 EXP DUP2 SLOAD DUP2 PUSH1 0xFF MUL NOT AND SWAP1 DUP4 ISZERO ISZERO MUL OR SWAP1 SSTORE POP PUSH1 0x0 PUSH1 0xD PUSH1 0x0 DUP4 DUP2 MSTORE PUSH1 0x20 ADD SWAP1 DUP2 MSTORE PUSH1 0x20 ADD PUSH1 0x0 KECCAK256 PUSH1 0x4 ADD DUP2 SWAP1 SSTORE POP DUP1 PUSH32 0xDB00F3044F762E640C77FDD12DF2E7CF2B4C17DE34F8995969A4D98B9904AF45 PUSH1 0x40 MLOAD PUSH1 0x40 MLOAD DUP1 SWAP2 SUB SWAP1 LOG2 POP JUMP JUMPDEST PUSH1 0x0 PUSH1 0xA PUSH1 0x0 SWAP1 SLOAD SWAP1 PUSH2 0x100 EXP SWAP1 DIV PUSH20 0xFFFFFFFFFFFFFFFFFFFFFFFFFFFFFFFFFFFFFFFF AND SWAP1 POP SWAP1 JUMP JUMPDEST PUSH1 0x60 PUSH1 0x1 DUP1 SLOAD PUSH2 0x13C1 SWAP1 PUSH2 0x3452 JUMP JUMPDEST DUP1 PUSH1 0x1F ADD PUSH1 0x20 DUP1 SWAP2 DIV MUL PUSH1 0x20 ADD PUSH1 0x40 MLOAD SWAP1 DUP2 ADD PUSH1 0x40 MSTORE DUP1 SWAP3 SWAP2 SWAP1 DUP2 DUP2 MSTORE PUSH1 0x20 ADD DUP3 DUP1 SLOAD PUSH2 0x13ED SWAP1 PUSH2 0x3452 JUMP JUMPDEST DUP1 ISZERO PUSH2 0x143A JUMPI DUP1 PUSH1 0x1F LT PUSH2 0x140F JUMPI PUSH2 0x100 DUP1 DUP4 SLOAD DIV MUL DUP4 MSTORE SWAP2 PUSH1 0x20 ADD SWAP2 PUSH2 0x143A JUMP JUMPDEST DUP3 ADD SWAP2 SWAP1 PUSH1 0x0 MSTORE PUSH1 0x20 PUSH1 0x0 KECCAK256 SWAP1 JUMPDEST DUP2 SLOAD DUP2 MSTORE SWAP1 PUSH1 0x1 ADD SWAP1 PUSH1 0x20 ADD DUP1 DUP4 GT PUSH2 0x141D JUMPI DUP3 SWAP1 SUB PUSH1 0x1F AND DUP3 ADD SWAP2 JUMPDEST POP POP POP POP POP SWAP1 POP SWAP1 JUMP JUMPDEST PUSH2 0x1456 PUSH2 0x144F PUSH2 0x173F JUMP JUMPDEST DUP4 DUP4 PUSH2 0x1F2E JUMP JUMPDEST POP POP JUMP JUMPDEST PUSH2 0x146B PUSH2 0x1465 PUSH2 0x173F JUMP JUMPDEST DUP4 PUSH2 0x1800 JUMP JUMPDEST PUSH2 0x14AA JUMPI PUSH1 0x40 MLOAD PUSH32 0x8C379A000000000000000000000000000000000000000000000000000000000 DUP2 MSTORE PUSH1 0x4 ADD PUSH2 0x14A1 SWAP1 PUSH2 0x361A JUMP JUMPDEST PUSH1 0x40 MLOAD DUP1 SWAP2 SUB SWAP1 REVERT JUMPDEST PUSH2 0x14B6 DUP5 DUP5 DUP5 DUP5 PUSH2 0x209B JUMP JUMPDEST POP POP POP POP JUMP JUMPDEST PUSH1 0x60 PUSH2 0x14C7 DUP3 PUSH2 0x16F4 JUMP JUMPDEST PUSH1 0x0 PUSH2 0x14D1 PUSH2 0x20F7 JUMP JUMPDEST SWAP1 POP PUSH1 0x0 DUP2 MLOAD GT PUSH2 0x14F1 JUMPI PUSH1 0x40 MLOAD DUP1 PUSH1 0x20 ADD PUSH1 0x40 MSTORE DUP1 PUSH1 0x0 DUP2 MSTORE POP PUSH2 0x151C JUMP JUMPDEST DUP1 PUSH2 0x14FB DUP5 PUSH2 0x210E JUMP JUMPDEST PUSH1 0x40 MLOAD PUSH1 0x20 ADD PUSH2 0x150C SWAP3 SWAP2 SWAP1 PUSH2 0x3B98 JUMP JUMPDEST PUSH1 0x40 MLOAD PUSH1 0x20 DUP2 DUP4 SUB SUB DUP2 MSTORE SWAP1 PUSH1 0x40 MSTORE JUMPDEST SWAP2 POP POP SWAP2 SWAP1 POP JUMP JUMPDEST PUSH1 0x0 PUSH1 0x5 PUSH1 0x0 DUP5 PUSH20 0xFFFFFFFFFFFFFFFFFFFFFFFFFFFFFFFFFFFFFFFF AND PUSH20 0xFFFFFFFFFFFFFFFFFFFFFFFFFFFFFFFFFFFFFFFF AND DUP2 MSTORE PUSH1 0x20 ADD SWAP1 DUP2 MSTORE PUSH1 0x20 ADD PUSH1 0x0 KECCAK256 PUSH1 0x0 DUP4 PUSH20 0xFFFFFFFFFFFFFFFFFFFFFFFFFFFFFFFFFFFFFFFF AND PUSH20 0xFFFFFFFFFFFFFFFFFFFFFFFFFFFFFFFFFFFFFFFF AND DUP2 MSTORE PUSH1 0x20 ADD SWAP1 DUP2 MSTORE PUSH1 0x20 ADD PUSH1 0x0 KECCAK256 PUSH1 0x0 SWAP1 SLOAD SWAP1 PUSH2 0x100 EXP SWAP1 DIV PUSH1 0xFF AND SWAP1 POP SWAP3 SWAP2 POP POP JUMP JUMPDEST PUSH2 0x15C0 PUSH2 0x1B8F JUMP JUMPDEST PUSH1 0x0 PUSH20 0xFFFFFFFFFFFFFFFFFFFFFFFFFFFFFFFFFFFFFFFF AND DUP2 PUSH20 0xFFFFFFFFFFFFFFFFFFFFFFFFFFFFFFFFFFFFFFFF AND EQ ISZERO PUSH2 0x1630 JUMPI PUSH1 0x40 MLOAD PUSH32 0x8C379A000000000000000000000000000000000000000000000000000000000 DUP2 MSTORE PUSH1 0x4 ADD PUSH2 0x1627 SWAP1 PUSH2 0x3C2E JUMP JUMPDEST PUSH1 0x40 MLOAD DUP1 SWAP2 SUB SWAP1 REVERT JUMPDEST PUSH2 0x1639 DUP2 PUSH2 0x1E68 JUMP JUMPDEST POP JUMP JUMPDEST PUSH1 0xE PUSH1 0x20 MSTORE DUP3 PUSH1 0x0 MSTORE PUSH1 0x40 PUSH1 0x0 KECCAK256 PUSH1 0x20 MSTORE DUP2 PUSH1 0x0 MSTORE PUSH1 0x40 PUSH1 0x0 KECCAK256 DUP2 DUP2 SLOAD DUP2 LT PUSH2 0x1664 JUMPI PUSH1 0x0 DUP1 REVERT JUMPDEST SWAP1 PUSH1 0x0 MSTORE PUSH1 0x20 PUSH1 0x0 KECCAK256 ADD PUSH1 0x0 SWAP3 POP SWAP3 POP POP POP SLOAD DUP2 JUMP JUMPDEST PUSH1 0x0 PUSH32 0x780E9D6300000000000000000000000000000000000000000000000000000000 PUSH28 0xFFFFFFFFFFFFFFFFFFFFFFFFFFFFFFFFFFFFFFFFFFFFFFFFFFFFFFFF NOT AND DUP3 PUSH28 0xFFFFFFFFFFFFFFFFFFFFFFFFFFFFFFFFFFFFFFFFFFFFFFFFFFFFFFFF NOT AND EQ DUP1 PUSH2 0x16ED JUMPI POP PUSH2 0x16EC DUP3 PUSH2 0x21E6 JUMP JUMPDEST JUMPDEST SWAP1 POP SWAP2 SWAP1 POP JUMP JUMPDEST PUSH2 0x16FD DUP2 PUSH2 0x22C8 JUMP JUMPDEST PUSH2 0x173C JUMPI PUSH1 0x40 MLOAD PUSH32 0x8C379A000000000000000000000000000000000000000000000000000000000 DUP2 MSTORE PUSH1 0x4 ADD PUSH2 0x1733 SWAP1 PUSH2 0x3882 JUMP JUMPDEST PUSH1 0x40 MLOAD DUP1 SWAP2 SUB SWAP1 REVERT JUMPDEST POP JUMP JUMPDEST PUSH1 0x0 CALLER SWAP1 POP SWAP1 JUMP JUMPDEST DUP2 PUSH1 0x4 PUSH1 0x0 DUP4 DUP2 MSTORE PUSH1 0x20 ADD SWAP1 DUP2 MSTORE PUSH1 0x20 ADD PUSH1 0x0 KECCAK256 PUSH1 0x0 PUSH2 0x100 EXP DUP2 SLOAD DUP2 PUSH20 0xFFFFFFFFFFFFFFFFFFFFFFFFFFFFFFFFFFFFFFFF MUL NOT AND SWAP1 DUP4 PUSH20 0xFFFFFFFFFFFFFFFFFFFFFFFFFFFFFFFFFFFFFFFF AND MUL OR SWAP1 SSTORE POP DUP1 DUP3 PUSH20 0xFFFFFFFFFFFFFFFFFFFFFFFFFFFFFFFFFFFFFFFF AND PUSH2 0x17BA DUP4 PUSH2 0xE02 JUMP JUMPDEST PUSH20 0xFFFFFFFFFFFFFFFFFFFFFFFFFFFFFFFFFFFFFFFF AND PUSH32 0x8C5BE1E5EBEC7D5BD14F71427D1E84F3DD0314C0F7B2291E5B200AC8C7C3B925 PUSH1 0x40 MLOAD PUSH1 0x40 MLOAD DUP1 SWAP2 SUB SWAP1 LOG4 POP POP JUMP JUMPDEST PUSH1 0x0 DUP1 PUSH2 0x180C DUP4 PUSH2 0xE02 JUMP JUMPDEST SWAP1 POP DUP1 PUSH20 0xFFFFFFFFFFFFFFFFFFFFFFFFFFFFFFFFFFFFFFFF AND DUP5 PUSH20 0xFFFFFFFFFFFFFFFFFFFFFFFFFFFFFFFFFFFFFFFF AND EQ DUP1 PUSH2 0x184E JUMPI POP PUSH2 0x184D DUP2 DUP6 PUSH2 0x1524 JUMP JUMPDEST JUMPDEST DUP1 PUSH2 0x188C JUMPI POP DUP4 PUSH20 0xFFFFFFFFFFFFFFFFFFFFFFFFFFFFFFFFFFFFFFFF AND PUSH2 0x1874 DUP5 PUSH2 0x72C JUMP JUMPDEST PUSH20 0xFFFFFFFFFFFFFFFFFFFFFFFFFFFFFFFFFFFFFFFF AND EQ JUMPDEST SWAP2 POP POP SWAP3 SWAP2 POP POP JUMP JUMPDEST DUP3 PUSH20 0xFFFFFFFFFFFFFFFFFFFFFFFFFFFFFFFFFFFFFFFF AND PUSH2 0x18B5 DUP3 PUSH2 0xE02 JUMP JUMPDEST PUSH20 0xFFFFFFFFFFFFFFFFFFFFFFFFFFFFFFFFFFFFFFFF AND EQ PUSH2 0x190B JUMPI PUSH1 0x40 MLOAD PUSH32 0x8C379A000000000000000000000000000000000000000000000000000000000 DUP2 MSTORE PUSH1 0x4 ADD PUSH2 0x1902 SWAP1 PUSH2 0x3CC0 JUMP JUMPDEST PUSH1 0x40 MLOAD DUP1 SWAP2 SUB SWAP1 REVERT JUMPDEST PUSH1 0x0 PUSH20 0xFFFFFFFFFFFFFFFFFFFFFFFFFFFFFFFFFFFFFFFF AND DUP3 PUSH20 0xFFFFFFFFFFFFFFFFFFFFFFFFFFFFFFFFFFFFFFFF AND EQ ISZERO PUSH2 0x197B JUMPI PUSH1 0x40 MLOAD PUSH32 0x8C379A000000000000000000000000000000000000000000000000000000000 DUP2 MSTORE PUSH1 0x4 ADD PUSH2 0x1972 SWAP1 PUSH2 0x3D52 JUMP JUMPDEST PUSH1 0x40 MLOAD DUP1 SWAP2 SUB SWAP1 REVERT JUMPDEST PUSH2 0x1988 DUP4 DUP4 DUP4 PUSH1 0x1 PUSH2 0x2309 JUMP JUMPDEST DUP3 PUSH20 0xFFFFFFFFFFFFFFFFFFFFFFFFFFFFFFFFFFFFFFFF AND PUSH2 0x19A8 DUP3 PUSH2 0xE02 JUMP JUMPDEST PUSH20 0xFFFFFFFFFFFFFFFFFFFFFFFFFFFFFFFFFFFFFFFF AND EQ PUSH2 0x19FE JUMPI PUSH1 0x40 MLOAD PUSH32 0x8C379A000000000000000000000000000000000000000000000000000000000 DUP2 MSTORE PUSH1 0x4 ADD PUSH2 0x19F5 SWAP1 PUSH2 0x3CC0 JUMP JUMPDEST PUSH1 0x40 MLOAD DUP1 SWAP2 SUB SWAP1 REVERT JUMPDEST PUSH1 0x4 PUSH1 0x0 DUP3 DUP2 MSTORE PUSH1 0x20 ADD SWAP1 DUP2 MSTORE PUSH1 0x20 ADD PUSH1 0x0 KECCAK256 PUSH1 0x0 PUSH2 0x100 EXP DUP2 SLOAD SWAP1 PUSH20 0xFFFFFFFFFFFFFFFFFFFFFFFFFFFFFFFFFFFFFFFF MUL NOT AND SWAP1 SSTORE PUSH1 0x1 PUSH1 0x3 PUSH1 0x0 DUP6 PUSH20 0xFFFFFFFFFFFFFFFFFFFFFFFFFFFFFFFFFFFFFFFF AND PUSH20 0xFFFFFFFFFFFFFFFFFFFFFFFFFFFFFFFFFFFFFFFF AND DUP2 MSTORE PUSH1 0x20 ADD SWAP1 DUP2 MSTORE PUSH1 0x20 ADD PUSH1 0x0 KECCAK256 PUSH1 0x0 DUP3 DUP3 SLOAD SUB SWAP3 POP POP DUP2 SWAP1 SSTORE POP PUSH1 0x1 PUSH1 0x3 PUSH1 0x0 DUP5 PUSH20 0xFFFFFFFFFFFFFFFFFFFFFFFFFFFFFFFFFFFFFFFF AND PUSH20 0xFFFFFFFFFFFFFFFFFFFFFFFFFFFFFFFFFFFFFFFF AND DUP2 MSTORE PUSH1 0x20 ADD SWAP1 DUP2 MSTORE PUSH1 0x20 ADD PUSH1 0x0 KECCAK256 PUSH1 0x0 DUP3 DUP3 SLOAD ADD SWAP3 POP POP DUP2 SWAP1 SSTORE POP DUP2 PUSH1 0x2 PUSH1 0x0 DUP4 DUP2 MSTORE PUSH1 0x20 ADD SWAP1 DUP2 MSTORE PUSH1 0x20 ADD PUSH1 0x0 KECCAK256 PUSH1 0x0 PUSH2 0x100 EXP DUP2 SLOAD DUP2 PUSH20 0xFFFFFFFFFFFFFFFFFFFFFFFFFFFFFFFFFFFFFFFF MUL NOT AND SWAP1 DUP4 PUSH20 0xFFFFFFFFFFFFFFFFFFFFFFFFFFFFFFFFFFFFFFFF AND MUL OR SWAP1 SSTORE POP DUP1 DUP3 PUSH20 0xFFFFFFFFFFFFFFFFFFFFFFFFFFFFFFFFFFFFFFFF AND DUP5 PUSH20 0xFFFFFFFFFFFFFFFFFFFFFFFFFFFFFFFFFFFFFFFF AND PUSH32 0xDDF252AD1BE2C89B69C2B068FC378DAA952BA7F163C4A11628F55A4DF523B3EF PUSH1 0x40 MLOAD PUSH1 0x40 MLOAD DUP1 SWAP2 SUB SWAP1 LOG4 PUSH2 0x1B8A DUP4 DUP4 DUP4 PUSH1 0x1 PUSH2 0x231B JUMP JUMPDEST POP POP POP JUMP JUMPDEST PUSH2 0x1B97 PUSH2 0x173F JUMP JUMPDEST PUSH20 0xFFFFFFFFFFFFFFFFFFFFFFFFFFFFFFFFFFFFFFFF AND PUSH2 0x1BB5 PUSH2 0x1388 JUMP JUMPDEST PUSH20 0xFFFFFFFFFFFFFFFFFFFFFFFFFFFFFFFFFFFFFFFF AND EQ PUSH2 0x1C0B JUMPI PUSH1 0x40 MLOAD PUSH32 0x8C379A000000000000000000000000000000000000000000000000000000000 DUP2 MSTORE PUSH1 0x4 ADD PUSH2 0x1C02 SWAP1 PUSH2 0x3DBE JUMP JUMPDEST PUSH1 0x40 MLOAD DUP1 SWAP2 SUB SWAP1 REVERT JUMPDEST JUMP JUMPDEST PUSH1 0x0 PUSH20 0xFFFFFFFFFFFFFFFFFFFFFFFFFFFFFFFFFFFFFFFF AND DUP3 PUSH20 0xFFFFFFFFFFFFFFFFFFFFFFFFFFFFFFFFFFFFFFFF AND EQ ISZERO PUSH2 0x1C7D JUMPI PUSH1 0x40 MLOAD PUSH32 0x8C379A000000000000000000000000000000000000000000000000000000000 DUP2 MSTORE PUSH1 0x4 ADD PUSH2 0x1C74 SWAP1 PUSH2 0x3E2A JUMP JUMPDEST PUSH1 0x40 MLOAD DUP1 SWAP2 SUB SWAP1 REVERT JUMPDEST PUSH2 0x1C86 DUP2 PUSH2 0x22C8 JUMP JUMPDEST ISZERO PUSH2 0x1CC6 JUMPI PUSH1 0x40 MLOAD PUSH32 0x8C379A000000000000000000000000000000000000000000000000000000000 DUP2 MSTORE PUSH1 0x4 ADD PUSH2 0x1CBD SWAP1 PUSH2 0x3E96 JUMP JUMPDEST PUSH1 0x40 MLOAD DUP1 SWAP2 SUB SWAP1 REVERT JUMPDEST PUSH2 0x1CD4 PUSH1 0x0 DUP4 DUP4 PUSH1 0x1 PUSH2 0x2309 JUMP JUMPDEST PUSH2 0x1CDD DUP2 PUSH2 0x22C8 JUMP JUMPDEST ISZERO PUSH2 0x1D1D JUMPI PUSH1 0x40 MLOAD PUSH32 0x8C379A000000000000000000000000000000000000000000000000000000000 DUP2 MSTORE PUSH1 0x4 ADD PUSH2 0x1D14 SWAP1 PUSH2 0x3E96 JUMP JUMPDEST PUSH1 0x40 MLOAD DUP1 SWAP2 SUB SWAP1 REVERT JUMPDEST PUSH1 0x1 PUSH1 0x3 PUSH1 0x0 DUP5 PUSH20 0xFFFFFFFFFFFFFFFFFFFFFFFFFFFFFFFFFFFFFFFF AND PUSH20 0xFFFFFFFFFFFFFFFFFFFFFFFFFFFFFFFFFFFFFFFF AND DUP2 MSTORE PUSH1 0x20 ADD SWAP1 DUP2 MSTORE PUSH1 0x20 ADD PUSH1 0x0 KECCAK256 PUSH1 0x0 DUP3 DUP3 SLOAD ADD SWAP3 POP POP DUP2 SWAP1 SSTORE POP DUP2 PUSH1 0x2 PUSH1 0x0 DUP4 DUP2 MSTORE PUSH1 0x20 ADD SWAP1 DUP2 MSTORE PUSH1 0x20 ADD PUSH1 0x0 KECCAK256 PUSH1 0x0 PUSH2 0x100 EXP DUP2 SLOAD DUP2 PUSH20 0xFFFFFFFFFFFFFFFFFFFFFFFFFFFFFFFFFFFFFFFF MUL NOT AND SWAP1 DUP4 PUSH20 0xFFFFFFFFFFFFFFFFFFFFFFFFFFFFFFFFFFFFFFFF AND MUL OR SWAP1 SSTORE POP DUP1 DUP3 PUSH20 0xFFFFFFFFFFFFFFFFFFFFFFFFFFFFFFFFFFFFFFFF AND PUSH1 0x0 PUSH20 0xFFFFFFFFFFFFFFFFFFFFFFFFFFFFFFFFFFFFFFFF AND PUSH32 0xDDF252AD1BE2C89B69C2B068FC378DAA952BA7F163C4A11628F55A4DF523B3EF PUSH1 0x40 MLOAD PUSH1 0x40 MLOAD DUP1 SWAP2 SUB SWAP1 LOG4 PUSH2 0x1E27 PUSH1 0x0 DUP4 DUP4 PUSH1 0x1 PUSH2 0x231B JUMP JUMPDEST POP POP JUMP JUMPDEST PUSH1 0x0 PUSH1 0x2 PUSH1 0x0 DUP4 DUP2 MSTORE PUSH1 0x20 ADD SWAP1 DUP2 MSTORE PUSH1 0x20 ADD PUSH1 0x0 KECCAK256 PUSH1 0x0 SWAP1 SLOAD SWAP1 PUSH2 0x100 EXP SWAP1 DIV PUSH20 0xFFFFFFFFFFFFFFFFFFFFFFFFFFFFFFFFFFFFFFFF AND SWAP1 POP SWAP2 SWAP1 POP JUMP JUMPDEST PUSH1 0x0 PUSH1 0xA PUSH1 0x0 SWAP1 SLOAD SWAP1 PUSH2 0x100 EXP SWAP1 DIV PUSH20 0xFFFFFFFFFFFFFFFFFFFFFFFFFFFFFFFFFFFFFFFF AND SWAP1 POP DUP2 PUSH1 0xA PUSH1 0x0 PUSH2 0x100 EXP DUP2 SLOAD DUP2 PUSH20 0xFFFFFFFFFFFFFFFFFFFFFFFFFFFFFFFFFFFFFFFF MUL NOT AND SWAP1 DUP4 PUSH20 0xFFFFFFFFFFFFFFFFFFFFFFFFFFFFFFFFFFFFFFFF AND MUL OR SWAP1 SSTORE POP DUP2 PUSH20 0xFFFFFFFFFFFFFFFFFFFFFFFFFFFFFFFFFFFFFFFF AND DUP2 PUSH20 0xFFFFFFFFFFFFFFFFFFFFFFFFFFFFFFFFFFFFFFFF AND PUSH32 0x8BE0079C531659141344CD1FD0A4F28419497F9722A3DAAFE3B4186F6B6457E0 PUSH1 0x40 MLOAD PUSH1 0x40 MLOAD DUP1 SWAP2 SUB SWAP1 LOG3 POP POP JUMP JUMPDEST DUP2 PUSH20 0xFFFFFFFFFFFFFFFFFFFFFFFFFFFFFFFFFFFFFFFF AND DUP4 PUSH20 0xFFFFFFFFFFFFFFFFFFFFFFFFFFFFFFFFFFFFFFFF AND EQ ISZERO PUSH2 0x1F9D JUMPI PUSH1 0x40 MLOAD PUSH32 0x8C379A000000000000000000000000000000000000000000000000000000000 DUP2 MSTORE PUSH1 0x4 ADD PUSH2 0x1F94 SWAP1 PUSH2 0x3F02 JUMP JUMPDEST PUSH1 0x40 MLOAD DUP1 SWAP2 SUB SWAP1 REVERT JUMPDEST DUP1 PUSH1 0x5 PUSH1 0x0 DUP6 PUSH20 0xFFFFFFFFFFFFFFFFFFFFFFFFFFFFFFFFFFFFFFFF AND PUSH20 0xFFFFFFFFFFFFFFFFFFFFFFFFFFFFFFFFFFFFFFFF AND DUP2 MSTORE PUSH1 0x20 ADD SWAP1 DUP2 MSTORE PUSH1 0x20 ADD PUSH1 0x0 KECCAK256 PUSH1 0x0 DUP5 PUSH20 0xFFFFFFFFFFFFFFFFFFFFFFFFFFFFFFFFFFFFFFFF AND PUSH20 0xFFFFFFFFFFFFFFFFFFFFFFFFFFFFFFFFFFFFFFFF AND DUP2 MSTORE PUSH1 0x20 ADD SWAP1 DUP2 MSTORE PUSH1 0x20 ADD PUSH1 0x0 KECCAK256 PUSH1 0x0 PUSH2 0x100 EXP DUP2 SLOAD DUP2 PUSH1 0xFF MUL NOT AND SWAP1 DUP4 ISZERO ISZERO MUL OR SWAP1 SSTORE POP DUP2 PUSH20 0xFFFFFFFFFFFFFFFFFFFFFFFFFFFFFFFFFFFFFFFF AND DUP4 PUSH20 0xFFFFFFFFFFFFFFFFFFFFFFFFFFFFFFFFFFFFFFFF AND PUSH32 0x17307EAB39AB6107E8899845AD3D59BD9653F200F220920489CA2B5937696C31 DUP4 PUSH1 0x40 MLOAD PUSH2 0x208E SWAP2 SWAP1 PUSH2 0x2BB8 JUMP JUMPDEST PUSH1 0x40 MLOAD DUP1 SWAP2 SUB SWAP1 LOG3 POP POP POP JUMP JUMPDEST PUSH2 0x20A6 DUP5 DUP5 DUP5 PUSH2 0x1895 JUMP JUMPDEST PUSH2 0x20B2 DUP5 DUP5 DUP5 DUP5 PUSH2 0x2321 JUMP JUMPDEST PUSH2 0x20F1 JUMPI PUSH1 0x40 MLOAD PUSH32 0x8C379A000000000000000000000000000000000000000000000000000000000 DUP2 MSTORE PUSH1 0x4 ADD PUSH2 0x20E8 SWAP1 PUSH2 0x3F94 JUMP JUMPDEST PUSH1 0x40 MLOAD DUP1 SWAP2 SUB SWAP1 REVERT JUMPDEST POP POP POP POP JUMP JUMPDEST PUSH1 0x60 PUSH1 0x40 MLOAD DUP1 PUSH1 0x20 ADD PUSH1 0x40 MSTORE DUP1 PUSH1 0x0 DUP2 MSTORE POP SWAP1 POP SWAP1 JUMP JUMPDEST PUSH1 0x60 PUSH1 0x0 PUSH1 0x1 PUSH2 0x211D DUP5 PUSH2 0x24B8 JUMP JUMPDEST ADD SWAP1 POP PUSH1 0x0 DUP2 PUSH8 0xFFFFFFFFFFFFFFFF DUP2 GT ISZERO PUSH2 0x213C JUMPI PUSH2 0x213B PUSH2 0x313B JUMP JUMPDEST JUMPDEST PUSH1 0x40 MLOAD SWAP1 DUP1 DUP3 MSTORE DUP1 PUSH1 0x1F ADD PUSH1 0x1F NOT AND PUSH1 0x20 ADD DUP3 ADD PUSH1 0x40 MSTORE DUP1 ISZERO PUSH2 0x216E JUMPI DUP2 PUSH1 0x20 ADD PUSH1 0x1 DUP3 MUL DUP1 CALLDATASIZE DUP4 CALLDATACOPY DUP1 DUP3 ADD SWAP2 POP POP SWAP1 POP JUMPDEST POP SWAP1 POP PUSH1 0x0 DUP3 PUSH1 0x20 ADD DUP3 ADD SWAP1 POP JUMPDEST PUSH1 0x1 ISZERO PUSH2 0x21DB JUMPI DUP1 DUP1 PUSH1 0x1 SWAP1 SUB SWAP2 POP POP PUSH32 0x3031323334353637383961626364656600000000000000000000000000000000 PUSH1 0xA DUP7 MOD BYTE DUP2 MSTORE8 PUSH1 0xA DUP6 DUP2 PUSH2 0x21C5 JUMPI PUSH2 0x21C4 PUSH2 0x3FB4 JUMP JUMPDEST JUMPDEST DIV SWAP5 POP PUSH1 0x0 DUP6 EQ ISZERO PUSH2 0x21D6 JUMPI PUSH2 0x21DB JUMP JUMPDEST PUSH2 0x217C JUMP JUMPDEST DUP2 SWAP4 POP POP POP POP SWAP2 SWAP1 POP JUMP JUMPDEST PUSH1 0x0 PUSH32 0x80AC58CD00000000000000000000000000000000000000000000000000000000 PUSH28 0xFFFFFFFFFFFFFFFFFFFFFFFFFFFFFFFFFFFFFFFFFFFFFFFFFFFFFFFF NOT AND DUP3 PUSH28 0xFFFFFFFFFFFFFFFFFFFFFFFFFFFFFFFFFFFFFFFFFFFFFFFFFFFFFFFF NOT AND EQ DUP1 PUSH2 0x22B1 JUMPI POP PUSH32 0x5B5E139F00000000000000000000000000000000000000000000000000000000 PUSH28 0xFFFFFFFFFFFFFFFFFFFFFFFFFFFFFFFFFFFFFFFFFFFFFFFFFFFFFFFF NOT AND DUP3 PUSH28 0xFFFFFFFFFFFFFFFFFFFFFFFFFFFFFFFFFFFFFFFFFFFFFFFFFFFFFFFF NOT AND EQ JUMPDEST DUP1 PUSH2 0x22C1 JUMPI POP PUSH2 0x22C0 DUP3 PUSH2 0x260B JUMP JUMPDEST JUMPDEST SWAP1 POP SWAP2 SWAP1 POP JUMP JUMPDEST PUSH1 0x0 DUP1 PUSH20 0xFFFFFFFFFFFFFFFFFFFFFFFFFFFFFFFFFFFFFFFF AND PUSH2 0x22EA DUP4 PUSH2 0x1E2B JUMP JUMPDEST PUSH20 0xFFFFFFFFFFFFFFFFFFFFFFFFFFFFFFFFFFFFFFFF AND EQ ISZERO SWAP1 POP SWAP2 SWAP1 POP JUMP JUMPDEST PUSH2 0x2315 DUP5 DUP5 DUP5 DUP5 PUSH2 0x2675 JUMP JUMPDEST POP POP POP POP JUMP JUMPDEST POP POP POP POP JUMP JUMPDEST PUSH1 0x0 PUSH2 0x2342 DUP5 PUSH20 0xFFFFFFFFFFFFFFFFFFFFFFFFFFFFFFFFFFFFFFFF AND PUSH2 0x27D5 JUMP JUMPDEST ISZERO PUSH2 0x24AB JUMPI DUP4 PUSH20 0xFFFFFFFFFFFFFFFFFFFFFFFFFFFFFFFFFFFFFFFF AND PUSH4 0x150B7A02 PUSH2 0x236B PUSH2 0x173F JUMP JUMPDEST DUP8 DUP7 DUP7 PUSH1 0x40 MLOAD DUP6 PUSH4 0xFFFFFFFF AND PUSH1 0xE0 SHL DUP2 MSTORE PUSH1 0x4 ADD PUSH2 0x238D SWAP5 SWAP4 SWAP3 SWAP2 SWAP1 PUSH2 0x4038 JUMP JUMPDEST PUSH1 0x20 PUSH1 0x40 MLOAD DUP1 DUP4 SUB DUP2 PUSH1 0x0 DUP8 DUP1 EXTCODESIZE ISZERO DUP1 ISZERO PUSH2 0x23A7 JUMPI PUSH1 0x0 DUP1 REVERT JUMPDEST POP GAS CALL SWAP3 POP POP POP DUP1 ISZERO PUSH2 0x23D8 JUMPI POP PUSH1 0x40 MLOAD RETURNDATASIZE PUSH1 0x1F NOT PUSH1 0x1F DUP3 ADD AND DUP3 ADD DUP1 PUSH1 0x40 MSTORE POP DUP2 ADD SWAP1 PUSH2 0x23D5 SWAP2 SWAP1 PUSH2 0x4099 JUMP JUMPDEST PUSH1 0x1 JUMPDEST PUSH2 0x245B JUMPI RETURNDATASIZE DUP1 PUSH1 0x0 DUP2 EQ PUSH2 0x2408 JUMPI PUSH1 0x40 MLOAD SWAP2 POP PUSH1 0x1F NOT PUSH1 0x3F RETURNDATASIZE ADD AND DUP3 ADD PUSH1 0x40 MSTORE RETURNDATASIZE DUP3 MSTORE RETURNDATASIZE PUSH1 0x0 PUSH1 0x20 DUP5 ADD RETURNDATACOPY PUSH2 0x240D JUMP JUMPDEST PUSH1 0x60 SWAP2 POP JUMPDEST POP PUSH1 0x0 DUP2 MLOAD EQ ISZERO PUSH2 0x2453 JUMPI PUSH1 0x40 MLOAD PUSH32 0x8C379A000000000000000000000000000000000000000000000000000000000 DUP2 MSTORE PUSH1 0x4 ADD PUSH2 0x244A SWAP1 PUSH2 0x3F94 JUMP JUMPDEST PUSH1 0x40 MLOAD DUP1 SWAP2 SUB SWAP1 REVERT JUMPDEST DUP1 MLOAD DUP2 PUSH1 0x20 ADD REVERT JUMPDEST PUSH4 0x150B7A02 PUSH1 0xE0 SHL PUSH28 0xFFFFFFFFFFFFFFFFFFFFFFFFFFFFFFFFFFFFFFFFFFFFFFFFFFFFFFFF NOT AND DUP2 PUSH28 0xFFFFFFFFFFFFFFFFFFFFFFFFFFFFFFFFFFFFFFFFFFFFFFFFFFFFFFFF NOT AND EQ SWAP2 POP POP PUSH2 0x24B0 JUMP JUMPDEST PUSH1 0x1 SWAP1 POP JUMPDEST SWAP5 SWAP4 POP POP POP POP JUMP JUMPDEST PUSH1 0x0 DUP1 PUSH1 0x0 SWAP1 POP PUSH27 0x184F03E93FF9F4DAA797ED6E38ED64BF6A1F010000000000000000 DUP4 LT PUSH2 0x2516 JUMPI PUSH27 0x184F03E93FF9F4DAA797ED6E38ED64BF6A1F010000000000000000 DUP4 DUP2 PUSH2 0x250C JUMPI PUSH2 0x250B PUSH2 0x3FB4 JUMP JUMPDEST JUMPDEST DIV SWAP3 POP PUSH1 0x40 DUP2 ADD SWAP1 POP JUMPDEST PUSH14 0x4EE2D6D415B85ACEF8100000000 DUP4 LT PUSH2 0x2553 JUMPI PUSH14 0x4EE2D6D415B85ACEF8100000000 DUP4 DUP2 PUSH2 0x2549 JUMPI PUSH2 0x2548 PUSH2 0x3FB4 JUMP JUMPDEST JUMPDEST DIV SWAP3 POP PUSH1 0x20 DUP2 ADD SWAP1 POP JUMPDEST PUSH7 0x2386F26FC10000 DUP4 LT PUSH2 0x2582 JUMPI PUSH7 0x2386F26FC10000 DUP4 DUP2 PUSH2 0x2578 JUMPI PUSH2 0x2577 PUSH2 0x3FB4 JUMP JUMPDEST JUMPDEST DIV SWAP3 POP PUSH1 0x10 DUP2 ADD SWAP1 POP JUMPDEST PUSH4 0x5F5E100 DUP4 LT PUSH2 0x25AB JUMPI PUSH4 0x5F5E100 DUP4 DUP2 PUSH2 0x25A1 JUMPI PUSH2 0x25A0 PUSH2 0x3FB4 JUMP JUMPDEST JUMPDEST DIV SWAP3 POP PUSH1 0x8 DUP2 ADD SWAP1 POP JUMPDEST PUSH2 0x2710 DUP4 LT PUSH2 0x25D0 JUMPI PUSH2 0x2710 DUP4 DUP2 PUSH2 0x25C6 JUMPI PUSH2 0x25C5 PUSH2 0x3FB4 JUMP JUMPDEST JUMPDEST DIV SWAP3 POP PUSH1 0x4 DUP2 ADD SWAP1 POP JUMPDEST PUSH1 0x64 DUP4 LT PUSH2 0x25F3 JUMPI PUSH1 0x64 DUP4 DUP2 PUSH2 0x25E9 JUMPI PUSH2 0x25E8 PUSH2 0x3FB4 JUMP JUMPDEST JUMPDEST DIV SWAP3 POP PUSH1 0x2 DUP2 ADD SWAP1 POP JUMPDEST PUSH1 0xA DUP4 LT PUSH2 0x2602 JUMPI PUSH1 0x1 DUP2 ADD SWAP1 POP JUMPDEST DUP1 SWAP2 POP POP SWAP2 SWAP1 POP JUMP JUMPDEST PUSH1 0x0 PUSH32 0x1FFC9A700000000000000000000000000000000000000000000000000000000 PUSH28 0xFFFFFFFFFFFFFFFFFFFFFFFFFFFFFFFFFFFFFFFFFFFFFFFFFFFFFFFF NOT AND DUP3 PUSH28 0xFFFFFFFFFFFFFFFFFFFFFFFFFFFFFFFFFFFFFFFFFFFFFFFFFFFFFFFF NOT AND EQ SWAP1 POP SWAP2 SWAP1 POP JUMP JUMPDEST PUSH2 0x2681 DUP5 DUP5 DUP5 DUP5 PUSH2 0x27F8 JUMP JUMPDEST PUSH1 0x1 DUP2 GT ISZERO PUSH2 0x26C5 JUMPI PUSH1 0x40 MLOAD PUSH32 0x8C379A000000000000000000000000000000000000000000000000000000000 DUP2 MSTORE PUSH1 0x4 ADD PUSH2 0x26BC SWAP1 PUSH2 0x4138 JUMP JUMPDEST PUSH1 0x40 MLOAD DUP1 SWAP2 SUB SWAP1 REVERT JUMPDEST PUSH1 0x0 DUP3 SWAP1 POP PUSH1 0x0 PUSH20 0xFFFFFFFFFFFFFFFFFFFFFFFFFFFFFFFFFFFFFFFF AND DUP6 PUSH20 0xFFFFFFFFFFFFFFFFFFFFFFFFFFFFFFFFFFFFFFFF AND EQ ISZERO PUSH2 0x270D JUMPI PUSH2 0x2708 DUP2 PUSH2 0x27FE JUMP JUMPDEST PUSH2 0x274C JUMP JUMPDEST DUP4 PUSH20 0xFFFFFFFFFFFFFFFFFFFFFFFFFFFFFFFFFFFFFFFF AND DUP6 PUSH20 0xFFFFFFFFFFFFFFFFFFFFFFFFFFFFFFFFFFFFFFFF AND EQ PUSH2 0x274B JUMPI PUSH2 0x274A DUP6 DUP3 PUSH2 0x2847 JUMP JUMPDEST JUMPDEST JUMPDEST PUSH1 0x0 PUSH20 0xFFFFFFFFFFFFFFFFFFFFFFFFFFFFFFFFFFFFFFFF AND DUP5 PUSH20 0xFFFFFFFFFFFFFFFFFFFFFFFFFFFFFFFFFFFFFFFF AND EQ ISZERO PUSH2 0x278F JUMPI PUSH2 0x278A DUP2 PUSH2 0x29B4 JUMP JUMPDEST PUSH2 0x27CE JUMP JUMPDEST DUP5 PUSH20 0xFFFFFFFFFFFFFFFFFFFFFFFFFFFFFFFFFFFFFFFF AND DUP5 PUSH20 0xFFFFFFFFFFFFFFFFFFFFFFFFFFFFFFFFFFFFFFFF AND EQ PUSH2 0x27CD JUMPI PUSH2 0x27CC DUP5 DUP3 PUSH2 0x2A85 JUMP JUMPDEST JUMPDEST JUMPDEST POP POP POP POP POP JUMP JUMPDEST PUSH1 0x0 DUP1 DUP3 PUSH20 0xFFFFFFFFFFFFFFFFFFFFFFFFFFFFFFFFFFFFFFFF AND EXTCODESIZE GT SWAP1 POP SWAP2 SWAP1 POP JUMP JUMPDEST POP POP POP POP JUMP JUMPDEST PUSH1 0x8 DUP1 SLOAD SWAP1 POP PUSH1 0x9 PUSH1 0x0 DUP4 DUP2 MSTORE PUSH1 0x20 ADD SWAP1 DUP2 MSTORE PUSH1 0x20 ADD PUSH1 0x0 KECCAK256 DUP2 SWAP1 SSTORE POP PUSH1 0x8 DUP2 SWAP1 DUP1 PUSH1 0x1 DUP2 SLOAD ADD DUP1 DUP3 SSTORE DUP1 SWAP2 POP POP PUSH1 0x1 SWAP1 SUB SWAP1 PUSH1 0x0 MSTORE PUSH1 0x20 PUSH1 0x0 KECCAK256 ADD PUSH1 0x0 SWAP1 SWAP2 SWAP1 SWAP2 SWAP1 SWAP2 POP SSTORE POP JUMP JUMPDEST PUSH1 0x0 PUSH1 0x1 PUSH2 0x2854 DUP5 PUSH2 0x11CB JUMP JUMPDEST PUSH2 0x285E SWAP2 SWAP1 PUSH2 0x4158 JUMP JUMPDEST SWAP1 POP PUSH1 0x0 PUSH1 0x7 PUSH1 0x0 DUP5 DUP2 MSTORE PUSH1 0x20 ADD SWAP1 DUP2 MSTORE PUSH1 0x20 ADD PUSH1 0x0 KECCAK256 SLOAD SWAP1 POP DUP2 DUP2 EQ PUSH2 0x2943 JUMPI PUSH1 0x0 PUSH1 0x6 PUSH1 0x0 DUP7 PUSH20 0xFFFFFFFFFFFFFFFFFFFFFFFFFFFFFFFFFFFFFFFF AND PUSH20 0xFFFFFFFFFFFFFFFFFFFFFFFFFFFFFFFFFFFFFFFF AND DUP2 MSTORE PUSH1 0x20 ADD SWAP1 DUP2 MSTORE PUSH1 0x20 ADD PUSH1 0x0 KECCAK256 PUSH1 0x0 DUP5 DUP2 MSTORE PUSH1 0x20 ADD SWAP1 DUP2 MSTORE PUSH1 0x20 ADD PUSH1 0x0 KECCAK256 SLOAD SWAP1 POP DUP1 PUSH1 0x6 PUSH1 0x0 DUP8 PUSH20 0xFFFFFFFFFFFFFFFFFFFFFFFFFFFFFFFFFFFFFFFF AND PUSH20 0xFFFFFFFFFFFFFFFFFFFFFFFFFFFFFFFFFFFFFFFF AND DUP2 MSTORE PUSH1 0x20 ADD SWAP1 DUP2 MSTORE PUSH1 0x20 ADD PUSH1 0x0 KECCAK256 PUSH1 0x0 DUP5 DUP2 MSTORE PUSH1 0x20 ADD SWAP1 DUP2 MSTORE PUSH1 0x20 ADD PUSH1 0x0 KECCAK256 DUP2 SWAP1 SSTORE POP DUP2 PUSH1 0x7 PUSH1 0x0 DUP4 DUP2 MSTORE PUSH1 0x20 ADD SWAP1 DUP2 MSTORE PUSH1 0x20 ADD PUSH1 0x0 KECCAK256 DUP2 SWAP1 SSTORE POP POP JUMPDEST PUSH1 0x7 PUSH1 0x0 DUP5 DUP2 MSTORE PUSH1 0x20 ADD SWAP1 DUP2 MSTORE PUSH1 0x20 ADD PUSH1 0x0 KECCAK256 PUSH1 0x0 SWAP1 SSTORE PUSH1 0x6 PUSH1 0x0 DUP6 PUSH20 0xFFFFFFFFFFFFFFFFFFFFFFFFFFFFFFFFFFFFFFFF AND PUSH20 0xFFFFFFFFFFFFFFFFFFFFFFFFFFFFFFFFFFFFFFFF AND DUP2 MSTORE PUSH1 0x20 ADD SWAP1 DUP2 MSTORE PUSH1 0x20 ADD PUSH1 0x0 KECCAK256 PUSH1 0x0 DUP4 DUP2 MSTORE PUSH1 0x20 ADD SWAP1 DUP2 MSTORE PUSH1 0x20 ADD PUSH1 0x0 KECCAK256 PUSH1 0x0 SWAP1 SSTORE POP POP POP POP JUMP JUMPDEST PUSH1 0x0 PUSH1 0x1 PUSH1 0x8 DUP1 SLOAD SWAP1 POP PUSH2 0x29C8 SWAP2 SWAP1 PUSH2 0x4158 JUMP JUMPDEST SWAP1 POP PUSH1 0x0 PUSH1 0x9 PUSH1 0x0 DUP5 DUP2 MSTORE PUSH1 0x20 ADD SWAP1 DUP2 MSTORE PUSH1 0x20 ADD PUSH1 0x0 KECCAK256 SLOAD SWAP1 POP PUSH1 0x0 PUSH1 0x8 DUP4 DUP2 SLOAD DUP2 LT PUSH2 0x29F8 JUMPI PUSH2 0x29F7 PUSH2 0x337C JUMP JUMPDEST JUMPDEST SWAP1 PUSH1 0x0 MSTORE PUSH1 0x20 PUSH1 0x0 KECCAK256 ADD SLOAD SWAP1 POP DUP1 PUSH1 0x8 DUP4 DUP2 SLOAD DUP2 LT PUSH2 0x2A1A JUMPI PUSH2 0x2A19 PUSH2 0x337C JUMP JUMPDEST JUMPDEST SWAP1 PUSH1 0x0 MSTORE PUSH1 0x20 PUSH1 0x0 KECCAK256 ADD DUP2 SWAP1 SSTORE POP DUP2 PUSH1 0x9 PUSH1 0x0 DUP4 DUP2 MSTORE PUSH1 0x20 ADD SWAP1 DUP2 MSTORE PUSH1 0x20 ADD PUSH1 0x0 KECCAK256 DUP2 SWAP1 SSTORE POP PUSH1 0x9 PUSH1 0x0 DUP6 DUP2 MSTORE PUSH1 0x20 ADD SWAP1 DUP2 MSTORE PUSH1 0x20 ADD PUSH1 0x0 KECCAK256 PUSH1 0x0 SWAP1 SSTORE PUSH1 0x8 DUP1 SLOAD DUP1 PUSH2 0x2A69 JUMPI PUSH2 0x2A68 PUSH2 0x418C JUMP JUMPDEST JUMPDEST PUSH1 0x1 SWAP1 SUB DUP2 DUP2 SWAP1 PUSH1 0x0 MSTORE PUSH1 0x20 PUSH1 0x0 KECCAK256 ADD PUSH1 0x0 SWAP1 SSTORE SWAP1 SSTORE POP POP POP POP JUMP JUMPDEST PUSH1 0x0 PUSH2 0x2A90 DUP4 PUSH2 0x11CB JUMP JUMPDEST SWAP1 POP DUP2 PUSH1 0x6 PUSH1 0x0 DUP6 PUSH20 0xFFFFFFFFFFFFFFFFFFFFFFFFFFFFFFFFFFFFFFFF AND PUSH20 0xFFFFFFFFFFFFFFFFFFFFFFFFFFFFFFFFFFFFFFFF AND DUP2 MSTORE PUSH1 0x20 ADD SWAP1 DUP2 MSTORE PUSH1 0x20 ADD PUSH1 0x0 KECCAK256 PUSH1 0x0 DUP4 DUP2 MSTORE PUSH1 0x20 ADD SWAP1 DUP2 MSTORE PUSH1 0x20 ADD PUSH1 0x0 KECCAK256 DUP2 SWAP1 SSTORE POP DUP1 PUSH1 0x7 PUSH1 0x0 DUP5 DUP2 MSTORE PUSH1 0x20 ADD SWAP1 DUP2 MSTORE PUSH1 0x20 ADD PUSH1 0x0 KECCAK256 DUP2 SWAP1 SSTORE POP POP POP POP JUMP JUMPDEST PUSH1 0x0 PUSH1 0x40 MLOAD SWAP1 POP SWAP1 JUMP JUMPDEST PUSH1 0x0 DUP1 REVERT JUMPDEST PUSH1 0x0 DUP1 REVERT JUMPDEST PUSH1 0x0 PUSH32 0xFFFFFFFF00000000000000000000000000000000000000000000000000000000 DUP3 AND SWAP1 POP SWAP2 SWAP1 POP JUMP JUMPDEST PUSH2 0x2B4D DUP2 PUSH2 0x2B18 JUMP JUMPDEST DUP2 EQ PUSH2 0x2B58 JUMPI PUSH1 0x0 DUP1 REVERT JUMPDEST POP JUMP JUMPDEST PUSH1 0x0 DUP2 CALLDATALOAD SWAP1 POP PUSH2 0x2B6A DUP2 PUSH2 0x2B44 JUMP JUMPDEST SWAP3 SWAP2 POP POP JUMP JUMPDEST PUSH1 0x0 PUSH1 0x20 DUP3 DUP5 SUB SLT ISZERO PUSH2 0x2B86 JUMPI PUSH2 0x2B85 PUSH2 0x2B0E JUMP JUMPDEST JUMPDEST PUSH1 0x0 PUSH2 0x2B94 DUP5 DUP3 DUP6 ADD PUSH2 0x2B5B JUMP JUMPDEST SWAP2 POP POP SWAP3 SWAP2 POP POP JUMP JUMPDEST PUSH1 0x0 DUP2 ISZERO ISZERO SWAP1 POP SWAP2 SWAP1 POP JUMP JUMPDEST PUSH2 0x2BB2 DUP2 PUSH2 0x2B9D JUMP JUMPDEST DUP3 MSTORE POP POP JUMP JUMPDEST PUSH1 0x0 PUSH1 0x20 DUP3 ADD SWAP1 POP PUSH2 0x2BCD PUSH1 0x0 DUP4 ADD DUP5 PUSH2 0x2BA9 JUMP JUMPDEST SWAP3 SWAP2 POP POP JUMP JUMPDEST PUSH1 0x0 PUSH20 0xFFFFFFFFFFFFFFFFFFFFFFFFFFFFFFFFFFFFFFFF DUP3 AND SWAP1 POP SWAP2 SWAP1 POP JUMP JUMPDEST PUSH1 0x0 PUSH2 0x2BFE DUP3 PUSH2 0x2BD3 JUMP JUMPDEST SWAP1 POP SWAP2 SWAP1 POP JUMP JUMPDEST PUSH2 0x2C0E DUP2 PUSH2 0x2BF3 JUMP JUMPDEST DUP2 EQ PUSH2 0x2C19 JUMPI PUSH1 0x0 DUP1 REVERT JUMPDEST POP JUMP JUMPDEST PUSH1 0x0 DUP2 CALLDATALOAD SWAP1 POP PUSH2 0x2C2B DUP2 PUSH2 0x2C05 JUMP JUMPDEST SWAP3 SWAP2 POP POP JUMP JUMPDEST PUSH1 0x0 PUSH1 0x20 DUP3 DUP5 SUB SLT ISZERO PUSH2 0x2C47 JUMPI PUSH2 0x2C46 PUSH2 0x2B0E JUMP JUMPDEST JUMPDEST PUSH1 0x0 PUSH2 0x2C55 DUP5 DUP3 DUP6 ADD PUSH2 0x2C1C JUMP JUMPDEST SWAP2 POP POP SWAP3 SWAP2 POP POP JUMP JUMPDEST PUSH1 0x0 DUP2 MLOAD SWAP1 POP SWAP2 SWAP1 POP JUMP JUMPDEST PUSH1 0x0 DUP3 DUP3 MSTORE PUSH1 0x20 DUP3 ADD SWAP1 POP SWAP3 SWAP2 POP POP JUMP JUMPDEST PUSH1 0x0 DUP2 SWAP1 POP PUSH1 0x20 DUP3 ADD SWAP1 POP SWAP2 SWAP1 POP JUMP JUMPDEST PUSH1 0x0 DUP2 SWAP1 POP SWAP2 SWAP1 POP JUMP JUMPDEST PUSH2 0x2C9D DUP2 PUSH2 0x2C8A JUMP JUMPDEST DUP3 MSTORE POP POP JUMP JUMPDEST PUSH1 0x0 PUSH2 0x2CAF DUP4 DUP4 PUSH2 0x2C94 JUMP JUMPDEST PUSH1 0x20 DUP4 ADD SWAP1 POP SWAP3 SWAP2 POP POP JUMP JUMPDEST PUSH1 0x0 PUSH1 0x20 DUP3 ADD SWAP1 POP SWAP2 SWAP1 POP JUMP JUMPDEST PUSH1 0x0 PUSH2 0x2CD3 DUP3 PUSH2 0x2C5E JUMP JUMPDEST PUSH2 0x2CDD DUP2 DUP6 PUSH2 0x2C69 JUMP JUMPDEST SWAP4 POP PUSH2 0x2CE8 DUP4 PUSH2 0x2C7A JUMP JUMPDEST DUP1 PUSH1 0x0 JUMPDEST DUP4 DUP2 LT ISZERO PUSH2 0x2D19 JUMPI DUP2 MLOAD PUSH2 0x2D00 DUP9 DUP3 PUSH2 0x2CA3 JUMP JUMPDEST SWAP8 POP PUSH2 0x2D0B DUP4 PUSH2 0x2CBB JUMP JUMPDEST SWAP3 POP POP PUSH1 0x1 DUP2 ADD SWAP1 POP PUSH2 0x2CEC JUMP JUMPDEST POP DUP6 SWAP4 POP POP POP POP SWAP3 SWAP2 POP POP JUMP JUMPDEST PUSH1 0x0 PUSH1 0x20 DUP3 ADD SWAP1 POP DUP2 DUP2 SUB PUSH1 0x0 DUP4 ADD MSTORE PUSH2 0x2D40 DUP2 DUP5 PUSH2 0x2CC8 JUMP JUMPDEST SWAP1 POP SWAP3 SWAP2 POP POP JUMP JUMPDEST PUSH1 0x0 DUP2 MLOAD SWAP1 POP SWAP2 SWAP1 POP JUMP JUMPDEST PUSH1 0x0 DUP3 DUP3 MSTORE PUSH1 0x20 DUP3 ADD SWAP1 POP SWAP3 SWAP2 POP POP JUMP JUMPDEST PUSH1 0x0 JUMPDEST DUP4 DUP2 LT ISZERO PUSH2 0x2D82 JUMPI DUP1 DUP3 ADD MLOAD DUP2 DUP5 ADD MSTORE PUSH1 0x20 DUP2 ADD SWAP1 POP PUSH2 0x2D67 JUMP JUMPDEST DUP4 DUP2 GT ISZERO PUSH2 0x2D91 JUMPI PUSH1 0x0 DUP5 DUP5 ADD MSTORE JUMPDEST POP POP POP POP JUMP JUMPDEST PUSH1 0x0 PUSH1 0x1F NOT PUSH1 0x1F DUP4 ADD AND SWAP1 POP SWAP2 SWAP1 POP JUMP JUMPDEST PUSH1 0x0 PUSH2 0x2DB3 DUP3 PUSH2 0x2D48 JUMP JUMPDEST PUSH2 0x2DBD DUP2 DUP6 PUSH2 0x2D53 JUMP JUMPDEST SWAP4 POP PUSH2 0x2DCD DUP2 DUP6 PUSH1 0x20 DUP7 ADD PUSH2 0x2D64 JUMP JUMPDEST PUSH2 0x2DD6 DUP2 PUSH2 0x2D97 JUMP JUMPDEST DUP5 ADD SWAP2 POP POP SWAP3 SWAP2 POP POP JUMP JUMPDEST PUSH1 0x0 PUSH1 0x20 DUP3 ADD SWAP1 POP DUP2 DUP2 SUB PUSH1 0x0 DUP4 ADD MSTORE PUSH2 0x2DFB DUP2 DUP5 PUSH2 0x2DA8 JUMP JUMPDEST SWAP1 POP SWAP3 SWAP2 POP POP JUMP JUMPDEST PUSH2 0x2E0C DUP2 PUSH2 0x2C8A JUMP JUMPDEST DUP2 EQ PUSH2 0x2E17 JUMPI PUSH1 0x0 DUP1 REVERT JUMPDEST POP JUMP JUMPDEST PUSH1 0x0 DUP2 CALLDATALOAD SWAP1 POP PUSH2 0x2E29 DUP2 PUSH2 0x2E03 JUMP JUMPDEST SWAP3 SWAP2 POP POP JUMP JUMPDEST PUSH1 0x0 PUSH1 0x20 DUP3 DUP5 SUB SLT ISZERO PUSH2 0x2E45 JUMPI PUSH2 0x2E44 PUSH2 0x2B0E JUMP JUMPDEST JUMPDEST PUSH1 0x0 PUSH2 0x2E53 DUP5 DUP3 DUP6 ADD PUSH2 0x2E1A JUMP JUMPDEST SWAP2 POP POP SWAP3 SWAP2 POP POP JUMP JUMPDEST PUSH2 0x2E65 DUP2 PUSH2 0x2BF3 JUMP JUMPDEST DUP3 MSTORE POP POP JUMP JUMPDEST PUSH1 0x0 PUSH1 0x20 DUP3 ADD SWAP1 POP PUSH2 0x2E80 PUSH1 0x0 DUP4 ADD DUP5 PUSH2 0x2E5C JUMP JUMPDEST SWAP3 SWAP2 POP POP JUMP JUMPDEST PUSH1 0x0 DUP1 PUSH1 0x40 DUP4 DUP6 SUB SLT ISZERO PUSH2 0x2E9D JUMPI PUSH2 0x2E9C PUSH2 0x2B0E JUMP JUMPDEST JUMPDEST PUSH1 0x0 PUSH2 0x2EAB DUP6 DUP3 DUP7 ADD PUSH2 0x2C1C JUMP JUMPDEST SWAP3 POP POP PUSH1 0x20 PUSH2 0x2EBC DUP6 DUP3 DUP7 ADD PUSH2 0x2E1A JUMP JUMPDEST SWAP2 POP POP SWAP3 POP SWAP3 SWAP1 POP JUMP JUMPDEST PUSH2 0x2ECF DUP2 PUSH2 0x2C8A JUMP JUMPDEST DUP3 MSTORE POP POP JUMP JUMPDEST PUSH1 0x0 PUSH1 0xC0 DUP3 ADD SWAP1 POP PUSH2 0x2EEA PUSH1 0x0 DUP4 ADD DUP10 PUSH2 0x2EC6 JUMP JUMPDEST PUSH2 0x2EF7 PUSH1 0x20 DUP4 ADD DUP9 PUSH2 0x2EC6 JUMP JUMPDEST PUSH2 0x2F04 PUSH1 0x40 DUP4 ADD DUP8 PUSH2 0x2EC6 JUMP JUMPDEST PUSH2 0x2F11 PUSH1 0x60 DUP4 ADD DUP7 PUSH2 0x2E5C JUMP JUMPDEST PUSH2 0x2F1E PUSH1 0x80 DUP4 ADD DUP6 PUSH2 0x2BA9 JUMP JUMPDEST PUSH2 0x2F2B PUSH1 0xA0 DUP4 ADD DUP5 PUSH2 0x2EC6 JUMP JUMPDEST SWAP8 SWAP7 POP POP POP POP POP POP POP JUMP JUMPDEST PUSH1 0x0 DUP1 PUSH1 0x40 DUP4 DUP6 SUB SLT ISZERO PUSH2 0x2F4D JUMPI PUSH2 0x2F4C PUSH2 0x2B0E JUMP JUMPDEST JUMPDEST PUSH1 0x0 PUSH2 0x2F5B DUP6 DUP3 DUP7 ADD PUSH2 0x2E1A JUMP JUMPDEST SWAP3 POP POP PUSH1 0x20 PUSH2 0x2F6C DUP6 DUP3 DUP7 ADD PUSH2 0x2E1A JUMP JUMPDEST SWAP2 POP POP SWAP3 POP SWAP3 SWAP1 POP JUMP JUMPDEST PUSH1 0x0 PUSH1 0x20 DUP3 ADD SWAP1 POP PUSH2 0x2F8B PUSH1 0x0 DUP4 ADD DUP5 PUSH2 0x2EC6 JUMP JUMPDEST SWAP3 SWAP2 POP POP JUMP JUMPDEST PUSH1 0x0 DUP1 PUSH1 0x0 PUSH1 0x60 DUP5 DUP7 SUB SLT ISZERO PUSH2 0x2FAA JUMPI PUSH2 0x2FA9 PUSH2 0x2B0E JUMP JUMPDEST JUMPDEST PUSH1 0x0 PUSH2 0x2FB8 DUP7 DUP3 DUP8 ADD PUSH2 0x2C1C JUMP JUMPDEST SWAP4 POP POP PUSH1 0x20 PUSH2 0x2FC9 DUP7 DUP3 DUP8 ADD PUSH2 0x2C1C JUMP JUMPDEST SWAP3 POP POP PUSH1 0x40 PUSH2 0x2FDA DUP7 DUP3 DUP8 ADD PUSH2 0x2E1A JUMP JUMPDEST SWAP2 POP POP SWAP3 POP SWAP3 POP SWAP3 JUMP JUMPDEST PUSH1 0x0 DUP1 PUSH1 0x0 DUP1 PUSH1 0x80 DUP6 DUP8 SUB SLT ISZERO PUSH2 0x2FFE JUMPI PUSH2 0x2FFD PUSH2 0x2B0E JUMP JUMPDEST JUMPDEST PUSH1 0x0 PUSH2 0x300C DUP8 DUP3 DUP9 ADD PUSH2 0x2C1C JUMP JUMPDEST SWAP5 POP POP PUSH1 0x20 PUSH2 0x301D DUP8 DUP3 DUP9 ADD PUSH2 0x2E1A JUMP JUMPDEST SWAP4 POP POP PUSH1 0x40 PUSH2 0x302E DUP8 DUP3 DUP9 ADD PUSH2 0x2E1A JUMP JUMPDEST SWAP3 POP POP PUSH1 0x60 PUSH2 0x303F DUP8 DUP3 DUP9 ADD PUSH2 0x2E1A JUMP JUMPDEST SWAP2 POP POP SWAP3 SWAP6 SWAP2 SWAP5 POP SWAP3 POP JUMP JUMPDEST PUSH1 0x0 DUP2 SWAP1 POP SWAP2 SWAP1 POP JUMP JUMPDEST PUSH1 0x0 PUSH2 0x3070 PUSH2 0x306B PUSH2 0x3066 DUP5 PUSH2 0x2BD3 JUMP JUMPDEST PUSH2 0x304B JUMP JUMPDEST PUSH2 0x2BD3 JUMP JUMPDEST SWAP1 POP SWAP2 SWAP1 POP JUMP JUMPDEST PUSH1 0x0 PUSH2 0x3082 DUP3 PUSH2 0x3055 JUMP JUMPDEST SWAP1 POP SWAP2 SWAP1 POP JUMP JUMPDEST PUSH1 0x0 PUSH2 0x3094 DUP3 PUSH2 0x3077 JUMP JUMPDEST SWAP1 POP SWAP2 SWAP1 POP JUMP JUMPDEST PUSH2 0x30A4 DUP2 PUSH2 0x3089 JUMP JUMPDEST DUP3 MSTORE POP POP JUMP JUMPDEST PUSH1 0x0 PUSH1 0x20 DUP3 ADD SWAP1 POP PUSH2 0x30BF PUSH1 0x0 DUP4 ADD DUP5 PUSH2 0x309B JUMP JUMPDEST SWAP3 SWAP2 POP POP JUMP JUMPDEST PUSH2 0x30CE DUP2 PUSH2 0x2B9D JUMP JUMPDEST DUP2 EQ PUSH2 0x30D9 JUMPI PUSH1 0x0 DUP1 REVERT JUMPDEST POP JUMP JUMPDEST PUSH1 0x0 DUP2 CALLDATALOAD SWAP1 POP PUSH2 0x30EB DUP2 PUSH2 0x30C5 JUMP JUMPDEST SWAP3 SWAP2 POP POP JUMP JUMPDEST PUSH1 0x0 DUP1 PUSH1 0x40 DUP4 DUP6 SUB SLT ISZERO PUSH2 0x3108 JUMPI PUSH2 0x3107 PUSH2 0x2B0E JUMP JUMPDEST JUMPDEST PUSH1 0x0 PUSH2 0x3116 DUP6 DUP3 DUP7 ADD PUSH2 0x2C1C JUMP JUMPDEST SWAP3 POP POP PUSH1 0x20 PUSH2 0x3127 DUP6 DUP3 DUP7 ADD PUSH2 0x30DC JUMP JUMPDEST SWAP2 POP POP SWAP3 POP SWAP3 SWAP1 POP JUMP JUMPDEST PUSH1 0x0 DUP1 REVERT JUMPDEST PUSH1 0x0 DUP1 REVERT JUMPDEST PUSH32 0x4E487B7100000000000000000000000000000000000000000000000000000000 PUSH1 0x0 MSTORE PUSH1 0x41 PUSH1 0x4 MSTORE PUSH1 0x24 PUSH1 0x0 REVERT JUMPDEST PUSH2 0x3173 DUP3 PUSH2 0x2D97 JUMP JUMPDEST DUP2 ADD DUP2 DUP2 LT PUSH8 0xFFFFFFFFFFFFFFFF DUP3 GT OR ISZERO PUSH2 0x3192 JUMPI PUSH2 0x3191 PUSH2 0x313B JUMP JUMPDEST JUMPDEST DUP1 PUSH1 0x40 MSTORE POP POP POP JUMP JUMPDEST PUSH1 0x0 PUSH2 0x31A5 PUSH2 0x2B04 JUMP JUMPDEST SWAP1 POP PUSH2 0x31B1 DUP3 DUP3 PUSH2 0x316A JUMP JUMPDEST SWAP2 SWAP1 POP JUMP JUMPDEST PUSH1 0x0 PUSH8 0xFFFFFFFFFFFFFFFF DUP3 GT ISZERO PUSH2 0x31D1 JUMPI PUSH2 0x31D0 PUSH2 0x313B JUMP JUMPDEST JUMPDEST PUSH2 0x31DA DUP3 PUSH2 0x2D97 JUMP JUMPDEST SWAP1 POP PUSH1 0x20 DUP2 ADD SWAP1 POP SWAP2 SWAP1 POP JUMP JUMPDEST DUP3 DUP2 DUP4 CALLDATACOPY PUSH1 0x0 DUP4 DUP4 ADD MSTORE POP POP POP JUMP JUMPDEST PUSH1 0x0 PUSH2 0x3209 PUSH2 0x3204 DUP5 PUSH2 0x31B6 JUMP JUMPDEST PUSH2 0x319B JUMP JUMPDEST SWAP1 POP DUP3 DUP2 MSTORE PUSH1 0x20 DUP2 ADD DUP5 DUP5 DUP5 ADD GT ISZERO PUSH2 0x3225 JUMPI PUSH2 0x3224 PUSH2 0x3136 JUMP JUMPDEST JUMPDEST PUSH2 0x3230 DUP5 DUP3 DUP6 PUSH2 0x31E7 JUMP JUMPDEST POP SWAP4 SWAP3 POP POP POP JUMP JUMPDEST PUSH1 0x0 DUP3 PUSH1 0x1F DUP4 ADD SLT PUSH2 0x324D JUMPI PUSH2 0x324C PUSH2 0x3131 JUMP JUMPDEST JUMPDEST DUP2 CALLDATALOAD PUSH2 0x325D DUP5 DUP3 PUSH1 0x20 DUP7 ADD PUSH2 0x31F6 JUMP JUMPDEST SWAP2 POP POP SWAP3 SWAP2 POP POP JUMP JUMPDEST PUSH1 0x0 DUP1 PUSH1 0x0 DUP1 PUSH1 0x80 DUP6 DUP8 SUB SLT ISZERO PUSH2 0x3280 JUMPI PUSH2 0x327F PUSH2 0x2B0E JUMP JUMPDEST JUMPDEST PUSH1 0x0 PUSH2 0x328E DUP8 DUP3 DUP9 ADD PUSH2 0x2C1C JUMP JUMPDEST SWAP5 POP POP PUSH1 0x20 PUSH2 0x329F DUP8 DUP3 DUP9 ADD PUSH2 0x2C1C JUMP JUMPDEST SWAP4 POP POP PUSH1 0x40 PUSH2 0x32B0 DUP8 DUP3 DUP9 ADD PUSH2 0x2E1A JUMP JUMPDEST SWAP3 POP POP PUSH1 0x60 DUP6 ADD CALLDATALOAD PUSH8 0xFFFFFFFFFFFFFFFF DUP2 GT ISZERO PUSH2 0x32D1 JUMPI PUSH2 0x32D0 PUSH2 0x2B13 JUMP JUMPDEST JUMPDEST PUSH2 0x32DD DUP8 DUP3 DUP9 ADD PUSH2 0x3238 JUMP JUMPDEST SWAP2 POP POP SWAP3 SWAP6 SWAP2 SWAP5 POP SWAP3 POP JUMP JUMPDEST PUSH1 0x0 DUP1 PUSH1 0x40 DUP4 DUP6 SUB SLT ISZERO PUSH2 0x3300 JUMPI PUSH2 0x32FF PUSH2 0x2B0E JUMP JUMPDEST JUMPDEST PUSH1 0x0 PUSH2 0x330E DUP6 DUP3 DUP7 ADD PUSH2 0x2C1C JUMP JUMPDEST SWAP3 POP POP PUSH1 0x20 PUSH2 0x331F DUP6 DUP3 DUP7 ADD PUSH2 0x2C1C JUMP JUMPDEST SWAP2 POP POP SWAP3 POP SWAP3 SWAP1 POP JUMP JUMPDEST PUSH1 0x0 DUP1 PUSH1 0x0 PUSH1 0x60 DUP5 DUP7 SUB SLT ISZERO PUSH2 0x3342 JUMPI PUSH2 0x3341 PUSH2 0x2B0E JUMP JUMPDEST JUMPDEST PUSH1 0x0 PUSH2 0x3350 DUP7 DUP3 DUP8 ADD PUSH2 0x2E1A JUMP JUMPDEST SWAP4 POP POP PUSH1 0x20 PUSH2 0x3361 DUP7 DUP3 DUP8 ADD PUSH2 0x2E1A JUMP JUMPDEST SWAP3 POP POP PUSH1 0x40 PUSH2 0x3372 DUP7 DUP3 DUP8 ADD PUSH2 0x2E1A JUMP JUMPDEST SWAP2 POP POP SWAP3 POP SWAP3 POP SWAP3 JUMP JUMPDEST PUSH32 0x4E487B7100000000000000000000000000000000000000000000000000000000 PUSH1 0x0 MSTORE PUSH1 0x32 PUSH1 0x4 MSTORE PUSH1 0x24 PUSH1 0x0 REVERT JUMPDEST PUSH32 0x4E487B7100000000000000000000000000000000000000000000000000000000 PUSH1 0x0 MSTORE PUSH1 0x11 PUSH1 0x4 MSTORE PUSH1 0x24 PUSH1 0x0 REVERT JUMPDEST PUSH1 0x0 PUSH2 0x33E5 DUP3 PUSH2 0x2C8A JUMP JUMPDEST SWAP2 POP PUSH32 0xFFFFFFFFFFFFFFFFFFFFFFFFFFFFFFFFFFFFFFFFFFFFFFFFFFFFFFFFFFFFFFFF DUP3 EQ ISZERO PUSH2 0x3418 JUMPI PUSH2 0x3417 PUSH2 0x33AB JUMP JUMPDEST JUMPDEST PUSH1 0x1 DUP3 ADD SWAP1 POP SWAP2 SWAP1 POP JUMP JUMPDEST PUSH32 0x4E487B7100000000000000000000000000000000000000000000000000000000 PUSH1 0x0 MSTORE PUSH1 0x22 PUSH1 0x4 MSTORE PUSH1 0x24 PUSH1 0x0 REVERT JUMPDEST PUSH1 0x0 PUSH1 0x2 DUP3 DIV SWAP1 POP PUSH1 0x1 DUP3 AND DUP1 PUSH2 0x346A JUMPI PUSH1 0x7F DUP3 AND SWAP2 POP JUMPDEST PUSH1 0x20 DUP3 LT DUP2 EQ ISZERO PUSH2 0x347E JUMPI PUSH2 0x347D PUSH2 0x3423 JUMP JUMPDEST JUMPDEST POP SWAP2 SWAP1 POP JUMP JUMPDEST PUSH32 0x4552433732313A20617070726F76616C20746F2063757272656E74206F776E65 PUSH1 0x0 DUP3 ADD MSTORE PUSH32 0x7200000000000000000000000000000000000000000000000000000000000000 PUSH1 0x20 DUP3 ADD MSTORE POP JUMP JUMPDEST PUSH1 0x0 PUSH2 0x34E0 PUSH1 0x21 DUP4 PUSH2 0x2D53 JUMP JUMPDEST SWAP2 POP PUSH2 0x34EB DUP3 PUSH2 0x3484 JUMP JUMPDEST PUSH1 0x40 DUP3 ADD SWAP1 POP SWAP2 SWAP1 POP JUMP JUMPDEST PUSH1 0x0 PUSH1 0x20 DUP3 ADD SWAP1 POP DUP2 DUP2 SUB PUSH1 0x0 DUP4 ADD MSTORE PUSH2 0x350F DUP2 PUSH2 0x34D3 JUMP JUMPDEST SWAP1 POP SWAP2 SWAP1 POP JUMP JUMPDEST PUSH32 0x4552433732313A20617070726F76652063616C6C6572206973206E6F7420746F PUSH1 0x0 DUP3 ADD MSTORE PUSH32 0x6B656E206F776E6572206F7220617070726F76656420666F7220616C6C000000 PUSH1 0x20 DUP3 ADD MSTORE POP JUMP JUMPDEST PUSH1 0x0 PUSH2 0x3572 PUSH1 0x3D DUP4 PUSH2 0x2D53 JUMP JUMPDEST SWAP2 POP PUSH2 0x357D DUP3 PUSH2 0x3516 JUMP JUMPDEST PUSH1 0x40 DUP3 ADD SWAP1 POP SWAP2 SWAP1 POP JUMP JUMPDEST PUSH1 0x0 PUSH1 0x20 DUP3 ADD SWAP1 POP DUP2 DUP2 SUB PUSH1 0x0 DUP4 ADD MSTORE PUSH2 0x35A1 DUP2 PUSH2 0x3565 JUMP JUMPDEST SWAP1 POP SWAP2 SWAP1 POP JUMP JUMPDEST PUSH32 0x4552433732313A2063616C6C6572206973206E6F7420746F6B656E206F776E65 PUSH1 0x0 DUP3 ADD MSTORE PUSH32 0x72206F7220617070726F76656400000000000000000000000000000000000000 PUSH1 0x20 DUP3 ADD MSTORE POP JUMP JUMPDEST PUSH1 0x0 PUSH2 0x3604 PUSH1 0x2D DUP4 PUSH2 0x2D53 JUMP JUMPDEST SWAP2 POP PUSH2 0x360F DUP3 PUSH2 0x35A8 JUMP JUMPDEST PUSH1 0x40 DUP3 ADD SWAP1 POP SWAP2 SWAP1 POP JUMP JUMPDEST PUSH1 0x0 PUSH1 0x20 DUP3 ADD SWAP1 POP DUP2 DUP2 SUB PUSH1 0x0 DUP4 ADD MSTORE PUSH2 0x3633 DUP2 PUSH2 0x35F7 JUMP JUMPDEST SWAP1 POP SWAP2 SWAP1 POP JUMP JUMPDEST PUSH32 0x455243373231456E756D657261626C653A206F776E657220696E646578206F75 PUSH1 0x0 DUP3 ADD MSTORE PUSH32 0x74206F6620626F756E6473000000000000000000000000000000000000000000 PUSH1 0x20 DUP3 ADD MSTORE POP JUMP JUMPDEST PUSH1 0x0 PUSH2 0x3696 PUSH1 0x2B DUP4 PUSH2 0x2D53 JUMP JUMPDEST SWAP2 POP PUSH2 0x36A1 DUP3 PUSH2 0x363A JUMP JUMPDEST PUSH1 0x40 DUP3 ADD SWAP1 POP SWAP2 SWAP1 POP JUMP JUMPDEST PUSH1 0x0 PUSH1 0x20 DUP3 ADD SWAP1 POP DUP2 DUP2 SUB PUSH1 0x0 DUP4 ADD MSTORE PUSH2 0x36C5 DUP2 PUSH2 0x3689 JUMP JUMPDEST SWAP1 POP SWAP2 SWAP1 POP JUMP JUMPDEST PUSH32 0x4E6F7420746865206F776E657200000000000000000000000000000000000000 PUSH1 0x0 DUP3 ADD MSTORE POP JUMP JUMPDEST PUSH1 0x0 PUSH2 0x3702 PUSH1 0xD DUP4 PUSH2 0x2D53 JUMP JUMPDEST SWAP2 POP PUSH2 0x370D DUP3 PUSH2 0x36CC JUMP JUMPDEST PUSH1 0x20 DUP3 ADD SWAP1 POP SWAP2 SWAP1 POP JUMP JUMPDEST PUSH1 0x0 PUSH1 0x20 DUP3 ADD SWAP1 POP DUP2 DUP2 SUB PUSH1 0x0 DUP4 ADD MSTORE PUSH2 0x3731 DUP2 PUSH2 0x36F5 JUMP JUMPDEST SWAP1 POP SWAP2 SWAP1 POP JUMP JUMPDEST PUSH32 0x5072696365206D7573742062652067726561746572207468616E203000000000 PUSH1 0x0 DUP3 ADD MSTORE POP JUMP JUMPDEST PUSH1 0x0 PUSH2 0x376E PUSH1 0x1C DUP4 PUSH2 0x2D53 JUMP JUMPDEST SWAP2 POP PUSH2 0x3779 DUP3 PUSH2 0x3738 JUMP JUMPDEST PUSH1 0x20 DUP3 ADD SWAP1 POP SWAP2 SWAP1 POP JUMP JUMPDEST PUSH1 0x0 PUSH1 0x20 DUP3 ADD SWAP1 POP DUP2 DUP2 SUB PUSH1 0x0 DUP4 ADD MSTORE PUSH2 0x379D DUP2 PUSH2 0x3761 JUMP JUMPDEST SWAP1 POP SWAP2 SWAP1 POP JUMP JUMPDEST PUSH32 0x455243373231456E756D657261626C653A20676C6F62616C20696E646578206F PUSH1 0x0 DUP3 ADD MSTORE PUSH32 0x7574206F6620626F756E64730000000000000000000000000000000000000000 PUSH1 0x20 DUP3 ADD MSTORE POP JUMP JUMPDEST PUSH1 0x0 PUSH2 0x3800 PUSH1 0x2C DUP4 PUSH2 0x2D53 JUMP JUMPDEST SWAP2 POP PUSH2 0x380B DUP3 PUSH2 0x37A4 JUMP JUMPDEST PUSH1 0x40 DUP3 ADD SWAP1 POP SWAP2 SWAP1 POP JUMP JUMPDEST PUSH1 0x0 PUSH1 0x20 DUP3 ADD SWAP1 POP DUP2 DUP2 SUB PUSH1 0x0 DUP4 ADD MSTORE PUSH2 0x382F DUP2 PUSH2 0x37F3 JUMP JUMPDEST SWAP1 POP SWAP2 SWAP1 POP JUMP JUMPDEST PUSH32 0x4552433732313A20696E76616C696420746F6B656E2049440000000000000000 PUSH1 0x0 DUP3 ADD MSTORE POP JUMP JUMPDEST PUSH1 0x0 PUSH2 0x386C PUSH1 0x18 DUP4 PUSH2 0x2D53 JUMP JUMPDEST SWAP2 POP PUSH2 0x3877 DUP3 PUSH2 0x3836 JUMP JUMPDEST PUSH1 0x20 DUP3 ADD SWAP1 POP SWAP2 SWAP1 POP JUMP JUMPDEST PUSH1 0x0 PUSH1 0x20 DUP3 ADD SWAP1 POP DUP2 DUP2 SUB PUSH1 0x0 DUP4 ADD MSTORE PUSH2 0x389B DUP2 PUSH2 0x385F JUMP JUMPDEST SWAP1 POP SWAP2 SWAP1 POP JUMP JUMPDEST PUSH32 0x5469636B6574206E6F74206C6973746564000000000000000000000000000000 PUSH1 0x0 DUP3 ADD MSTORE POP JUMP JUMPDEST PUSH1 0x0 PUSH2 0x38D8 PUSH1 0x11 DUP4 PUSH2 0x2D53 JUMP JUMPDEST SWAP2 POP PUSH2 0x38E3 DUP3 PUSH2 0x38A2 JUMP JUMPDEST PUSH1 0x20 DUP3 ADD SWAP1 POP SWAP2 SWAP1 POP JUMP JUMPDEST PUSH1 0x0 PUSH1 0x20 DUP3 ADD SWAP1 POP DUP2 DUP2 SUB PUSH1 0x0 DUP4 ADD MSTORE PUSH2 0x3907 DUP2 PUSH2 0x38CB JUMP JUMPDEST SWAP1 POP SWAP2 SWAP1 POP JUMP JUMPDEST PUSH1 0x0 PUSH1 0x40 DUP3 ADD SWAP1 POP PUSH2 0x3923 PUSH1 0x0 DUP4 ADD DUP6 PUSH2 0x2E5C JUMP JUMPDEST PUSH2 0x3930 PUSH1 0x20 DUP4 ADD DUP5 PUSH2 0x2E5C JUMP JUMPDEST SWAP4 SWAP3 POP POP POP JUMP JUMPDEST PUSH1 0x0 DUP2 MLOAD SWAP1 POP PUSH2 0x3946 DUP2 PUSH2 0x2E03 JUMP JUMPDEST SWAP3 SWAP2 POP POP JUMP JUMPDEST PUSH1 0x0 PUSH1 0x20 DUP3 DUP5 SUB SLT ISZERO PUSH2 0x3962 JUMPI PUSH2 0x3961 PUSH2 0x2B0E JUMP JUMPDEST JUMPDEST PUSH1 0x0 PUSH2 0x3970 DUP5 DUP3 DUP6 ADD PUSH2 0x3937 JUMP JUMPDEST SWAP2 POP POP SWAP3 SWAP2 POP POP JUMP JUMPDEST PUSH32 0x496E73756666696369656E7420616C6C6F77616E636500000000000000000000 PUSH1 0x0 DUP3 ADD MSTORE POP JUMP JUMPDEST PUSH1 0x0 PUSH2 0x39AF PUSH1 0x16 DUP4 PUSH2 0x2D53 JUMP JUMPDEST SWAP2 POP PUSH2 0x39BA DUP3 PUSH2 0x3979 JUMP JUMPDEST PUSH1 0x20 DUP3 ADD SWAP1 POP SWAP2 SWAP1 POP JUMP JUMPDEST PUSH1 0x0 PUSH1 0x20 DUP3 ADD SWAP1 POP DUP2 DUP2 SUB PUSH1 0x0 DUP4 ADD MSTORE PUSH2 0x39DE DUP2 PUSH2 0x39A2 JUMP JUMPDEST SWAP1 POP SWAP2 SWAP1 POP JUMP JUMPDEST PUSH1 0x0 PUSH1 0x60 DUP3 ADD SWAP1 POP PUSH2 0x39FA PUSH1 0x0 DUP4 ADD DUP7 PUSH2 0x2E5C JUMP JUMPDEST PUSH2 0x3A07 PUSH1 0x20 DUP4 ADD DUP6 PUSH2 0x2E5C JUMP JUMPDEST PUSH2 0x3A14 PUSH1 0x40 DUP4 ADD DUP5 PUSH2 0x2EC6 JUMP JUMPDEST SWAP5 SWAP4 POP POP POP POP JUMP JUMPDEST PUSH1 0x0 DUP2 MLOAD SWAP1 POP PUSH2 0x3A2B DUP2 PUSH2 0x30C5 JUMP JUMPDEST SWAP3 SWAP2 POP POP JUMP JUMPDEST PUSH1 0x0 PUSH1 0x20 DUP3 DUP5 SUB SLT ISZERO PUSH2 0x3A47 JUMPI PUSH2 0x3A46 PUSH2 0x2B0E JUMP JUMPDEST JUMPDEST PUSH1 0x0 PUSH2 0x3A55 DUP5 DUP3 DUP6 ADD PUSH2 0x3A1C JUMP JUMPDEST SWAP2 POP POP SWAP3 SWAP2 POP POP JUMP JUMPDEST PUSH32 0x546F6B656E207472616E73666572206661696C65640000000000000000000000 PUSH1 0x0 DUP3 ADD MSTORE POP JUMP JUMPDEST PUSH1 0x0 PUSH2 0x3A94 PUSH1 0x15 DUP4 PUSH2 0x2D53 JUMP JUMPDEST SWAP2 POP PUSH2 0x3A9F DUP3 PUSH2 0x3A5E JUMP JUMPDEST PUSH1 0x20 DUP3 ADD SWAP1 POP SWAP2 SWAP1 POP JUMP JUMPDEST PUSH1 0x0 PUSH1 0x20 DUP3 ADD SWAP1 POP DUP2 DUP2 SUB PUSH1 0x0 DUP4 ADD MSTORE PUSH2 0x3AC3 DUP2 PUSH2 0x3A87 JUMP JUMPDEST SWAP1 POP SWAP2 SWAP1 POP JUMP JUMPDEST PUSH32 0x4552433732313A2061646472657373207A65726F206973206E6F742061207661 PUSH1 0x0 DUP3 ADD MSTORE PUSH32 0x6C6964206F776E65720000000000000000000000000000000000000000000000 PUSH1 0x20 DUP3 ADD MSTORE POP JUMP JUMPDEST PUSH1 0x0 PUSH2 0x3B26 PUSH1 0x29 DUP4 PUSH2 0x2D53 JUMP JUMPDEST SWAP2 POP PUSH2 0x3B31 DUP3 PUSH2 0x3ACA JUMP JUMPDEST PUSH1 0x40 DUP3 ADD SWAP1 POP SWAP2 SWAP1 POP JUMP JUMPDEST PUSH1 0x0 PUSH1 0x20 DUP3 ADD SWAP1 POP DUP2 DUP2 SUB PUSH1 0x0 DUP4 ADD MSTORE PUSH2 0x3B55 DUP2 PUSH2 0x3B19 JUMP JUMPDEST SWAP1 POP SWAP2 SWAP1 POP JUMP JUMPDEST PUSH1 0x0 DUP2 SWAP1 POP SWAP3 SWAP2 POP POP JUMP JUMPDEST PUSH1 0x0 PUSH2 0x3B72 DUP3 PUSH2 0x2D48 JUMP JUMPDEST PUSH2 0x3B7C DUP2 DUP6 PUSH2 0x3B5C JUMP JUMPDEST SWAP4 POP PUSH2 0x3B8C DUP2 DUP6 PUSH1 0x20 DUP7 ADD PUSH2 0x2D64 JUMP JUMPDEST DUP1 DUP5 ADD SWAP2 POP POP SWAP3 SWAP2 POP POP JUMP JUMPDEST PUSH1 0x0 PUSH2 0x3BA4 DUP3 DUP6 PUSH2 0x3B67 JUMP JUMPDEST SWAP2 POP PUSH2 0x3BB0 DUP3 DUP5 PUSH2 0x3B67 JUMP JUMPDEST SWAP2 POP DUP2 SWAP1 POP SWAP4 SWAP3 POP POP POP JUMP JUMPDEST PUSH32 0x4F776E61626C653A206E6577206F776E657220697320746865207A65726F2061 PUSH1 0x0 DUP3 ADD MSTORE PUSH32 0x6464726573730000000000000000000000000000000000000000000000000000 PUSH1 0x20 DUP3 ADD MSTORE POP JUMP JUMPDEST PUSH1 0x0 PUSH2 0x3C18 PUSH1 0x26 DUP4 PUSH2 0x2D53 JUMP JUMPDEST SWAP2 POP PUSH2 0x3C23 DUP3 PUSH2 0x3BBC JUMP JUMPDEST PUSH1 0x40 DUP3 ADD SWAP1 POP SWAP2 SWAP1 POP JUMP JUMPDEST PUSH1 0x0 PUSH1 0x20 DUP3 ADD SWAP1 POP DUP2 DUP2 SUB PUSH1 0x0 DUP4 ADD MSTORE PUSH2 0x3C47 DUP2 PUSH2 0x3C0B JUMP JUMPDEST SWAP1 POP SWAP2 SWAP1 POP JUMP JUMPDEST PUSH32 0x4552433732313A207472616E736665722066726F6D20696E636F727265637420 PUSH1 0x0 DUP3 ADD MSTORE PUSH32 0x6F776E6572000000000000000000000000000000000000000000000000000000 PUSH1 0x20 DUP3 ADD MSTORE POP JUMP JUMPDEST PUSH1 0x0 PUSH2 0x3CAA PUSH1 0x25 DUP4 PUSH2 0x2D53 JUMP JUMPDEST SWAP2 POP PUSH2 0x3CB5 DUP3 PUSH2 0x3C4E JUMP JUMPDEST PUSH1 0x40 DUP3 ADD SWAP1 POP SWAP2 SWAP1 POP JUMP JUMPDEST PUSH1 0x0 PUSH1 0x20 DUP3 ADD SWAP1 POP DUP2 DUP2 SUB PUSH1 0x0 DUP4 ADD MSTORE PUSH2 0x3CD9 DUP2 PUSH2 0x3C9D JUMP JUMPDEST SWAP1 POP SWAP2 SWAP1 POP JUMP JUMPDEST PUSH32 0x4552433732313A207472616E7366657220746F20746865207A65726F20616464 PUSH1 0x0 DUP3 ADD MSTORE PUSH32 0x7265737300000000000000000000000000000000000000000000000000000000 PUSH1 0x20 DUP3 ADD MSTORE POP JUMP JUMPDEST PUSH1 0x0 PUSH2 0x3D3C PUSH1 0x24 DUP4 PUSH2 0x2D53 JUMP JUMPDEST SWAP2 POP PUSH2 0x3D47 DUP3 PUSH2 0x3CE0 JUMP JUMPDEST PUSH1 0x40 DUP3 ADD SWAP1 POP SWAP2 SWAP1 POP JUMP JUMPDEST PUSH1 0x0 PUSH1 0x20 DUP3 ADD SWAP1 POP DUP2 DUP2 SUB PUSH1 0x0 DUP4 ADD MSTORE PUSH2 0x3D6B DUP2 PUSH2 0x3D2F JUMP JUMPDEST SWAP1 POP SWAP2 SWAP1 POP JUMP JUMPDEST PUSH32 0x4F776E61626C653A2063616C6C6572206973206E6F7420746865206F776E6572 PUSH1 0x0 DUP3 ADD MSTORE POP JUMP JUMPDEST PUSH1 0x0 PUSH2 0x3DA8 PUSH1 0x20 DUP4 PUSH2 0x2D53 JUMP JUMPDEST SWAP2 POP PUSH2 0x3DB3 DUP3 PUSH2 0x3D72 JUMP JUMPDEST PUSH1 0x20 DUP3 ADD SWAP1 POP SWAP2 SWAP1 POP JUMP JUMPDEST PUSH1 0x0 PUSH1 0x20 DUP3 ADD SWAP1 POP DUP2 DUP2 SUB PUSH1 0x0 DUP4 ADD MSTORE PUSH2 0x3DD7 DUP2 PUSH2 0x3D9B JUMP JUMPDEST SWAP1 POP SWAP2 SWAP1 POP JUMP JUMPDEST PUSH32 0x4552433732313A206D696E7420746F20746865207A65726F2061646472657373 PUSH1 0x0 DUP3 ADD MSTORE POP JUMP JUMPDEST PUSH1 0x0 PUSH2 0x3E14 PUSH1 0x20 DUP4 PUSH2 0x2D53 JUMP JUMPDEST SWAP2 POP PUSH2 0x3E1F DUP3 PUSH2 0x3DDE JUMP JUMPDEST PUSH1 0x20 DUP3 ADD SWAP1 POP SWAP2 SWAP1 POP JUMP JUMPDEST PUSH1 0x0 PUSH1 0x20 DUP3 ADD SWAP1 POP DUP2 DUP2 SUB PUSH1 0x0 DUP4 ADD MSTORE PUSH2 0x3E43 DUP2 PUSH2 0x3E07 JUMP JUMPDEST SWAP1 POP SWAP2 SWAP1 POP JUMP JUMPDEST PUSH32 0x4552433732313A20746F6B656E20616C7265616479206D696E74656400000000 PUSH1 0x0 DUP3 ADD MSTORE POP JUMP JUMPDEST PUSH1 0x0 PUSH2 0x3E80 PUSH1 0x1C DUP4 PUSH2 0x2D53 JUMP JUMPDEST SWAP2 POP PUSH2 0x3E8B DUP3 PUSH2 0x3E4A JUMP JUMPDEST PUSH1 0x20 DUP3 ADD SWAP1 POP SWAP2 SWAP1 POP JUMP JUMPDEST PUSH1 0x0 PUSH1 0x20 DUP3 ADD SWAP1 POP DUP2 DUP2 SUB PUSH1 0x0 DUP4 ADD MSTORE PUSH2 0x3EAF DUP2 PUSH2 0x3E73 JUMP JUMPDEST SWAP1 POP SWAP2 SWAP1 POP JUMP JUMPDEST PUSH32 0x4552433732313A20617070726F766520746F2063616C6C657200000000000000 PUSH1 0x0 DUP3 ADD MSTORE POP JUMP JUMPDEST PUSH1 0x0 PUSH2 0x3EEC PUSH1 0x19 DUP4 PUSH2 0x2D53 JUMP JUMPDEST SWAP2 POP PUSH2 0x3EF7 DUP3 PUSH2 0x3EB6 JUMP JUMPDEST PUSH1 0x20 DUP3 ADD SWAP1 POP SWAP2 SWAP1 POP JUMP JUMPDEST PUSH1 0x0 PUSH1 0x20 DUP3 ADD SWAP1 POP DUP2 DUP2 SUB PUSH1 0x0 DUP4 ADD MSTORE PUSH2 0x3F1B DUP2 PUSH2 0x3EDF JUMP JUMPDEST SWAP1 POP SWAP2 SWAP1 POP JUMP JUMPDEST PUSH32 0x4552433732313A207472616E7366657220746F206E6F6E204552433732315265 PUSH1 0x0 DUP3 ADD MSTORE PUSH32 0x63656976657220696D706C656D656E7465720000000000000000000000000000 PUSH1 0x20 DUP3 ADD MSTORE POP JUMP JUMPDEST PUSH1 0x0 PUSH2 0x3F7E PUSH1 0x32 DUP4 PUSH2 0x2D53 JUMP JUMPDEST SWAP2 POP PUSH2 0x3F89 DUP3 PUSH2 0x3F22 JUMP JUMPDEST PUSH1 0x40 DUP3 ADD SWAP1 POP SWAP2 SWAP1 POP JUMP JUMPDEST PUSH1 0x0 PUSH1 0x20 DUP3 ADD SWAP1 POP DUP2 DUP2 SUB PUSH1 0x0 DUP4 ADD MSTORE PUSH2 0x3FAD DUP2 PUSH2 0x3F71 JUMP JUMPDEST SWAP1 POP SWAP2 SWAP1 POP JUMP JUMPDEST PUSH32 0x4E487B7100000000000000000000000000000000000000000000000000000000 PUSH1 0x0 MSTORE PUSH1 0x12 PUSH1 0x4 MSTORE PUSH1 0x24 PUSH1 0x0 REVERT JUMPDEST PUSH1 0x0 DUP2 MLOAD SWAP1 POP SWAP2 SWAP1 POP JUMP JUMPDEST PUSH1 0x0 DUP3 DUP3 MSTORE PUSH1 0x20 DUP3 ADD SWAP1 POP SWAP3 SWAP2 POP POP JUMP JUMPDEST PUSH1 0x0 PUSH2 0x400A DUP3 PUSH2 0x3FE3 JUMP JUMPDEST PUSH2 0x4014 DUP2 DUP6 PUSH2 0x3FEE JUMP JUMPDEST SWAP4 POP PUSH2 0x4024 DUP2 DUP6 PUSH1 0x20 DUP7 ADD PUSH2 0x2D64 JUMP JUMPDEST PUSH2 0x402D DUP2 PUSH2 0x2D97 JUMP JUMPDEST DUP5 ADD SWAP2 POP POP SWAP3 SWAP2 POP POP JUMP JUMPDEST PUSH1 0x0 PUSH1 0x80 DUP3 ADD SWAP1 POP PUSH2 0x404D PUSH1 0x0 DUP4 ADD DUP8 PUSH2 0x2E5C JUMP JUMPDEST PUSH2 0x405A PUSH1 0x20 DUP4 ADD DUP7 PUSH2 0x2E5C JUMP JUMPDEST PUSH2 0x4067 PUSH1 0x40 DUP4 ADD DUP6 PUSH2 0x2EC6 JUMP JUMPDEST DUP2 DUP2 SUB PUSH1 0x60 DUP4 ADD MSTORE PUSH2 0x4079 DUP2 DUP5 PUSH2 0x3FFF JUMP JUMPDEST SWAP1 POP SWAP6 SWAP5 POP POP POP POP POP JUMP JUMPDEST PUSH1 0x0 DUP2 MLOAD SWAP1 POP PUSH2 0x4093 DUP2 PUSH2 0x2B44 JUMP JUMPDEST SWAP3 SWAP2 POP POP JUMP JUMPDEST PUSH1 0x0 PUSH1 0x20 DUP3 DUP5 SUB SLT ISZERO PUSH2 0x40AF JUMPI PUSH2 0x40AE PUSH2 0x2B0E JUMP JUMPDEST JUMPDEST PUSH1 0x0 PUSH2 0x40BD DUP5 DUP3 DUP6 ADD PUSH2 0x4084 JUMP JUMPDEST SWAP2 POP POP SWAP3 SWAP2 POP POP JUMP JUMPDEST PUSH32 0x455243373231456E756D657261626C653A20636F6E7365637574697665207472 PUSH1 0x0 DUP3 ADD MSTORE PUSH32 0x616E7366657273206E6F7420737570706F727465640000000000000000000000 PUSH1 0x20 DUP3 ADD MSTORE POP JUMP JUMPDEST PUSH1 0x0 PUSH2 0x4122 PUSH1 0x35 DUP4 PUSH2 0x2D53 JUMP JUMPDEST SWAP2 POP PUSH2 0x412D DUP3 PUSH2 0x40C6 JUMP JUMPDEST PUSH1 0x40 DUP3 ADD SWAP1 POP SWAP2 SWAP1 POP JUMP JUMPDEST PUSH1 0x0 PUSH1 0x20 DUP3 ADD SWAP1 POP DUP2 DUP2 SUB PUSH1 0x0 DUP4 ADD MSTORE PUSH2 0x4151 DUP2 PUSH2 0x4115 JUMP JUMPDEST SWAP1 POP SWAP2 SWAP1 POP JUMP JUMPDEST PUSH1 0x0 PUSH2 0x4163 DUP3 PUSH2 0x2C8A JUMP JUMPDEST SWAP2 POP PUSH2 0x416E DUP4 PUSH2 0x2C8A JUMP JUMPDEST SWAP3 POP DUP3 DUP3 LT ISZERO PUSH2 0x4181 JUMPI PUSH2 0x4180 PUSH2 0x33AB JUMP JUMPDEST JUMPDEST DUP3 DUP3 SUB SWAP1 POP SWAP3 SWAP2 POP POP JUMP JUMPDEST PUSH32 0x4E487B7100000000000000000000000000000000000000000000000000000000 PUSH1 0x0 MSTORE PUSH1 0x31 PUSH1 0x4 MSTORE PUSH1 0x24 PUSH1 0x0 REVERT INVALID LOG2 PUSH5 0x6970667358 0x22 SLT KECCAK256 SELFDESTRUCT DUP13 PUSH24 0x90B4FB022DD3C8E9C13AC55E1E5A239A88A7674503264EDA DUP7 PUSH15 0xBFA1FD64736F6C6343000809003300 "},"methodIdentifiers":{"bettingProjects(uint256)":"9d194fef","createProject(string,string[],uint256,uint256)":"4e645002","getLotteryTicketAddress()":"01605129","getOptionBetAmount(uint256,uint256)":"353e7bcc","getProject(uint256)":"f0f3f2c8","getProjectCount()":"3bcff3b0","getUserBetsInProject(address,uint256)":"231edcd8","lotteryTicket()":"f206c7aa","manager()":"481c6a75","myERC20()":"6d3739c4","nextProjectId()":"e935b7b1","placeBet(uint256,uint256,uint256)":"e71c9697","projectOptionBetAmounts(uint256,uint256)":"552ecb86","projectOptionParticipants(uint256,uint256,uint256)":"e6a8c7f7","settleProject(uint256,uint256)":"7bf3ee1c","userBets(address,uint256)":"8068aa68"}}}}}