{
  "_format": "hh-sol-artifact-1",
  "contractName": "LotteryTicket",
  "sourceName": "contracts/LotteryTicket.sol",
  "abi": [
    {
      "inputs": [
        {
          "internalType": "contract MyERC20",
          "name": "_myERC20",
          "type": "address"
        }
      ],
      "stateMutability": "nonpayable",
      "type": "constructor"
    },
    {
      "anonymous": false,
      "inputs": [
        {
          "indexed": true,
          "internalType": "address",
          "name": "owner",
          "type": "address"
        },
        {
          "indexed": true,
          "internalType": "address",
          "name": "approved",
          "type": "address"
        },
        {
          "indexed": true,
          "internalType": "uint256",
          "name": "tokenId",
          "type": "uint256"
        }
      ],
      "name": "Approval",
      "type": "event"
    },
    {
      "anonymous": false,
      "inputs": [
        {
          "indexed": true,
          "internalType": "address",
          "name": "owner",
          "type": "address"
        },
        {
          "indexed": true,
          "internalType": "address",
          "name": "operator",
          "type": "address"
        },
        {
          "indexed": false,
          "internalType": "bool",
          "name": "approved",
          "type": "bool"
        }
      ],
      "name": "ApprovalForAll",
      "type": "event"
    },
    {
      "anonymous": false,
      "inputs": [
        {
          "indexed": true,
          "internalType": "address",
          "name": "previousOwner",
          "type": "address"
        },
        {
          "indexed": true,
          "internalType": "address",
          "name": "newOwner",
          "type": "address"
        }
      ],
      "name": "OwnershipTransferred",
      "type": "event"
    },
    {
      "anonymous": false,
      "inputs": [
        {
          "indexed": true,
          "internalType": "uint256",
          "name": "tokenId",
          "type": "uint256"
        },
        {
          "indexed": false,
          "internalType": "uint256",
          "name": "price",
          "type": "uint256"
        }
      ],
      "name": "TicketListed",
      "type": "event"
    },
    {
      "anonymous": false,
      "inputs": [
        {
          "indexed": true,
          "internalType": "uint256",
          "name": "tokenId",
          "type": "uint256"
        },
        {
          "indexed": true,
          "internalType": "uint256",
          "name": "bettingId",
          "type": "uint256"
        },
        {
          "indexed": true,
          "internalType": "uint256",
          "name": "optionId",
          "type": "uint256"
        },
        {
          "indexed": false,
          "internalType": "address",
          "name": "owner",
          "type": "address"
        }
      ],
      "name": "TicketMinted",
      "type": "event"
    },
    {
      "anonymous": false,
      "inputs": [
        {
          "indexed": true,
          "internalType": "uint256",
          "name": "tokenId",
          "type": "uint256"
        },
        {
          "indexed": false,
          "internalType": "address",
          "name": "from",
          "type": "address"
        },
        {
          "indexed": false,
          "internalType": "address",
          "name": "to",
          "type": "address"
        },
        {
          "indexed": false,
          "internalType": "uint256",
          "name": "price",
          "type": "uint256"
        }
      ],
      "name": "TicketTransferred",
      "type": "event"
    },
    {
      "anonymous": false,
      "inputs": [
        {
          "indexed": true,
          "internalType": "uint256",
          "name": "tokenId",
          "type": "uint256"
        }
      ],
      "name": "TicketUnlisted",
      "type": "event"
    },
    {
      "anonymous": false,
      "inputs": [
        {
          "indexed": true,
          "internalType": "address",
          "name": "from",
          "type": "address"
        },
        {
          "indexed": true,
          "internalType": "address",
          "name": "to",
          "type": "address"
        },
        {
          "indexed": true,
          "internalType": "uint256",
          "name": "tokenId",
          "type": "uint256"
        }
      ],
      "name": "Transfer",
      "type": "event"
    },
    {
      "inputs": [
        {
          "internalType": "address",
          "name": "to",
          "type": "address"
        },
        {
          "internalType": "uint256",
          "name": "tokenId",
          "type": "uint256"
        }
      ],
      "name": "approve",
      "outputs": [],
      "stateMutability": "nonpayable",
      "type": "function"
    },
    {
      "inputs": [
        {
          "internalType": "address",
          "name": "owner",
          "type": "address"
        }
      ],
      "name": "balanceOf",
      "outputs": [
        {
          "internalType": "uint256",
          "name": "",
          "type": "uint256"
        }
      ],
      "stateMutability": "view",
      "type": "function"
    },
    {
      "inputs": [
        {
          "internalType": "uint256",
          "name": "",
          "type": "uint256"
        },
        {
          "internalType": "uint256",
          "name": "",
          "type": "uint256"
        },
        {
          "internalType": "uint256",
          "name": "",
          "type": "uint256"
        }
      ],
      "name": "bettingTickets",
      "outputs": [
        {
          "internalType": "uint256",
          "name": "",
          "type": "uint256"
        }
      ],
      "stateMutability": "view",
      "type": "function"
    },
    {
      "inputs": [
        {
          "internalType": "uint256",
          "name": "tokenId",
          "type": "uint256"
        }
      ],
      "name": "buyTicket",
      "outputs": [],
      "stateMutability": "nonpayable",
      "type": "function"
    },
    {
      "inputs": [
        {
          "internalType": "uint256",
          "name": "tokenId",
          "type": "uint256"
        }
      ],
      "name": "getApproved",
      "outputs": [
        {
          "internalType": "address",
          "name": "",
          "type": "address"
        }
      ],
      "stateMutability": "view",
      "type": "function"
    },
    {
      "inputs": [
        {
          "internalType": "uint256",
          "name": "bettingId",
          "type": "uint256"
        },
        {
          "internalType": "uint256",
          "name": "optionId",
          "type": "uint256"
        }
      ],
      "name": "getBettingTickets",
      "outputs": [
        {
          "internalType": "uint256[]",
          "name": "",
          "type": "uint256[]"
        }
      ],
      "stateMutability": "view",
      "type": "function"
    },
    {
      "inputs": [
        {
          "internalType": "address",
          "name": "user",
          "type": "address"
        }
      ],
      "name": "getUserTickets",
      "outputs": [
        {
          "internalType": "uint256[]",
          "name": "",
          "type": "uint256[]"
        }
      ],
      "stateMutability": "view",
      "type": "function"
    },
    {
      "inputs": [
        {
          "internalType": "address",
          "name": "owner",
          "type": "address"
        },
        {
          "internalType": "address",
          "name": "operator",
          "type": "address"
        }
      ],
      "name": "isApprovedForAll",
      "outputs": [
        {
          "internalType": "bool",
          "name": "",
          "type": "bool"
        }
      ],
      "stateMutability": "view",
      "type": "function"
    },
    {
      "inputs": [
        {
          "internalType": "uint256",
          "name": "tokenId",
          "type": "uint256"
        },
        {
          "internalType": "uint256",
          "name": "price",
          "type": "uint256"
        }
      ],
      "name": "listTicket",
      "outputs": [],
      "stateMutability": "nonpayable",
      "type": "function"
    },
    {
      "inputs": [
        {
          "internalType": "address",
          "name": "to",
          "type": "address"
        },
        {
          "internalType": "uint256",
          "name": "bettingId",
          "type": "uint256"
        },
        {
          "internalType": "uint256",
          "name": "optionId",
          "type": "uint256"
        },
        {
          "internalType": "uint256",
          "name": "amount",
          "type": "uint256"
        }
      ],
      "name": "mintTicket",
      "outputs": [
        {
          "internalType": "uint256",
          "name": "",
          "type": "uint256"
        }
      ],
      "stateMutability": "nonpayable",
      "type": "function"
    },
    {
      "inputs": [],
      "name": "myERC20",
      "outputs": [
        {
          "internalType": "contract MyERC20",
          "name": "",
          "type": "address"
        }
      ],
      "stateMutability": "view",
      "type": "function"
    },
    {
      "inputs": [],
      "name": "name",
      "outputs": [
        {
          "internalType": "string",
          "name": "",
          "type": "string"
        }
      ],
      "stateMutability": "view",
      "type": "function"
    },
    {
      "inputs": [],
      "name": "owner",
      "outputs": [
        {
          "internalType": "address",
          "name": "",
          "type": "address"
        }
      ],
      "stateMutability": "view",
      "type": "function"
    },
    {
      "inputs": [
        {
          "internalType": "uint256",
          "name": "tokenId",
          "type": "uint256"
        }
      ],
      "name": "ownerOf",
      "outputs": [
        {
          "internalType": "address",
          "name": "",
          "type": "address"
        }
      ],
      "stateMutability": "view",
      "type": "function"
    },
    {
      "inputs": [],
      "name": "renounceOwnership",
      "outputs": [],
      "stateMutability": "nonpayable",
      "type": "function"
    },
    {
      "inputs": [
        {
          "internalType": "address",
          "name": "from",
          "type": "address"
        },
        {
          "internalType": "address",
          "name": "to",
          "type": "address"
        },
        {
          "internalType": "uint256",
          "name": "tokenId",
          "type": "uint256"
        }
      ],
      "name": "safeTransferFrom",
      "outputs": [],
      "stateMutability": "nonpayable",
      "type": "function"
    },
    {
      "inputs": [
        {
          "internalType": "address",
          "name": "from",
          "type": "address"
        },
        {
          "internalType": "address",
          "name": "to",
          "type": "address"
        },
        {
          "internalType": "uint256",
          "name": "tokenId",
          "type": "uint256"
        },
        {
          "internalType": "bytes",
          "name": "data",
          "type": "bytes"
        }
      ],
      "name": "safeTransferFrom",
      "outputs": [],
      "stateMutability": "nonpayable",
      "type": "function"
    },
    {
      "inputs": [
        {
          "internalType": "address",
          "name": "operator",
          "type": "address"
        },
        {
          "internalType": "bool",
          "name": "approved",
          "type": "bool"
        }
      ],
      "name": "setApprovalForAll",
      "outputs": [],
      "stateMutability": "nonpayable",
      "type": "function"
    },
    {
      "inputs": [
        {
          "internalType": "bytes4",
          "name": "interfaceId",
          "type": "bytes4"
        }
      ],
      "name": "supportsInterface",
      "outputs": [
        {
          "internalType": "bool",
          "name": "",
          "type": "bool"
        }
      ],
      "stateMutability": "view",
      "type": "function"
    },
    {
      "inputs": [],
      "name": "symbol",
      "outputs": [
        {
          "internalType": "string",
          "name": "",
          "type": "string"
        }
      ],
      "stateMutability": "view",
      "type": "function"
    },
    {
      "inputs": [
        {
          "internalType": "uint256",
          "name": "",
          "type": "uint256"
        }
      ],
      "name": "ticketInfos",
      "outputs": [
        {
          "internalType": "uint256",
          "name": "bettingId",
          "type": "uint256"
        },
        {
          "internalType": "uint256",
          "name": "optionId",
          "type": "uint256"
        },
        {
          "internalType": "uint256",
          "name": "amount",
          "type": "uint256"
        },
        {
          "internalType": "address",
          "name": "owner",
          "type": "address"
        },
        {
          "internalType": "bool",
          "name": "isListed",
          "type": "bool"
        },
        {
          "internalType": "uint256",
          "name": "listPrice",
          "type": "uint256"
        }
      ],
      "stateMutability": "view",
      "type": "function"
    },
    {
      "inputs": [
        {
          "internalType": "uint256",
          "name": "index",
          "type": "uint256"
        }
      ],
      "name": "tokenByIndex",
      "outputs": [
        {
          "internalType": "uint256",
          "name": "",
          "type": "uint256"
        }
      ],
      "stateMutability": "view",
      "type": "function"
    },
    {
      "inputs": [
        {
          "internalType": "address",
          "name": "owner",
          "type": "address"
        },
        {
          "internalType": "uint256",
          "name": "index",
          "type": "uint256"
        }
      ],
      "name": "tokenOfOwnerByIndex",
      "outputs": [
        {
          "internalType": "uint256",
          "name": "",
          "type": "uint256"
        }
      ],
      "stateMutability": "view",
      "type": "function"
    },
    {
      "inputs": [
        {
          "internalType": "uint256",
          "name": "tokenId",
          "type": "uint256"
        }
      ],
      "name": "tokenURI",
      "outputs": [
        {
          "internalType": "string",
          "name": "",
          "type": "string"
        }
      ],
      "stateMutability": "view",
      "type": "function"
    },
    {
      "inputs": [],
      "name": "totalSupply",
      "outputs": [
        {
          "internalType": "uint256",
          "name": "",
          "type": "uint256"
        }
      ],
      "stateMutability": "view",
      "type": "function"
    },
    {
      "inputs": [
        {
          "internalType": "address",
          "name": "from",
          "type": "address"
        },
        {
          "internalType": "address",
          "name": "to",
          "type": "address"
        },
        {
          "internalType": "uint256",
          "name": "tokenId",
          "type": "uint256"
        }
      ],
      "name": "transferFrom",
      "outputs": [],
      "stateMutability": "nonpayable",
      "type": "function"
    },
    {
      "inputs": [
        {
          "internalType": "address",
          "name": "newOwner",
          "type": "address"
        }
      ],
      "name": "transferOwnership",
      "outputs": [],
      "stateMutability": "nonpayable",
      "type": "function"
    },
    {
      "inputs": [
        {
          "internalType": "uint256",
          "name": "tokenId",
          "type": "uint256"
        }
      ],
      "name": "unlistTicket",
      "outputs": [],
      "stateMutability": "nonpayable",
      "type": "function"
    }
  ],
  "bytecode": "0x60806040523480156200001157600080fd5b50604051620045d3380380620045d383398181016040528101906200003791906200033b565b6040518060400160405280600d81526020017f4c6f74746572795469636b6574000000000000000000000000000000000000008152506040518060400160405280600281526020017f4c540000000000000000000000000000000000000000000000000000000000008152508160009080519060200190620000bb9291906200020d565b508060019080519060200190620000d49291906200020d565b505050620000f7620000eb6200013f60201b60201c565b6200014760201b60201c565b80600c60006101000a81548173ffffffffffffffffffffffffffffffffffffffff021916908373ffffffffffffffffffffffffffffffffffffffff16021790555050620003d2565b600033905090565b6000600a60009054906101000a900473ffffffffffffffffffffffffffffffffffffffff16905081600a60006101000a81548173ffffffffffffffffffffffffffffffffffffffff021916908373ffffffffffffffffffffffffffffffffffffffff1602179055508173ffffffffffffffffffffffffffffffffffffffff168173ffffffffffffffffffffffffffffffffffffffff167f8be0079c531659141344cd1fd0a4f28419497f9722a3daafe3b4186f6b6457e060405160405180910390a35050565b8280546200021b906200039c565b90600052602060002090601f0160209004810192826200023f57600085556200028b565b82601f106200025a57805160ff19168380011785556200028b565b828001600101855582156200028b579182015b828111156200028a5782518255916020019190600101906200026d565b5b5090506200029a91906200029e565b5090565b5b80821115620002b95760008160009055506001016200029f565b5090565b600080fd5b600073ffffffffffffffffffffffffffffffffffffffff82169050919050565b6000620002ef82620002c2565b9050919050565b60006200030382620002e2565b9050919050565b6200031581620002f6565b81146200032157600080fd5b50565b60008151905062000335816200030a565b92915050565b600060208284031215620003545762000353620002bd565b5b6000620003648482850162000324565b91505092915050565b7f4e487b7100000000000000000000000000000000000000000000000000000000600052602260045260246000fd5b60006002820490506001821680620003b557607f821691505b60208210811415620003cc57620003cb6200036d565b5b50919050565b6141f180620003e26000396000f3fe608060405234801561001057600080fd5b50600436106101c45760003560e01c80636352211e116100f957806395d89b4111610097578063c87b56dd11610071578063c87b56dd1461052e578063e985e9c51461055e578063f2fde38b1461058e578063fae62508146105aa576101c4565b806395d89b41146104d8578063a22cb465146104f6578063b88d4fde14610512576101c4565b806370a08231116100d357806370a0823114610464578063715018a61461049457806383ece4c61461049e5780638da5cb5b146104ba576101c4565b80636352211e146103fa57806367dd74ca1461042a5780636d3739c414610446576101c4565b806318160ddd11610166578063305a905a11610140578063305a905a1461036257806342842e0e1461037e5780634945646e1461039a5780634f6ccce7146103ca576101c4565b806318160ddd146102f857806323b872dd146103165780632f745c5914610332576101c4565b8063081812fc116101a2578063081812fc14610247578063095ea7b3146102775780630bc5c3f514610293578063127e4528146102c8576101c4565b806301ffc9a7146101c95780630484a22f146101f957806306fdde0314610229575b600080fd5b6101e360048036038101906101de9190612b70565b6105da565b6040516101f09190612bb8565b60405180910390f35b610213600480360381019061020e9190612c31565b6105ec565b6040516102209190612d26565b60405180910390f35b61023161069a565b60405161023e9190612de1565b60405180910390f35b610261600480360381019061025c9190612e2f565b61072c565b60405161026e9190612e6b565b60405180910390f35b610291600480360381019061028c9190612e86565b610772565b005b6102ad60048036038101906102a89190612e2f565b61088a565b6040516102bf96959493929190612ed5565b60405180910390f35b6102e260048036038101906102dd9190612f36565b6108f3565b6040516102ef9190612d26565b60405180910390f35b610300610970565b60405161030d9190612f76565b60405180910390f35b610330600480360381019061032b9190612f91565b61097d565b005b61034c60048036038101906103479190612e86565b6109dd565b6040516103599190612f76565b60405180910390f35b61037c60048036038101906103779190612f36565b610a82565b005b61039860048036038101906103939190612f91565b610bc1565b005b6103b460048036038101906103af9190612fe4565b610be1565b6040516103c19190612f76565b60405180910390f35b6103e460048036038101906103df9190612e2f565b610d91565b6040516103f19190612f76565b60405180910390f35b610414600480360381019061040f9190612e2f565b610e02565b6040516104219190612e6b565b60405180910390f35b610444600480360381019061043f9190612e2f565b610e89565b005b61044e6111a5565b60405161045b91906130aa565b60405180910390f35b61047e60048036038101906104799190612c31565b6111cb565b60405161048b9190612f76565b60405180910390f35b61049c611283565b005b6104b860048036038101906104b39190612e2f565b611297565b005b6104c2611388565b6040516104cf9190612e6b565b60405180910390f35b6104e06113b2565b6040516104ed9190612de1565b60405180910390f35b610510600480360381019061050b91906130f1565b611444565b005b61052c60048036038101906105279190613266565b61145a565b005b61054860048036038101906105439190612e2f565b6114bc565b6040516105559190612de1565b60405180910390f35b610578600480360381019061057391906132e9565b611524565b6040516105859190612bb8565b60405180910390f35b6105a860048036038101906105a39190612c31565b6115b8565b005b6105c460048036038101906105bf9190613329565b61163c565b6040516105d19190612f76565b60405180910390f35b60006105e58261167a565b9050919050565b606060006105f9836111cb565b905060008167ffffffffffffffff8111156106175761061661313b565b5b6040519080825280602002602001820160405280156106455781602001602082028036833780820191505090505b50905060005b8281101561068f5761065d85826109dd565b8282815181106106705761066f61337c565b5b6020026020010181815250508080610687906133da565b91505061064b565b508092505050919050565b6060600080546106a990613452565b80601f01602080910402602001604051908101604052809291908181526020018280546106d590613452565b80156107225780601f106106f757610100808354040283529160200191610722565b820191906000526020600020905b81548152906001019060200180831161070557829003601f168201915b5050505050905090565b6000610737826116f4565b6004600083815260200190815260200160002060009054906101000a900473ffffffffffffffffffffffffffffffffffffffff169050919050565b600061077d82610e02565b90508073ffffffffffffffffffffffffffffffffffffffff168373ffffffffffffffffffffffffffffffffffffffff1614156107ee576040517f08c379a00000000000000000000000000000000000000000000000000000000081526004016107e5906134f6565b60405180910390fd5b8073ffffffffffffffffffffffffffffffffffffffff1661080d61173f565b73ffffffffffffffffffffffffffffffffffffffff16148061083c575061083b8161083661173f565b611524565b5b61087b576040517f08c379a000000000000000000000000000000000000000000000000000000000815260040161087290613588565b60405180910390fd5b6108858383611747565b505050565b600d6020528060005260406000206000915090508060000154908060010154908060020154908060030160009054906101000a900473ffffffffffffffffffffffffffffffffffffffff16908060030160149054906101000a900460ff16908060040154905086565b6060600e6000848152602001908152602001600020600083815260200190815260200160002080548060200260200160405190810160405280929190818152602001828054801561096357602002820191906000526020600020905b81548152602001906001019080831161094f575b5050505050905092915050565b6000600880549050905090565b61098e61098861173f565b82611800565b6109cd576040517f08c379a00000000000000000000000000000000000000000000000000000000081526004016109c49061361a565b60405180910390fd5b6109d8838383611895565b505050565b60006109e8836111cb565b8210610a29576040517f08c379a0000000000000000000000000000000000000000000000000000000008152600401610a20906136ac565b60405180910390fd5b600660008473ffffffffffffffffffffffffffffffffffffffff1673ffffffffffffffffffffffffffffffffffffffff168152602001908152602001600020600083815260200190815260200160002054905092915050565b3373ffffffffffffffffffffffffffffffffffffffff16610aa283610e02565b73ffffffffffffffffffffffffffffffffffffffff1614610af8576040517f08c379a0000000000000000000000000000000000000000000000000000000008152600401610aef90613718565b60405180910390fd5b60008111610b3b576040517f08c379a0000000000000000000000000000000000000000000000000000000008152600401610b3290613784565b60405180910390fd5b6001600d600084815260200190815260200160002060030160146101000a81548160ff02191690831515021790555080600d600084815260200190815260200160002060040181905550817fbca2f6391cafd6d28d39261ba883dd74090c618befb806e74ef434778bb2f7ed82604051610bb59190612f76565b60405180910390a25050565b610bdc8383836040518060200160405280600081525061145a565b505050565b6000610beb611b8f565b600b6000815480929190610bfe906133da565b91905055506000600b549050610c148682611c0d565b6040518060c001604052808681526020018581526020018481526020018773ffffffffffffffffffffffffffffffffffffffff1681526020016000151581526020016000815250600d600083815260200190815260200160002060008201518160000155602082015181600101556040820151816002015560608201518160030160006101000a81548173ffffffffffffffffffffffffffffffffffffffff021916908373ffffffffffffffffffffffffffffffffffffffff16021790555060808201518160030160146101000a81548160ff02191690831515021790555060a08201518160040155905050600e600086815260200190815260200160002060008581526020019081526020016000208190806001815401808255809150506001900390600052602060002001600090919091909150558385827f1ba4dd71a6c6f6e57c973c206da350ef7ea3fa12ba5dcc31a4862ee0de18dbc489604051610d7d9190612e6b565b60405180910390a480915050949350505050565b6000610d9b610970565b8210610ddc576040517f08c379a0000000000000000000000000000000000000000000000000000000008152600401610dd390613816565b60405180910390fd5b60088281548110610df057610def61337c565b5b90600052602060002001549050919050565b600080610e0e83611e2b565b9050600073ffffffffffffffffffffffffffffffffffffffff168173ffffffffffffffffffffffffffffffffffffffff161415610e80576040517f08c379a0000000000000000000000000000000000000000000000000000000008152600401610e7790613882565b60405180910390fd5b80915050919050565b6000600d600083815260200190815260200160002090508060030160149054906101000a900460ff16610ef1576040517f08c379a0000000000000000000000000000000000000000000000000000000008152600401610ee8906138ee565b60405180910390fd5b6000610efc83610e02565b90508160040154600c60009054906101000a900473ffffffffffffffffffffffffffffffffffffffff1673ffffffffffffffffffffffffffffffffffffffff1663dd62ed3e33306040518363ffffffff1660e01b8152600401610f6092919061390e565b60206040518083038186803b158015610f7857600080fd5b505afa158015610f8c573d6000803e3d6000fd5b505050506040513d601f19601f82011682018060405250810190610fb0919061394c565b1015610ff1576040517f08c379a0000000000000000000000000000000000000000000000000000000008152600401610fe8906139c5565b60405180910390fd5b6000600c60009054906101000a900473ffffffffffffffffffffffffffffffffffffffff1673ffffffffffffffffffffffffffffffffffffffff166323b872dd338486600401546040518463ffffffff1660e01b8152600401611056939291906139e5565b602060405180830381600087803b15801561107057600080fd5b505af1158015611084573d6000803e3d6000fd5b505050506040513d601f19601f820116820180604052508101906110a89190613a31565b9050806110ea576040517f08c379a00000000000000000000000000000000000000000000000000000000081526004016110e190613aaa565b60405180910390fd5b6110f5823386611895565b338360030160006101000a81548173ffffffffffffffffffffffffffffffffffffffff021916908373ffffffffffffffffffffffffffffffffffffffff16021790555060008360030160146101000a81548160ff02191690831515021790555060008360040181905550837fdfc4c991a34be4b2f90df7c348d98b17393713ef48853d9071cf19d4687a6a3683338660040154604051611197939291906139e5565b60405180910390a250505050565b600c60009054906101000a900473ffffffffffffffffffffffffffffffffffffffff1681565b60008073ffffffffffffffffffffffffffffffffffffffff168273ffffffffffffffffffffffffffffffffffffffff16141561123c576040517f08c379a000000000000000000000000000000000000000000000000000000000815260040161123390613b3c565b60405180910390fd5b600360008373ffffffffffffffffffffffffffffffffffffffff1673ffffffffffffffffffffffffffffffffffffffff168152602001908152602001600020549050919050565b61128b611b8f565b6112956000611e68565b565b3373ffffffffffffffffffffffffffffffffffffffff166112b782610e02565b73ffffffffffffffffffffffffffffffffffffffff161461130d576040517f08c379a000000000000000000000000000000000000000000000000000000000815260040161130490613718565b60405180910390fd5b6000600d600083815260200190815260200160002060030160146101000a81548160ff0219169083151502179055506000600d600083815260200190815260200160002060040181905550807fdb00f3044f762e640c77fdd12df2e7cf2b4c17de34f8995969a4d98b9904af4560405160405180910390a250565b6000600a60009054906101000a900473ffffffffffffffffffffffffffffffffffffffff16905090565b6060600180546113c190613452565b80601f01602080910402602001604051908101604052809291908181526020018280546113ed90613452565b801561143a5780601f1061140f5761010080835404028352916020019161143a565b820191906000526020600020905b81548152906001019060200180831161141d57829003601f168201915b5050505050905090565b61145661144f61173f565b8383611f2e565b5050565b61146b61146561173f565b83611800565b6114aa576040517f08c379a00000000000000000000000000000000000000000000000000000000081526004016114a19061361a565b60405180910390fd5b6114b68484848461209b565b50505050565b60606114c7826116f4565b60006114d16120f7565b905060008151116114f1576040518060200160405280600081525061151c565b806114fb8461210e565b60405160200161150c929190613b98565b6040516020818303038152906040525b915050919050565b6000600560008473ffffffffffffffffffffffffffffffffffffffff1673ffffffffffffffffffffffffffffffffffffffff16815260200190815260200160002060008373ffffffffffffffffffffffffffffffffffffffff1673ffffffffffffffffffffffffffffffffffffffff16815260200190815260200160002060009054906101000a900460ff16905092915050565b6115c0611b8f565b600073ffffffffffffffffffffffffffffffffffffffff168173ffffffffffffffffffffffffffffffffffffffff161415611630576040517f08c379a000000000000000000000000000000000000000000000000000000000815260040161162790613c2e565b60405180910390fd5b61163981611e68565b50565b600e602052826000526040600020602052816000526040600020818154811061166457600080fd5b9060005260206000200160009250925050505481565b60007f780e9d63000000000000000000000000000000000000000000000000000000007bffffffffffffffffffffffffffffffffffffffffffffffffffffffff1916827bffffffffffffffffffffffffffffffffffffffffffffffffffffffff191614806116ed57506116ec826121e6565b5b9050919050565b6116fd816122c8565b61173c576040517f08c379a000000000000000000000000000000000000000000000000000000000815260040161173390613882565b60405180910390fd5b50565b600033905090565b816004600083815260200190815260200160002060006101000a81548173ffffffffffffffffffffffffffffffffffffffff021916908373ffffffffffffffffffffffffffffffffffffffff160217905550808273ffffffffffffffffffffffffffffffffffffffff166117ba83610e02565b73ffffffffffffffffffffffffffffffffffffffff167f8c5be1e5ebec7d5bd14f71427d1e84f3dd0314c0f7b2291e5b200ac8c7c3b92560405160405180910390a45050565b60008061180c83610e02565b90508073ffffffffffffffffffffffffffffffffffffffff168473ffffffffffffffffffffffffffffffffffffffff16148061184e575061184d8185611524565b5b8061188c57508373ffffffffffffffffffffffffffffffffffffffff166118748461072c565b73ffffffffffffffffffffffffffffffffffffffff16145b91505092915050565b8273ffffffffffffffffffffffffffffffffffffffff166118b582610e02565b73ffffffffffffffffffffffffffffffffffffffff161461190b576040517f08c379a000000000000000000000000000000000000000000000000000000000815260040161190290613cc0565b60405180910390fd5b600073ffffffffffffffffffffffffffffffffffffffff168273ffffffffffffffffffffffffffffffffffffffff16141561197b576040517f08c379a000000000000000000000000000000000000000000000000000000000815260040161197290613d52565b60405180910390fd5b6119888383836001612309565b8273ffffffffffffffffffffffffffffffffffffffff166119a882610e02565b73ffffffffffffffffffffffffffffffffffffffff16146119fe576040517f08c379a00000000000000000000000000000000000000000000000000000000081526004016119f590613cc0565b60405180910390fd5b6004600082815260200190815260200160002060006101000a81549073ffffffffffffffffffffffffffffffffffffffff02191690556001600360008573ffffffffffffffffffffffffffffffffffffffff1673ffffffffffffffffffffffffffffffffffffffff168152602001908152602001600020600082825403925050819055506001600360008473ffffffffffffffffffffffffffffffffffffffff1673ffffffffffffffffffffffffffffffffffffffff16815260200190815260200160002060008282540192505081905550816002600083815260200190815260200160002060006101000a81548173ffffffffffffffffffffffffffffffffffffffff021916908373ffffffffffffffffffffffffffffffffffffffff160217905550808273ffffffffffffffffffffffffffffffffffffffff168473ffffffffffffffffffffffffffffffffffffffff167fddf252ad1be2c89b69c2b068fc378daa952ba7f163c4a11628f55a4df523b3ef60405160405180910390a4611b8a838383600161231b565b505050565b611b9761173f565b73ffffffffffffffffffffffffffffffffffffffff16611bb5611388565b73ffffffffffffffffffffffffffffffffffffffff1614611c0b576040517f08c379a0000000000000000000000000000000000000000000000000000000008152600401611c0290613dbe565b60405180910390fd5b565b600073ffffffffffffffffffffffffffffffffffffffff168273ffffffffffffffffffffffffffffffffffffffff161415611c7d576040517f08c379a0000000000000000000000000000000000000000000000000000000008152600401611c7490613e2a565b60405180910390fd5b611c86816122c8565b15611cc6576040517f08c379a0000000000000000000000000000000000000000000000000000000008152600401611cbd90613e96565b60405180910390fd5b611cd4600083836001612309565b611cdd816122c8565b15611d1d576040517f08c379a0000000000000000000000000000000000000000000000000000000008152600401611d1490613e96565b60405180910390fd5b6001600360008473ffffffffffffffffffffffffffffffffffffffff1673ffffffffffffffffffffffffffffffffffffffff16815260200190815260200160002060008282540192505081905550816002600083815260200190815260200160002060006101000a81548173ffffffffffffffffffffffffffffffffffffffff021916908373ffffffffffffffffffffffffffffffffffffffff160217905550808273ffffffffffffffffffffffffffffffffffffffff16600073ffffffffffffffffffffffffffffffffffffffff167fddf252ad1be2c89b69c2b068fc378daa952ba7f163c4a11628f55a4df523b3ef60405160405180910390a4611e2760008383600161231b565b5050565b60006002600083815260200190815260200160002060009054906101000a900473ffffffffffffffffffffffffffffffffffffffff169050919050565b6000600a60009054906101000a900473ffffffffffffffffffffffffffffffffffffffff16905081600a60006101000a81548173ffffffffffffffffffffffffffffffffffffffff021916908373ffffffffffffffffffffffffffffffffffffffff1602179055508173ffffffffffffffffffffffffffffffffffffffff168173ffffffffffffffffffffffffffffffffffffffff167f8be0079c531659141344cd1fd0a4f28419497f9722a3daafe3b4186f6b6457e060405160405180910390a35050565b8173ffffffffffffffffffffffffffffffffffffffff168373ffffffffffffffffffffffffffffffffffffffff161415611f9d576040517f08c379a0000000000000000000000000000000000000000000000000000000008152600401611f9490613f02565b60405180910390fd5b80600560008573ffffffffffffffffffffffffffffffffffffffff1673ffffffffffffffffffffffffffffffffffffffff16815260200190815260200160002060008473ffffffffffffffffffffffffffffffffffffffff1673ffffffffffffffffffffffffffffffffffffffff16815260200190815260200160002060006101000a81548160ff0219169083151502179055508173ffffffffffffffffffffffffffffffffffffffff168373ffffffffffffffffffffffffffffffffffffffff167f17307eab39ab6107e8899845ad3d59bd9653f200f220920489ca2b5937696c318360405161208e9190612bb8565b60405180910390a3505050565b6120a6848484611895565b6120b284848484612321565b6120f1576040517f08c379a00000000000000000000000000000000000000000000000000000000081526004016120e890613f94565b60405180910390fd5b50505050565b606060405180602001604052806000815250905090565b60606000600161211d846124b8565b01905060008167ffffffffffffffff81111561213c5761213b61313b565b5b6040519080825280601f01601f19166020018201604052801561216e5781602001600182028036833780820191505090505b509050600082602001820190505b6001156121db578080600190039150507f3031323334353637383961626364656600000000000000000000000000000000600a86061a8153600a85816121c5576121c4613fb4565b5b04945060008514156121d6576121db565b61217c565b819350505050919050565b60007f80ac58cd000000000000000000000000000000000000000000000000000000007bffffffffffffffffffffffffffffffffffffffffffffffffffffffff1916827bffffffffffffffffffffffffffffffffffffffffffffffffffffffff191614806122b157507f5b5e139f000000000000000000000000000000000000000000000000000000007bffffffffffffffffffffffffffffffffffffffffffffffffffffffff1916827bffffffffffffffffffffffffffffffffffffffffffffffffffffffff1916145b806122c157506122c08261260b565b5b9050919050565b60008073ffffffffffffffffffffffffffffffffffffffff166122ea83611e2b565b73ffffffffffffffffffffffffffffffffffffffff1614159050919050565b61231584848484612675565b50505050565b50505050565b60006123428473ffffffffffffffffffffffffffffffffffffffff166127d5565b156124ab578373ffffffffffffffffffffffffffffffffffffffff1663150b7a0261236b61173f565b8786866040518563ffffffff1660e01b815260040161238d9493929190614038565b602060405180830381600087803b1580156123a757600080fd5b505af19250505080156123d857506040513d601f19601f820116820180604052508101906123d59190614099565b60015b61245b573d8060008114612408576040519150601f19603f3d011682016040523d82523d6000602084013e61240d565b606091505b50600081511415612453576040517f08c379a000000000000000000000000000000000000000000000000000000000815260040161244a90613f94565b60405180910390fd5b805181602001fd5b63150b7a0260e01b7bffffffffffffffffffffffffffffffffffffffffffffffffffffffff1916817bffffffffffffffffffffffffffffffffffffffffffffffffffffffff1916149150506124b0565b600190505b949350505050565b600080600090507a184f03e93ff9f4daa797ed6e38ed64bf6a1f0100000000000000008310612516577a184f03e93ff9f4daa797ed6e38ed64bf6a1f010000000000000000838161250c5761250b613fb4565b5b0492506040810190505b6d04ee2d6d415b85acef81000000008310612553576d04ee2d6d415b85acef8100000000838161254957612548613fb4565b5b0492506020810190505b662386f26fc10000831061258257662386f26fc10000838161257857612577613fb4565b5b0492506010810190505b6305f5e10083106125ab576305f5e10083816125a1576125a0613fb4565b5b0492506008810190505b61271083106125d05761271083816125c6576125c5613fb4565b5b0492506004810190505b606483106125f357606483816125e9576125e8613fb4565b5b0492506002810190505b600a8310612602576001810190505b80915050919050565b60007f01ffc9a7000000000000000000000000000000000000000000000000000000007bffffffffffffffffffffffffffffffffffffffffffffffffffffffff1916827bffffffffffffffffffffffffffffffffffffffffffffffffffffffff1916149050919050565b612681848484846127f8565b60018111156126c5576040517f08c379a00000000000000000000000000000000000000000000000000000000081526004016126bc90614138565b60405180910390fd5b6000829050600073ffffffffffffffffffffffffffffffffffffffff168573ffffffffffffffffffffffffffffffffffffffff16141561270d57612708816127fe565b61274c565b8373ffffffffffffffffffffffffffffffffffffffff168573ffffffffffffffffffffffffffffffffffffffff161461274b5761274a8582612847565b5b5b600073ffffffffffffffffffffffffffffffffffffffff168473ffffffffffffffffffffffffffffffffffffffff16141561278f5761278a816129b4565b6127ce565b8473ffffffffffffffffffffffffffffffffffffffff168473ffffffffffffffffffffffffffffffffffffffff16146127cd576127cc8482612a85565b5b5b5050505050565b6000808273ffffffffffffffffffffffffffffffffffffffff163b119050919050565b50505050565b6008805490506009600083815260200190815260200160002081905550600881908060018154018082558091505060019003906000526020600020016000909190919091505550565b60006001612854846111cb565b61285e9190614158565b9050600060076000848152602001908152602001600020549050818114612943576000600660008673ffffffffffffffffffffffffffffffffffffffff1673ffffffffffffffffffffffffffffffffffffffff168152602001908152602001600020600084815260200190815260200160002054905080600660008773ffffffffffffffffffffffffffffffffffffffff1673ffffffffffffffffffffffffffffffffffffffff168152602001908152602001600020600084815260200190815260200160002081905550816007600083815260200190815260200160002081905550505b6007600084815260200190815260200160002060009055600660008573ffffffffffffffffffffffffffffffffffffffff1673ffffffffffffffffffffffffffffffffffffffff16815260200190815260200160002060008381526020019081526020016000206000905550505050565b600060016008805490506129c89190614158565b90506000600960008481526020019081526020016000205490506000600883815481106129f8576129f761337c565b5b906000526020600020015490508060088381548110612a1a57612a1961337c565b5b906000526020600020018190555081600960008381526020019081526020016000208190555060096000858152602001908152602001600020600090556008805480612a6957612a6861418c565b5b6001900381819060005260206000200160009055905550505050565b6000612a90836111cb565b905081600660008573ffffffffffffffffffffffffffffffffffffffff1673ffffffffffffffffffffffffffffffffffffffff168152602001908152602001600020600083815260200190815260200160002081905550806007600084815260200190815260200160002081905550505050565b6000604051905090565b600080fd5b600080fd5b60007fffffffff0000000000000000000000000000000000000000000000000000000082169050919050565b612b4d81612b18565b8114612b5857600080fd5b50565b600081359050612b6a81612b44565b92915050565b600060208284031215612b8657612b85612b0e565b5b6000612b9484828501612b5b565b91505092915050565b60008115159050919050565b612bb281612b9d565b82525050565b6000602082019050612bcd6000830184612ba9565b92915050565b600073ffffffffffffffffffffffffffffffffffffffff82169050919050565b6000612bfe82612bd3565b9050919050565b612c0e81612bf3565b8114612c1957600080fd5b50565b600081359050612c2b81612c05565b92915050565b600060208284031215612c4757612c46612b0e565b5b6000612c5584828501612c1c565b91505092915050565b600081519050919050565b600082825260208201905092915050565b6000819050602082019050919050565b6000819050919050565b612c9d81612c8a565b82525050565b6000612caf8383612c94565b60208301905092915050565b6000602082019050919050565b6000612cd382612c5e565b612cdd8185612c69565b9350612ce883612c7a565b8060005b83811015612d19578151612d008882612ca3565b9750612d0b83612cbb565b925050600181019050612cec565b5085935050505092915050565b60006020820190508181036000830152612d408184612cc8565b905092915050565b600081519050919050565b600082825260208201905092915050565b60005b83811015612d82578082015181840152602081019050612d67565b83811115612d91576000848401525b50505050565b6000601f19601f8301169050919050565b6000612db382612d48565b612dbd8185612d53565b9350612dcd818560208601612d64565b612dd681612d97565b840191505092915050565b60006020820190508181036000830152612dfb8184612da8565b905092915050565b612e0c81612c8a565b8114612e1757600080fd5b50565b600081359050612e2981612e03565b92915050565b600060208284031215612e4557612e44612b0e565b5b6000612e5384828501612e1a565b91505092915050565b612e6581612bf3565b82525050565b6000602082019050612e806000830184612e5c565b92915050565b60008060408385031215612e9d57612e9c612b0e565b5b6000612eab85828601612c1c565b9250506020612ebc85828601612e1a565b9150509250929050565b612ecf81612c8a565b82525050565b600060c082019050612eea6000830189612ec6565b612ef76020830188612ec6565b612f046040830187612ec6565b612f116060830186612e5c565b612f1e6080830185612ba9565b612f2b60a0830184612ec6565b979650505050505050565b60008060408385031215612f4d57612f4c612b0e565b5b6000612f5b85828601612e1a565b9250506020612f6c85828601612e1a565b9150509250929050565b6000602082019050612f8b6000830184612ec6565b92915050565b600080600060608486031215612faa57612fa9612b0e565b5b6000612fb886828701612c1c565b9350506020612fc986828701612c1c565b9250506040612fda86828701612e1a565b9150509250925092565b60008060008060808587031215612ffe57612ffd612b0e565b5b600061300c87828801612c1c565b945050602061301d87828801612e1a565b935050604061302e87828801612e1a565b925050606061303f87828801612e1a565b91505092959194509250565b6000819050919050565b600061307061306b61306684612bd3565b61304b565b612bd3565b9050919050565b600061308282613055565b9050919050565b600061309482613077565b9050919050565b6130a481613089565b82525050565b60006020820190506130bf600083018461309b565b92915050565b6130ce81612b9d565b81146130d957600080fd5b50565b6000813590506130eb816130c5565b92915050565b6000806040838503121561310857613107612b0e565b5b600061311685828601612c1c565b9250506020613127858286016130dc565b9150509250929050565b600080fd5b600080fd5b7f4e487b7100000000000000000000000000000000000000000000000000000000600052604160045260246000fd5b61317382612d97565b810181811067ffffffffffffffff821117156131925761319161313b565b5b80604052505050565b60006131a5612b04565b90506131b1828261316a565b919050565b600067ffffffffffffffff8211156131d1576131d061313b565b5b6131da82612d97565b9050602081019050919050565b82818337600083830152505050565b6000613209613204846131b6565b61319b565b90508281526020810184848401111561322557613224613136565b5b6132308482856131e7565b509392505050565b600082601f83011261324d5761324c613131565b5b813561325d8482602086016131f6565b91505092915050565b600080600080608085870312156132805761327f612b0e565b5b600061328e87828801612c1c565b945050602061329f87828801612c1c565b93505060406132b087828801612e1a565b925050606085013567ffffffffffffffff8111156132d1576132d0612b13565b5b6132dd87828801613238565b91505092959194509250565b60008060408385031215613300576132ff612b0e565b5b600061330e85828601612c1c565b925050602061331f85828601612c1c565b9150509250929050565b60008060006060848603121561334257613341612b0e565b5b600061335086828701612e1a565b935050602061336186828701612e1a565b925050604061337286828701612e1a565b9150509250925092565b7f4e487b7100000000000000000000000000000000000000000000000000000000600052603260045260246000fd5b7f4e487b7100000000000000000000000000000000000000000000000000000000600052601160045260246000fd5b60006133e582612c8a565b91507fffffffffffffffffffffffffffffffffffffffffffffffffffffffffffffffff821415613418576134176133ab565b5b600182019050919050565b7f4e487b7100000000000000000000000000000000000000000000000000000000600052602260045260246000fd5b6000600282049050600182168061346a57607f821691505b6020821081141561347e5761347d613423565b5b50919050565b7f4552433732313a20617070726f76616c20746f2063757272656e74206f776e6560008201527f7200000000000000000000000000000000000000000000000000000000000000602082015250565b60006134e0602183612d53565b91506134eb82613484565b604082019050919050565b6000602082019050818103600083015261350f816134d3565b9050919050565b7f4552433732313a20617070726f76652063616c6c6572206973206e6f7420746f60008201527f6b656e206f776e6572206f7220617070726f76656420666f7220616c6c000000602082015250565b6000613572603d83612d53565b915061357d82613516565b604082019050919050565b600060208201905081810360008301526135a181613565565b9050919050565b7f4552433732313a2063616c6c6572206973206e6f7420746f6b656e206f776e6560008201527f72206f7220617070726f76656400000000000000000000000000000000000000602082015250565b6000613604602d83612d53565b915061360f826135a8565b604082019050919050565b60006020820190508181036000830152613633816135f7565b9050919050565b7f455243373231456e756d657261626c653a206f776e657220696e646578206f7560008201527f74206f6620626f756e6473000000000000000000000000000000000000000000602082015250565b6000613696602b83612d53565b91506136a18261363a565b604082019050919050565b600060208201905081810360008301526136c581613689565b9050919050565b7f4e6f7420746865206f776e657200000000000000000000000000000000000000600082015250565b6000613702600d83612d53565b915061370d826136cc565b602082019050919050565b60006020820190508181036000830152613731816136f5565b9050919050565b7f5072696365206d7573742062652067726561746572207468616e203000000000600082015250565b600061376e601c83612d53565b915061377982613738565b602082019050919050565b6000602082019050818103600083015261379d81613761565b9050919050565b7f455243373231456e756d657261626c653a20676c6f62616c20696e646578206f60008201527f7574206f6620626f756e64730000000000000000000000000000000000000000602082015250565b6000613800602c83612d53565b915061380b826137a4565b604082019050919050565b6000602082019050818103600083015261382f816137f3565b9050919050565b7f4552433732313a20696e76616c696420746f6b656e2049440000000000000000600082015250565b600061386c601883612d53565b915061387782613836565b602082019050919050565b6000602082019050818103600083015261389b8161385f565b9050919050565b7f5469636b6574206e6f74206c6973746564000000000000000000000000000000600082015250565b60006138d8601183612d53565b91506138e3826138a2565b602082019050919050565b60006020820190508181036000830152613907816138cb565b9050919050565b60006040820190506139236000830185612e5c565b6139306020830184612e5c565b9392505050565b60008151905061394681612e03565b92915050565b60006020828403121561396257613961612b0e565b5b600061397084828501613937565b91505092915050565b7f496e73756666696369656e7420616c6c6f77616e636500000000000000000000600082015250565b60006139af601683612d53565b91506139ba82613979565b602082019050919050565b600060208201905081810360008301526139de816139a2565b9050919050565b60006060820190506139fa6000830186612e5c565b613a076020830185612e5c565b613a146040830184612ec6565b949350505050565b600081519050613a2b816130c5565b92915050565b600060208284031215613a4757613a46612b0e565b5b6000613a5584828501613a1c565b91505092915050565b7f546f6b656e207472616e73666572206661696c65640000000000000000000000600082015250565b6000613a94601583612d53565b9150613a9f82613a5e565b602082019050919050565b60006020820190508181036000830152613ac381613a87565b9050919050565b7f4552433732313a2061646472657373207a65726f206973206e6f74206120766160008201527f6c6964206f776e65720000000000000000000000000000000000000000000000602082015250565b6000613b26602983612d53565b9150613b3182613aca565b604082019050919050565b60006020820190508181036000830152613b5581613b19565b9050919050565b600081905092915050565b6000613b7282612d48565b613b7c8185613b5c565b9350613b8c818560208601612d64565b80840191505092915050565b6000613ba48285613b67565b9150613bb08284613b67565b91508190509392505050565b7f4f776e61626c653a206e6577206f776e657220697320746865207a65726f206160008201527f6464726573730000000000000000000000000000000000000000000000000000602082015250565b6000613c18602683612d53565b9150613c2382613bbc565b604082019050919050565b60006020820190508181036000830152613c4781613c0b565b9050919050565b7f4552433732313a207472616e736665722066726f6d20696e636f72726563742060008201527f6f776e6572000000000000000000000000000000000000000000000000000000602082015250565b6000613caa602583612d53565b9150613cb582613c4e565b604082019050919050565b60006020820190508181036000830152613cd981613c9d565b9050919050565b7f4552433732313a207472616e7366657220746f20746865207a65726f2061646460008201527f7265737300000000000000000000000000000000000000000000000000000000602082015250565b6000613d3c602483612d53565b9150613d4782613ce0565b604082019050919050565b60006020820190508181036000830152613d6b81613d2f565b9050919050565b7f4f776e61626c653a2063616c6c6572206973206e6f7420746865206f776e6572600082015250565b6000613da8602083612d53565b9150613db382613d72565b602082019050919050565b60006020820190508181036000830152613dd781613d9b565b9050919050565b7f4552433732313a206d696e7420746f20746865207a65726f2061646472657373600082015250565b6000613e14602083612d53565b9150613e1f82613dde565b602082019050919050565b60006020820190508181036000830152613e4381613e07565b9050919050565b7f4552433732313a20746f6b656e20616c7265616479206d696e74656400000000600082015250565b6000613e80601c83612d53565b9150613e8b82613e4a565b602082019050919050565b60006020820190508181036000830152613eaf81613e73565b9050919050565b7f4552433732313a20617070726f766520746f2063616c6c657200000000000000600082015250565b6000613eec601983612d53565b9150613ef782613eb6565b602082019050919050565b60006020820190508181036000830152613f1b81613edf565b9050919050565b7f4552433732313a207472616e7366657220746f206e6f6e20455243373231526560008201527f63656976657220696d706c656d656e7465720000000000000000000000000000602082015250565b6000613f7e603283612d53565b9150613f8982613f22565b604082019050919050565b60006020820190508181036000830152613fad81613f71565b9050919050565b7f4e487b7100000000000000000000000000000000000000000000000000000000600052601260045260246000fd5b600081519050919050565b600082825260208201905092915050565b600061400a82613fe3565b6140148185613fee565b9350614024818560208601612d64565b61402d81612d97565b840191505092915050565b600060808201905061404d6000830187612e5c565b61405a6020830186612e5c565b6140676040830185612ec6565b81810360608301526140798184613fff565b905095945050505050565b60008151905061409381612b44565b92915050565b6000602082840312156140af576140ae612b0e565b5b60006140bd84828501614084565b91505092915050565b7f455243373231456e756d657261626c653a20636f6e736563757469766520747260008201527f616e7366657273206e6f7420737570706f727465640000000000000000000000602082015250565b6000614122603583612d53565b915061412d826140c6565b604082019050919050565b6000602082019050818103600083015261415181614115565b9050919050565b600061416382612c8a565b915061416e83612c8a565b925082821015614181576141806133ab565b5b828203905092915050565b7f4e487b7100000000000000000000000000000000000000000000000000000000600052603160045260246000fdfea2646970667358221220ff8c7790b4fb022dd3c8e9c13ac55e1e5a239a88a7674503264eda866ebfa1fd64736f6c63430008090033",
  "linkReferences": {},
  "deployedLinkReferences": {}
}