{
  "_format": "hh-sol-artifact-1",
  "contractName": "Lottery",
  "sourceName": "contracts/Lottery.sol",
  "abi": [
    {
      "inputs": [],
      "stateMutability": "nonpayable",
      "type": "constructor"
    },
    {
      "inputs": [],
      "name": "PLAY_AMOUNT",
      "outputs": [
        {
          "internalType": "uint256",
          "name": "",
          "type": "uint256"
        }
      ],
      "stateMutability": "view",
      "type": "function"
    },
    {
      "inputs": [],
      "name": "draw",
      "outputs": [],
      "stateMutability": "nonpayable",
      "type": "function"
    },
    {
      "inputs": [],
      "name": "getPlayerNumber",
      "outputs": [
        {
          "internalType": "uint256",
          "name": "",
          "type": "uint256"
        }
      ],
      "stateMutability": "view",
      "type": "function"
    },
    {
      "inputs": [],
      "name": "manager",
      "outputs": [
        {
          "internalType": "address",
          "name": "",
          "type": "address"
        }
      ],
      "stateMutability": "view",
      "type": "function"
    },
    {
      "inputs": [],
      "name": "myERC20",
      "outputs": [
        {
          "internalType": "contract MyERC20",
          "name": "",
          "type": "address"
        }
      ],
      "stateMutability": "view",
      "type": "function"
    },
    {
      "inputs": [],
      "name": "play",
      "outputs": [],
      "stateMutability": "nonpayable",
      "type": "function"
    },
    {
      "inputs": [
        {
          "internalType": "uint256",
          "name": "",
          "type": "uint256"
        }
      ],
      "name": "players",
      "outputs": [
        {
          "internalType": "address",
          "name": "",
          "type": "address"
        }
      ],
      "stateMutability": "view",
      "type": "function"
    },
    {
      "inputs": [],
      "name": "refund",
      "outputs": [],
      "stateMutability": "nonpayable",
      "type": "function"
    },
    {
      "inputs": [],
      "name": "totalAmount",
      "outputs": [
        {
          "internalType": "uint256",
          "name": "",
          "type": "uint256"
        }
      ],
      "stateMutability": "view",
      "type": "function"
    },
    {
      "inputs": [],
      "name": "winner",
      "outputs": [
        {
          "internalType": "address",
          "name": "",
          "type": "address"
        }
      ],
      "stateMutability": "view",
      "type": "function"
    }
  ],
  "bytecode": "0x60806040523480156200001157600080fd5b506040516200002090620000d0565b6200002b906200018f565b604051809103906000f08015801562000048573d6000803e3d6000fd5b50600460006101000a81548173ffffffffffffffffffffffffffffffffffffffff021916908373ffffffffffffffffffffffffffffffffffffffff16021790555033600160006101000a81548173ffffffffffffffffffffffffffffffffffffffff021916908373ffffffffffffffffffffffffffffffffffffffff160217905550620001c6565b611a1f80620010c383390190565b600082825260208201905092915050565b7f5a4a55546f6b656e000000000000000000000000000000000000000000000000600082015250565b600062000127600883620000de565b91506200013482620000ef565b602082019050919050565b7f5a4a55546f6b656e53796d626f6c000000000000000000000000000000000000600082015250565b600062000177600e83620000de565b915062000184826200013f565b602082019050919050565b60006040820190508181036000830152620001aa8162000118565b90508181036020830152620001bf8162000168565b9050919050565b610eed80620001d66000396000f3fe608060405234801561001057600080fd5b506004361061009e5760003560e01c80636d3739c4116100665780636d3739c41461011157806393e84cd91461012f578063dfbf53ae14610139578063e6978b5014610157578063f71d96cb146101755761009e565b80630eecae21146100a357806313eaac6c146100ad5780631a39d8ef146100cb578063481c6a75146100e9578063590e1ae314610107575b600080fd5b6100ab6101a5565b005b6100b56104ec565b6040516100c29190610909565b60405180910390f35b6100d36104f9565b6040516100e09190610909565b60405180910390f35b6100f16104ff565b6040516100fe9190610965565b60405180910390f35b61010f610525565b005b6101196106aa565b60405161012691906109df565b60405180910390f35b6101376106d0565b005b610141610847565b60405161014e9190610965565b60405180910390f35b61015f61086d565b60405161016c9190610909565b60405180910390f35b61018f600480360381019061018a9190610a2b565b610873565b60405161019c9190610965565b60405180910390f35b600160009054906101000a900473ffffffffffffffffffffffffffffffffffffffff1673ffffffffffffffffffffffffffffffffffffffff163373ffffffffffffffffffffffffffffffffffffffff16146101ff57600080fd5b60006002805490501415610248576040517f08c379a000000000000000000000000000000000000000000000000000000000815260040161023f90610ab5565b60405180910390fd5b6000423060028054905060405160200161026493929190610b3e565b6040516020818303038152906040528051906020012060001c90506000600280549050826102929190610baa565b9050600281815481106102a8576102a7610bdb565b5b9060005260206000200160009054906101000a900473ffffffffffffffffffffffffffffffffffffffff16600360006101000a81548173ffffffffffffffffffffffffffffffffffffffff021916908373ffffffffffffffffffffffffffffffffffffffff1602179055506000600460009054906101000a900473ffffffffffffffffffffffffffffffffffffffff1673ffffffffffffffffffffffffffffffffffffffff1663a9059cbb600360009054906101000a900473ffffffffffffffffffffffffffffffffffffffff16600460009054906101000a900473ffffffffffffffffffffffffffffffffffffffff1673ffffffffffffffffffffffffffffffffffffffff166370a08231306040518263ffffffff1660e01b81526004016103d19190610965565b60206040518083038186803b1580156103e957600080fd5b505afa1580156103fd573d6000803e3d6000fd5b505050506040513d601f19601f820116820180604052508101906104219190610c1f565b6040518363ffffffff1660e01b815260040161043e929190610c4c565b602060405180830381600087803b15801561045857600080fd5b505af115801561046c573d6000803e3d6000fd5b505050506040513d601f19601f820116820180604052508101906104909190610cad565b9050806104d2576040517f08c379a00000000000000000000000000000000000000000000000000000000081526004016104c990610d26565b60405180910390fd5b600260006104e091906108b2565b60008081905550505050565b6000600280549050905090565b60005481565b600160009054906101000a900473ffffffffffffffffffffffffffffffffffffffff1681565b600160009054906101000a900473ffffffffffffffffffffffffffffffffffffffff1673ffffffffffffffffffffffffffffffffffffffff163373ffffffffffffffffffffffffffffffffffffffff161461057f57600080fd5b60005b60028054905081101561069257600460009054906101000a900473ffffffffffffffffffffffffffffffffffffffff1673ffffffffffffffffffffffffffffffffffffffff1663a9059cbb600283815481106105e1576105e0610bdb565b5b9060005260206000200160009054906101000a900473ffffffffffffffffffffffffffffffffffffffff166101f46040518363ffffffff1660e01b815260040161062c929190610c4c565b602060405180830381600087803b15801561064657600080fd5b505af115801561065a573d6000803e3d6000fd5b505050506040513d601f19601f8201168201806040525081019061067e9190610cad565b50808061068a90610d75565b915050610582565b50600260006106a191906108b2565b60008081905550565b600460009054906101000a900473ffffffffffffffffffffffffffffffffffffffff1681565b6000600460009054906101000a900473ffffffffffffffffffffffffffffffffffffffff1673ffffffffffffffffffffffffffffffffffffffff166323b872dd33306101f46040518463ffffffff1660e01b815260040161073393929190610dbe565b602060405180830381600087803b15801561074d57600080fd5b505af1158015610761573d6000803e3d6000fd5b505050506040513d601f19601f820116820180604052508101906107859190610cad565b9050806107c7576040517f08c379a00000000000000000000000000000000000000000000000000000000081526004016107be90610e41565b60405180910390fd5b6002339080600181540180825580915050600190039060005260206000200160009091909190916101000a81548173ffffffffffffffffffffffffffffffffffffffff021916908373ffffffffffffffffffffffffffffffffffffffff1602179055506101f460008082825461083d9190610e61565b9250508190555050565b600360009054906101000a900473ffffffffffffffffffffffffffffffffffffffff1681565b6101f481565b6002818154811061088357600080fd5b906000526020600020016000915054906101000a900473ffffffffffffffffffffffffffffffffffffffff1681565b50805460008255906000526020600020908101906108d091906108d3565b50565b5b808211156108ec5760008160009055506001016108d4565b5090565b6000819050919050565b610903816108f0565b82525050565b600060208201905061091e60008301846108fa565b92915050565b600073ffffffffffffffffffffffffffffffffffffffff82169050919050565b600061094f82610924565b9050919050565b61095f81610944565b82525050565b600060208201905061097a6000830184610956565b92915050565b6000819050919050565b60006109a56109a061099b84610924565b610980565b610924565b9050919050565b60006109b78261098a565b9050919050565b60006109c9826109ac565b9050919050565b6109d9816109be565b82525050565b60006020820190506109f460008301846109d0565b92915050565b600080fd5b610a08816108f0565b8114610a1357600080fd5b50565b600081359050610a25816109ff565b92915050565b600060208284031215610a4157610a406109fa565b5b6000610a4f84828501610a16565b91505092915050565b600082825260208201905092915050565b7f4e6f20706c6179657220696e766f6c76656420696e207468652067616d650000600082015250565b6000610a9f601e83610a58565b9150610aaa82610a69565b602082019050919050565b60006020820190508181036000830152610ace81610a92565b9050919050565b6000819050919050565b610af0610aeb826108f0565b610ad5565b82525050565b60008160601b9050919050565b6000610b0e82610af6565b9050919050565b6000610b2082610b03565b9050919050565b610b38610b3382610944565b610b15565b82525050565b6000610b4a8286610adf565b602082019150610b5a8285610b27565b601482019150610b6a8284610adf565b602082019150819050949350505050565b7f4e487b7100000000000000000000000000000000000000000000000000000000600052601260045260246000fd5b6000610bb5826108f0565b9150610bc0836108f0565b925082610bd057610bcf610b7b565b5b828206905092915050565b7f4e487b7100000000000000000000000000000000000000000000000000000000600052603260045260246000fd5b600081519050610c19816109ff565b92915050565b600060208284031215610c3557610c346109fa565b5b6000610c4384828501610c0a565b91505092915050565b6000604082019050610c616000830185610956565b610c6e60208301846108fa565b9392505050565b60008115159050919050565b610c8a81610c75565b8114610c9557600080fd5b50565b600081519050610ca781610c81565b92915050565b600060208284031215610cc357610cc26109fa565b5b6000610cd184828501610c98565b91505092915050565b7f5472616e73666572206661696c65640000000000000000000000000000000000600082015250565b6000610d10600f83610a58565b9150610d1b82610cda565b602082019050919050565b60006020820190508181036000830152610d3f81610d03565b9050919050565b7f4e487b7100000000000000000000000000000000000000000000000000000000600052601160045260246000fd5b6000610d80826108f0565b91507fffffffffffffffffffffffffffffffffffffffffffffffffffffffffffffffff821415610db357610db2610d46565b5b600182019050919050565b6000606082019050610dd36000830186610956565b610de06020830185610956565b610ded60408301846108fa565b949350505050565b7f5472616e7366657246726f6d206661696c656400000000000000000000000000600082015250565b6000610e2b601383610a58565b9150610e3682610df5565b602082019050919050565b60006020820190508181036000830152610e5a81610e1e565b9050919050565b6000610e6c826108f0565b9150610e77836108f0565b9250827fffffffffffffffffffffffffffffffffffffffffffffffffffffffffffffffff03821115610eac57610eab610d46565b5b82820190509291505056fea26469706673582212202ab6cc7b8f2732637be65fe57e508c1f5b122a96f7cb9ad0877686bbe6ed0fa564736f6c6343000809003360806040523480156200001157600080fd5b5060405162001a1f38038062001a1f8339818101604052810190620000379190620002c2565b818181600390805190602001906200005192919062000075565b5080600490805190602001906200006a92919062000075565b5050505050620003ac565b828054620000839062000376565b90600052602060002090601f016020900481019282620000a75760008555620000f3565b82601f10620000c257805160ff1916838001178555620000f3565b82800160010185558215620000f3579182015b82811115620000f2578251825591602001919060010190620000d5565b5b50905062000102919062000106565b5090565b5b808211156200012157600081600090555060010162000107565b5090565b6000604051905090565b600080fd5b600080fd5b600080fd5b600080fd5b6000601f19601f8301169050919050565b7f4e487b7100000000000000000000000000000000000000000000000000000000600052604160045260246000fd5b6200018e8262000143565b810181811067ffffffffffffffff82111715620001b057620001af62000154565b5b80604052505050565b6000620001c562000125565b9050620001d3828262000183565b919050565b600067ffffffffffffffff821115620001f657620001f562000154565b5b620002018262000143565b9050602081019050919050565b60005b838110156200022e57808201518184015260208101905062000211565b838111156200023e576000848401525b50505050565b60006200025b6200025584620001d8565b620001b9565b9050828152602081018484840111156200027a57620002796200013e565b5b620002878482856200020e565b509392505050565b600082601f830112620002a757620002a662000139565b5b8151620002b984826020860162000244565b91505092915050565b60008060408385031215620002dc57620002db6200012f565b5b600083015167ffffffffffffffff811115620002fd57620002fc62000134565b5b6200030b858286016200028f565b925050602083015167ffffffffffffffff8111156200032f576200032e62000134565b5b6200033d858286016200028f565b9150509250929050565b7f4e487b7100000000000000000000000000000000000000000000000000000000600052602260045260246000fd5b600060028204905060018216806200038f57607f821691505b60208210811415620003a657620003a562000347565b5b50919050565b61166380620003bc6000396000f3fe608060405234801561001057600080fd5b50600436106100cf5760003560e01c8063395093511161008c578063a457c2d711610066578063a457c2d714610216578063a9059cbb14610246578063dd62ed3e14610276578063f4cdda36146102a6576100cf565b8063395093511461019857806370a08231146101c857806395d89b41146101f8576100cf565b806306fdde03146100d4578063095ea7b3146100f257806318160ddd1461012257806323b872dd14610140578063313ce567146101705780633884d6351461018e575b600080fd5b6100dc6102d6565b6040516100e99190610e1f565b60405180910390f35b61010c60048036038101906101079190610eda565b610368565b6040516101199190610f35565b60405180910390f35b61012a61038b565b6040516101379190610f5f565b60405180910390f35b61015a60048036038101906101559190610f7a565b610395565b6040516101679190610f35565b60405180910390f35b6101786103c4565b6040516101859190610fe9565b60405180910390f35b6101966103cd565b005b6101b260048036038101906101ad9190610eda565b6104c6565b6040516101bf9190610f35565b60405180910390f35b6101e260048036038101906101dd9190611004565b6104fd565b6040516101ef9190610f5f565b60405180910390f35b610200610545565b60405161020d9190610e1f565b60405180910390f35b610230600480360381019061022b9190610eda565b6105d7565b60405161023d9190610f35565b60405180910390f35b610260600480360381019061025b9190610eda565b61064e565b60405161026d9190610f35565b60405180910390f35b610290600480360381019061028b9190611031565b610671565b60405161029d9190610f5f565b60405180910390f35b6102c060048036038101906102bb9190611004565b6106f8565b6040516102cd9190610f35565b60405180910390f35b6060600380546102e5906110a0565b80601f0160208091040260200160405190810160405280929190818152602001828054610311906110a0565b801561035e5780601f106103335761010080835404028352916020019161035e565b820191906000526020600020905b81548152906001019060200180831161034157829003601f168201915b5050505050905090565b60008061037361074e565b9050610380818585610756565b600191505092915050565b6000600254905090565b6000806103a061074e565b90506103ad858285610921565b6103b88585856109ad565b60019150509392505050565b60006012905090565b60001515600560003373ffffffffffffffffffffffffffffffffffffffff1673ffffffffffffffffffffffffffffffffffffffff16815260200190815260200160002060009054906101000a900460ff16151514610460576040517f08c379a000000000000000000000000000000000000000000000000000000000815260040161045790611144565b60405180910390fd5b61046c33612710610c25565b6001600560003373ffffffffffffffffffffffffffffffffffffffff1673ffffffffffffffffffffffffffffffffffffffff16815260200190815260200160002060006101000a81548160ff021916908315150217905550565b6000806104d161074e565b90506104f28185856104e38589610671565b6104ed9190611193565b610756565b600191505092915050565b60008060008373ffffffffffffffffffffffffffffffffffffffff1673ffffffffffffffffffffffffffffffffffffffff168152602001908152602001600020549050919050565b606060048054610554906110a0565b80601f0160208091040260200160405190810160405280929190818152602001828054610580906110a0565b80156105cd5780601f106105a2576101008083540402835291602001916105cd565b820191906000526020600020905b8154815290600101906020018083116105b057829003601f168201915b5050505050905090565b6000806105e261074e565b905060006105f08286610671565b905083811015610635576040517f08c379a000000000000000000000000000000000000000000000000000000000815260040161062c9061125b565b60405180910390fd5b6106428286868403610756565b60019250505092915050565b60008061065961074e565b90506106668185856109ad565b600191505092915050565b6000600160008473ffffffffffffffffffffffffffffffffffffffff1673ffffffffffffffffffffffffffffffffffffffff16815260200190815260200160002060008373ffffffffffffffffffffffffffffffffffffffff1673ffffffffffffffffffffffffffffffffffffffff16815260200190815260200160002054905092915050565b6000600560008373ffffffffffffffffffffffffffffffffffffffff1673ffffffffffffffffffffffffffffffffffffffff16815260200190815260200160002060009054906101000a900460ff169050919050565b600033905090565b600073ffffffffffffffffffffffffffffffffffffffff168373ffffffffffffffffffffffffffffffffffffffff1614156107c6576040517f08c379a00000000000000000000000000000000000000000000000000000000081526004016107bd906112ed565b60405180910390fd5b600073ffffffffffffffffffffffffffffffffffffffff168273ffffffffffffffffffffffffffffffffffffffff161415610836576040517f08c379a000000000000000000000000000000000000000000000000000000000815260040161082d9061137f565b60405180910390fd5b80600160008573ffffffffffffffffffffffffffffffffffffffff1673ffffffffffffffffffffffffffffffffffffffff16815260200190815260200160002060008473ffffffffffffffffffffffffffffffffffffffff1673ffffffffffffffffffffffffffffffffffffffff168152602001908152602001600020819055508173ffffffffffffffffffffffffffffffffffffffff168373ffffffffffffffffffffffffffffffffffffffff167f8c5be1e5ebec7d5bd14f71427d1e84f3dd0314c0f7b2291e5b200ac8c7c3b925836040516109149190610f5f565b60405180910390a3505050565b600061092d8484610671565b90507fffffffffffffffffffffffffffffffffffffffffffffffffffffffffffffffff81146109a75781811015610999576040517f08c379a0000000000000000000000000000000000000000000000000000000008152600401610990906113eb565b60405180910390fd5b6109a68484848403610756565b5b50505050565b600073ffffffffffffffffffffffffffffffffffffffff168373ffffffffffffffffffffffffffffffffffffffff161415610a1d576040517f08c379a0000000000000000000000000000000000000000000000000000000008152600401610a149061147d565b60405180910390fd5b600073ffffffffffffffffffffffffffffffffffffffff168273ffffffffffffffffffffffffffffffffffffffff161415610a8d576040517f08c379a0000000000000000000000000000000000000000000000000000000008152600401610a849061150f565b60405180910390fd5b610a98838383610d7c565b60008060008573ffffffffffffffffffffffffffffffffffffffff1673ffffffffffffffffffffffffffffffffffffffff16815260200190815260200160002054905081811015610b1e576040517f08c379a0000000000000000000000000000000000000000000000000000000008152600401610b15906115a1565b60405180910390fd5b8181036000808673ffffffffffffffffffffffffffffffffffffffff1673ffffffffffffffffffffffffffffffffffffffff16815260200190815260200160002081905550816000808573ffffffffffffffffffffffffffffffffffffffff1673ffffffffffffffffffffffffffffffffffffffff168152602001908152602001600020600082825401925050819055508273ffffffffffffffffffffffffffffffffffffffff168473ffffffffffffffffffffffffffffffffffffffff167fddf252ad1be2c89b69c2b068fc378daa952ba7f163c4a11628f55a4df523b3ef84604051610c0c9190610f5f565b60405180910390a3610c1f848484610d81565b50505050565b600073ffffffffffffffffffffffffffffffffffffffff168273ffffffffffffffffffffffffffffffffffffffff161415610c95576040517f08c379a0000000000000000000000000000000000000000000000000000000008152600401610c8c9061160d565b60405180910390fd5b610ca160008383610d7c565b8060026000828254610cb39190611193565b92505081905550806000808473ffffffffffffffffffffffffffffffffffffffff1673ffffffffffffffffffffffffffffffffffffffff168152602001908152602001600020600082825401925050819055508173ffffffffffffffffffffffffffffffffffffffff16600073ffffffffffffffffffffffffffffffffffffffff167fddf252ad1be2c89b69c2b068fc378daa952ba7f163c4a11628f55a4df523b3ef83604051610d649190610f5f565b60405180910390a3610d7860008383610d81565b5050565b505050565b505050565b600081519050919050565b600082825260208201905092915050565b60005b83811015610dc0578082015181840152602081019050610da5565b83811115610dcf576000848401525b50505050565b6000601f19601f8301169050919050565b6000610df182610d86565b610dfb8185610d91565b9350610e0b818560208601610da2565b610e1481610dd5565b840191505092915050565b60006020820190508181036000830152610e398184610de6565b905092915050565b600080fd5b600073ffffffffffffffffffffffffffffffffffffffff82169050919050565b6000610e7182610e46565b9050919050565b610e8181610e66565b8114610e8c57600080fd5b50565b600081359050610e9e81610e78565b92915050565b6000819050919050565b610eb781610ea4565b8114610ec257600080fd5b50565b600081359050610ed481610eae565b92915050565b60008060408385031215610ef157610ef0610e41565b5b6000610eff85828601610e8f565b9250506020610f1085828601610ec5565b9150509250929050565b60008115159050919050565b610f2f81610f1a565b82525050565b6000602082019050610f4a6000830184610f26565b92915050565b610f5981610ea4565b82525050565b6000602082019050610f746000830184610f50565b92915050565b600080600060608486031215610f9357610f92610e41565b5b6000610fa186828701610e8f565b9350506020610fb286828701610e8f565b9250506040610fc386828701610ec5565b9150509250925092565b600060ff82169050919050565b610fe381610fcd565b82525050565b6000602082019050610ffe6000830184610fda565b92915050565b60006020828403121561101a57611019610e41565b5b600061102884828501610e8f565b91505092915050565b6000806040838503121561104857611047610e41565b5b600061105685828601610e8f565b925050602061106785828601610e8f565b9150509250929050565b7f4e487b7100000000000000000000000000000000000000000000000000000000600052602260045260246000fd5b600060028204905060018216806110b857607f821691505b602082108114156110cc576110cb611071565b5b50919050565b7f5468697320757365722068617320636c61696d65642061697264726f7020616c60008201527f7265616479000000000000000000000000000000000000000000000000000000602082015250565b600061112e602583610d91565b9150611139826110d2565b604082019050919050565b6000602082019050818103600083015261115d81611121565b9050919050565b7f4e487b7100000000000000000000000000000000000000000000000000000000600052601160045260246000fd5b600061119e82610ea4565b91506111a983610ea4565b9250827fffffffffffffffffffffffffffffffffffffffffffffffffffffffffffffffff038211156111de576111dd611164565b5b828201905092915050565b7f45524332303a2064656372656173656420616c6c6f77616e63652062656c6f7760008201527f207a65726f000000000000000000000000000000000000000000000000000000602082015250565b6000611245602583610d91565b9150611250826111e9565b604082019050919050565b6000602082019050818103600083015261127481611238565b9050919050565b7f45524332303a20617070726f76652066726f6d20746865207a65726f2061646460008201527f7265737300000000000000000000000000000000000000000000000000000000602082015250565b60006112d7602483610d91565b91506112e28261127b565b604082019050919050565b60006020820190508181036000830152611306816112ca565b9050919050565b7f45524332303a20617070726f766520746f20746865207a65726f20616464726560008201527f7373000000000000000000000000000000000000000000000000000000000000602082015250565b6000611369602283610d91565b91506113748261130d565b604082019050919050565b600060208201905081810360008301526113988161135c565b9050919050565b7f45524332303a20696e73756666696369656e7420616c6c6f77616e6365000000600082015250565b60006113d5601d83610d91565b91506113e08261139f565b602082019050919050565b60006020820190508181036000830152611404816113c8565b9050919050565b7f45524332303a207472616e736665722066726f6d20746865207a65726f20616460008201527f6472657373000000000000000000000000000000000000000000000000000000602082015250565b6000611467602583610d91565b91506114728261140b565b604082019050919050565b600060208201905081810360008301526114968161145a565b9050919050565b7f45524332303a207472616e7366657220746f20746865207a65726f206164647260008201527f6573730000000000000000000000000000000000000000000000000000000000602082015250565b60006114f9602383610d91565b91506115048261149d565b604082019050919050565b60006020820190508181036000830152611528816114ec565b9050919050565b7f45524332303a207472616e7366657220616d6f756e742065786365656473206260008201527f616c616e63650000000000000000000000000000000000000000000000000000602082015250565b600061158b602683610d91565b91506115968261152f565b604082019050919050565b600060208201905081810360008301526115ba8161157e565b9050919050565b7f45524332303a206d696e7420746f20746865207a65726f206164647265737300600082015250565b60006115f7601f83610d91565b9150611602826115c1565b602082019050919050565b60006020820190508181036000830152611626816115ea565b905091905056fea264697066735822122017a82cf0aa90f5246c8d7bf0b71328ed031841483446ed251d93d818c560271a64736f6c63430008090033",
  "linkReferences": {},
  "deployedLinkReferences": {}
}